:020000040800F2
:1000000008130020050100086D2F00081F2C0008B0
:10001000692F0008CB040008E94200080000000036
:10002000000000000000000000000000853A000809
:10003000DD07000800000000E5350008493E000823
:100040001F0100081F0100081F0100081F01000810
:100050001F0100081F0100081F0100081F01000800
:100060001F0100081F0100081F0100081F010008F0
:100070001F010008D10400081F0100081F0100082B
:100080001F0100081F0100081F0100081F010008D0
:100090001F0100081F0100081F0100081F010008C0
:1000A0001F0100081F0100081F0100081F010008B0
:1000B0001F0100081F010008000000001F010008C8
:1000C0001F01000800000000000000001F010008E0
:1000D000000000001F0100081F01000800000000D0
:1000E0001F0100081F0100081F010008DFF810D0E1
:1000F00000F07CF900480047BD430008AFF30080E2
:10010000081300200648804706480047FEE7FEE740
:10011000FEE7FEE7FEE7FEE7FEE7FEE7FEE7FEE7B7
:10012000DF3E0008ED0000082DE9F05F05460020E5
:1001300092469B4688460646814640241BE0284658
:1001400041464746224600F020F853465A46C01A18
:10015000914110D311461846224600F0DAF82D1AC4
:1001600067EB01084F4622460120002100F0D1F83C
:1001700017EB00094E41201EA4F10104DFDC4846C4
:1001800031462A464346BDE8F09F202A04DB203A48
:1001900021FA02F00021704721FA02F3D040C2F1A7
:1001A00020029140084319467047D2B201E000F89E
:1001B000012B491EFBD270470022F6E710B513460B
:1001C0000A4604461946FFF7F0FF204610BD2DE908
:1001D000FE4F81EA030404F0004421F00041009442
:1001E0004FF0000B23F0004350EA01045ED052EAC6
:1001F00003045BD0C3F30A54C1F30A552C44A4F2A0
:10020000F3340194A0FB0254C1F3130141F48011B3
:10021000C3F3130343F4801301FB024400FB034EBA
:10022000840A970A44EA815447EA8357A4FB076883
:1002300002958D0A05FB07854FEA932C04FB0C54AD
:100240002705029D4FEA065847EA1637B5EB080521
:100250006EEB070C870E920E47EA811742EA831273
:10026000A7FB0201B6EB0B0164EB00042B0D43EA84
:100270000C335E1844EB1C50DA465146E7FB020192
:10028000C5F313044FEA0B3343EA14534FEA043225
:10029000019C43EA0603A4F10C040294009CCDE9FE
:1002A00000B400F054F803B0BDE8F08F0020014620
:1002B000F9E70EB5C10F80EAE0700844CA070021D3
:1002C00040F233438DE80E000A460B4600F03FF83B
:1002D00003B000BD70B5C1F30A5201F0004500241F
:1002E000C1F3130140F2FF3341F480119A4201DA65
:1002F000002070BD40F233439A42A2F2334203DC45
:100300005242FFF742FF00E090402C43F1D04042C0
:1003100070BD202A04DB203A00FA02F10020704769
:100320009140C2F1200320FA03F319439040704733
:1003300010B5141E73F1000408DA401C41F10001ED
:1003400092185B411A4301D120F0010010BD2DE944
:10035000F04D92469B4611B1B1FA81F202E0B0FA3B
:1003600080F220329046FFF7D4FF04460F4640EA61
:100370000A0041EA0B0153465A46084313D011467E
:1003800053EA010019D0C8F140025046FFF7FDFEC4
:1003900005460E46504659464246FFF7BAFF084307
:1003A00005D0012004E020463946BDE8F08D00204C
:1003B000054346EAE0762C4337430A986305E40A8E
:1003C000A0EB08000022FD0A44EA47540A3002D597
:1003D00000200146E9E7010510196941DDE90845FA
:1003E00000196941BDE8F04DA2E70000064C074D39
:1003F00006E0E06840F0010394E8070098471034F5
:10040000AC42F6D3FFF776FE84670008A4670008C5
:1004100070B58D1810F8014B14F0030201D110F8DB
:10042000012B231106D110F8013B03E010F8016BFA
:1004300001F8016B521EF9D1ABB110F8012B04F099
:100440000C048A1A0C2C03D0A2EB84129B1C08E02B
:1004500010F8014BA2EB0422F8E712F8014B01F867
:10046000014B5B1EF9D5A942D4D3002070BD70B5F5
:10047000044600252068806800F0010018B3206859
:10048000806820F001002168886000F0AFFE05461A
:1004900013E000F0ABFE401B02280ED920688068F4
:1004A00000F0010048B1A06A40F01000A062E06ACC
:1004B00040F00100E062012070BD2068806800F01B
:1004C00001000028E5D10020F6E700BFFEE70000AC
:1004D00010B5024800F09AFB10BD0000EC090020A6
:1004E00030B590F840500124AC40C56B6C60046896
:1004F00063604468102C04D10468A2600468E16061
:1005000003E00468A1600468E26030BD10B5002417
:100510001548006820F070401349086008460068DC
:1005200040F00040086004E0601CC4B2012003F009
:1005300021FF0E48006808B1C82CF5DBC82C01DB90
:10054000012010BD002404E0601CC4B2012003F0AF
:1005500011FF0648006808B9F02CF5DBF02C01DB30
:100560000120EEE70020ECE7040801403C012142B5
:100570002DE9F05F00F0D0F800F0ACF8FFF7C6FF0F
:10058000CC2000F0D5F8BE2000F0D2F800F090F8B2
:10059000834600F08DF80446072C08DDE043C4B222
:1005A0006FEA0B0000F0FF0B4FF0000A01E04FF084
:1005B000010AA1464FEA09200FFA80F909EB0B0066
:1005C0000FFA80F94846FFF774FE07460022094BF0
:1005D000FFF7FDFD0546FFF77DFE0FFA80F9BAF142
:1005E000000F02D04846BDE8F09FC9F1000000B2FC
:1005F000F9E700000000E43F00B585B000BF0F48F8
:10060000806940F004000D4988610846806900F067
:100610000400009000BF00BF4FF400400190012093
:10062000029003900320049001A9054800F052FCB9
:1006300000F050F8FFF76AFF05B000BD001002405F
:100640000008014010B51748006820F070401549B7
:1006500008600846006840F04050086000201249D9
:100660000860022003F086FE01201049C1F8BC0199
:100670000C48006820F070400A490860084600688D
:1006800040F0004008600C2003F074FE06488038FB
:10069000006808B1012400E00024322003F06AFE63
:1006A000204610BD04080140BC0121420000214247
:1006B00070B50026012508E0FFF7C4FF0446E001FD
:1006C00040EA6600C6B2681CC5B2082DF4DD3046AB
:1006D00070BD000010B50D48006820F070400B4957
:1006E00008600846006840F0405008600020084953
:1006F000086040F2EE2003F03DFE01200549C1F8FC
:10070000BC010F2003F036FE10BD000004080140BC
:10071000BC0121420000214210B5FFF7DBFFFFF7CB
:10072000F5FECC2000F004F8442000F001F810BDE4
:1007300070B504461848006820F0704016490860FB
:100740000846006840F040500860012520E004F0B1
:10075000010664106EB1002010490860022003F009
:1007600009FE01200E49C1F8BC013C2003F002FE45
:100770000CE00020094908603C2003F0FBFD01204B
:100780000749C1F8BC01022003F0F4FD681CC5B2A2
:10079000082DDCDD70BD000004080140BC012142D1
:1007A000000021420B48006800F0807028B9094819
:1007B000006840F08070074908600748006800F052
:1007C000010028B90448006840F0010002490860AF
:1007D00070470000FCED00E0001000E070470000F2
:1007E0002DE9F04105460E46174600245EE004EB75
:1007F0008400304901EB8000007C88B304EB840066
:1008000051F82000A8422CD104EB840001EB8000B9
:100810004068B04225D100F0E9FC04EB8401254A90
:1008200002EB8101C968401A04EB840102EB8101EB
:100830008968884212D300F0D9FC04EB84011D4A78
:1008400002EB8101C86004EB84021A4B03EB8202C5
:10085000506804EB840253F822108847BDE8F08109
:10086000FFE704EB8400134901EB8000007CE0B952
:1008700004EB840041F8205004EB840001EB80007D
:10088000466004EB840001EB8000876000F0AEFC62
:1008900004EB8401074A02EB8101C860012004EBEC
:1008A000840102EB81010874D8E7641C062C9EDBEE
:1008B00000BFD3E78408002010B50446207A08B9A9
:1008C000012010BD00F092FC2168401A6168884246
:1008D00003D3002020720120F3E70020F1E770B578
:1008E00004460D4600F082FC206065600120207205
:1008F00070BD72B600BFFEE738B502460023002087
:10090000009000BF92F82400012801D1022038BDD8
:10091000012082F8240000BF4868072812D210681E
:10092000406B0C79641E04EB84051F24AC40A0438B
:100930000D796D1E05EB85050C68AC4020431468ED
:10094000606327E048680D2812D21068006B0C79AC
:10095000E41F04EB84051F24AC40A0430D79ED1F78
:1009600005EB85050C68AC4020431468206311E05A
:100970001068C06A0C790D3C04EB84051F24AC4060
:10098000A0430D790D3D05EB85050C68AC40204377
:100990001468E06208680A2812D31068C0680C78EE
:1009A0000A3C04EB44050724AC40A0430D780A3D03
:1009B00005EB45058C68AC4020431468E0600FE00F
:1009C000106800690C7804EB44050724AC40A04390
:1009D0000D7805EB45058C68AC4020431468206118
:1009E0000868102802D00868112827D1174C106811
:1009F000A0421ED11068806800F40000F0B91068B1
:100A0000806840F400001468A0600868102815D1C0
:100A10000F4800680F4CB0FBF4F000EB8000400082
:100A2000009002E00098401E009000980028F9D144
:100A300004E0906A40F020009062012300BF002093
:100A400082F8240000BF184661E70000002401403E
:100A50006C08002040420F002DE9F04104460027B9
:100A600000250026A84614B90120BDE8F081A06841
:100A700010B1207D00B100BFA06A30B90020E06253
:100A800084F82400204600F089F82046FFF7EFFCA8
:100A90000746A06A00F01000002873D1002F71D122
:100AA000A06A20F4885040F00200A062E16960680A
:100AB0000843217B40EA41000643A068B0F5807FEF
:100AC00002D0A068012802D14FF4807000E000201D
:100AD0000543207D012811D1207B38B9A069401E33
:100AE0004FF4006141EA4030054307E0A06A40F05E
:100AF0002000A062E06A40F00100E06220684068E7
:100B000020F46940284321684860206880682149B2
:100B10000840304321688860A068B0F5807F02D02B
:100B2000A068012802D14FF4807000E00020B0F5E9
:100B3000807F03D1208A401E4FEA00582068C06A97
:100B400020F4700040EA08002168C86220688068CC
:100B500011490840B04208D10020E062A06A20F0AC
:100B6000020040F00100A06211E0A06A20F0020043
:100B700040F01000A062E06A40F00100E06201274E
:100B800005E0FFE7A06A40F01000A06201273846A8
:100B90006BE70000FDF7E1FFFE0E1FFF10B586B00A
:100BA00004460020029003900490059014492068A8
:100BB000884222D100BF1348806940F40070114977
:100BC00088610846806900F40070019000BF00BF92
:100BD00000BF0846806940F00400886108468069CB
:100BE00000F00400019000BF00BF0220029003202B
:100BF000039002A9044800F06DF906B010BD000092
:100C000000240140001002400008014070B5044675
:100C1000E06B05682068066894F84010042088405E
:100C20002840002846D006F00400002842D0206862
:100C3000006800F0200028B92068006820F0040057
:100C40002168086057492068884201D1042027E0C4
:100C5000544914312068884201D1402020E0514994
:100C600028312068884201D1001519E04D493C31F6
:100C70002068884202D14FF4804011E04949503148
:100C80002068884202D14FF4802009E04549643150
:100C90002068884202D14FF4800001E04FF080606C
:100CA000404908394860E06A00287AD02046E16A65
:100CB000884776E094F84010022088402840A0B38E
:100CC00006F0020088B32068006800F0200040B9F8
:100CD0002068006820F00A0021680860012084F87C
:100CE000210030492068884201D1022028E02D49A6
:100CF00014312068884201D1202021E0294928317F
:100D00002068884201D140151AE026493C3120680C
:100D1000884202D14FF4005012E02249503120683D
:100D2000884203D14FF400300AE017E01D496431D6
:100D30002068884202D14FF4001001E04FF00070AB
:100D400018490839486000BF002084F8200000BF1F
:100D5000A06A30B32046A16A884722E094F8401088
:100D6000082088402840E0B106F00800C8B120689B
:100D7000006820F00E002168086094F840100120FF
:100D80008840E16B48600120A06384F8210000BF27
:100D9000002084F8200000BF206B10B12046216B9A
:100DA000884770BD080002400146002209B90120B1
:100DB0007047164B0868C01A1423B0FBF3F080008C
:100DC000086412480838C863022081F821000868C6
:100DD000026843F6F0708243D1E901031843CB68FF
:100DE00018430B6918434B6918438B691843CB6947
:100DF000184302430868026000208863012081F8DC
:100E00002100002081F8200000BFD1E70800024047
:100E10002DE9F04104460D4616461F464FF00008E6
:100E200000BF94F82000012802D10220BDE8F08123
:100E3000012084F8200000BF94F8210001282CD163
:100E4000022084F821000020A0632068006820F0C0
:100E50000100216808603B46324629462046FFF7DC
:100E60003FFBE06A30B12068006840F00E00216866
:100E700008600BE02068006820F00400216808602A
:100E80002068006840F00A00216808602068006857
:100E900040F001002168086006E000BF002084F8EF
:100EA000200000BF4FF002084046BFE770B504467F
:100EB00000F09CF906462546681C10B104480078ED
:100EC000054400BF00F092F9801BA842FAD370BD20
:100ED000680800202DE9F84703460022944666E1A1
:100EE0004FF0010808FA02F4D1F8008008EA040083
:100EF000A0427DD1DFF8CCA2D1F80480A8EB0A098A
:100F0000D0453AD014DCB8F1030F50D009DCB8F169
:100F1000000F31D0B8F1010F1CD0B8F1020F49D148
:100F200020E0B8F1110F18D0B8F1120F42D11EE035
:100F3000B9F5881F25D006DCB9F5803F20D0B9F57A
:100F4000801F37D11AE0B9F5001F18D0B9F5041F7A
:100F500030D117E0D1F80CC02DE0D1F80C8008F1A9
:100F6000040C28E0D1F80C8008F1080C23E0D1F83B
:100F70000C8008F10C0C1EE000BF00BF00BF00BFDA
:100F800000BF00BFD1F80880B8F1000F02D14FF0C8
:100F9000040C0BE0D1F80880B8F1010F03D14FF039
:100FA000080C1C6102E04FF0080C5C6103E04FF09C
:100FB000000C00E000BF00BFFF2801D8984601E008
:100FC00003F104084646FF2802D84FEA820803E0EE
:100FD000A2F108084FEA88084746D6F800804FF08B
:100FE0000F0909FA07F928EA09080CFA07F900E0DD
:100FF00085E048EA0908C6F80080D1F8048008F0C6
:101000008058B8F1805F7AD100BFDFF8BC81D8F892
:10101000188048F00108DFF8B091C9F81880C84678
:10102000D8F8188008F00108CDF8008000BF00BF94
:101030004FEAB9384FEA920958F829504FEA8278B6
:101040004FEA18794FF00F0808FA09F825EA080561
:10105000DFF87881434502D14FF000080FE0DFF858
:101060007081434502D14FF0010808E0DFF8648148
:10107000434502D14FF0020801E04FF003084FEA68
:1010800082794FEA197908FA09F848EA0505DFF884
:1010900048814FEA920948F82950D1F8048008F4B1
:1010A0008018B8F5801F0AD1DFF83081D8F80080A9
:1010B00048EA0008DFF82491C9F8008009E0DFF869
:1010C0001C81D8F8008028EA0008DFF81091C9F8E0
:1010D0000080D1F8048008F40018B8F5001F0FD183
:1010E000DFF8F88008F10408D8F8008048EA000822
:1010F000DFF8E89009F10409C9F800800EE055E036
:10110000DFF8D88008F10408D8F8008028EA000841
:10111000DFF8C89009F10409C9F80080D1F804800B
:1011200008F40038B8F5003F0ED1DFF8B080A8F120
:101130000408D8F8008048EA0008DFF8A090A9F178
:101140000409C9F800800DE0DFF89080A8F10408D8
:10115000D8F8008028EA0008DFF88090A9F1040997
:10116000C9F80080D1F8048008F48038B8F5803FD1
:101170000ED1DFF86880A8F10808D8F8008048EAA6
:101180000008DFF85890A9F10809C9F800800DE0BF
:10119000DFF84880A8F10808D8F8008028EA00089D
:1011A000DFF83890A9F10809C9F80080521CD1F87D
:1011B000008028FA02F8B8F1000F7FF491AEBDE884
:1011C000F8870000000011100010024000080140E4
:1011D000000C0140001001400800014008040140DB
:1011E0000AB1016101E00B04036170470148006826
:1011F000704700006008002070B504460CB901205B
:1012000070BD94F83D0028B9002084F83C002046C9
:1012100000F0DAF8242084F83D002068006820F00F
:101220000100216808602068006840F400402168DF
:1012300008602068006820F400402168086000F021
:10124000C5FB05465C496068884206D85B48854214
:1012500001D2012007E0002005E05948854201D273
:10126000012000E00020012800D1C9E75548B5FB66
:10127000F0F62068406820F03F0030432168486065
:101280004D496068884201D8701C07E04FF49670A1
:1012900070434FF47A71B0FBF1F0401C2168096A89
:1012A00021F03F0108432168086243496068884291
:1012B00014D8681E61684900B0FBF1F0401CC0F30F
:1012C0000B00042801D204203DE0681E616849003B
:1012D000B0FBF1F0401CC0F30B0034E0A06838B95B
:1012E000681E616801EB4101B0FBF1F0401C0AE0AF
:1012F000681E616801EBC10202EB0111B0FBF1F065
:10130000401C40F48040C0F30B0008B901201AE0F3
:10131000A06848B9681E616801EB4101B0FBF1F0BB
:10132000401CC0F30B000CE0681E616801EBC102B9
:1013300002EB0111B0FBF1F0401CC0F30B0040F4D4
:10134000804040F400402168C9694CF6FF72914327
:1013500008432168C861D4E9070108432168096886
:1013600021F0C001084321680860D4E90310084354
:101370002168896848F2FF329143084321688860F8
:10138000D4E9050108432168C96821F0FF01084339
:101390002168C8602068006840F00100216808608A
:1013A00000202064202084F83D000020206384F881
:1013B0003E0000BF24E70000A086010080841E00DC
:1013C00000093D0040420F0010B586B004460020E1
:1013D00002900390049005901B492068884231D107
:1013E00000BF1A48806940F0080018498861084623
:1013F000806900F00800019000BF00BF4FF440700A
:10140000029012200390002004900320059002A96E
:101410000F48FFF75FFD00BF0E49486840F0E060ED
:1014200040F00200486000BF00BF0848C06940F4B7
:1014300000100649C8610846C06900F40010019018
:1014400000BF00BF06B010BD0054004000100240B5
:10145000000C01400000014003480068034909787E
:1014600008440149086070476008002068080020AF
:1014700010B50848006840F01000064908600320D5
:1014800000F0A8F80F2000F007F800F02BF800207B
:1014900010BD00000020024070B504460E480078E0
:1014A0004FF47A71B1FBF0F00C490968B1FBF0F52B
:1014B000284601F08CF808B1012070BD102C07D22D
:1014C00000222146501E00F047F80548046001E064
:1014D0000120F2E70020F0E7680800206C080020F7
:1014E0006408002008B500BF1148806940F0010081
:1014F0000F4988610846806900F00100009000BF34
:1015000000BF00BF0846C06940F08050C86108466F
:10151000C06900F08050009000BF00BF00BF0549C7
:10152000486820F0E06040F00070486000BF08BDEF
:10153000001002400000014001460846002809DB77
:1015400000F01F0301229A4043099B0003F1E023AE
:10155000C3F8002100BF70472DE9F05F80460D46BB
:101560001646002702F0CAFE074639462A46334689
:1015700001F00700C0F1070ABAF1040F02D94FF0D9
:10158000040A01E0C0F1070AD14600F1040ABAF1E9
:10159000070F02D24FF0000A01E0A0F1030AD4467F
:1015A0004FF0010A0AFA09FAAAF1010A0AEA020A44
:1015B0000AFA0CFA4FF0010B0BFA0CFBABF1010B22
:1015C0000BEA030B4AEA0B042146404602F09EFE5A
:1015D000BDE8F09F00BF00F00702064B19684FF608
:1015E000FF031940044B0B4343EA0221014B1960EE
:1015F00000BF70470CED00E00000FA050120014932
:101600000862704700000E422DE9F04706464FF091
:101610000008002500270024A146012E31D0022E0B
:1016200056D0102E5FD132484468006800F08070B8
:1016300008B33048C4F38341475C04F4803078B188
:101640002B484068C0F340402B4911F8008004F457
:10165000803040B12948B0FBF8F000FB07F502E00C
:10166000274807FB00F52248406800F48000B0F5E9
:10167000800F01D1A94603E068000321B0FBF1F916
:1016800032E01B48046A04F44070B0F5807F05D155
:1016900004F0020010B14FF4004918E004F4407067
:1016A000B0F5007F07D11248406A00F0020010B187
:1016B00049F640490BE004F44070B0F5407F06D194
:1016C0000B48006800F4003008B14FF224490BE0E9
:1016D00000F08CF906494968C1F38131491C490081
:1016E000B0FBF1F900E000BF00BF4846BDE8F0875D
:1016F000001002400A4900081A49000800127A0046
:1017000000093D00F8B5044600260025207800F0C9
:10171000010000286BD000274348C06900F08050CA
:1017200070B900BF4048C06940F080503E49C86170
:101730000846C06900F08050009000BF00BF01273C
:101740003A48006800F48070B0B93848006840F446
:10175000807036490860FFF749FD064606E0FFF74E
:1017600045FD801B642801D90320F8BD2F4800687F
:1017700000F480700028F2D02B48006A00F4407515
:101780002DB3A08800F44070A84220D02648006AFB
:1017900020F4407501202649086000200860224896
:1017A000056205F0010090B1FFF720FD064608E054
:1017B000FFF71CFD801B41F28831884201D90320CC
:1017C000D3E71948006A00F002000028F0D016485C
:1017D000006A20F440706168084313490862012FD1
:1017E00004D10846C06920F08050C86100BF20784D
:1017F00000F00200022807D10B48406820F4404066
:10180000A168084308494860207800F010001028BB
:1018100007D10548406820F48000E1680843024988
:1018200048600020A1E70000001002400070004066
:101830004004424270B504460D460CB9012070BD0B
:101840005A48006800F00700A8420ED257480068C6
:1018500020F007002843554908600846006800F05A
:101860000700A84201D00120E9E7207800F002003B
:1018700002281DD1207800F00400042805D14C482E
:10188000406840F4E0604A494860207800F0080071
:10189000082805D14648406840F4605044494860F3
:1018A0004348406820F0F000A16808434049486080
:1018B000207800F0010078B36068012806D13C4828
:1018C000006800F4003090B90120B8E76068022891
:1018D00006D13748006800F0007040B90120AEE73B
:1018E0003348006800F0020008B90120A7E730483B
:1018F000406820F00300616808432D494860FFF705
:1019000075FC064609E0FFF771FC801B41F2883147
:10191000884202D9032092E707E02548406800F09A
:101920000C006168B0EB810FEDD12048006800F039
:101930000700A8420ED91D48006820F00700284380
:101940001A4908600846006800F00700A84201D064
:10195000012074E7207800F00400042807D114481F
:10196000406820F4E060E16808431149486020784D
:1019700000F00800082808D10D48406820F46050A5
:10198000216940EAC1000A49486000F03FF808496F
:101990004968C1F30311074A515CC8400649086011
:1019A00006480068FFF778FD002048E70020024065
:1019B000001002401C4900086C0800206408002048
:1019C00001480068704700006C08002000B5FFF770
:1019D000F7FF04494968C1F30221034A515CC8403A
:1019E00000BD0000001002402C49000800B5FFF7C0
:1019F000E7FF04494968C1F3C221034A515CC8406A
:101A000000BD0000001002402C49000870B5002104
:101A10000022002400230020134D696801F00C050A
:101A2000F5B1042D02D0082D19D101E00F4819E0BD
:101A30000F4DC1F38346AB5D01F4803555B10A4DBE
:101A40006D68C5F340450B4E725D084D5D43B5FBB7
:101A5000F2F402E0084D03FB05F4204602E000BF6B
:101A6000024800BF00BF70BD0010024000127A00A3
:101A7000F84800080849000800093D00F8B5044688
:101A80000CB90120F8BD207800F00100002878D0C2
:101A9000F848406800F00C0004280CD0F548406875
:101AA00000F00C00082811D1F248406800F48030A2
:101AB000B0F5803F0AD1EF48006800F400300028FC
:101AC0005FD0606800285CD10120DBE700BF606860
:101AD000B0F5803F06D1E748006840F48030E54922
:101AE000086028E0606858B9E248006820F4803057
:101AF000E04908600846006820F4802008601AE089
:101B00006068B0F5A02F0BD1DA48006840F480205F
:101B1000D84908600846006840F4803008600AE050
:101B2000D448006820F48030D24908600846006834
:101B300020F48020086000BF606888B1FFF756FB82
:101B4000054606E0FFF752FB401B642801D903203D
:101B500098E7C848006800F400300028F2D010E090
:101B6000FFF744FB054606E0FFF740FB401B6428F7
:101B700001D9032086E7BF48006800F40030002840
:101B8000F2D1207800F00200022857D1B94840680D
:101B900000F00C0050B1B748406800F00C00082875
:101BA00018D1B448406800F4803098B9B148006852
:101BB00000F0020020B12069012801D0012061E776
:101BC000AC48006820F0F800616940EAC100A9490A
:101BD000086033E02069E8B10120A7490860FFF7F9
:101BE00005FB054606E0FFF701FB401B022801D973
:101BF000032047E79F48006800F002000028F2D069
:101C00009C48006820F0F800616940EAC1009949E9
:101C1000086013E0002098490860FFF7E7FA0546DE
:101C200006E0FFF7E3FA401B022801D9032029E769
:101C30009048006800F002000028F2D1207800F0FF
:101C4000080008282DD1A069B8B101208B4908608F
:101C5000FFF7CCFA054606E0FFF7C8FA401B02285A
:101C600001D903200EE78348406A00F002000028F3
:101C7000F2D0012001F0B8FC13E000207F49086099
:101C8000FFF7B4FA054606E0FFF7B0FA401B02285A
:101C900001D90320F6E67748406A00F002000028E8
:101CA000F2D1207800F00400042873D10027714895
:101CB000C06900F0805070B900BF6E48C06940F044
:101CC00080506C49C8610846C06900F0805000909F
:101CD00000BF00BF01276A48006800F48070B0B9F7
:101CE0006748006840F4807065490860FFF77EFA35
:101CF000054606E0FFF77AFA401B642801D9032065
:101D0000C0E65F48006800F480700028F2D000BF91
:101D1000E068012806D15748006A40F001005549A3
:101D2000086227E0E06858B95248006A20F00100D4
:101D3000504908620846006A20F00400086219E071
:101D4000E06805280BD14B48006A40F0040049497F
:101D500008620846006A40F0010008620AE045484F
:101D6000006A20F00100434908620846006A20F03A
:101D70000400086200BFE068A0B1FFF737FA05462B
:101D800009E0FFF733FA401B41F28831884202D95B
:101D9000032077E622E03748006A00F002000028BE
:101DA000EFD012E0FFF722FA054608E0FFF71EFA2F
:101DB000401B41F28831884201D9032062E62D4858
:101DC000006A00F002000028F0D1012F05D1294857
:101DD000C06920F080502749C86100BFE069C8B3DE
:101DE0002448406800F00C00082860D0E069022810
:101DF00048D1002020490866FFF7F8F9054606E0BB
:101E0000FFF7F4F9401B022801D903203AE61948EC
:101E1000006800F000700028F2D1206AB0F5803F21
:101E200007D11448406820F40030A16808431149E4
:101E30004860D4E9080108430E49496821F4741147
:101E400008430C49486001200B490866FFF7CEF9AA
:101E5000054607E03DE0FFF7C9F9401B022801D91C
:101E600003200FE60348006800F000700028F2D05D
:101E70002FE0000000100240000042428004424275
:101E800000700040002014490866FFF7AFF90546CE
:101E900006E0FFF7ABF9401B022801D90320F1E56A
:101EA0000E48006800F000700028F2D111E0E069EF
:101EB000012800D1E6E50948466806F48031206A29
:101EC000814204D106F47011606A814201D0012080
:101ED000D8E50020D6E50000000042420010024094
:101EE000F8B505460C4616460020009005B10CB921
:101EF0000120F8BD00226946284600F01AF808B112
:101F00000120F6E7287B2070E87BE070687B60703A
:101F1000A87BA0705EB1E07801F07AFBE070607899
:101F200001F076FB6070A07801F072FBA0700020D9
:101F3000DFE72DE9F04780460C4691460025002654
:101F4000AA460027B8F1000F00D014B90120BDE85F
:101F5000F087D8F800004068C0F3800008B1012085
:101F6000F5E7404601F01BFC05464FF46160B5FB08
:101F7000F0F7B5FBF0F100FB11503C21B0FBF1F0A4
:101F800060704FF46160B5FBF0F100FB11503C2133
:101F9000B0FBF1F201FB1200A070182F39D318200A
:101FA000B7FBF0FAB7FBF0F100FB11702070404670
:101FB00001F0E9FB0646701C18B1AE4201D9761B50
:101FC00001E04FF0FF360AEB4A00C000C0EB4011C1
:101FD000C1EB0020A5EB00152946404601F052FC5C
:101FE00008B10120B3E7701C38B12E443146404699
:101FF00001F031FC40B10120A9E73146404601F033
:102000002AFC08B10120A2E75146404601F00DFB31
:1020100000E02770B9F1000F0BD0207801F0F8FA3A
:102020002070607801F0F4FA6070A07801F0F0FAA6
:10203000A07000208BE7000070B5044600250CB9A5
:10204000012070BD607C20B900202074204600F083
:1020500053F802206074204600F06EF818B1042096
:1020600060740120EDE7204601F03AFB18B104202E
:1020700060740120E5E72068406820F007002168CF
:102080004860A06828B11B48006820F00100194989
:1020900008601848001F006820F46070A1680843B9
:1020A0001449091F08606068401C08B1656809E0B0
:1020B0000120FFF7A9FA05461DB90420607401202C
:1020C000BFE76D1EC5F3034021688860A8B2216890
:1020D000C860204601F021FB18B104206074012083
:1020E000AFE70021E17301216173A17301206074E6
:1020F0000020A6E7306C004038B504460B49206844
:10210000884212D1FFF77AFA00BF0948C06940F04F
:1021100000600749C8610846C06900F0006000908F
:1021200000BF00BF01200349086038BD00280040FF
:10213000001002403C04424270B5044600250CB930
:10214000012070BD2068406820F0080021684860C8
:10215000FFF74CF8054607E0FFF748F8401BB0F5DD
:102160007A7F01D90320ECE72068406800F008007E
:102170000028F1D00020E4E7704710B504460CB900
:10218000012010BD606A38B96068B0F5827F00D167
:1021900005E00021E16102E000212161616100218F
:1021A000A16294F8510028B9002084F8500020461C
:1021B00000F042F8022084F851002068006820F006
:1021C000400021680860A08800F48270218901F431
:1021D00004410843A18901F400610843217C01F016
:1021E00002010843217D01F001010843218B01F424
:1021F00000710843217F01F0380108432021095D67
:1022000001F080010843218D01F400510843216849
:1022100008600421A06901EA104021684860206834
:10222000C06920F400602168C86100206065012059
:1022300084F851000020A4E710B586B004460020C1
:10224000029003900490059026492068884246D168
:1022500000BF2548806940F48050234988610846C2
:10226000806900F48050019000BF00BF00BF0846A5
:10227000806940F0040088610846806900F004002D
:10228000019000BF00BFA020029002200390032015
:10229000059002A91548FEF71DFE4020029000207F
:1022A0000390049002A91148FEF714FE104811494A
:1022B00008601020486000210E4881608021C160C4
:1022C0000021016141618161C161FEF76DFD08B1CD
:1022D000FEF70FFB00BF0748A064446200BF06B0D2
:1022E00010BD000000300140001002400008014015
:1022F00030000240EC0900202DE9F84304460F4667
:1023000016461D46FEF772FF8046B14694F851000E
:10231000012802D00220BDE8F88307B10EB90120E0
:10232000F9E700BF94F85000012801D10220F2E73C
:10233000012084F8500000BF032084F851000020E1
:1023400060652763A686E686A063A087E087606451
:102350002064A068B0F5004F0BD12068006820F021
:102360004000216808602068006840F480402168CF
:1023700008602068006800F04000402805D0206810
:10238000006840F0400021680860E068B0F5006F28
:1023900037D1606810B1B9F1010F09D1206B008805
:1023A0002168C860206B801C2063E08E401EE086A0
:1023B00023E02068806800F0020002280AD1206B28
:1023C00000882168C860206B801C2063E08E401E5E
:1023D000E08612E0FEF70AFFA0EB0800A84201D356
:1023E000681C00B94DB9012084F8510000BF0020DD
:1023F00084F8500000BF03208DE7E08E0028D8D17C
:1024000036E0606810B1B9F1010F09D1206B007896
:1024100021680873206B401C2063E08E401EE0861C
:1024200023E02068806800F0020002280AD1206BB7
:10243000007821680873206B401C2063E08E401EEA
:10244000E08612E0FEF7D2FEA0EB0800A84201D31E
:10245000681C00B94DB9012084F8510000BF00206C
:1024600084F8500000BF032055E7E08E0028D8D143
:1024700042462946204601F076FA08B120206065E0
:10248000A06850B900BF002000902068C06800908C
:1024900020688068009000BF00BF012084F85100D0
:1024A00000BF002084F8500000BF606D08B101201B
:1024B00031E700202FE700002DE9F04104460E46E9
:1024C000154694F85100012802D00220BDE8F081A1
:1024D00006B10DB90120F9E700BF94F850000128BA
:1024E00001D10220F2E7012084F8500000BF032050
:1024F00084F85100002060652663A586E586A06308
:1025000060642064A087E087A068B0F5004F0BD11D
:102510002068006820F0400021680860206800689A
:1025200040F48040216808601F48A16CC8621F48C1
:10253000A16C88621E48A16C08630020A16C4863EE
:10254000E38E276807F10C02216BA06CFEF760FC9C
:1025500050B1606D40F01000606500BF002084F84D
:10256000500000BF0120B1E72068006800F0400083
:10257000402805D02068006840F0400021680860CD
:1025800000BF002084F8500000BF2068406840F081
:102590002000216848602068406840F002002168FF
:1025A0004860002092E70000DB380008E9380008A6
:1025B000B3380008034A0168914202D10021024A5F
:1025C000117070470030014070080020704770B5EE
:1025D00004462546681EB0F1807F01D301200FE03C
:1025E000681E4FF0E02148610F214FF0FF3001F0ED
:1025F0008DFE00204FF0E021886107200861002057
:1026000070BD000030B502460B4600BF92F83C009A
:10261000012801D1022030BD012082F83C0000BF1A
:10262000022082F83D00106844681068816824F038
:10263000700418680443106844600E4D1068A84286
:1026400007D01068B0F1804F03D00B4D1068A8423E
:1026500005D121F080015868014310688160012094
:1026600082F83D0000BF002082F83C0000BF00BFA0
:10267000D1E70000002C0140000400402DE9F041AA
:1026800004460D4614B90120BDE8F08194F83D00E0
:1026900028B9002084F83C00204600F051F80220C0
:1026A00084F83D002068806844F20701884321686F
:1026B0008860211D206801F013FC2068D0F8088094
:1026C000206886692068076A286840EA080840F29E
:1026D00003308643A969A86840EA0120064340F612
:1026E0000C4086434FF2F0008643E969E86840EA0F
:1026F0000120064328690001296A40EA01300643A7
:1027000027F022076969686840EA011007432068DA
:10271000C0F808802068866120680762012084F87C
:10272000460084F83E0001213F200155012084F835
:10273000420043200155012084F83D000020A3E71A
:1027400010B586B0044600200290039004900590D6
:1027500015492068884225D100BF1448806940F49B
:102760000060124988610846806900F400600190A9
:1027700000BF00BF00BF0846806940F004008861C8
:102780000846806900F00400019000BF00BF4FF4CC
:1027900040700290002003900120049002A9044898
:1027A000FEF798FB06B010BD002C0140001002405F
:1027B000000801402DE9F04304460D4694F83E60C0
:1027C0003F20075D94F84280432010F804906DB9D3
:1027D000012E02D1B8F1010F02D00120BDE8F08333
:1027E000022084F83E0084F8420025E0042D0CD13C
:1027F000012F02D1B9F1010F01D00120EEE7022132
:102800003F2001554320015516E0012E07D1012F2D
:1028100005D1B8F1010F02D1B9F1010F01D00120AA
:10282000DCE7022084F83E0002213F20015502200F
:1028300084F842004320015515B1042D0CD105E068
:1028400001220021206801F085FB10E00122042113
:10285000206801F07FFB0AE001220021206801F0DE
:1028600079FB01220421206801F074FB00BF00BF46
:102870002068006840F00100216808600020ADE792
:102880002DE9F04104460D461646002700BF94F896
:102890003C00012802D10220BDE8F081012084F82B
:1028A0003C0000BF96B9EB68D5E90012206801F042
:1028B00063FB2068806920F00C0021688861206833
:1028C0008069A96808432168886141E0042E13D11A
:1028D000EB68D5E90012206801F07CFB2068806974
:1028E00020F440602168886120688069A96840EA16
:1028F0000120216888612BE0082E12D1EB68D5E910
:102900000012206801F083FB2068C06920F00C00F1
:102910002168C8612068C069A96808432168C86146
:1029200016E00C2E13D1EB68D5E90012206801F0F7
:102930008AFB2068C06920F440602168C861206873
:10294000C069A96840EA01202168C86100E0012748
:1029500000BF002084F83C0000BF38469CE710B55B
:1029600004460CB9012010BD94F83D0028B90020A0
:1029700084F83C00204600F025F8022084F83D0051
:10298000211D206801F0ACFA012084F8460000BF48
:1029900084F83E0001213F2001554020015541208F
:1029A000015500BF00BF012084F8420043200155BB
:1029B000442001554520015500BF012084F83D0009
:1029C0000020D0E710B586B00446002002900390A6
:1029D000049005902068B0F1804F2FD100BF1848B7
:1029E000C06940F001001649C8610846C06900F09E
:1029F0000100019000BF00BF00BF0846806940F0A1
:102A0000040088610846806900F00400019000BF5E
:102A100000BF4FF40040029000200390049002A9F0
:102A20000848FEF757FA00BF0749486820F440708D
:102A300040F0E06040F48070486000BF06B010BD18
:102A400000100240000801400000014010B504469B
:102A50000CB9012010BDA06900B100E000BF94F8DE
:102A6000410028B9002084F84000204600F02AF8F0
:102A7000242084F841002068C06820F400502168B8
:102A8000C860204601F06CFB2068006920F490408B
:102A9000216808612068406920F02A0021684861A7
:102AA0002068C06840F400502168C860002060645D
:102AB000202084F8410084F842000020606300BFB9
:102AC000C8E7000010B586B00446002002900390CD
:102AD000049005901E492068884236D100BF1D48E9
:102AE000806940F480401B4988610846806900F491
:102AF0008040019000BF00BF00BF0846806940F0E1
:102B0000080088610846806900F00800019000BF55
:102B100000BF40200290022003900320059002A9EC
:102B20000D48FEF7D7F98020029000200390049012
:102B300002A90948FEF7CEF900BF0849486840F0ED
:102B4000E06040F00400486000BF06B010BD000027
:102B50000038014000100240000C0140000001401C
:102B60002DE9F84F04460E46174699464FF0000AE5
:102B700094F84100202850D106B117B90120BDE8D2
:102B8000F88F00206064212084F84100FEF72EFBBE
:102B90008246A784E784A068B0F5805F04D12069ED
:102BA00010B90025B04602E035464FF000081EE09F
:102BB0005346002280212046CDF8009001F04EFBC4
:102BC00020B1202084F841000320D8E745B9B8F8A7
:102BD0000000C0F308002168486008F1020803E023
:102BE0002878216848606D1CE08C401EE084E08CF1
:102BF0000028DDD15346002240212046CDF8009028
:102C000001F02CFB20B1202084F841000320B6E71E
:102C1000202084F841000020B1E70220AFE700BF88
:102C2000FEE700000EB500200090019002901148D0
:102C300011490860002110488160017301754FF44B
:102C40006021C16100200C49486001210A480161EE
:102C5000FDF702FF08B1FDF74CFE01200090019046
:102C60000020029069460448FDF746FE08B1FDF7D2
:102C700040FE0EBD00240140FC08002008B500BF46
:102C80000A48406940F00100084948610846406927
:102C900000F00100009000BF00BF002211460D208F
:102CA000FEF75AFC0D20FEF747FC08BD001002405D
:102CB00000B585B00020019002900390049000BF01
:102CC0003148806940F010002F49886108468069CA
:102CD00000F01000009000BF00BF00BF08468069F0
:102CE00040F0200088610846806900F020000090D4
:102CF00000BF00BF00BF0846806940F00400886143
:102D00000846806900F00400009000BF00BF00BFCB
:102D10000846806940F0080088610846806900F034
:102D20000800009000BF00BF00221C211748FEF7DA
:102D300057FA00224FF440611548FEF751FA1C2063
:102D4000019001200290002003900220049001A92C
:102D50000E48FEF7BFF84FF440600190012002904A
:102D600002200390049001A90948FEF7B3F84FF43C
:102D70007040019000200290039001A90448FEF7E2
:102D8000A9F805B000BD0000001002400008014095
:102D9000000C014010B50B480B4908600B48486017
:102DA000002109488160C1604FF480410161002128
:102DB00041618161C1610162FEF71EFA08B1FDF750
:102DC00098FD10BD005400402C090020A086010091
:102DD00010B50848084908604FF0FF3048604FF4CC
:102DE000807105488160FFF727F908B1FDF781FD83
:102DF00010BD0000002800408009002010B50E48DA
:102E00000E4908604FF48270486000210B488160D1
:102E1000C160016141614FF4007181610821C161AC
:102E200000210162416281620A21C162FFF7A5F9B6
:102E300008B1FDF75EFD10BD00300140940900208F
:102E400000B58BB0242102A8FDF7B6F90020009050
:102E50000190184818490860002048600021164871
:102E600081604FF6FF71C1600021016141618161A4
:102E70000120029000200390012004900020059082
:102E80000690079001200890002009900A9002A95E
:102E90000948FFF7F3FB08B1FDF72BFD0020009078
:102EA000019069460448FFF7ADFB08B1FDF721FD2D
:102EB0000BB000BD002C0140300A002000B587B0E7
:102EC00000200590069001900290039004904FF02E
:102ED0008040164908600020486000211348816046
:102EE0004FF6FF71C160002101618161FFF737FD7D
:102EF00008B1FDF7FEFC00200590069005A90B48DF
:102F0000FFF780FB08B1FDF7F4FC002001900120E1
:102F10000290002003900490002201A90348FFF7CB
:102F2000AFFC08B1FDF7E5FC07B000BD780A002052
:102F300010B50B480B4908604FF4E13048600021A0
:102F400008488160C16001610C21416100218161FB
:102F5000C161FFF77BFD08B1FDF7CBFC10BD0000A0
:102F600000380140C00A002000BFFEE700BFFEE7B6
:102F700010B5002004E00021044A1154411C88B21D
:102F8000B0F5806FF7DB00F0F1F810BD080B002002
:102F900010B504461CB90021A62000F0BBFA012C94
:102FA00003D10021A72000F0B5FA10BD10B5002113
:102FB0008D2000F0AFFA0021142000F0ABFA0021C0
:102FC000AF2000F0A7FA10BD10B504463CB90021AF
:102FD000C82000F09FFA0021A12000F09BFA012CEC
:102FE00007D10021C02000F095FA0021A02000F0B8
:102FF00091FA10BDF0B5034616467F2B01DC3F2940
:1030000000DDF0BD0D46CF1701EB5777C7F3CF02B8
:10301000CF1701EB5777FF10A1EBC707FCB203EB0B
:10302000C215A8B23EB1084D2D5C0127A7403D4313
:10303000054F3D5406E0044D2D5C0127A740BD43DC
:10304000014F3D5400BFDCE7080B002010B5002203
:1030500010213F48FEF7C4F8C820FDF727FF0122E2
:1030600010213B48FEF7BCF80021AE2000F052FAD8
:103070000021084600F04EFA0021102000F04AFA24
:103080000021402000F046FA0021812000F042FAA1
:103090000021CF2000F03EFA0021A12000F03AFAF2
:1030A0000021C82000F036FA0021A62000F032FAF4
:1030B0000021A82000F02EFA00213F2000F02AFA7B
:1030C0000021D32000F026FA0021084600F022FA61
:1030D0000021D52000F01EFA0021802000F01AFA0D
:1030E0000021D92000F016FA0021F12000F012FA98
:1030F0000021DA2000F00EFA0021122000F00AFA76
:103100000021DB2000F006FA0021402000F002FA46
:103110000021202000F0FEF90021022000F0FAF941
:1031200000218D2000F0F6F90021142000F0F2F9C2
:103130000021A42000F0EEF90021A62000F0EAF919
:10314000FFF716FF0021AF2000F0E4F910BD0000EA
:103150000008014010B50246012000E050430B1E5C
:10316000A1F10104E1B2F9D110BD000010B50024B5
:1031700012E004F1B001C8B200F0F2F9002000F052
:10318000EFF9102000F0ECF9054901EBC4108021A3
:1031900000F002FA601CC4B2082CEADB10BD00008B
:1031A000080B00202DE9FE4F0746884692461C4634
:1031B0000197CDF80080082C02D14FF006091FE0DE
:1031C0002046E31704EB5373DB1021464FEAE47CFF
:1031D00004EB5C7C4FEAEC0CA4EBCC0CBCF1000FD4
:1031E00002D04FF0010C01E04FF0000C6344224686
:1031F00004EBD27C4FEA6C0C03FB0CF303F0FF09E9
:10320000AAF12000C6B2002560E0082C06D00C2CE4
:103210000CD0102C12D0182C1ED115E006EB460055
:103220002C4901EB400010F805B017E006EB460012
:10323000294901EB800010F805B00FE0274800EBAA
:10324000061010F805B009E006EBC600244901EBB2
:10325000800010F805B001E0BDE8FE8F00BF00203F
:1032600002901CE00BF0010028B1414638460C9A50
:10327000FFF7C0FE09E00C9808B9012000E000202B
:10328000024641463846FFF7B5FE4FEA6B0B08F1A0
:10329000010000F0FF080298401CC0B202900298A2
:1032A0000828DFDB781CC7B2082C0BD004EBD471E4
:1032B0004A100199791A8A4204D1019F0098083076
:1032C000C0B20090DDF80080681CC5B24D459CDBA3
:1032D00000BFC1E7344900085C4B0008D04F00082C
:1032E000C05500082DE9FF4F82B0064691461F46A3
:1032F000DDE90F4A4FF0000B082C01D14FF0020B13
:10330000002530E0781B401EC1B20A20FFF722FFE3
:10331000B9FBF0F00A21B0FBF1F201FB1208B8F1A1
:10332000000F0ED104EBD4710BEB610101FB0561C1
:10333000C8B223463022CDE900A40399FFF732FF3B
:103340000FE004EBD4710BEB610101FB0561C8B226
:1033500008F13001CAB22346CDE900A40399FFF772
:1033600021FF681CC5B2BD42CCDB06B0BDE8F08FC2
:103370002DE9FF4F05460E4617461C46DDF83890EE
:103380004FF0000A0095B3462046E21704EB527254
:10339000D2102146E31704EB5373DB10A4EBC303F5
:1033A0000BB1012300E000231A44D4B24FF000080F
:1033B00045E0002003903BE00D9810F80A000290D1
:1033C0000AF101001FFA80FA002001901DE0029826
:1033D00000F0010028B14A4631462846FFF70AFEB0
:1033E0000AE0B9F1000F01D1012000E000200246FF
:1033F00031462846FFF7FEFD029840100290701CEF
:10340000C6B20198401CC0B2019001980828DEDBCA
:10341000681CC5B20098281AB84204D1009D0BF16F
:10342000080000F0FF0B5E460398401CC0B20390FA
:103430000398B842C0DB08F1010000F0FF08A04586
:10344000B7DBBDE8FF8F2DE9F84106460F4614466D
:103450001D46DDF81C8013E0CDF8008022782B4655
:1034600039463046FFF79EFE082D02D1B01DC6B288
:1034700005E0284605EBD07106EB6101CEB2641C75
:103480002078202802DB20787E28E5DDBDE8F88161
:103490002DE9FC4705460E4617461C46DDF82880F8
:1034A0003C20B7FBF0F9B7FBF0F100FB117A0120EB
:1034B000164918231A46CDE9001031462846FFF771
:1034C00057FF321DD1B205F11C02D0B202234A4689
:1034D000CDE90048FFF706FFF21CD1B205EB44022C
:1034E0000C32D0B223460AA2CDF80080FFF7ABFF22
:1034F000321DD1B205EB44021432D0B2022352463F
:10350000CDE90048FFF7EEFEBDE8FC8778480008EB
:103510003A00000013B50C46012C05D10122082108
:103520000D48FDF75DFE04E0002208210A48FDF782
:1035300057FE002204210848FDF752FE4FF0FF33EA
:10354000012269460548FEF7D7FE01220421024800
:10355000FDF746FE1CBD0000000801409409002054
:1035600001B5002208210A48FDF73AFE0022042195
:103570000748FDF735FE4FF0FF3301226946054845
:10358000FEF7BAFE012204210148FDF729FE08BD1D
:10359000000801409409002070B504460D46012240
:1035A00008210D48FDF71CFE002204210A48FDF702
:1035B00017FE0120094908702A4621460848FEF7EF
:1035C0007BFF00BF054800780028FBD101220421C1
:1035D0000148FDF705FE70BD00080140700800209D
:1035E000940900207047000008B508490968C90817
:1035F0004FF47A72B1FBF2F14143009100BF00BF7A
:1036000000994A1E00920029F9D108BD6C080020DB
:103610000146002203E0521CA1F10A00C1B20A29AE
:10362000F9D2100741EA106070472DE9F0470646CD
:103630008846002700240025A146F77B747BB57BD4
:1036400000BF40E0012C0BD0032C09D0052C07D083
:10365000072C05D0082C03D00A2C01D00C2C0CD13F
:103660001F2D01D26D1C2CE00C2C02D0641C0125F6
:1036700027E0012401257F1C23E0042C05D0062C23
:1036800003D0092C01D00B2C06D11E2D01D26D1CAC
:1036900017E0641C012514E0022C12D11C2D01D26C
:1036A0006D1C0EE01C2D08D1B8B200F053F808B123
:1036B0006D1C06E0641C012503E01D2D01D1641C76
:1036C000012509F10109C145BCD3F7737473B573C2
:1036D000EAB2E1B2384600F07CF83073BDE8F0871A
:1036E00070B504460025FDF781FD054607E0FDF7AE
:1036F0007DFD401BB0F57A7F01D9032070BD2068A5
:10370000406800F020000028F1D02068406840F0B8
:103710001000216848600020F0E770B504460025DD
:103720002068406820F0100021684860FDF75EFDC9
:10373000054607E0FDF75AFD401BB0F57A7F01D939
:10374000032070BD2068406800F020000028F1D000
:103750000020F6E7014601F0030008B100207047A1
:103760006420B1FBF0F200FB121008B10120F6E773
:103770004FF4C870B1FBF0F200FB121008B9012041
:10378000EDE70020EBE70146002200230868006A0D
:1037900082B20868406A83B243EA0240704730B59B
:1037A000014600220023002400200D68AD69AAB262
:1037B0000D68ED69ACB20D68AD69ABB29A4205D047
:1037C0000D68ED6963F31F45284601E044EA0240B5
:1037D00030BDF0B504460B460021002504F5FA6122
:1037E000032B1BD2C3EBC30000EB03100926B0FB75
:1037F000F6F01044001D4618481E06EB900664279C
:10380000B0FBF7F0361A481EBF00B0FBF7F03044AB
:103810000726B0FBF6F706FB17051AE0C3EBC3005B
:1038200000EB03100926B0FBF6F01044001D08441D
:1038300000EB91006426B1FBF6F6801B4FF4C876CE
:10384000B1FBF6F63044801E0726B0FBF6F706FB08
:103850001705E8B2F0BD70B504460D4600262046B7
:10386000FFF73EFF08B101260AE0280C2168086234
:10387000A8B2216848622046FFF74FFF00B1012639
:10388000304670BD70B504460D4600262046FFF751
:1038900027FF08B101260AE0280C21688861A8B238
:1038A0002168C8612046FFF738FF00B10126304685
:1038B00070BD70B505466C6A2068406820F0030052
:1038C00021684860606D40F010006065012084F858
:1038D00051002046FEF750FC70BD70B50446656A85
:1038E0002846FEF773FE70BDF8B505466C6AFDF715
:1038F0007DFC06462868006800F0200020282DD0B6
:103900002068406820F020002168486020684068F6
:1039100020F002002168486032466421204600F011
:1039200022F818B1606D40F020006065A06850B9C1
:1039300000BF002000902068C06800902068806868
:10394000009000BF00BF0020E086012084F85100F5
:10395000606D18B12046FEF70FFCF8BD2046FEF75B
:1039600029FE00BFF9E7F8B504460E461546334672
:10397000012202212046009500F018F828B1606D60
:1039800040F0200060650320F8BD3346002280210E
:103990002046009500F00AF828B1606D40F0200044
:1039A00060650320F0E70020EEE700002DE9F84F06
:1039B00004460D4690461E46DDF82890FDF716FC9D
:1039C000A0EB0900371AFDF711FC82462C4800686D
:1039D000C0F3CB307843009045E0701C002842D003
:1039E000FDF704FCA0EB0A00B84200D2A7BB206898
:1039F000406820F0E000216848606068B0F5827F90
:103A00000DD1A068B0F5004F03D0A068B0F5806F6D
:103A100005D12068006820F0400021680860A06A95
:103A2000B0F5005F0DD100BF2068006820F40050A1
:103A3000216808602068006840F400502168086030
:103A400000BF012084F8510000BF002084F850001E
:103A500000BF0320BDE8F88FFFE7009800B90027FA
:103A60000098401E0090206880682840A84201D13C
:103A7000012000E000204045AFD10020EAE700002F
:103A80006C080020704700001CB504460E480088F2
:103A9000401C0D49088008460088072190FBF1F280
:103AA00001FB12000849088001210848064A1288D3
:103AB00050F8220010232022CDE9000100216020CF
:103AC000FFF756FC1CBD000036080020000800204F
:103AD00070B505462C78C4F10400C6B206B90126BB
:103AE00010480078401C0F49087008460078B04222
:103AF00010DB7CB1002008700B480088401C0A498C
:103B0000088008460088062190FBF1F201FB1200B4
:103B10000549088004480378224612210B2000F052
:103B200005F870BD5D080020340800202DE9FC4137
:103B300004460D4616461F4601215C4850F82700F2
:103B400018231A46CDE9000129462046FFF710FC4C
:103B500036B1012E2CD0022E52D0032E78D178E02F
:103B600001205349AA1DCDE90010D1B204F11E0273
:103B7000D0B20C231822FFF7FBFB01204C49AA1DF1
:103B8000CDE90010D1B204F13902D0B20C231822D1
:103B9000FFF7EEFB01204649AA1DCDE90010D1B286
:103BA00004F15402D0B20C231822FFF7E1FB79E0B4
:103BB00001204049AA1DCDE90010D1B204F11E0236
:103BC000D0B20C231822FFF7D3FB01203849AA1DDD
:103BD000CDE90010D1B204F13902D0B20C23182281
:103BE000FFF7C6FB01203249AA1DCDE90010D1B272
:103BF00004F15402D0B20C231822FFF7B9FB51E0B4
:103C000001202C49AA1DCDE90010D1B204F11E02F9
:103C1000D0B20C231822FFF7ABFB01202549AA1DC7
:103C2000CDE90010D1B204F13902D0B20C23182230
:103C3000FFF79EFB01201E49AA1DCDE90010D1B25D
:103C400004F15402D0B20C231822FFF791FB29E0B3
:103C500027E001201749AA1DCDE90010D1B204F1D7
:103C60001E02D0B20C231822FFF782FB012011495B
:103C7000AA1DCDE90010D1B204F13902D0B20C2353
:103C80001822FFF775FB01200A49AA1DCDE9001093
:103C9000D1B204F15402D0B20C231822FFF768FB12
:103CA00000E000BF00BFBDE8FC8100001C08002050
:103CB00068460008984600082DE9FC4727484068F8
:103CC00027490968441A2748D0E90010091940F12A
:103CD0000000244AC2E9001023480068401C224921
:103CE0000860FDF783FA814620480068A9EB0000D0
:103CF000B0F57A7F2FD31D48C0F800901C480068AB
:103D00001C49B0FBF1F500261748334615490268F7
:103D100003C9FCF709FA07462A463346FCF704FABA
:103D2000824601200C2314A2302100905620FFF778
:103D30008AFB01200C2104235246CDE900103021DA
:103D40006220FFF7CFFA0021064A1160516000207F
:103D50000549086000BFBDE8FC870000001000E0D6
:103D60003C08002050080020480800205808002087
:103D70006C08002040420F00543A00001CB5044675
:103D8000FCF7F6FB104908800120104910231A4661
:103D9000CDE9001003212A20FFF7EAFA01201021C3
:103DA0000323CDE900100848028802213820FFF7DC
:103DB00099FA012006490C231A46CDE90010042186
:103DC0004820FFF7D5FA1CBD38080020D848000865
:103DD000C0480008FEB50646002202A91748FEF7B3
:103DE000A8F8002201A91548FEF77AF89DF80A40C4
:103DF00013480078201A3C2190FBF1F201FB1200DD
:103E0000C5B2002D06DD0E4804700E480068284437
:103E10000C4908600B48006841F26F71884202D378
:103E2000002008490860012010230090054828213F
:103E300002680A20FFF72CFBFEBD0000800900206D
:103E40005C0800204408002010B5FDF705FB10BDFC
:103E500000B593B0282109A8FCF7AEF9142104A8F5
:103E6000FCF7AAF90020009001900290039009202D
:103E700009904FF480300A9000200B9001200D90A3
:103E80000F9002201090C10311914FF4E011129194
:103E900009A8FDF7F3FD08B1FCF72BFD0F200490F6
:103EA00002200590002006904FF4806007900020CB
:103EB0000890022104A8FDF7BDFC08B1FCF719FD2C
:103EC000032000904FF4007001908001029068463A
:103ED000FDF718FC08B1FCF70CFD13B000BD7047EE
:103EE00010B50268194B984205D0B0F1804F02D04E
:103EF000174B984203D122F070024B681A43134BC0
:103F0000984205D0B0F1804F02D0114B984203D1B6
:103F100022F44072CB681A4322F080034C6943EAD2
:103F2000040202608B68C3620B688362074B98428D
:103F300001D10B69036301234361036903F00103AA
:103F40001BB1036923F00103036110BD002C014084
:103F50000004004030B501F01F05012404FA05F308
:103F6000046A9C430462046A01F01F0502FA05F525
:103F70002C43046230BD000070B50C461546026A41
:103F8000066A26F0010606628169104EB04205D02D
:103F9000B0F1804F02D00E4EB04201D1012600E0B8
:103FA00000261EB121F00301294301E041F0010187
:103FB00021F0F001F02606EA0316314322F00A024E
:103FC00004F00A0632438161026270BD002C014098
:103FD0000004004070B50C461546026A066A26F0D9
:103FE00010060662816921F4407141EA052121F43D
:103FF00070414FF4704606EA0336314322F0A002C6
:10400000A02606EA041632438161026270BD70B5D3
:104010000C461546026A066A26F480760662C16975
:1040200021F00301294321F0F001F02606EA0316EE
:10403000314322F400724FF4007606EA042632433C
:10404000C161026270BD70B50C461546026A066A0F
:1040500026F480560662C16921F4407141EA0521C7
:1040600021F470414FF4704606EA0336314322F4DE
:1040700000524FF4005606EA04363243C161026230
:1040800070BD00001CB504461748007A28B94FF4EB
:10409000FA611548FCF723FC1CBD1348FCF70CFC27
:1040A00000B9F9E711480088401C1049088008460B
:1040B0000088632190FBF1F201FB12000B4908809C
:1040C00001200C210223CDE90010084802880121BB
:1040D0001820FFF707F901200C2305A201460090E4
:1040E000FFF7B1F900BFD7E7780800205E0800208D
:1040F000543A000000BF00BF02680C3252E8002FA3
:1041000022F4907102680C3242E80013002BF3D1C4
:1041100000BF00BF00BF0268143252E8002F22F037
:1041200001010268143242E80013002BF3D100BFF2
:10413000016B01290ED100BF00BF02680C3252E8AA
:10414000002F22F0100102680C3242E80013002B0D
:10415000F3D100BF202180F8421000210163704795
:1041600070B504462168096921F44051E2681143A1
:10417000226811612269A1681143626941EA02055E
:104180002168C96841F20C62914329432268D160D9
:104190002168496921F44071A26911432268516183
:1041A0002D4A2168914202D1FDF720FC01E0FDF784
:1041B0000DFC00EBC00101EB001162689200B1FB45
:1041C000F2F100EBC00202EB001263689B00B2FB4D
:1041D000F3F26423B2FBF3F202EBC20303EB02122D
:1041E000A1EB8201322202EB01116422B1FBF2F158
:1041F00001F0F00100EBC00202EB001263689B00CB
:10420000B2FBF3F26423B2FBF3F201EB021200EB18
:10421000C00101EB001163689B00B1FBF3F100EBFF
:10422000C00303EB00136668B600B3FBF6F3642625
:10423000B3FBF6F303EBC30606EB0313A1EB830119
:10424000322303EB01116423B1FBF3F101F00F0101
:1042500011442268916070BD003801402DE9F84397
:1042600004460D4617469846089E31E0701C70B310
:10427000FCF7BCFFA0EB0800B04200D816B9032041
:10428000BDE8F8832068C06800F00400F8B1802D14
:104290001ED0402D1CD020680068C0F3C000B0B113
:1042A00000BF0020009020680068009020684068EF
:1042B000009000BF00BF2046FFF71CFF082060648D
:1042C00000BF002084F8400000BF0120D8E7FFE7CE
:1042D000206800682840A84201D1012000E00020A9
:1042E000B842C3D00020CBE700BFFEE7014A024935
:1042F00000F02FB8A14300087408002002480068AD
:10430000C0F30220704700000CED00E010B500285B
:1043100004DB0A07130E054A135406E00A07140EBD
:10432000034A00F00F031B1FD45410BD00E400E04B
:1043300018ED00E002E008C8121F08C1002AFAD1F7
:1043400070477047002001E001C1121F002AFBD115
:1043500070472DE9F04116460F460446002503E05C
:104360003946B047641C6D1C20780028F8D12846D7
:10437000BDE8F08130B507490A68074C2468074D4D
:10438000B4FBF5F404FB00F300BF0C68A41A9C42D4
:10439000FBD330BD041000E06C08002040420F0049
:1043A00013B50C464FF6FF73012269460248FEF72B
:1043B000D7FB00981CBD0000C00A002008B5FDF71F
:1043C00057F8FFF745FDFEF773FCFEF757FCFEF7C5
:1043D000E1FCFEF735FDFEF7ABFDFEF723FCFEF733
:1043E0006DFDFEF70BFDFEF7F3FCFCF7DBF93C215E
:1043F0002348FEF7DFF9FCF7FFF8FEF727FEFEF78C
:10440000D5FD0020FEF7C4FD0020FEF7DDFD1DA058
:10441000FFF76CFF33E01E48446819480068406AA3
:1044200000900C210098B0FBF1F000900098042857
:1044300004D3002000901249096848624FF4FA72D0
:1044400000211448FCF7CCF940F6B832002112489C
:10445000FCF7C6F94FF4FA7200211048FCF7C0F9D6
:10446000102269460E48FCF7BBF9022200210D48D4
:10447000FCF7B6F9FEF77AFEFFF71EFC00BFCAE7AD
:10448000300A002073797374656D5F6F6B0D0A00DD
:10449000001000E0D53D0008893A00087D3D000885
:1044A000D13A0008854000080000FCFE060606061A
:1044B000060606C6E0E0FC848080868606060606C0
:1044C0000606FEFCE0E0E00000007F7F60606060C8
:1044D0006060610101017F0F0F07636060606060D1
:1044E00060607F3F0F0F0F000000FEFE060606060D
:1044F000060606060606060606060606060606065C
:1045000006FEFEFCF0E0000000007F7F606060605F
:10451000606060606060606060606060606060609B
:10452000607F7F3F0F0700000000FEFE0606F6F6E4
:10453000060606060606060606060606060606061B
:1045400006FEFEFCF0E0000000007F7F60606F6F01
:10455000606060606060606060606060606060605B
:10456000607F7F3F0F0700000000FEFE0606F6F6A4
:104570000606F6F6060606060606060606060606FB
:1045800006FEFEFCF0E0000000007F7F60606F6FC1
:1045900060606F6F606060606060606060606060FD
:1045A000607F7F3F0F0700000000FEFE0606F6F664
:1045B0000606F6F60606F6F60606060606060606DB
:1045C00006FEFEFCF0E0000000007F7F60606F6F81
:1045D00060606F6F60606F6F60606060606060609F
:1045E000607F7F3F0F0700000000FEFE0606F6F624
:1045F0000606F6F60606F6F60606F6F606060606BB
:1046000006FEFEFCF0E0000000007F7F60606F6F40
:1046100060606F6F60606F6F60606F6F6060606040
:10462000607F7F3F0F0700000000FEFE0606F6F6E3
:104630000606F6F60606F6F60606F6F60606F6F69A
:1046400006FEFEFCF0E0000000007F7F60606F6F00
:1046500060606F6F60606F6F60606F6F60606F6FE2
:10466000607F7F3F0F070000FC0E0703010101017F
:1046700001010101010101010101010103070EFC1A
:1046800003070E0C080808080808080808080808A6
:10469000080808080C0E0703F0FCFEFEFFFFFFFFF2
:1046A000FFFFFFFFFFFFFFFFFFFFFFFFFEFEFCF02E
:1046B000000307070F0F0F0F0F0F0F0F0F0F0F0F35
:1046C0000F0F0F0F0707030000000000C0C0C0005D
:1046D00000E0F8FCFCFCF8F870700000000000003E
:1046E00000001C3F3F7F7F7F3C24FFBDBDFF243C7B
:1046F000FEFEFEFCFC3800000000000000000E0E74
:104700001F1F3F3F3F1F070000030303000000007F
:1047100000000080C0E0F0F00000E0F0F8F8F8F8E9
:10472000F8F0E0C0000000000000000F1F1F3F3F36
:10473000BFC6FDBDBDBF63FDFCFCFCF8F000000082
:104740000000000003070F1F1F1F1F1F0F030000A3
:104750000F0F07030100000000000000E0F0F0F080
:10476000F8F80080C0F0F0F8F0F0F0E00000000091
:1047700000000000E7C7CFCFFFE7FFBDBDFFE7FFA9
:10478000FBF3E3E30000000000000000070F0F0F41
:104790000F0F0F0300000F0F0F0F0707000000009F
:1047A00000000000C0F0F0F8F8F8F81800C0E0E0F1
:1047B000F0F0E0E080000000000000F0F0E3E7E748
:1047C000E7E7FF3C3DFFE7F7E7E7C70F0F00000013
:1047D0000000000107070F0F07030100181F1F1F2C
:1047E0000F0F070300000000000000000000F0F8B9
:1047F000F8FCFCFC3C188080C0C0C0C080000000F9
:10480000000038FCFCF8F8F3F7E7FF3DBCFFE7EFEA
:10481000CF1F1F3F3F0400000000000103030303FC
:104820000101181E1F3F1F1F0F0F00000000000096
:1048300000000000800000F0F8F8FCFCFCFC3810E0
:10484000908080800000000000003CFFFFFEFCFC28
:10485000FD63BFBDBDFEC69F3F3FFFFF7F3C000025
:1048600000000000010101080C1C3F3F3F3F1F0FEB
:104870000E000001000000000000000080C0603059
:104880003016161E1E1616303060F8B830000000C4
:10489000000078FF030000000000001F3F303030B0
:1048A00000000003FF78000000000003070C183030
:1048B000302060606060203030180C07030000007A
:1048C000020502F804020202040E8000000000004B
:1048D0000102020202010000000000000000FE824E
:1048E00082FE00000000000000000000183C435C55
:1048F0005D433C1800000000020304050607080998
:104900000A0B0C0D0E0F101001020203040506071E
:1049100008090A0B0C0D0E0F101001020000000018
:10492000000000000102030406070809000000005F
:10493000010203040000000000000000002F00003E
:1049400000000700070000147F147F1400242A7F52
:104950002A120062640813230036495522500000D1
:104960000503000000001C224100000041221C0041
:104970000014083E08140008083E0808000000A0C3
:1049800060000008080808080000606000000020BF
:1049900010080402003E5149453E0000427F40009D
:1049A000004261514946002141454B310018141223
:1049B0007F10002745454539003C4A4949300001F0
:1049C0007109050300364949493600064949291E3F
:1049D00000003636000000005636000000081422A1
:1049E00041000014141414140000412214080002A1
:1049F0000151090600324959513E007C1211127CC6
:104A0000007F49494936003E41414122007F4141F2
:104A1000221C007F49494941007F09090901003EE4
:104A20004149497A007F0808087F0000417F410022
:104A3000002040413F01007F08142241007F404098
:104A40004040007F020C027F007F0408107F003E80
:104A50004141413E007F09090906003E4151215E66
:104A6000007F091929460046494949310001017F63
:104A70000101003F4040403F001F2040201F003FF9
:104A80004038403F006314081463000708700807AB
:104A900000615149454300007F41410000552A55BE
:104AA0002A55000041417F00000402010204004039
:104AB000404040400000010204000020545454785B
:104AC000007F48444438003844444420003844447B
:104AD000487F00385454541800087E090102001819
:104AE000A4A4A47C007F080404780000447D400056
:104AF000004080847D00007F102844000000417F3A
:104B00004000007C04180478007C08040478003815
:104B10004444443800FC242424180018242418FC9D
:104B2000007C0804040800485454542000043F4406
:104B30004020003C4040207C001C2040201C003CC9
:104B40004030403C004428102844001CA0A0A07C19
:104B5000004464544C441414141414140000000051
:104B600000000000000000000000FC000000000049
:104B700002000000000C020C020000000000000017
:104B800090D0BCD0BC900003000300001824FE4469
:104B90008C000302070201001824D8B04C800003E7
:104BA00000010201C038E438E00001020201020203
:104BB000080600000000000000000000000000F8EF
:104BC0000402000000010204000204F800000004D6
:104BD000020100009060F8609000000001000000F9
:104BE0002020FC2020000000010000000000000048
:104BF0000000080600000000202020202000000007
:104C000000000000000000000000000200000000A2
:104C10000080601C0200040300000000F80404048B
:104C2000F8000102020201000008FC00000000027E
:104C30000302000018844424180003020202020048
:104C400008042424D80001020202010040B088FCBC
:104C500080000000000302003C242424C400010260
:104C600002020100F824242CC0000102020201000B
:104C70000C04E41C0400000003000000D8242424D9
:104C8000D80001020202010038444444F800000345
:104C900002020100000010000000000002000000FD
:104CA00000002000000000000600000000205088E6
:104CB000040200000000010290909090900000001B
:104CC00000000000000204885020000201000000E3
:104CD0001804C4241800000002000000F804E49442
:104CE000F80001020202020000E09CF080000203D2
:104CF0000000030204FC2424D80002030202010085
:104D0000F80404040C0001020202010004FC040483
:104D1000F80002030202010004FC24740C000203E8
:104D20000202030004FC24740C00020302000000D1
:104D3000F0080444CC4000010202010004FC2020E1
:104D4000FC040203000003020404FC040400020249
:104D500003020200000404FC04040604040300002F
:104D600004FC24D00C0402030200030204FC04002F
:104D70000000020302020203FC3CC03CFC000300F2
:104D80000300030004FC30C4FC040203020003001F
:104D9000F8040404F80001020202010004FC2424C7
:104DA0001800020302000000F8848404F8000102E5
:104DB0000207050004FC24649800020302000302B9
:104DC000182424448C000302020201000C04FC0499
:104DD0000C0000020302000004FC0000FC040001BF
:104DE00002020100047C80E01C04000003000000BB
:104DF0001CE03CE01C00000300030000049C609CDD
:104E00000400020300030200041CE01C0400000272
:104E1000030200000C84641C04000203020203006D
:104E20000000FE020200000007040400000E30C073
:104E30000000000000010200000202FE0000000469
:104E4000040700000004020400000000000000004D
:104E50000000000000000808080808080000020020
:104E600000000000000000000040A0A0C000000101
:104E70000202030204FC2020C00000030202010021
:104E800000C02020600000010202020000C02024B7
:104E9000FC0000010202030200C0A0A0C00000014B
:104EA000020202000020F82424040002030202008F
:104EB0000040A0A0602000070A0A0A0404FC202089
:104EC000C0000203020003020020E4000000000210
:104ED00003020000000020E40000080808070000AA
:104EE00004FC80E020200203020003020404FC0012
:104EF0000000020203020200E020E020C0000300E4
:104F00000300030020E02020C0000203020003028F
:104F100000C02020C00000010202010020E020208B
:104F2000C000080F0A02010000C02020E0000001BC
:104F3000020A0F0820E040202000020302000000C7
:104F40000060A0A020000002020203000020F82060
:104F5000000000000102020020E00020E00000014B
:104F60000202030220E02080602000000301000014
:104F70006080E0806000000300030000206080602B
:104F8000200002030003020020E0208060200808C7
:104F9000070100000020A0602000000203020200C0
:104FA000000020DE0200000000070400000000FFF7
:104FB00000000000000F00000002DE2000000004DE
:104FC00007000000020102040402000000000000CB
:104FD00000000000000000000000000000000000D1
:104FE000000000F800000000000000333000000066
:104FF00000100C06100C060000000000000000006D
:1050000040C07840C0784000043F04043F040400DE
:10501000007088FC08300000001820FF211E0000EE
:10502000F008F000E018000000211C031E211E0003
:1050300000F00888700000001E2123241927211089
:1050400010160E000000000000000000000000002C
:10505000000000E0180402000000000718204000D3
:1050600000020418E00000000040201807000000C3
:10507000404080F0804040000202010F0102020027
:10508000000000F0000000000101011F010101000B
:10509000000000000000000080B070000000000070
:1050A00000000000000000000001010101010101F9
:1050B0000000000000000000003030000000000090
:1050C0000000000080601804006018060100000065
:1050D00000E010080810E000000F102020100F0062
:1050E000001010F8000000000020203F20200000E9
:1050F0000070080808887000003028242221300041
:1051000000300888884830000018202020110E0048
:105110000000C02010F8000000070424243F2400F1
:1051200000F80888880808000019212020110E00C6
:1051300000E0108888180000000F112020110E00D8
:1051400000380808C83808000000003F00000000D0
:105150000070880808887000001C222121221C0091
:1051600000E010080810E0000000312222110F00BA
:10517000000000C0C000000000000030300000004F
:1051800000000080000000000000806000000000BF
:1051900000008040201008000001020408102000D8
:1051A0004040404040404000040404040404040023
:1051B00000081020408000000020100804020100B8
:1051C000007048080808F0000000003036010000B8
:1051D000C030C828E810E0000718272423140B006B
:1051E0000000C038E0000000203C230202273820E5
:1051F00008F8888888700000203F202020110E00C9
:10520000C0300808080838000718202020100800BF
:1052100008F808080810E000203F202020100F00A8
:1052200008F88888E8081000203F20202320180074
:1052300008F88888E8081000203F200003000000DC
:10524000C03008080838000007182020221E02007D
:1052500008F808000008F808203F210101213F203C
:10526000000808F8080800000020203F2020000067
:1052700000000808F8080800C08080807F00000057
:1052800008F888C028180800203F20012638200090
:1052900008F8080000000000203F202020203000F7
:1052A00008F8F800F8F80800203F003F003F200011
:1052B00008F830C00008F808203F200007183F0019
:1052C000E01008080810E0000F10202020100F0048
:1052D00008F808080808F000203F2101010100003B
:1052E000E01008080810E0000F18242438504F0080
:1052F00008F8888888887000203F2000030C302040
:1053000000708808080838000038202121221C007D
:10531000180808F8080818000000203F20000000C6
:1053200008F808000008F808001F202020201F00AF
:105330000878880000C83808000007380E0100000F
:10534000F80800F80008F800033C0700073C0300D9
:10535000081868808068180820302C03032C30203F
:105360000838C800C83808000000203F20000000AE
:1053700010080808C8380800203826212020180006
:10538000000000FE020202000000007F40404000DA
:10539000000C30C000000000000000010638C00012
:1053A00000020202FE000000004040407F000000BA
:1053B00000000402020204000000000000000000DF
:1053C00000000000000000008080808080808080DD
:1053D00000020204000000000000000000000000C5
:1053E00000008080808000000019242222223F20BB
:1053F00008F8008080000000003F112020110E00FE
:105400000000008080800000000E1120202011008C
:10541000000000808088F800000E112020103F203E
:105420000000808080800000001F222222221300C2
:10543000008080F0888888180020203F202000000D
:105440000000808080808000006B949494936000C2
:1054500008F8008080800000203F210000203F20CD
:1054600000809898000000000020203F20200000CD
:10547000000000809898000000C08080807F0000BD
:1054800008F8000080808000203F24022D3020009A
:10549000000808F8000000000020203F2020000045
:1054A0008080808080808000203F20003F20003F5F
:1054B0008080008080800000203F210000203F206D
:1054C0000000808080800000001F202020201F001E
:1054D000808000808000000080FFA12020110E004D
:1054E0000000008080808000000E112020A0FF803E
:1054F000808080008080800020203F2120000100EB
:10550000000080808080800000332424242419003F
:10551000008080E0808000000000001F202000004C
:105520008080000000808000001F202020103F208D
:10553000808080000080808000010E30080601001D
:1055400080800080008080800F300C030C300F00C2
:1055500000808000808080000020312E0E312000ED
:10556000808080000080808080818E70180601001D
:1055700000808080808080000021302C222130003B
:1055800000000000807C020200000000003F40405C
:1055900000000000FF00000000000000FF0000000D
:1055A0000002027C800000000040403F000000003C
:1055B00000060101020204040000000000000000D7
:1055C00000000000000000000000000000000000DB
:1055D00000000000000000000000000000000000CB
:1055E000000000000000000000F0F0F000000000EB
:1055F0000000000000017F0100000000000000002A
:10560000001C1C1C0000000000008060301C8C602E
:10561000301C0C0000000000000000000000000032
:10562000000000000000000000000000000000E09A
:105630000000000000E000000086E69F8686868667
:10564000E69F860000011F01010101011F01010009
:10565000000080C06020F820E0C0000000000307C8
:105660000C18FF70E18100000000070F10107F1080
:105670000F0700008060206080000000E020000034
:105680000F3020309F70DC371030C0000000100E4B
:1056900003000718101807000000C02020E0C00019
:1056A0000000000080E01F38E88703C43C040000CD
:1056B000070F1810100B070D1010080000808C4CFD
:1056C00038000000000000000000000000000000A2
:1056D00000000000000000000000000000000000CA
:1056E00000000000000080E030080400000000001E
:1056F00000FEFF0100000000000000000000030F9A
:105700001820400000040830E08000000000000085
:105710000000000001FFFE00000000000040201813
:105720000F03000000000000000000000000C000A7
:1057300000000000004266663C18FF183C666642A6
:105740000000000000000300000000000000000056
:105750000000800000000000001010101010FF106A
:1057600010101010000000000000030000000000F6
:105770000000000000000000000000000000000029
:10578000000000000000000000808C4C3800000089
:105790000000000000000000000000000000000009
:1057A0000010101010101010101010000000000059
:1057B00000000000000000000000000000000000E9
:1057C00000000000000000000000000000000000D9
:1057D00000001C1C1C000000000000000000000075
:1057E00000000000E0380C000000000080701C0386
:1057F000000000000060380E010000000000000002
:10580000000080C060202060C080000000FEFF011A
:105810000000000001FFFE000001070E1810101824
:105820000E0701000000808080C0E0000000000042
:105830000000000000FFFF0000000000000010104A
:10584000101F1F101010000000804020202020603A
:10585000C080000000030300804020381F070000C4
:10586000001C1A1918181818181F00000080C020F2
:10587000202060C080000000000303001010182FDB
:10588000E780000000070F10101010180F0700002D
:10589000000000000000C0E0F000000000C0B08880
:1058A000868180FFFF808000000000000010101F34
:1058B0001F1010000000E060606060606060000029
:1058C00000003F1008080818F0E0000000070B1067
:1058D0001010101C0F030000000080C0402020208A
:1058E000E0C0000000FCFF211008080818F0E000EC
:1058F0000001070C18101010080F03000000C0E092
:105900006060606060E06000000003000000E0187C
:105910000700000000000000001F1F000000000042
:105920000080C0602020202060C080000087EF2C15
:105930001818303068CF830000070F0810101010BF
:10594000180F07000000C0C020202020C0800000E9
:10595000001F3F604040402010FFFE0000000C1C74
:10596000101010080F0300000000000000000000ED
:105970000000000000000000000E0E0E00000000FD
:1059800000000000001C1C1C0000000000000000C3
:10599000000000000000000000000000000C0C00EF
:1059A0000000000000000000005838000000000067
:1059B00000000000000000804020100000001028BF
:1059C000448201000000000000000000000001020D
:1059D00004081000000000000000000000000000AB
:1059E000008484848484848484848400000000008F
:1059F00000000000000000000000102040800000B7
:105A00000000000000000000000001824428100097
:105A100000001008040201000000000000C0202067
:105A20001010101030E0C0000003030000F0100858
:105A30000C070300000000001C1C1C0000000000FC
:105A4000000000C0406020202040C00000FCFF019A
:105A5000F00E03C1FE03807F0001070E0811111034
:105A6000110904020000000080E0E00000000000D6
:105A70000000807C4340477FF880000010181F1012
:105A800000000000131F1C1020E0E02020202060F8
:105A9000C080000000FFFF10101010182FE78000DA
:105AA000101F1F1010101010180F0700000080C0EA
:105AB000402020202060E00000FCFF0100000000EA
:105AC000000001000001070E181010100804030068
:105AD00020E0E02020202040C080000000FFFF00E8
