:020000040800F2
:10000000581200200501000845250008FB210008C2
:10001000412500082B02000895320008000000006E
:100020000000000000000000000000006D2E00082D
:100030006D02000800000000712C00086F2E0008FF
:100040001F0100081F0100081F0100081F01000810
:100050001F0100081F0100081F0100081F01000800
:100060001F0100081F0100081F0100081F010008F0
:100070001F010008310200081F0100081F010008CD
:100080001F0100081F0100081F0100081F010008D0
:100090001F0100081F0100081F0100081F010008C0
:1000A0001F0100081F0100081F0100081F010008B0
:1000B0001F0100081F010008000000001F010008C8
:1000C0001F01000800000000000000001F010008E0
:1000D000000000001F0100081F01000800000000D0
:1000E0001F0100081F0100081F010008DFF810D0E1
:1000F00000F02CF8004800473D330008AFF30080C3
:10010000581200200648804706480047FEE7FEE7F1
:10011000FEE7FEE7FEE7FEE7FEE7FEE7FEE7FEE7B7
:10012000FB2E0008ED000008D2B201E000F8012B20
:10013000491EFBD270470022F6E710B513460A4667
:1001400004461946FFF7F0FF204610BD064C074D48
:1001500006E0E06840F0010394E807009847103497
:10016000AC42F6D3FFF7C6FFF45700081458000856
:1001700070B58D1810F8014B14F0030201D110F87E
:10018000012B231106D110F8013B03E010F8016B9D
:1001900001F8016B521EF9D1ABB110F8012B04F03C
:1001A0000C048A1A0C2C03D0A2EB84129B1C08E0CE
:1001B00010F8014BA2EB0422F8E712F8014B01F80A
:1001C000014B5B1EF9D5A942D4D3002070BD70B598
:1001D000044600252068806800F0010018B32068FC
:1001E000806820F001002168886000F0BDFC0546B1
:1001F00013E000F0B9FC401B02280ED9206880688B
:1002000000F0010048B1A06A40F01000A062E06A6E
:1002100040F00100E062012070BD2068806800F0BD
:1002200001000028E5D10020F6E700BFFEE700004E
:1002300010B5024800F0A8F910BD00003C090020EC
:1002400030B590F840500124AC40C56B6C60046838
:1002500063604468102C04D10468A2600468E16003
:1002600003E00468A1600468E26030BD704772B6C4
:1002700000BFFEE738B5024600230020009000BF13
:1002800092F82400012801D1022038BD012082F813
:10029000240000BF4868072812D21068406B0C7910
:1002A000641E04EB84051F24AC40A0430D796D1E31
:1002B00005EB85050C68AC4020431468606327E0BB
:1002C00048680D2812D21068006B0C79E41F04EB0B
:1002D00084051F24AC40A0430D79ED1F05EB850577
:1002E0000C68AC4020431468206311E01068C06AB9
:1002F0000C790D3C04EB84051F24AC40A0430D7920
:100300000D3D05EB85050C68AC4020431468E062A8
:1003100008680A2812D31068C0680C780A3C04EBFD
:1003200044050724AC40A0430D780A3D05EB450584
:100330008C68AC4020431468E0600FE010680069EE
:100340000C7804EB44050724AC40A0430D7805EB82
:1003500045058C68AC40204314682061086810286B
:1003600002D00868112827D1174C1068A0421ED16E
:100370001068806800F40000F0B91068806840F4EC
:1003800000001468A0600868102815D10F480068A4
:100390000F4CB0FBF4F000EB80004000009002E056
:1003A0000098401E009000980028F9D104E0906A5F
:1003B00040F020009062012300BF002082F824005A
:1003C00000BF184661E700000024014054080020E7
:1003D00040420F002DE9F041044600270025002689
:1003E000A84614B90120BDE8F081A06810B1207DB5
:1003F00000B100BFA06A30B90020E06284F8240098
:10040000204600F089F82046FFF7E1FE0746A06A83
:1004100000F01000002873D1002F71D1A06A20F4E1
:10042000885040F00200A062E16960680843217BC7
:1004300040EA41000643A068B0F5807F02D0A06882
:10044000012802D14FF4807000E000200543207D98
:10045000012811D1207B38B9A069401E4FF40061FA
:1004600041EA4030054307E0A06A40F02000A06266
:10047000E06A40F00100E0622068406820F46940D2
:10048000284321684860206880682149084030433B
:1004900021688860A068B0F5807F02D0A06801283C
:1004A00002D14FF4807000E00020B0F5807F03D1CE
:1004B000208A401E4FEA00582068C06A20F470006D
:1004C00040EA08002168C862206880681149084035
:1004D000B04208D10020E062A06A20F0020040F0A3
:1004E0000100A06211E0A06A20F0020040F01000BC
:1004F000A062E06A40F00100E062012705E0FFE74A
:10050000A06A40F01000A062012738466BE70000A7
:10051000FDF7E1FFFE0E1FFF10B586B00446002078
:10052000029003900490059014492068884222D1DB
:1005300000BF1348806940F4007011498861084683
:10054000806900F40070019000BF00BF00BF084642
:10055000806940F0040088610846806900F004006A
:10056000019000BF00BF022002900320039002A967
:10057000044800F06DF906B010BD000000240140F1
:10058000001002400008014070B50446E06B0568A9
:100590002068066894F8401004208840284000280D
:1005A00046D006F00400002842D02068006800F021
:1005B000200028B92068006820F004002168086045
:1005C00057492068884201D1042027E0544914315A
:1005D0002068884201D1402020E05149283120681C
:1005E000884201D1001519E04D493C31206888420C
:1005F00002D14FF4804011E04949503120688842CF
:1006000002D14FF4802009E04549643120688842D6
:1006100002D14FF4800001E04FF08060404908397A
:100620004860E06A00287AD02046E16A884776E090
:1006300094F84010022088402840A0B306F0020041
:1006400088B32068006800F0200040B92068006886
:1006500020F00A0021680860012084F82100304958
:100660002068884201D1022028E02D4914312068F9
:10067000884201D1202021E0294928312068884280
:1006800001D140151AE026493C312068884202D148
:100690004FF4005012E0224950312068884203D1C3
:1006A0004FF400300AE017E01D49643120688842A9
:1006B00002D14FF4001001E04FF0007018490839E2
:1006C000486000BF002084F8200000BFA06A30B35B
:1006D0002046A16A884722E094F84010082088400C
:1006E0002840E0B106F00800C8B12068006820F09A
:1006F0000E002168086094F8401001208840E16BEA
:1007000048600120A06384F8210000BF002084F825
:10071000200000BF206B10B12046216B884770BDC0
:10072000080002400146002209B901207047164B1B
:100730000868C01A1423B0FBF3F080000864124864
:100740000838C863022081F821000868026843F66F
:10075000F0708243D1E901031843CB6818430B6959
:1007600018434B6918438B691843CB6918430243FC
:100770000868026000208863012081F821000020C1
:1007800081F8200000BFD1E7080002402DE9F041C8
:1007900004460D4616461F464FF0000800BF94F869
:1007A0002000012802D10220BDE8F081012084F858
:1007B000200000BF94F8210001282CD1022084F8E9
:1007C00021000020A0632068006820F0010021685B
:1007D00008603B46324629462046FFF731FDE06A75
:1007E00030B12068006840F00E00216808600BE01E
:1007F0002068006820F00400216808602068006814
:1008000040F00A00216808602068006840F001009C
:100810002168086006E000BF002084F8200000BFC7
:100820004FF002084046BFE770B5044600F09CF95F
:1008300006462546681C10B104480078054400BFF0
:1008400000F092F9801BA842FAD370BD5008002036
:100850002DE9F84703460022944666E14FF001086F
:1008600008FA02F4D1F8008008EA0400A0427DD121
:10087000DFF8CCA2D1F80480A8EB0A09D0453AD021
:1008800014DCB8F1030F50D009DCB8F1000F31D0FF
:10089000B8F1010F1CD0B8F1020F49D120E0B8F136
:1008A000110F18D0B8F1120F42D11EE0B9F5881F10
:1008B00025D006DCB9F5803F20D0B9F5801F37D1AF
:1008C0001AE0B9F5001F18D0B9F5041F30D117E0B0
:1008D000D1F80CC02DE0D1F80C8008F1040C28E010
:1008E000D1F80C8008F1080C23E0D1F80C8008F155
:1008F0000C0C1EE000BF00BF00BF00BF00BF00BF68
:10090000D1F80880B8F1000F02D14FF0040C0BE0D1
:10091000D1F80880B8F1010F03D14FF0080C1C6129
:1009200002E04FF0080C5C6103E04FF0000C00E0C7
:1009300000BF00BFFF2801D8984601E003F104087A
:100940004646FF2802D84FEA820803E0A2F10808D1
:100950004FEA88084746D6F800804FF00F0909FA99
:1009600007F928EA09080CFA07F900E085E048EAE7
:100970000908C6F80080D1F8048008F08058B8F162
:10098000805F7AD100BFDFF8BC81D8F8188048F0CA
:100990000108DFF8B091C9F81880C846D8F8188067
:1009A00008F00108CDF8008000BF00BF4FEAB93859
:1009B0004FEA920958F829504FEA82784FEA18799D
:1009C0004FF00F0808FA09F825EA0805DFF87881E2
:1009D000434502D14FF000080FE0DFF87081434536
:1009E00002D14FF0010808E0DFF86481434502D1ED
:1009F0004FF0020801E04FF003084FEA82794FEA16
:100A0000197908FA09F848EA0505DFF848814FEA3C
:100A1000920948F82950D1F8048008F48018B8F5F4
:100A2000801F0AD1DFF83081D8F8008048EA00083A
:100A3000DFF82491C9F8008009E0DFF81C81D8F8BC
:100A4000008028EA0008DFF81091C9F80080D1F88A
:100A5000048008F40018B8F5001F0FD1DFF8F88003
:100A600008F10408D8F8008048EA0008DFF8E890A8
:100A700009F10409C9F800800EE055E0DFF8D880DC
:100A800008F10408D8F8008028EA0008DFF8C890C8
:100A900009F10409C9F80080D1F8048008F400388D
:100AA000B8F5003F0ED1DFF8B080A8F10408D8F8FF
:100AB000008048EA0008DFF8A090A9F10409C9F80D
:100AC00000800DE0DFF89080A8F10408D8F80080DD
:100AD00028EA0008DFF88090A9F10409C9F800802D
:100AE000D1F8048008F48038B8F5803F0ED1DFF8E3
:100AF0006880A8F10808D8F8008048EA0008DFF804
:100B00005890A9F10809C9F800800DE0DFF8488085
:100B1000A8F10808D8F8008028EA0008DFF8389023
:100B2000A9F10809C9F80080521CD1F8008028FA00
:100B300002F8B8F1000F7FF491AEBDE8F88700002D
:100B4000000011100010024000080140000C01409C
:100B50000010014008000140080401400AB1016191
:100B600001E00B0403617047014800687047000012
:100B70004808002070B504460CB9012070BD94F8F7
:100B80003D0028B9002084F83C00204600F0DAF847
:100B9000242084F83D002068006820F001002168CE
:100BA00008602068006840F4004021680860206800
:100BB000006820F400402168086000F041FB054611
:100BC0005C496068884206D85B48854201D20120B2
:100BD00007E0002005E05948854201D2012000E0ED
:100BE0000020012800D1C9E75548B5FBF0F6206880
:100BF000406820F03F003043216848604D496068FC
:100C0000884201D8701C07E04FF4967070434FF48F
:100C10007A71B0FBF1F0401C2168096A21F03F01B4
:100C200008432168086243496068884214D8681EF6
:100C300061684900B0FBF1F0401CC0F30B000428D0
:100C400001D204203DE0681E61684900B0FBF1F06C
:100C5000401CC0F30B0034E0A06838B9681E61681E
:100C600001EB4101B0FBF1F0401C0AE0681E616835
:100C700001EBC10202EB0111B0FBF1F0401C40F4AA
:100C80008040C0F30B0008B901201AE0A06848B901
:100C9000681E616801EB4101B0FBF1F0401CC0F33C
:100CA0000B000CE0681E616801EBC10202EB011150
:100CB000B0FBF1F0401CC0F30B0040F4804040F466
:100CC00000402168C9694CF6FF72914308432168CE
:100CD000C861D4E9070108432168096821F0C0010F
:100CE000084321680860D4E9031008432168896833
:100CF00048F2FF329143084321688860D4E9050136
:100D000008432168C96821F0FF0108432168C860D1
:100D10002068006840F0010021680860002020641D
:100D2000202084F83D000020206384F83E0000BFAE
:100D300024E70000A086010080841E0000093D0019
:100D400040420F0010B586B0044600200290039088
:100D5000049005901B492068884231D100BF1A4891
:100D6000806940F00800184988610846806900F0F1
:100D70000800019000BF00BF4FF4407002901220A5
:100D80000390002004900320059002A90F48FFF76C
:100D90005FFD00BF0E49486840F0E06040F002008F
:100DA000486000BF00BF0848C06940F40010064911
:100DB000C8610846C06900F40010019000BF00BF80
:100DC00006B010BD0054004000100240000C01406D
:100DD00000000140034800680349097808440149BC
:100DE00008607047480800205008002010B50848E7
:100DF000006840F0100006490860032000F0A8F8E1
:100E00000F2000F007F800F02BF8002010BD0000C4
:100E10000020024070B504460E4800784FF47A7105
:100E2000B1FBF0F00C490968B1FBF0F5284600F081
:100E3000BCFE08B1012070BD102C07D20022214653
:100E4000501E00F047F80548046001E00120F2E779
:100E50000020F0E750080020540800204C08002033
:100E600008B500BF1148806940F001000F49886152
:100E70000846806900F00100009000BF00BF00BF7D
:100E80000846C06940F08050C8610846C06900F05B
:100E90008050009000BF00BF00BF0549486820F0A7
:100EA000E06040F00070486000BF08BD00100240E4
:100EB0000000014001460846002809DB00F01F033E
:100EC00001229A4043099B0003F1E023C3F800216B
:100ED00000BF70472DE9F05F80460D46164600279B
:100EE00002F0E2F9074639462A46334601F0070088
:100EF000C0F1070ABAF1040F02D94FF0040A01E069
:100F0000C0F1070AD14600F1040ABAF1070F02D274
:100F10004FF0000A01E0A0F1030AD4464FF0010AA5
:100F20000AFA09FAAAF1010A0AEA020A0AFA0CFA0A
:100F30004FF0010B0BFA0CFBABF1010B0BEA030BAF
:100F40004AEA0B042146404602F0B6F9BDE8F09F9C
:100F500000BF00F00702064B19684FF6FF03194067
:100F6000044B0B4343EA0221014B196000BF704759
:100F70000CED00E00000FA05F8B504460026002557
:100F8000207800F0010000286BD000274348C0699A
:100F900000F0805070B900BF4048C06940F08050F8
:100FA0003E49C8610846C06900F08050009000BF0B
:100FB00000BF01273A48006800F48070B0B9384893
:100FC000006840F4807036490860FFF7CDFD0646A2
:100FD00006E0FFF7C9FD801B642801D90320F8BD96
:100FE0002F48006800F480700028F2D02B48006A77
:100FF00000F440752DB3A08800F44070A84220D0C2
:101000002648006A20F44075012026490860002027
:1010100008602248056205F0010090B1FFF7A4FDC9
:10102000064608E0FFF7A0FD801B41F288318842A8
:1010300001D90320D3E71948006A00F00200002814
:10104000F0D01648006A20F44070616808431349E4
:101050000862012F04D10846C06920F08050C861A1
:1010600000BF207800F00200022807D10B4840683A
:1010700020F44040A168084308494860207800F007
:101080001000102807D10548406820F48000E1686E
:101090000843024948600020A1E700000010024018
:1010A000007000404004424270B504460D460CB941
:1010B000012070BD5A48006800F00700A8420ED217
:1010C0005748006820F00700284355490860084643
:1010D000006800F00700A84201D00120E9E720786D
:1010E00000F0020002281DD1207800F0040004283E
:1010F00005D14C48406840F4E0604A494860207897
:1011000000F00800082805D14648406840F46050C7
:10111000444948604348406820F0F000A168084313
:1011200040494860207800F0010078B360680128E9
:1011300006D13C48006800F4003090B90120B8E7BF
:101140006068022806D13748006800F0007040B996
:101150000120AEE73348006800F0020008B9012022
:10116000A7E73048406820F00300616808432D4934
:101170004860FFF7F9FC064609E0FFF7F5FC801B25
:1011800041F28831884202D9032092E707E02548DE
:10119000406800F00C006168B0EB810FEDD1204891
:1011A000006800F00700A8420ED91D48006820F032
:1011B000070028431A4908600846006800F0070045
:1011C000A84201D0012074E7207800F00400042830
:1011D00007D11448406820F4E060E16808431149F1
:1011E0004860207800F00800082808D10D484068C1
:1011F00020F46050216940EAC1000A49486000F0CB
:101200003FF808494968C1F30311074A515CC840D7
:101210000649086006480068FFF7FCFD002048E723
:1012200000200240001002408A39000854080020C3
:101230004C08002001480068704700005408002056
:1012400000B5FFF7F7FF04494968C1F30221034ADB
:10125000515CC84000BD0000001002409A390008EF
:1012600000B5FFF7E7FF04494968C1F3C221034A0B
:10127000515CC84000BD0000001002409A390008CF
:1012800070B500210022002400230020134D69685E
:1012900001F00C05F5B1042D02D0082D19D101E0A3
:1012A0000F4819E00F4DC1F38346AB5D01F4803563
:1012B00055B10A4D6D68C5F340450B4E725D084D42
:1012C0005D43B5FBF2F402E0084D03FB05F4204654
:1012D00002E000BF024800BF00BF70BD0010024026
:1012E00000127A00783900088839000800093D00AA
:1012F000F8B504460CB90120F8BD207800F00100D3
:10130000002878D0F848406800F00C0004280CD081
:10131000F548406800F00C00082811D1F2484068F8
:1013200000F48030B0F5803F0AD1EF48006800F447
:10133000003000285FD0606800285CD10120DBE726
:1013400000BF6068B0F5803F06D1E748006840F410
:101350008030E549086028E0606858B9E2480068D4
:1013600020F48030E04908600846006820F48020BE
:1013700008601AE06068B0F5A02F0BD1DA48006869
:1013800040F48020D84908600846006840F4803066
:1013900008600AE0D448006820F48030D249086030
:1013A0000846006820F48020086000BF606888B1AB
:1013B000FFF7DAFB054606E0FFF7D6FB401B642883
:1013C00001D9032098E7C848006800F400300028DD
:1013D000F2D010E0FFF7C8FB054606E0FFF7C4FBBC
:1013E000401B642801D9032086E7BF48006800F449
:1013F00000300028F2D1207800F00200022857D1F6
:10140000B948406800F00C0050B1B748406800F09F
:101410000C00082818D1B448406800F4803098B90E
:10142000B148006800F0020020B12069012801D015
:10143000012061E7AC48006820F0F800616940EAEB
:10144000C100A949086033E02069E8B10120A7493B
:101450000860FFF789FB054606E0FFF785FB401BA8
:10146000022801D9032047E79F48006800F00200E6
:101470000028F2D09C48006820F0F800616940EA3A
:10148000C1009949086013E0002098490860FFF7FF
:101490006BFB054606E0FFF767FB401B022801D9FE
:1014A000032029E79048006800F002000028F2D1EC
:1014B000207800F0080008282DD1A069B8B10120DB
:1014C0008B490860FFF750FB054606E0FFF74CFB31
:1014D000401B022801D903200EE78348406A00F030
:1014E00002000028F2D0012001F0C4FB13E000202C
:1014F0007F490860FFF738FB054606E0FFF734FB3D
:10150000401B022801D90320F6E67748406A00F024
:1015100002000028F2D1207800F00400042873D1E2
:1015200000277148C06900F0805070B900BF6E4854
:10153000C06940F080506C49C8610846C06900F03D
:101540008050009000BF00BF01276A48006800F487
:101550008070B0B96748006840F4807065490860E1
:10156000FFF702FB054606E0FFF7FEFA401B642882
:1015700001D90320C0E65F48006800F480700028AD
:10158000F2D000BFE068012806D15748006A40F059
:1015900001005549086227E0E06858B95248006ADE
:1015A00020F00100504908620846006A20F004005B
:1015B000086219E0E06805280BD14B48006A40F04A
:1015C0000400494908620846006A40F001000862C8
:1015D0000AE04548006A20F00100434908620846D5
:1015E000006A20F00400086200BFE068A0B1FFF7C5
:1015F000BBFA054609E0FFF7B7FA401B41F2883114
:10160000884202D9032077E622E03748006A00F0DA
:1016100002000028EFD012E0FFF7A6FA054608E026
:10162000FFF7A2FA401B41F28831884201D903201A
:1016300062E62D48006A00F002000028F0D1012F78
:1016400005D12948C06920F080502749C86100BFF2
:10165000E069C8B32448406800F00C00082860D056
:10166000E069022848D1002020490866FFF77CFA8B
:10167000054606E0FFF778FA401B022801D903204F
:101680003AE61948006800F000700028F2D1206A9C
:10169000B0F5803F07D11448406820F40030A168BD
:1016A000084311494860D4E9080108430E494968D4
:1016B00021F4741108430C49486001200B49086665
:1016C000FFF752FA054607E03DE0FFF74DFA401BF1
:1016D000022801D903200FE60348006800F00070DB
:1016E0000028F2D02FE0000000100240000042422B
:1016F0008004424200700040002014490866FFF751
:1017000033FA054606E0FFF72FFA401B022801D9FD
:101710000320F1E50E48006800F000700028F2D1C7
:1017200011E0E069012800D1E6E50948466806F4C1
:101730008031206A814204D106F47011606A8142CE
:1017400001D00120D8E50020D6E50000000042428B
:1017500000100240704710B504460CB9012010BDBE
:10176000606A38B96068B0F5827F00D105E0002179
:10177000E16102E00021216161610021A16294F830
:10178000510028B9002084F85000204600F042F8AB
:10179000022084F851002068006820F04000216891
:1017A0000860A08800F48270218901F40441084394
:1017B000A18901F400610843217C01F00201084382
:1017C000217D01F001010843218B01F400710843E0
:1017D000217F01F0380108432021095D01F08001DB
:1017E0000843218D01F40051084321680860042159
:1017F000A06901EA1040216848602068C06920F4AF
:1018000000602168C86100206065012084F85100F3
:101810000020A4E710B586B0044600200290039093
:101820000490059026492068884246D100BF25488B
:10183000806940F48050234988610846806900F43B
:101840008050019000BF00BF00BF0846806940F093
:10185000040088610846806900F00400019000BF20
:1018600000BFA0200290022003900320059002A94F
:101870001548FEF7EDFF40200290002003900490F1
:1018800002A91148FEF7E4FF104811490860102032
:10189000486000210E4881608021C1600021016103
:1018A00041618161C161FEF73DFF08B1FEF7DFFCD8
:1018B00000BF0748A064446200BF06B010BD00002E
:1018C000003001400010024000080140300002409A
:1018D0003C0900202DE9F84304460F4616461D46F4
:1018E000FFF742F98046B14694F85100012802D032
:1018F0000220BDE8F88307B10EB90120F9E700BF67
:1019000094F85000012801D10220F2E7012084F868
:10191000500000BF032084F8510000206065276359
:10192000A686E686A063A087E08760642064A0683E
:10193000B0F5004F0BD12068006820F0400021680E
:1019400008602068006840F48040216808602068D2
:10195000006800F04000402805D02068006840F092
:10196000400021680860E068B0F5006F37D160681A
:1019700010B1B9F1010F09D1206B00882168C8604E
:10198000206B801C2063E08E401EE08623E02068F0
:10199000806800F0020002280AD1206B00882168CC
:1019A000C860206B801C2063E08E401EE08612E041
:1019B000FFF7DAF8A0EB0800A84201D3681C00B9D1
:1019C0004DB9012084F8510000BF002084F8500078
:1019D00000BF03208DE7E08E0028D8D136E0606894
:1019E00010B1B9F1010F09D1206B0078216808739B
:1019F000206B401C2063E08E401EE08623E02068C0
:101A0000806800F0020002280AD1206B007821686B
:101A10000873206B401C2063E08E401EE08612E0BD
:101A2000FFF7A2F8A0EB0800A84201D3681C00B998
:101A30004DB9012084F8510000BF002084F8500007
:101A400000BF032055E7E08E0028D8D14246294642
:101A5000204601F07DF908B120206065A06850B9EA
:101A600000BF002000902068C06800902068806857
:101A7000009000BF00BF012084F8510000BF00208B
:101A800084F8500000BF606D08B1012031E70020EC
:101A90002FE700002DE9F04104460E46154694F864
:101AA0005100012802D00220BDE8F08106B10DB935
:101AB0000120F9E700BF94F85000012801D102206D
:101AC000F2E7012084F8500000BF032084F85100A1
:101AD000002060652663A586E586A06360642064B7
:101AE000A087E087A068B0F5004F0BD120680068A0
:101AF00020F04000216808602068006840F48040C1
:101B0000216808601F48A16CC8621F48A16C8862E8
:101B10001E48A16C08630020A16C4863E38E27680F
:101B200007F10C02216BA06CFEF730FE50B1606D26
:101B300040F01000606500BF002084F8500000BF36
:101B40000120B1E72068006800F04000402805D07F
:101B50002068006840F040002168086000BF002055
:101B600084F8500000BF2068406840F020002168E1
:101B700048602068406840F002002168486000200A
:101B800092E70000C52C0008D32C00089D2C00080B
:101B9000034A0168914202D10021024A1170704744
:101BA0000030014058080020704770B504462546B3
:101BB000681EB0F1807F01D301200FE0681E4FF056
:101BC000E02148610F214FF0FF3001F075FB00204C
:101BD0004FF0E021886107200861002070BD0000FF
:101BE00030B502460B4600BF92F83C00012801D1F7
:101BF000022030BD012082F83C0000BF022082F8A4
:101C00003D00106844681068816824F0700418680A
:101C10000443106844600E4D1068A84207D0106855
:101C2000B0F1804F03D00B4D1068A84205D121F0D0
:101C300080015868014310688160012082F83D00EE
:101C400000BF002082F83C0000BF00BFD1E70000C9
:101C5000002C0140000400402DE9F04104460D46EF
:101C600014B90120BDE8F08194F83D0028B90020A6
:101C700084F83C00204600F051F8022084F83D0032
:101C80002068806844F20701884321688860211D2C
:101C9000206801F033F92068D0F808802068866950
:101CA0002068076A286840EA080840F20330864343
:101CB000A969A86840EA0120064340F60C40864323
:101CC0004FF2F0008643E969E86840EA01200643E4
:101CD00028690001296A40EA0130064327F02207FB
:101CE0006969686840EA011007432068C0F8088005
:101CF0002068866120680762012084F8460084F825
:101D00003E0001213F200155012084F8420043207C
:101D10000155012084F83D000020A3E710B586B0EE
:101D20000446002002900390049005901549206815
:101D3000884225D100BF1448806940F400601249F0
:101D400088610846806900F40060019000BF00BF10
:101D500000BF0846806940F0040088610846806939
:101D600000F00400019000BF00BF4FF440700290EB
:101D7000002003900120049002A90448FEF768FDAA
:101D800006B010BD002C01400010024000080140C8
:101D90002DE9F04304460D4694F83E603F20075D70
:101DA00094F84280432010F804906DB9012E02D1BE
:101DB000B8F1010F02D00120BDE8F083022084F8C1
:101DC0003E0084F8420025E0042D0CD1012F02D101
:101DD000B9F1010F01D00120EEE702213F200155AA
:101DE0004320015516E0012E07D1012F05D1B8F18E
:101DF000010F02D1B9F1010F01D00120DCE702206F
:101E000084F83E0002213F200155022084F8420060
:101E10004320015515B1042D0CD105E0012200210C
:101E2000206801F0A5F810E001220421206801F0EB
:101E30009FF80AE001220021206801F099F80122B0
:101E40000421206801F094F800BF00BF20680068FA
:101E500040F00100216808600020ADE72DE9F04165
:101E600004460D461646002700BF94F83C000128A2
:101E700002D10220BDE8F081012084F83C0000BFBF
:101E800096B9EB68D5E90012206801F083F8206864
:101E9000806920F00C002168886120688069A96849
:101EA00008432168886141E0042E13D1EB68D5E92D
:101EB0000012206801F09CF82068806920F44060DE
:101EC0002168886120688069A96840EA012021684A
:101ED00088612BE0082E12D1EB68D5E9001220684A
:101EE00001F0A3F82068C06920F00C002168C861E7
:101EF0002068C069A96808432168C86116E00C2EF3
:101F000013D1EB68D5E90012206801F0AAF8206827
:101F1000C06920F440602168C8612068C069A96870
:101F200040EA01202168C86100E0012700BF0020CD
:101F300084F83C0000BF38469CE710B504460CB955
:101F4000012010BD94F83D0028B9002084F83C0021
:101F5000204600F025F8022084F83D00211D20686D
:101F600000F0CCFF012084F8460000BF84F83E005A
:101F700001213F200155402001554120015500BF5E
:101F800000BF012084F84200432001554420015540
:101F90004520015500BF012084F83D000020D0E716
:101FA00010B586B00446002002900390049005907E
:101FB0002068B0F1804F2FD100BF1848C06940F0B1
:101FC00001001649C8610846C06900F0010001908F
:101FD00000BF00BF00BF0846806940F00400886170
:101FE0000846806900F00400019000BF00BF4FF474
:101FF0000040029000200390049002A90848FEF7D8
:1020000027FC00BF0749486820F4407040F0E060BA
:1020100040F48070486000BF06B010BD0010024060
:10202000000801400000014010B504460CB9012031
:1020300010BDA06900B100E000BF94F8410028B9CC
:10204000002084F84000204600F02AF8242084F87C
:1020500041002068C06820F400502168C860204614
:1020600001F054F82068006920F49040216808616C
:102070002068406920F02A00216848612068C06813
:1020800040F400502168C86000206064202084F87B
:10209000410084F842000020606300BFC8E70000F0
:1020A00010B586B00446002002900390049005907D
:1020B0001E492068884236D100BF1D48806940F41F
:1020C00080401B4988610846806900F48040019087
:1020D00000BF00BF00BF0846806940F0080088616B
:1020E0000846806900F00800019000BF00BF402052
:1020F0000290022003900320059002A90D48FEF7EC
:10210000A7FB8020029000200390049002A90948B8
:10211000FEF79EFB00BF0849486840F0E06040F0D1
:102120000400486000BF06B010BD00000038014048
:1021300000100240000C0140000001402DE9F84F62
:1021400004460E46174699464FF0000A94F841009F
:10215000202850D106B117B90120BDE8F88F002022
:102160006064212084F84100FEF7FEFC8246A784CB
:10217000E784A068B0F5805F04D1206910B900251C
:10218000B04602E035464FF000081EE053460022FC
:1021900080212046CDF8009001F036F820B12020B3
:1021A00084F841000320D8E745B9B8F80000C0F32F
:1021B00008002168486008F1020803E028782168D7
:1021C00048606D1CE08C401EE084E08C0028DDD16E
:1021D0005346002240212046CDF8009001F014F82B
:1021E00020B1202084F841000320B6E7202084F8A5
:1021F00041000020B1E70220AFE700BFFEE700008A
:102200000EB500200090019002901148114908601D
:10221000002110488160017301754FF46021C16194
:1022200000200C49486001210A480161FEF7D2F8FC
:1022300008B1FEF71CF801200090019000200290E8
:1022400069460448FEF716F808B1FEF710F80EBD0F
:10225000002401406008002008B500BF0A4840691A
:1022600040F00100084948610846406900F001005B
:10227000009000BF00BF002211460D20FEF72AFE8D
:102280000D20FEF717FE08BD0010024000B585B016
:102290000020019002900390049000BF3A488069AA
:1022A00040F01000384988610846806900F010004D
:1022B000009000BF00BF00BF0846806940F02000CA
:1022C00088610846806900F02000009000BF00BFD0
:1022D00000BF0846806940F00400886108468069B4
:1022E00000F00400009000BF00BF00BF08468069F6
:1022F00040F0080088610846806900F008000090FE
:1023000000BF00BF00224FF400512048FEF726FC1A
:1023100000221C211E48FEF721FC00224FF44061E0
:102320001C48FEF71BFC4FF4005001900120029066
:1023300003900220049001A91448FEF789FA1C209A
:10234000019001200290002003900220049001A936
:102350000F48FEF77DFA4FF4406001900120029093
:1023600002200390049001A90A48FEF771FA4FF485
:102370007040019000200290039001A90548FEF7EB
:1023800067FA05B000BD00000010024000100140D7
:1023900000080140000C014010B50B480B490860D3
:1023A0000B484860002109488160C1604FF48041BA
:1023B0000161002141618161C1610162FEF7DAFBC7
:1023C00008B1FDF754FF10BD0054004090080020F4
:1023D000A086010010B50E480E4908604FF48270C7
:1023E000486000210B488160C160016141614FF488
:1023F000007181610821C161002101624162816235
:102400000A21C162FFF7A7F908B1FDF730FF10BD3F
:1024100000300140E408002000B58BB0242102A860
:10242000FDF789FE002000900190184818490860C7
:10243000002048600021164881604FF6FF71C1609E
:10244000002101614161816103200290002003901D
:10245000012004900020059006900790012008902C
:10246000002009900A9002A90948FFF7F5FB08B17E
:10247000FDF7FDFE00200090019069460448FFF73B
:10248000AFFB08B1FDF7F3FE0BB000BD002C01401F
:102490008009002000B587B00020059006900190CB
:1024A0000290039004904FF080401649086000208D
:1024B00048600021134881604FF6FF71C160002120
:1024C00001618161FFF739FD08B1FDF7D0FE002001
:1024D0000590069005A90B48FFF782FB08B1FDF7B0
:1024E000C6FE00200190012002900020039004907D
:1024F000002201A90348FFF7B1FC08B1FDF7B7FEC0
:1025000007B000BDC809002010B50B480B49086092
:102510004FF4E1304860002108488160C1600161EA
:102520000C21416100218161C161FFF77DFD08B18E
:10253000FDF79DFE10BD000000380140100A00208C
:1025400000BFFEE700BFFEE710B5002004E0002159
:10255000044A1154411C88B2B0F5806FF7DB00F0DB
:10256000F1F810BD580A002010B504461CB900212E
:10257000A62000F015FB012C03D10021A72000F0BC
:102580000FFB10BD10B500218D2000F009FB0021CC
:10259000142000F005FB0021AF2000F001FB10BD6E
:1025A00010B504463CB90021C82000F0F9FA00211A
:1025B000A12000F0F5FA012C07D10021C02000F085
:1025C000EFFA0021A02000F0EBFA10BDF0B50346B1
:1025D00016467F2B01DC3F2900DDF0BD0D46CF17ED
:1025E00001EB5777C7F3CF02CF1701EB5777FF10F7
:1025F000A1EBC707FCB203EBC215A8B23EB1084D70
:102600002D5C0127A7403D43054F3D5406E0044D96
:102610002D5C0127A740BD43014F3D5400BFDCE7BF
:10262000580A002010B5002210213F48FEF796FA04
:10263000C820FEF7F9F8012210213B48FEF78EFA78
:102640000021AE2000F0ACFA0021084600F0A8FA04
:102650000021102000F0A4FA0021402000F0A0FA90
:102660000021812000F09CFA0021CF2000F098FA90
:102670000021A12000F094FA0021C82000F090FA77
:102680000021A62000F08CFA0021A82000F088FA92
:1026900000213F2000F084FA0021D32000F080FACE
:1026A0000021084600F07CFA0021D52000F078FADD
:1026B0000021802000F074FA0021D92000F070FA87
:1026C0000021F12000F06CFA0021DA2000F068FA15
:1026D0000021122000F064FA0021DB2000F060FAF3
:1026E0000021402000F05CFA0021202000F058FA80
:1026F0000021022000F054FA00218D2000F050FA51
:102700000021142000F04CFA0021A42000F048FA27
:102710000021A62000F044FAFFF716FF0021AF20A9
:1027200000F03EFA10BD00000008014010B502465E
:10273000012000E050430B1EA1F10104E1B2F9D1E8
:1027400010BD000010B5002412E004F1B001C8B2C1
:1027500000F04CFA002000F049FA102000F046FA90
:10276000054901EBC410802100F05CFA601CC4B282
:10277000082CEADB10BD0000580A00202DE9FE4FAE
:102780000746884692461C460197CDF80080082CE3
:1027900002D14FF006091FE02046E31704EB537304
:1027A000DB1021464FEAE47C04EB5C7C4FEAEC0C46
:1027B000A4EBCC0CBCF1000F02D04FF0010C01E0F7
:1027C0004FF0000C6344224604EBD27C4FEA6C0CC1
:1027D00003FB0CF303F0FF09AAF12000C6B20025A9
:1027E00060E0082C06D00C2C0CD0102C12D0182C29
:1027F0001ED115E006EB46002C4901EB400010F815
:1028000005B017E006EB4600294901EB800010F8FF
:1028100005B00FE0274800EB061010F805B009E0FE
:1028200006EBC600244901EB800010F805B001E07A
:10283000BDE8FE8F00BF002002901CE00BF00100FD
:1028400028B1414638460C9AFFF7C0FE09E00C98C3
:1028500008B9012000E00020024641463846FFF753
:10286000B5FE4FEA6B0B08F1010000F0FF0802987B
:10287000401CC0B2029002980828DFDB781CC7B267
:10288000082C0BD004EBD4714A100199791A8A42B2
:1028900004D1019F00980830C0B20090DDF800809C
:1028A000681CC5B24D459CDB00BFC1E7A2390008DA
:1028B000CA3B00083E4000082E4600087CB50D4883
:1028C0000068446A01200C230BA23421009054209C
:1028D00000F0FFF8254601200C21CDE90010E0179B
:1028E00004EB90708210032334216E2000F040F836
:1028F0007CBD000080090020434E543A00000000D7
:102900001CB516480068401C14490860FEF72CF9F5
:1029100013490968401AB0F57A7F1DD30F48006843
:102920001049086000200D490860FEF71DF90C49A8
:10293000086001200C230CA200210090084600F042
:10294000C8F801200C210323CDE90010054800211F
:102950000268182000F00CF81CBD000040080020A0
:102960003C080020440800204650533A0000000074
:102970002DE9FF4F82B0064691461F46DDE90F4A1A
:102980004FF0000B082C01D14FF0020B002530E076
:10299000781B401EC1B20A20FFF7C8FEB9FBF0F059
:1029A0000A21B0FBF1F201FB1208B8F1000F0ED1C1
:1029B00004EBD4710BEB610101FB0561C8B2234646
:1029C0003022CDE900A40399FFF7D8FE0FE004EB15
:1029D000D4710BEB610101FB0561C8B208F1300154
:1029E000CAB22346CDE900A40399FFF7C7FE681CCD
:1029F000C5B2BD42CCDB06B0BDE8F08F2DE9FF4F7C
:102A000005460E4617461C46DDF838904FF0000A82
:102A10000095B3462046E21704EB5272D2102146CD
:102A2000E31704EB5373DB10A4EBC3030BB10123D7
:102A300000E000231A44D4B24FF0000845E0002023
:102A400003903BE00D9810F80A0002900AF1010093
:102A50001FFA80FA002001901DE0029800F00100AA
:102A600028B14A4631462846FFF7B0FD0AE0B9F1E1
:102A7000000F01D1012000E0002002463146284627
:102A8000FFF7A4FD029840100290701CC6B2019896
:102A9000401CC0B2019001980828DEDB681CC5B25A
:102AA0000098281AB84204D1009D0BF1080000F0EC
:102AB000FF0B5E460398401CC0B203900398B842D7
:102AC000C0DB08F1010000F0FF08A045B7DBBDE85E
:102AD000FF8F2DE9F84106460F4614461D46DDF8E6
:102AE0001C8013E0CDF8008022782B463946304612
:102AF000FFF744FE082D02D1B01DC6B205E02846FE
:102B000005EBD07106EB6101CEB2641C2078202861
:102B100002DB20787E28E5DDBDE8F8812DE9FC4761
:102B200005460E4617461C46DDF828803C20B7FBBC
:102B3000F0F9B7FBF0F100FB117A012016491823D8
:102B40001A46CDE9001031462846FFF757FF321DDF
:102B5000D1B205F11C02D0B202234A46CDE90048A9
:102B6000FFF706FFF21CD1B205EB44020C32D0B2E3
:102B700023460AA2CDF80080FFF7ABFF321DD1B289
:102B800005EB44021432D0B202235246CDE900488C
:102B9000FFF7EEFEBDE8FC87F83800083A000000B9
:102BA00013B50C46012C05D1012208210D48FDF773
:102BB000D5FF04E0002208210A48FDF7CFFF0022DC
:102BC00004210848FDF7CAFF4FF0FF330122694690
:102BD0000548FEF77FFE012204210248FDF7BEFFF3
:102BE0001CBD000000080140E408002001B50022DF
:102BF00008210A48FDF7B2FF002204210748FDF72B
:102C0000ADFF4FF0FF33012269460548FEF762FE33
:102C1000012204210148FDF7A1FF08BD0008014081
:102C2000E408002070B504460D46012208210D4835
:102C3000FDF794FF002204210A48FDF78FFF0120D1
:102C4000094908702A4621460848FEF723FF00BFBD
:102C5000054800780028FBD1012204210148FDF736
:102C60007DFF70BD0008014058080020E4080020E6
:102C70007047000008B508490968C9084FF47A721E
:102C8000B1FBF2F14143009100BF00BF00994A1E21
:102C900000920029F9D108BD5408002070B50546FE
:102CA0006C6A2068406820F0030021684860606D0D
:102CB00040F010006065012084F851002046FEF7C6
:102CC00049FD70BD70B50446656A2846FEF76CFF85
:102CD00070BDF8B505466C6AFDF746FF06462868E4
:102CE000006800F0200020282DD02068406820F0E7
:102CF0002000216848602068406820F002002168B8
:102D0000486032466421204600F022F818B1606D18
:102D100040F020006065A06850B900BF002000901E
:102D20002068C068009020688068009000BF00BFE5
:102D30000020E086012084F85100606D18B1204623
:102D4000FEF708FDF8BD2046FEF722FF00BFF9E7B9
:102D5000F8B504460E4615463346012202212046A8
:102D6000009500F017F828B1606D40F02000606514
:102D70000320F8BD3346002280212046009500F054
:102D800009F828B1606D40F0200060650320F0E78D
:102D90000020EEE72DE9F84F04460D4690461E460A
:102DA000DDF82890FDF7E0FEA0EB0900371AFDF7EB
:102DB000DBFE82462C480068C0F3CB30784300909D
:102DC00045E0701C002842D0FDF7CEFEA0EB0A00C3
:102DD000B84200D2A7BB2068406820F0E00021681C
:102DE00048606068B0F5827F0DD1A068B0F5004FF3
:102DF00003D0A068B0F5806F05D12068006820F08E
:102E0000400021680860A06AB0F5005F0DD100BFE6
:102E10002068006820F4005021680860206800687D
:102E200040F400502168086000BF012084F8510080
:102E300000BF002084F8500000BF0320BDE8F88FD9
:102E4000FFE7009800B900270098401E0090206816
:102E500080682840A84201D1012000E000204045C0
:102E6000AFD10020EAE7000054080020704710B5F9
:102E7000FDF7B0FF10BD00B593B0282109A8FDF7FC
:102E80005AF9142104A8FDF756F90020009001908A
:102E9000029003900120099000040A9000200B90FA
:102EA00001200D9002201090C10311914FF4E01108
:102EB000129109A8FEF71CFA08B1FDF7D8F90F2006
:102EC000049002200590002006904FF48060079047
:102ED00000200890022104A8FEF7E6F808B1FDF7EB
:102EE000C6F902200090800302906846FEF744F87D
:102EF00008B1FDF7BCF913B000BD704710B502680A
:102F0000194B984205D0B0F1804F02D0174B984230
:102F100003D122F070024B681A43134B984205D03C
:102F2000B0F1804F02D0114B984203D122F440728D
:102F3000CB681A4322F080034C6943EA0402026022
:102F40008B68C3620B688362074B984201D10B699F
:102F5000036301234361036903F001031BB10369A8
:102F600023F00103036110BD002C01400004004068
:102F700030B501F01F05012404FA05F3046A9C43EF
:102F80000462046A01F01F0502FA05F52C4304628D
:102F900030BD000070B50C461546026A066A26F080
:102FA000010606628169104EB04205D0B0F1804F33
:102FB00002D00E4EB04201D1012600E000261EB123
:102FC00021F00301294301E041F0010121F0F0016A
:102FD000F02606EA0316314322F00A0204F00A063C
:102FE00032438161026270BD002C01400004004048
:102FF00070B50C461546026A066A26F0100606628F
:10300000816921F4407141EA052121F470414FF4B6
:10301000704606EA0336314322F0A002A02606EAF3
:10302000041632438161026270BD70B50C461546CC
:10303000026A066A26F480760662C16921F00301FD
:10304000294321F0F001F02606EA0316314322F469
:1030500000724FF4007606EA04263243C161026230
:1030600070BD70B50C461546026A066A26F4805695
:103070000662C16921F4407141EA052121F47041E1
:103080004FF4704606EA0336314322F400524FF4FF
:10309000005606EA04363243C161026270BD00BFC9
:1030A00000BF02680C3252E8002F22F490710268CF
:1030B0000C3242E80013002BF3D100BF00BF00BF69
:1030C0000268143252E8002F22F001010268143223
:1030D00042E80013002BF3D100BF016B01290ED190
:1030E00000BF00BF02680C3252E8002F22F010012E
:1030F00002680C3242E80013002BF3D100BF2021FC
:1031000080F84210002101637047000070B504464A
:103110002168096921F44051E26811432268116174
:103120002269A1681143626941EA02052168C96800
:1031300041F20C62914329432268D16021684969B8
:1031400021F44071A2691143226851612D4A21681E
:10315000914202D1FEF784F801E0FEF771F800EB2E
:10316000C00101EB001162689200B1FBF2F100EBCB
:10317000C00202EB001263689B00B2FBF3F264230F
:10318000B2FBF3F202EBC20303EB0212A1EB8201EA
:10319000322202EB01116422B1FBF2F101F0F001E5
:1031A00000EBC00202EB001263689B00B2FBF3F27B
:1031B0006423B2FBF3F201EB021200EBC00101EB5E
:1031C000001163689B00B1FBF3F100EBC00303EB5C
:1031D00000136668B600B3FBF6F36426B3FBF6F3A0
:1031E00003EBC30606EB0313A1EB8301322303EBCE
:1031F00001116423B1FBF3F101F00F0111442268C6
:10320000916070BD003801402DE9F84304460D4639
:1032100017469846089E31E0701C70B3FDF7A4FC79
:10322000A0EB0800B04200D816B90320BDE8F8832F
:103230002068C06800F00400F8B1802D1ED0402D39
:103240001CD020680068C0F3C000B0B100BF0020EF
:10325000009020680068009020684068009000BFDF
:1032600000BF2046FFF71BFF0820606400BF00205E
:1032700084F8400000BF0120D8E7FFE7206800681D
:103280002840A84201D1012000E00020B842C3D06C
:103290000020CBE700BFFEE7014A024900F02FB84B
:1032A000213300085C08002002480068C0F30220B7
:1032B000704700000CED00E010B5002804DB0A07A1
:1032C000130E054A135406E00A07140E034A00F0D1
:1032D0000F031B1FD45410BD00E400E018ED00E004
:1032E00002E008C8121F08C1002AFAD170477047CF
:1032F000002001E001C1121F002AFBD170472DE917
:10330000F04116460F460446002503E03946B04713
:10331000641C6D1C20780028F8D12846BDE8F08197
:1033200013B50C464FF6FF73012269460248FEF7BB
:1033300005FF00981CBD0000100A00201CB5FDF719
:1033400055FDFFF798FDFEF7A1FFFEF785FFFFF79C
:1033500023F8FFF761F8FFF7D7F8FEF751FFFFF703
:1033600099F8FFF737F83C216348FEF711FDFFF7A6
:1033700059F9FFF707F90020FFF7F6F80020FFF7EB
:103380000FF95EA0FFF788FF002500240026B1E0BA
:10339000FDF7EAFB8146FFF7B3FAFFF78FFA012149
:1033A000594850F8250018231A46CDE9000112218A
:1033B0000B20FFF723FB012054490C231822CDE9F1
:1033C000001011462920FFF719FB01204F490C235B
:1033D0001822CDE9001011464420FFF70FFB012011
:1033E0004B490C231822CDE9001011465F20FFF74E
:1033F00005FB142094FBF0F100FB1140D0BB701CC6
:1034000086B2322096FBF0F100FB116086B21420E8
:1034100094FBF0F03F4951F820A001201023202216
:103420000021CDE900A06020FFF7E8FA01203A4929
:1034300010231A46CDE9001003212A20FFF7DEFAF7
:103440000120102102233246CDE900101946382010
:10345000FFF78EFA012031490C231A46CDE90010FE
:1034600004214820FFF7CAFA782094FBF0F100FB12
:10347000114084B22A4800682321B0FBF1F201FB1D
:103480001200C8B927480068401C26490860084651
:10349000006841F26F71884202D90020214908601A
:1034A0000120102300901F48282102680A20FFF7FE
:1034B00035FB00201A490860FFF744F9681C85B203
:1034C000062095FBF0F100FB115085B2601C84B220
:1034D00013480068401C12490860FDF745FB074689
:1034E000A7EB0908B8F1100F03D2C8F11000FDF7DF
:1034F0009BF900BF4CE700008009002073797374CA
:10350000656D5F6F6B0D0A001C08002018370008FE
:10351000E836000800080020583900084039000843
:1035200038080020340800200000FCFE06060606CD
:10353000060606C6E0E0FC8480808686060606064F
:103540000606FEFCE0E0E00000007F7F6060606057
:103550006060610101017F0F0F0763606060606060
:1035600060607F3F0F0F0F000000FEFE060606069C
:1035700006060606060606060606060606060606EB
:1035800006FEFEFCF0E0000000007F7F60606060EF
:10359000606060606060606060606060606060602B
:1035A000607F7F3F0F0700000000FEFE0606F6F674
:1035B00006060606060606060606060606060606AB
:1035C00006FEFEFCF0E0000000007F7F60606F6F91
:1035D00060606060606060606060606060606060EB
:1035E000607F7F3F0F0700000000FEFE0606F6F634
:1035F0000606F6F60606060606060606060606068B
:1036000006FEFEFCF0E0000000007F7F60606F6F50
:1036100060606F6F6060606060606060606060608C
:10362000607F7F3F0F0700000000FEFE0606F6F6F3
:103630000606F6F60606F6F606060606060606066A
:1036400006FEFEFCF0E0000000007F7F60606F6F10
:1036500060606F6F60606F6F60606060606060602E
:10366000607F7F3F0F0700000000FEFE0606F6F6B3
:103670000606F6F60606F6F60606F6F6060606064A
:1036800006FEFEFCF0E0000000007F7F60606F6FD0
:1036900060606F6F60606F6F60606F6F60606060D0
:1036A000607F7F3F0F0700000000FEFE0606F6F673
:1036B0000606F6F60606F6F60606F6F60606F6F62A
:1036C00006FEFEFCF0E0000000007F7F60606F6F90
:1036D00060606F6F60606F6F60606F6F60606F6F72
:1036E000607F7F3F0F070000FC0E0703010101010F
:1036F00001010101010101010101010103070EFCAA
:1037000003070E0C08080808080808080808080835
:10371000080808080C0E0703F0FCFEFEFFFFFFFF81
:10372000FFFFFFFFFFFFFFFFFFFFFFFFFEFEFCF0BD
:10373000000307070F0F0F0F0F0F0F0F0F0F0F0FC4
:103740000F0F0F0F0707030000000000C0C0C000EC
:1037500000E0F8FCFCFCF8F87070000000000000CD
:1037600000001C3F3F7F7F7F3C24FFBDBDFF243C0A
:10377000FEFEFEFCFC3800000000000000000E0E03
:103780001F1F3F3F3F1F070000030303000000000F
:1037900000000080C0E0F0F00000E0F0F8F8F8F879
:1037A000F8F0E0C0000000000000000F1F1F3F3FC6
:1037B000BFC6FDBDBDBF63FDFCFCFCF8F000000012
:1037C0000000000003070F1F1F1F1F1F0F03000033
:1037D0000F0F07030100000000000000E0F0F0F010
:1037E000F8F80080C0F0F0F8F0F0F0E00000000021
:1037F00000000000E7C7CFCFFFE7FFBDBDFFE7FF39
:10380000FBF3E3E30000000000000000070F0F0FD0
:103810000F0F0F0300000F0F0F0F0707000000002E
:1038200000000000C0F0F0F8F8F8F81800C0E0E080
:10383000F0F0E0E080000000000000F0F0E3E7E7D7
:10384000E7E7FF3C3DFFE7F7E7E7C70F0F000000A2
:103850000000000107070F0F07030100181F1F1FBB
:103860000F0F070300000000000000000000F0F848
:10387000F8FCFCFC3C188080C0C0C0C08000000088
:10388000000038FCFCF8F8F3F7E7FF3DBCFFE7EF7A
:10389000CF1F1F3F3F04000000000001030303038C
:1038A0000101181E1F3F1F1F0F0F00000000000026
:1038B00000000000800000F0F8F8FCFCFCFC381070
:1038C000908080800000000000003CFFFFFEFCFCB8
:1038D000FD63BFBDBDFEC69F3F3FFFFF7F3C0000B5
:1038E00000000000010101080C1C3F3F3F3F1F0F7B
:1038F0000E000001000000000000000080C06030E9
:103900003016161E1E1616303060F8B83000000053
:10391000000078FF030000000000001F3F3030303F
:1039200000000003FF78000000000003070C1830BF
:10393000302060606060203030180C070300000009
:10394000020502F804020202040E800000000000DA
:103950000102020202010000000000000000FE82DD
:1039600082FE00000000000000000000183C435CE4
:103970005D433C1800000000020304050607080927
:103980000A0B0C0D0E0F10100102000000000000C9
:1039900000000102030406070809000000000102FC
:1039A00003040000000000000000002F00000000E1
:1039B0000700070000147F147F1400242A7F2A12B6
:1039C00000626408132300364955225000000503A5
:1039D000000000001C224100000041221C000014D5
:1039E000083E08140008083E0808000000A0600017
:1039F00000080808080800006060000000201008A7
:103A00000402003E5149453E0000427F4000004212
:103A100061514946002141454B31001814127F1075
:103A2000002745454539003C4A49493000017109A4
:103A3000050300364949493600064949291E000058
:103A400036360000000056360000000814224100FF
:103A5000001414141414000041221408000201512F
:103A6000090600324959513E007C1211127C007F38
:103A700049494936003E41414122007F4141221CD3
:103A8000007F49494941007F09090901003E414938
:103A9000497A007F0808087F0000417F410000202C
:103AA00040413F01007F08142241007F40404040D8
:103AB000007F020C027F007F0408107F003E41411E
:103AC000413E007F09090906003E4151215E007F09
:103AD000091929460046494949310001017F010180
:103AE000003F4040403F001F2040201F003F403823
:103AF000403F006314081463000708700807006162
:103B00005149454300007F41410000552A552A553F
:103B1000000041417F0000040201020400404040D7
:103B20004040000001020400002054545478007FFB
:103B30004844443800384444442000384444487FD2
:103B400000385454541800087E0901020018A4A437
:103B5000A47C007F080404780000447D40000040FD
:103B600080847D00007F102844000000417F4000D9
:103B7000007C04180478007C08040478003844446D
:103B8000443800FC242424180018242418FC007C49
:103B90000804040800485454542000043F444020C2
:103BA000003C4040207C001C2040201C003C403059
:103BB000403C004428102844001CA0A0A07C0044E5
:103BC00064544C4414141414141400000000000035
:103BD0000000000000000000FC00000000000200E7
:103BE0000000000C020C020000000000000090D059
:103BF000BCD0BC900003000300001824FE448C00DD
:103C00000302070201001824D8B04C800003000111
:103C10000201C038E438E000010202010202080695
:103C200000000000000000000000000000F8040296
:103C3000000000010204000204F800000004020178
:103C400000009060F860900000000100000020205B
:103C5000FC20200000000100000000000000000027
:103C600008060000000020202020200000000000A6
:103C700000000000000000000002000000000080C2
:103C8000601C0200040300000000F8040404F800B3
:103C90000102020201000008FC0000000002030211
:103CA00000001884442418000302020202000804E1
:103CB0002424D80001020202010040B088FC8000E8
:103CC0000000000302003C242424C400010202027C
:103CD0000100F824242CC0000102020201000C049F
:103CE000E41C0400000003000000D8242424D800B1
:103CF00001020202010038444444F80000030202B9
:103D000001000000100000000000020000000000A0
:103D1000200000000000060000000020508804027F
:103D200000000000010290909090900000000000C0
:103D30000000000204885020000201000000180466
:103D4000C4241800000002000000F804E494F80005
:103D500001020202020000E09CF080000203000069
:103D6000030204FC2424D800020302020100F80428
:103D700004040C0001020202010004FC0404F80027
:103D800002030202010004FC24740C00020302027C
:103D9000030004FC24740C00020302000000F0087D
:103DA0000444CC4000010202010004FC2020FC0479
:103DB0000203000003020404FC04040002020302E4
:103DC0000200000404FC040406040403000004FCD4
:103DD00024D00C0402030200030204FC04000000CF
:103DE000020302020203FC3CC03CFC00030003008F
:103DF000030004FC30C4FC04020302000300F804C6
:103E00000404F80001020202010004FC242418004A
:103E1000020302000000F8848404F8000102020793
:103E2000050004FC24649800020302000302182425
:103E300024448C000302020201000C04FC040C0068
:103E400000020302000004FC0000FC040001020266
:103E50000100047C80E01C040000030000001CE062
:103E60003CE01C00000300030000049C609C040074
:103E7000020300030200041CE01C04000002030211
:103E800000000C84641C0400020302020300000012
:103E9000FE020200000007040400000E30C0000013
:103EA000000000010200000202FE000000040407FE
:103EB00000000004020400000000000000000000F8
:103EC00000000000080808080808000002000000C0
:103ED0000000000000000040A0A0C000000102029D
:103EE000030204FC2020C00000030202010000C005
:103EF0002020600000010202020000C02024FC001B
:103F000000010202030200C0A0A0C00000010202E2
:103F100002000020F82424040002030202000040F2
:103F2000A0A0602000070A0A0A0404FC2020C000A8
:103F30000203020003020020E4000000000203026A
:103F40000000000020E4000008080807000004FC4E
:103F500080E020200203020003020404FC000000B1
:103F6000020203020200E020E020C0000300030080
:103F7000030020E02020C00002030200030200C072
:103F80002020C00000010202010020E02020C0002B
:103F9000080F0A02010000C02020E0000001020A10
:103FA0000F0820E040202000020302000000006013
:103FB000A0A020000002020203000020F820000060
:103FC00000000102020020E00020E00000010202E7
:103FD000030220E0208060200000030100006080D8
:103FE000E08060000003000300002060806020008B
:103FF00002030003020020E020806020080807017F
:1040000000000020A0602000000203020200000067
:1040100020DE0200000000070400000000FF000096
:104020000000000F00000002DE2000000004070076
:104030000000020102040402000000000000000071
:104040000000000000000000000000000000000070
:1040500000F80000000000000033300000000010F5
:104060000C06100C0600000000000000000040C01C
:104070007840C0784000043F04043F04040000700E
:1040800088FC08300000001820FF211E0000F00806
:10409000F000E018000000211C031E211E0000F0AB
:1040A0000888700000001E212324192721101016F3
:1040B0000E000000000000000000000000000000F2
:1040C00000E0180402000000000718204000000271
:1040D0000418E000000000402018070000004040E5
:1040E00080F0804040000202010F01020200000047
:1040F00000F0000000000101011F010101000000AB
:1041000000000000000080B070000000000000000F
:104110000000000000000001010101010101000098
:10412000000000000000003030000000000000002F
:10413000000080601804006018060100000000E024
:1041400010080810E000000F102020100F000010D1
:1041500010F8000000000020203F20200000007028
:104160000808088870000030282422213000003020
:104170000888884830000018202020110E00000018
:10418000C02010F8000000070424243F240000F899
:104190000888880808000019212020110E0000E07E
:1041A000108888180000000F112020110E00003820
:1041B0000808C83808000000003F00000000007038
:1041C000880808887000001C222121221C0000E0C1
:1041D00010080810E0000000312222110F0000003A
:1041E00000C0C000000000000030300000000000EF
:1041F000008000000000000080600000000000005F
:1042000080402010080000010204081020004040F7
:10421000404040404000040404040404040000083A
:1042200010204080000000201008040201000070EF
:1042300048080808F0000000003036010000C030D7
:10424000C828E810E0000718272423140B000000FA
:10425000C038E0000000203C23020227382008F884
:10426000888888700000203F202020110E00C03078
:10427000080808083800071820202010080008F84F
:1042800008080810E000203F202020100F0008F848
:104290008888E8081000203F20202320180008F814
:1042A0008888E8081000203F200003000000C0308C
:1042B00008080838000007182020221E020008F80D
:1042C00008000008F808203F210101213F200008D4
:1042D00008F8080800000020203F2020000000000F
:1042E0000808F8080800C08080807F00000008F8F7
:1042F00088C028180800203F20012638200008F830
:10430000080000000000203F20202020300008F896
:10431000F800F8F80800203F003F003F200008F8B0
:1043200030C00008F808203F200007183F00E010C8
:1043300008080810E0000F10202020100F0008F8D7
:1043400008080808F000203F210101010000E010EA
:1043500008080810E0000F18242438504F0008F80F
:10436000888888887000203F2000030C302000706F
:104370008808080838000038202121221C0018086D
:1043800008F8080818000000203F2000000008F886
:1043900008000008F808001F202020201F000878CF
:1043A000880000C83808000007380E010000F8082F
:1043B00000F80008F800033C0700073C0300081859
:1043C00068808068180820302C03032C30200838BF
:1043D000C800C83808000000203F20000000100876
:1043E0000808C838080020382621202018000000BE
:1043F00000FE020202000000007F40404000000C6E
:1044000030C000000000000000010638C0000002BB
:104410000202FE000000004040407F00000000005B
:10442000040202020400000000000000000000007E
:10443000000000000000808080808080808000027A
:104440000204000000000000000000000000000066
:104450008080808000000019242222223F2008F85A
:10446000008080000000003F112020110E0000009D
:10447000008080800000000E11202020110000002C
:1044800000808088F800000E112020103F200000DE
:10449000808080800000001F2222222213000080E2
:1044A00080F0888888180020203F2020000000002D
:1044B000808080808000006B94949493600008F862
:1044C000008080800000203F210000203F200080ED
:1044D0009898000000000020203F202000000000ED
:1044E00000809898000000C08080807F000008F85D
:1044F000000080808000203F24022D302000000832
:1045000008F8000000000020203F202000008080EC
:10451000808080808000203F20003F20003F8080FE
:10452000008080800000203F210000203F2000000C
:10453000808080800000001F202020201F008080BD
:1045400000808000000080FFA12020110E000000EC
:10455000008080808000000E112020A0FF808080DD
:1045600080008080800020203F212000010000008A
:10457000808080808000003324242424190000805F
:1045800080E0808000000000001F2020000080806C
:10459000000000808000001F202020103F2080802D
:1045A00080000080808000010E30080601008080BD
:1045B0000080008080800F300C030C300F000080E2
:1045C0008000808080000020312E0E31200080800D
:1045D00080000080808080818E701806010000803D
:1045E0008080808080000021302C2221300000005B
:1045F0000000807C020200000000003F40400000FC
:104600000000FF00000000000000FF0000000002AA
:10461000027C800000000040403F000000000006D7
:10462000010102020404000000000000000000007C
:10463000000000000000000000000000000000007A
:10464000000000000000000000000000000000006A
:1046500000000000000000F0F0F00000000000008A
:10466000000000017F010000000000000000001CAD
:104670001C1C0000000000008060301C8C60301C9E
:104680000C0000000000000000000000000000001E
:1046900000000000000000000000000000E000003A
:1046A000000000E000000086E69F86868686E69F82
:1046B000860000011F01010101011F01010000002E
:1046C00080C06020F820E0C00000000003070C1844
:1046D000FF70E18100000000070F10107F100F072E
:1046E00000008060206080000000E02000000F30AB
:1046F00020309F70DC371030C0000000100E030027
:104700000718101807000000C02020E0C0000000BB
:10471000000080E01F38E88703C43C040000070F56
:104720001810100B070D1010080000808C4C38007A
:104730000000000000000000000000000000000079
:104740000000000000000000000000000000000069
:104750000000000080E0300804000000000000FEBF
:10476000FF0100000000000000000000030F1820FF
:10477000400000040830E08000000000000000005D
:10478000000001FFFE0000000000004020180F03A1
:10479000000000000000000000000000C000000059
:1047A0000000004266663C18FF183C666642000046
:1047B00000000000030000000000000000000000F6
:1047C000800000000000001010101010FF101010EA
:1047D00010100000000000000300000000000000B6
:1047E00000000000000000000000000000000000C9
:1047F00000000000000000808C4C38000000000029
:104800000000000000000000000000000000001098
:104810001010101010101010100000000000000008
:104820000000000000000000000000000000000088
:104830000000000000000000000000000000000078
:104840001C1C1C0000000000000000000000000014
:104850000000E0380C000000000080701C03000025
:1048600000000060380E01000000000000000000A1
:1048700080C060202060C080000000FEFF010000BA
:10488000000001FFFE000001070E181010180E07AF
:1048900001000000808080C0E000000000000000F7
:1048A000000000FFFF000000000000001010101FBB
:1048B0001F10101000000080402020202060C080C9
:1048C000000000030300804020381F070000001C88
:1048D0001A1918181818181F00000080C02020206E
:1048E00060C080000000000303001010182FE78054
:1048F000000000070F10101010180F070000000034
:1049000000000000C0E0F000000000C0B088868118
:1049100080FFFF808000000000000010101F1F10AB
:1049200010000000E06060606060606000000000F7
:104930003F1008080818F0E0000000070B101010E6
:10494000101C0F030000000080C040202020E0C0A9
:10495000000000FCFF211008080818F0E00000012A
:10496000070C18101010080F03000000C0E0606072
:10497000606060E06000000003000000E0180700D5
:10498000000000000000001F1F0000000000008069
:10499000C0602020202060C080000087EF2C181805
:1049A000303068CF830000070F0810101010180F68
:1049B00007000000C0C020202020C0800000001F91
:1049C0003F604040402010FFFE0000000C1C101013
:1049D00010080F03000000000000000000000000AD
:1049E000000000000000000E0E0E0000000000009D
:1049F0000000001C1C1C0000000000000000000063
:104A000000000000000000000000000C0C0000008E
:104A10000000000000000058380000000000000006
:104A20000000000000804020100000001028448298
:104A30000100000000000000000000000102040866
:104A400010000000000000000000000000000084D2
:104A500084848484848484848400000000000000B2
:104A60000000000000000000102040800000000056
:104A70000000000000000000018244281000000037
:104A80001008040201000000000000C020201010E7
:104A9000101030E0C0000003030000F010080C0705
:104AA0000300000000001C1C1C00000000000000AF
:104AB00000C0406020202040C00000FCFF01F00E3C
:104AC00003C1FE03807F0001070E081111101109B8
:104AD00004020000000080E0E00000000000000090
:104AE000807C4340477FF880000010181F100000B2
:104AF0000000131F1C1020E0E02020202060C08058
:104B0000000000FFFF10101010182FE78000101F8A
:104B10001F1010101010180F0700000080C0402058
:104B200020202060E00000FCFF01000000000000E9
:104B300001000001070E181010100804030020E007
:104B4000E02020202040C080000000FFFF00000087
:104B5000000001FFFE00101F1F10101018080E07A4
:104B6000010020E0E020202020202060800000FFC5
:104B7000FF101010107C00000000101F1F101010FC
:104B800010101018060020E0E02020202020606097
:104B9000800000FFFF101010107C00000100101FAB
:104BA0001F100000000000000000000080C0602016
:104BB000202040E0000000FCFF0100004040C0C198
:104BC00040400001070E181010100F0F000020E0E9
:104BD000E0200000000020E0E02000FFFF101010A7
:104BE000101010FFFF00101F1F1000000000101F0A
:104BF0001F100000202020E0E02020200000000006
:104C0000000000FFFF000000000000001010101F57
:104C10001F101010000000000000202020E0E02005
:104C2000202000000000000000FFFF0000000060E6
:104C3000E0808080C07F3F00000020E0E020000096
:104C400020A06020200000FFFF30187CE3C000009F
:104C50000000101F1F10000001131F1C181020E07F
:104C6000E020000000000000000000FFFF00000046
:104C7000000000000000101F1F101010101010186E
:104C8000060020E0E0E000000000E0E0E02000FF9F
:104C9000013FFEC0E01E01FFFF00101F1000031FB8
:104CA0000300101F1F1020E0E0C0000000000020E3
:104CB000E02000FF0003071C78E08000FF00101FC9
:104CC000100000000000030F1F00000080C06020E3
:104CD0002060C080000000FEFF010000000000FF17
:104CE000FE000001070E181010180C07010020E04C
:104CF000E0202020202060C0800000FFFF20202036
:104D00002020301F0F00101F1F10000000000000A7
:104D10000000000080C060202060C080000000FE15
:104D2000FF010000000000FFFE000001070E11114E
:104D3000133C7C67210020E0E0202020202060C080
:104D4000800000FFFF101030F0D0080F0700101F88
:104D50001F10000000030F1C10100080C0602020F6
:104D600020204040E00000070F0C1818303060E0B1
:104D70008100001F0C0810101010180F0700806031
:104D8000202020E0E020202060800100000000FFC3
:104D9000FF000000000100000000101F1F100000B5
:104DA000000020E0E020000000000020E02000FFE4
:104DB000FF00000000000000FF0000070F181010A7
:104DC0001010100807002060E0E02000000020E044
:104DD00060200000077FF88000807C030000000056
:104DE0000000071F1C070000000020E0E02000E09A
:104DF000E0200020E0200007FFF8E01FFFFCE01F9C
:104E000000000000031F0300011F0300000000203A
:104E100060E0A0000020E0602000000000038F7C24
:104E2000F8C6010000000010181E130001171F181B
:104E300010002060E0E02000000020E06020000082
:104E400001073EF8E0180700000000000010101FE6
:104E50001F101000000000806020202020A0E0E053
:104E6000200000000000C0F03E0F03000000001012
:104E70001C1F17101010101806000000000000FC86
:104E80000404040404000000000000FF000000000F
:104E9000000000000000007F404040404000000053
:104EA00010E0000000000000000000000000031CF3
:104EB00060800000000000000000000000030C7093
:104EC000800000000404040404FC00000000000052
:104ED0000000000000FF00000000000040404040D3
:104EE000407F0000000000000010080C040C0810B7
:104EF00000000000000000000000000000000000B2
:104F000000000000000000000000000000000000A1
:104F10000000000000000000000000000000000091
:104F20000000808080808080808080808080000081
:104F30000004040808000000000000000000000059
:104F40000000000000000000000000000000000061
:104F50000000000000000000000000000000000051
:104F600098D844642424FCF80000000F1F18101087
:104F700010081F1F10180020E0F0000000000000C3
:104F800000000000FFFF180804040CF8F000000007
:104F90001F0F18101010180F030000000000000071
:104FA00000000000000000E0F8180404043C380091
:104FB000000000030F0C1010101008060000000085
:104FC000000000000020E0F0000000E0F81C0404F5
:104FD0000408FFFF000000030F18101010081F0F37
:104FE00008000000000000000000000000000000B9
:104FF000E0F8484444444C7870000000030F0C185B
:105000001010100804000000000080C0602020E0A4
:10501000C00000040404FFFF0404040400000000B6
:1050200010101F1F101010000000000000000000F2
:10503000000000000000000070F88C04048CF8747C
:10504000040C007076CF8D8D8D89C878700000209B
:10505000E0F000000000000000000000FFFF080476
:105060000404FCF8000000101F1F100000101F1F98
:105070001000000000000060600000000000000060
:10508000040404FCFC000000000000001010101FCD
:105090001F10101000000000000000000060600001
:1050A000000000000000040404FCFC0000000000FC
:1050B000C0C08080C07F3F0000000020E0F0000002
:1050C0000000000000000000FFFF80C0F41C04048A
:1050D000000000101F1F1100031F1C101000000013
:1050E000202020E0F000000000000000000000FF91
:1050F000FF000000000000001010101F1F10101013
:10510000000000000000000000000000000004FC9F
:10511000FC0804FCFC0804FCFC00101F1F10001F0E
:105120001F10001F1F100000000000000000000002
:1051300000000004FCFC08080404FCF80000001057
:105140001F1F100000101F1F1000000000000000B3
:1051500000000000000000E0F0180C04040C18F03F
:10516000E00000030F0C101010100C0F03000000E3
:10517000000000000000000000000004FCFC080427
:1051800004040CF8F0000080FFFF889010101C0F42
:10519000030000000000000000000000000000E02C
:1051A000F81C04040408F8FC000000030F18101099
:1051B0009088FFFF80000000000000000000000059
:1051C0000000040404FCFC100804040C0C00101083
:1051D000101F1F1010100000000000000000000051
:1051E00000000000000000003078CCC48484840CEF
:1051F0001C0000001E1810101011190F06000000EE
:10520000000000C000000000000000040404FFFFD4
:10521000040404000000000000000F1F1010100C18
:10522000000000000000000000000000000000047A
:10523000FCFE00000004FCFE000000000F1F181020
:1052400010081F0F08000000000000000000000010
:10525000000000040C3CFCC40000C43C0C04000032
:105260000000010F1E0E0100000000000000000001
:10527000000000000000043CFCC400E47CFC8480CE
:105280007C040000071F070000071F070000000044
:10529000000000000000000000000004041C7CE48A
:1052A000C0341C0404000010101C1601131F1C182D
:1052B00010000000000000000000000000000004DA
:1052C0000C3CFCC400C43C0404000000C080C13796
:1052D0000E010000000000000000000000000000BF
:1052E000000000001C0404C4F47C1C040000000046
:1052F000101C1F17111010180E00000000000000F5
:1053000000F80C04000000000000001028EF00006E
:105310000000000000000000003F604000000000AE
:1053200000000000FF00000000000000000000007E
:10533000FF0000000000000000000000FF0000006F
:1053400000000000040CF800000000000000000055
:105350000000EF28100000000000000040603F0047
:1053600000000000000000180602020408102020BF
:1053700030080000000000000000000000000000F5
:10538000000000000000000000000000F0101010FD
:1053900010FF10101010F000000000000F040404B3
:1053A00004FF040404040F0000004040405F555512
:1053B00055755555555F404040000040200F094944
:1053C00089790909090F2040000000FE02424ACAFB
:1053D0004A4ACA4A4A4202FE000000FF40504C437B
:1053E00040404F50505C40FF00000000F888888823
:1053F00088FF88888888F800000000001F080808D7
:10540000087F888888889F80F000808282828282DC
:1054100082E2A2928A868280800000000000004022
:10542000807F0000000000000000101010FF1090AE
:1054300008888888FF88888808000444827F018063
:105440008040432C1028468180000010101010D09E
:1054500030FF30D0121C10100000100804020100B0
:1054600000FF000001020408100004040484E43C6E
:105470002724242424E40404040004020100FF0976
:1054800009090949897F0000000000FE225A8600B0
:10549000FE9292929292FE00000000FF0408070024
:1054A000FF4020030C1422414000008040201806D9
:1054B000800007182040800000000100207028268E
:1054C00021202024386000010100001012929292E5
:1054D000929292121202FE0000000000003F101093
:1054E00010103F0040807F00000000FC848484FC9A
:1054F000001010101010FF101000003F1010103F8F
:105500000000010640807F00000000F8010600F066
:10551000121212F2020202FE000000FF0000001F41
:105520001111111F0040807F0000000000C080802A
:105530008080808080FC84808080808080C0C000EB
:105540000000000000FF7F404040404040FF4040DE
:105550004040404040FF7F0000000000000000008D
:1055600000000000007F700000000000000000004C
:10557000000000000000000000000000000000002B
:1055800000FCF80000000000000000000000000027
:10559000000000000000FFFE0202020202020202FE
:1055A00002FFFF020202020202020202FF030000E7
:1055B0000000000000001F1F04040404040404048D
:1055C00004FFFF0404040404040404041F00000096
:1055D00000000000000000000000000000000000CB
:1055E000007F3F00000000000000000000000000FD
:1055F00000000000000000000000000000000000AB
:10560000000000000000000000000000000000F8A2
:10561000F8F0F07020000000000000000000000022
:10562000000000000000000000000000000000007A
:1056300000000000000000000000800000000000EA
:10564000000000000000000000000000000000FF5B
:10565000FFFFFF000000000000000000000000004D
:10566000000000000000808000000000000000003A
:105670000000000000000000000000FFFFFE060622
:10568000060606060606060606060606060606FFC1
:10569000FFFFFF06060606060606060606060606BF
:1056A0000606060606FFFFFFFF07020000000000D7
:1056B0000000000000000000000000FFFFFF0000ED
:1056C000000000000000000000000000000000FFDB
:1056D000FFFFFF00000000000000000000000000CD
:1056E0000000000000FFFFFFFF00000000000000BE
:1056F0000000000000000000000000FFFFFF18187D
:10570000181818181818181818181818181818FF32
:10571000FFFFFF1818181818181818181818181854
:105720001818181818FFFFFFFF0000000000000005
:105730000000000000000000000002010100000065
:10574000000000000000000000000000000000FF5A
:10575000FFFFFF000000000000000000000000004C
:105760000000000000010100000000000000000037
:105770000000000000000000000000000000000029
:10578000000000000000000000000000000000FF1A
:10579000FFFFFF000000000000000000000000000C
:1057A00000000000000000000000000000000000F9
:1057B00000000000000000000000000000000000E9
:1057C0000000000000000000000000000000001FBA
:1057D0001F0F0F000000000000000000000000008C
:1057E00000000000000000000000000000000000B9
:1057F00000000000145800080000002060080000AD
:1058000070010008345A000860080020F809000000
:10581000F032000840120003050911FF118905C389
:1058200000E000F000F8000100083A4428FF11AA47
:10583000440001500B830138448292927401831119
:1058400020087C44FF017D7D7D04410540047D01ED
:10585000FF6E920102613F033B01017E814191494C
:10586000F20101011BC230083F3F0303F313110192
:10587000100601F1116181402005816111F147336A
:10588000414107200401C12120A321C11431193154
:1058900037040736D33303033F3F426006E0E0009E
:1058A000007FA8127FBF40040618060A10080000F7
:1058B00040407F4040A410041F204001A3201F143B
:1058C0003300600E6004300C03460534C210040738
:1058D00007060170090404048444444484078005D5
:1058E0000484C4041501120A71112140073D070701
:1058F000C9200F0000101814121100000F10101012
:105900000F0F131F1015600D081012120D00001854
:1059100000000D120A51295130015E01528001012F
:105920003B4514047F030CA915DE1C05385454585C
:105930002503080A2004047800003C40407C200035
:10594000092CFFAAAAAA280800FF681006264949C0
:105950004932101005020408100F0D6F00049D015C
:10596000040D9D0004156343F80801240500F81890
:1059700060E82404806018235720202923E01021A8
:10598000A310E01449B4313908043C886818630D49
:1059900015FF037DEA039DFF0371144DFF031D06F0
:1059A000043D2E040942E91C0640202020C04A0480
:1059B000110721EA3E40520452600E8118712951AC
:1059C000070D4769031C060C0A0A090C0004156B35
:1059D0002D00042004080F081510050809090E07FA
:1059E0001D180430050909090F0A512951070DFF37
:1059F00000040D210004100668350008A80412E810
:105A000008100628360008680412A8081228181082
:105A10000648370008900412D8081320381C1104D7
:105A200012B0080D17A7053DCB031D950677127A16
:045A30007D000000F5
:04000005080000ED02
:00000001FF
