:020000040800F2
:100000008826002005010008413C0008373600081A
:10001000FD3A0008E10700082D520008000000002A
:10002000000000000000000000000000CD480008B3
:100030004D0900080000000091430008454D0008EC
:100040001F0100081F0100081F0100081F01000810
:100050001F0100081F0100083D0A00081F010008D9
:100060001F0100081F0100081F0100081F010008F0
:100070001F010008E50700081F0100081F01000814
:100080001F0100081F010008E50600081F01000805
:100090001F0100081F0100081F0100081F010008C0
:1000A0001F0100081F0100081F0100081F010008B0
:1000B000DD4D00081F010008000000001F010008BE
:1000C0001F01000800000000000000001F010008E0
:1000D000000000001F0100081F01000800000000D0
:1000E0001F0100081F0100081F010008DFF810D0E1
:1000F00000F0A8FA00480047B55B0008AFF30080A5
:10010000882600200648804706480047FEE7FEE7AD
:10011000FEE7FEE7FEE7FEE7FEE7FEE7FEE7FEE7B7
:10012000DB4D0008ED0000082DE9F05F05460020DA
:1001300092469B4688460646814640241BE0284658
:1001400041464746224600F020F853465A46C01A18
:10015000914110D311461846224600F02FF92D1A6E
:1001600067EB01084F4622460120002100F026F9E6
:1001700017EB00094E41201EA4F10104DFDC4846C4
:1001800031462A464346BDE8F09F202A04DB203A48
:1001900021FA02F00021704721FA02F3D040C2F1A7
:1001A00020029140084319467047D2B201E000F89E
:1001B000012B491EFBD270470022F6E710B513460B
:1001C0000A4604461946FFF7F0FF204610BD2DE908
:1001D000FE4F81EA030404F0004421F00041009442
:1001E0004FF0000B23F0004350EA01045ED052EAC6
:1001F00003045BD0C3F30A54C1F30A552C44A4F2A0
:10020000F3340194A0FB0254C1F3130141F48011B3
:10021000C3F3130343F4801301FB024400FB034EBA
:10022000840A970A44EA815447EA8357A4FB076883
:1002300002958D0A05FB07854FEA932C04FB0C54AD
:100240002705029D4FEA065847EA1637B5EB080521
:100250006EEB070C870E920E47EA811742EA831273
:10026000A7FB0201B6EB0B0164EB00042B0D43EA84
:100270000C335E1844EB1C50DA465146E7FB020192
:10028000C5F313044FEA0B3343EA14534FEA043225
:10029000019C43EA0603A4F10C040294009CCDE9FE
:1002A00000B400F0A9F803B0BDE8F08F00200146CB
:1002B000F9E72DE9F04D81EA030404F0004B21F049
:1002C000004514464FF0000A23F0004150EA0502B1
:1002D00020D054EA01021DD0C5F30A570246C5F3E7
:1002E0001303C1F31300C1F30A5640F4801543F41D
:1002F0008013A7EB0608101BD64608F2FD3873EBF7
:10030000050002D308F1010801E092185B41B8F141
:10031000000F03DA00200146BDE8F08D00204FF405
:100320008011064684460EE0171B73EB050705D3C4
:10033000121B63EB050306434CEA010C49084FEA24
:10034000300092185B4150EA0107EDD152EA0300F8
:1003500012D082EA040083EA0501084305D0101B8D
:10036000AB4106D20122002306E000224FF00043F9
:1003700002E06FF0010253101AEB06004CEB08513B
:1003800010EB0A0041EB0B01BDE8F04D00F025B881
:1003900030B50B46014600202022012409E021FA55
:1003A00002F59D4205D303FA02F5491B04FA02F552
:1003B0002844151EA2F10102F1DC30BD202A04DB25
:1003C000203A00FA02F1002070479140C2F1200368
:1003D00020FA03F319439040704710B5141E73F1CF
:1003E000000408DA401C41F1000192185B411A43F5
:1003F00001D120F0010010BD2DE9F04D92469B4641
:1004000011B1B1FA81F202E0B0FA80F220329046E6
:10041000FFF7D4FF04460F4640EA0A0041EA0B0109
:1004200053465A46084313D0114653EA010019D0E7
:10043000C8F140025046FFF7A8FE05460E4650465A
:1004400059464246FFF7BAFF084305D0012004E0B1
:1004500020463946BDE8F08D0020054346EAE076A7
:100460002C4337430A986305E40AA0EB08000022F6
:10047000FD0A44EA47540A3002D500200146E9E764
:10048000010510196941DDE9084500196941BDE818
:10049000F04DA2E72DE9FE4F804681EA0300C00F30
:1004A0000C46009021F0004123F00045B8EB02001B
:1004B000A94105D24046214690461C460B460246BD
:1004C00023F00040104347D0270DC7F30A00C3F3C1
:1004D0000A510290401A019040286BDAC3F31300CE
:1004E00040F4801B0098924620B10023D2EB030A0F
:1004F00063EB0B0B01985946C0F140025046FFF7E1
:100500005DFF06460D4650465946019A00F0ACF88C
:1005100010EB08006141002487EA115284EAE77376
:100520001A4340D0009A62B3019A012A4FEA075257
:1005300015DC001B61EB02014FF0004202EA07529A
:10054000CDE90042001C41F5801132462B46FFF7F1
:1005500053FF03B0BDE8F08F40462146F9E7001B8A
:1005600061EB0201001C41F5801300185B4120186B
:10057000A2F5001747EB030140EAD570B6196D41AB
:1005800011E06D084FEA360645EAC0754FEA07529A
:10059000001B61EB0201001C41F5801149084FEA84
:1005A00030000019514132462B4603B0BDE8F04FF0
:1005B000FFF713BF0098012240000023D0EB020296
:1005C00063EBE073009821464FEAE074B8EB00005B
:1005D00061EB0401E9E783F000435BE781F0004150
:1005E00058E7C1F30A52C1F3130140F2FF3341F45B
:1005F00080119A4202DA00200146704740F23343EC
:100600009A42A2F2334202DC5242FFF7BEBDFFF72C
:10061000D5BE000030B5041E71F1000404DB4FF0BC
:100620000044404264EB0101141E73F1000405DB39
:100630001C464FF00043524263EB0403994208BF4B
:10064000904230BD064C074D06E0E06840F00103E3
:1006500094E8070098471034AC42F6D3FFF74AFD00
:100660007476000894760008202A06DBCB17203A1F
:1006700041FA02F043EAE07306E041FA02F3D040A7
:10068000C2F12002914008431946704770B58C189A
:1006900010F8015B15F0070301D110F8013B2A1196
:1006A00006D110F8012B03E010F8016B01F8016B83
:1006B0005B1EF9D12B0705D40023521E0DD401F87F
:1006C000013BFAE710F8013BCB1A921C03E013F848
:1006D000015B01F8015B521EF9D5A142D8D300207D
:1006E00070BD000010B5024800F06AFB10BD0000AC
:1006F000401C002070B5044600252068806800F08A
:10070000010018B32068806820F00100216888602B
:1007100001F06AF8054613E001F066F8401B022874
:100720000ED92068806800F0010048B1A06A40F04E
:100730001000A062E06A40F00100E062012070BD9C
:100740002068806800F001000028E5D10020F6E76D
:1007500038B504460025002000902068806800F02D
:10076000010078BB2068806840F001002168886043
:10077000194800681949B0FBF1F0009002E00098B8
:10078000401E009000980028F9D101F02DF8054690
:1007900019E001F029F8401B022814D9206880686C
:1007A00000F0010078B9A06A40F01000A062E06A91
:1007B00040F00100E06200BF002084F8240000BF88
:1007C000012038BD05E02068806800F001000028A5
:1007D000DFD00020F5E700005400002040420F0069
:1007E00000BFFEE710B5024800F0F6FC10BD0000A7
:1007F000301D002030B590F840500124AC40C56B4E
:100800006C60046863604468102C04D10468A260C2
:100810000468E16003E00468A1600468E26030BD40
:1008200010B500241548006820F070401349086096
:100830000846006840F00040086004E0601CC4B254
:10084000012005F09BF90E48006808B1C82CF5DBC3
:10085000C82C01DB012010BD002404E0601CC4B2E0
:10086000012005F08BF90648006808B9F02CF5DB8B
:10087000F02C01DB0120EEE70020ECE7040801404A
:100880003C01214200B585B000BF0F48806940F0AF
:1008900004000D4988610846806900F0040000905A
:1008A00000BF00BF4FF40040019001200290039070
:1008B0000320049001A9054800F002FE00F008F8AA
:1008C000FFF7AEFF05B000BD001002400008014078
:1008D00010B50D48006820F070400B4908600846CC
:1008E000006840F04050086000200849086040F26D
:1008F000EE2005F043F901200549C1F8BC010F20A5
:1009000005F03CF910BD000004080140BC01214283
:10091000000021420B48006800F0807028B90948A7
:10092000006840F08070074908600748006800F0E0
:10093000010028B90448006840F00100024908603D
:1009400070470000FCED00E0001000E07047000080
:100950002DE9F04105460E46174600245EE004EB03
:100960008400304901EB8000007C88B304EB8400F4
:1009700051F82000A8422CD104EB840001EB800048
:100980004068B04225D100F02FFF04EB8401254AD6
:1009900002EB8101C968401A04EB840102EB81017A
:1009A0008968884212D300F01FFF04EB84011D4ABE
:1009B00002EB8101C86004EB84021A4B03EB820254
:1009C000506804EB840253F822108847BDE8F08198
:1009D000FFE704EB8400134901EB8000007CE0B9E1
:1009E00004EB840041F8205004EB840001EB80000C
:1009F000466004EB840001EB8000876000F0F4FEA9
:100A000004EB8401074A02EB8101C860012004EB7A
:100A1000840102EB81010874D8E7641C0C2C9EDB76
:100A200000BFD3E7C001002070B5044625466B78AF
:100A30002A782979A87803F05DFF70BD10B50120F0
:100A400000F030FD10BD70B504460D461646256019
:100A500026822868406A00B2A08000F0C5FEE060EF
:100A6000002020813C21284602F0BEFB70BD2DE90C
:100A7000F04105462C4620680068406A00B2E080DC
:100A800000F0B2FE0646E068371A642F17D3E188FB
:100A9000A288891A08B2B0F5004F01DB00B203E06A
:100AA00010F5004F00DA00B24FF47A714143B1FB08
:100AB000F7F109B22181E188A180E66000BFBDE8BD
:100AC000F08172B600BFFEE72DE9F04105462C46E5
:100AD00000F08AFE06460027207830B1012807D0B2
:100AE000022807D0032809D106E04FF4FA7708E07E
:100AF000302706E0202704E0102702E04FF4FA77C1
:100B000000BF00BFA068301AB8420AD3A660A0791F
:100B100038B96078401C062190FBF1F201FB12000D
:100B20006070BDE8F081000010B50446607C20B123
:100B300001280ED0022828D11DE000224FF4806148
:100B4000134800F04BFE00F04FFEA06001206074DF
:100B50001BE000F049FEA168401A217C884209D3BD
:100B6000012291020A4800F039FE00F03DFEA0602B
:100B70000220607409E000F037FEA168401A217C71
:100B8000884201D30020607400BF00BF10BD000088
:100B9000000C0140F8B504462546287E0090A9784F
:100BA0002878D5E9012303F00BF9F8BD704770B53B
:100BB00005462C4600F016F82070E07800B170BDB4
:100BC00020786178884204D10120A0700020207133
:100BD00006E00020A070606910B120786169884744
:100BE00000BFECE710B500244FF40051124800F0AC
:100BF000EDFD04434FF480410F4800F0E7FD44EA67
:100C00004000C4B24FF400410B4800F0DFFD44EA5D
:100C10008000C4B2032C0BD0052C07D0062C03D0C7
:100C2000072C07D1012010BD0220FCE70320FAE7C2
:100C30000420F8E7FF20F6E7000C014070470000B1
:100C400038B5024600230020009000BF92F824002F
:100C5000012801D1022038BD012082F8240000BF04
:100C60004868072812D21068406B0C79641E04EBA8
:100C700084051F24AC40A0430D796D1E05EB85054E
:100C80000C68AC4020431468606327E048680D2876
:100C900012D21068006B0C79E41F04EB84051F244A
:100CA000AC40A0430D79ED1F05EB85050C68AC4009
:100CB00020431468206311E01068C06A0C790D3C71
:100CC00004EB84051F24AC40A0430D790D3D05EBDA
:100CD00085050C68AC4020431468E06208680A2867
:100CE00012D31068C0680C780A3C04EB4405072452
:100CF000AC40A0430D780A3D05EB45058C68AC403F
:100D000020431468E0600FE0106800690C7804EB81
:100D100044050724AC40A0430D7805EB45058C68DD
:100D2000AC402043146820610868102802D008688D
:100D3000112827D1174C1068A0421ED11068806876
:100D400000F40000F0B91068806840F400001468F6
:100D5000A0600868102815D10F4800680F4CB0FB40
:100D6000F4F000EB80004000009002E00098401E8C
:100D7000009000980028F9D104E0906A40F020002B
:100D80009062012300BF002082F8240000BF1846B3
:100D900061E70000002401405400002040420F00A1
:100DA00010B50446024800F007F80249088010BD5B
:100DB000401C00202000002001460868C06C7047DD
:100DC00070B50446206805682068466806F0200073
:100DD00020282DD105F00200022829D1A06A00F0B8
:100DE000100018B9A06A40F40070A0622068806802
:100DF00000F46020B0F5602F13D1207B88B9206803
:100E0000406820F0200021684860A06A20F48070CB
:100E1000A062A06A00F4805018B9A06A40F00100F6
:100E2000A0622046FFF7BCFF6FF012002168086047
:100E300006F08000802839D105F00400042835D15F
:100E4000A06A00F0100018B9A06A40F40050A06237
:100E50002068806800F4E040B0F5E04F0DD02068D5
:100E6000406800F48060D0B92068806800F4602099
:100E7000B0F5602F13D1207B88B92068406820F03E
:100E8000800021684860A06A20F48050A062A06AB7
:100E900000F4807018B9A06A40F00100A0622046FA
:100EA000FFF7CCFE6FF00C002168086006F04000F0
:100EB00040280DD105F0010050B1A06A40F4803007
:100EC000A062204600F0A8F86FF0010021680860D9
:100ED00070BD00002DE9F0410446002700250026E2
:100EE000A84614B90120BDE8F081A06810B1207DAA
:100EF00000B100BFA06A30B90020E06284F824008D
:100F0000204600F08BF82046FFF7F4FB0746A06A66
:100F100000F01000002873D1002F71D1A06A20F4D6
:100F2000885040F00200A062E16960680843217BBC
:100F300040EA41000643A068B0F5807F02D0A06877
:100F4000012802D14FF4807000E000200543207D8D
:100F5000012811D1207B38B9A069401E4FF40061EF
:100F600041EA4030054307E0A06A40F02000A0625B
:100F7000E06A40F00100E0622068406820F46940C7
:100F80002843216848602068806821490840304330
:100F900021688860A068B0F5807F02D0A068012831
:100FA00002D14FF4807000E00020B0F5807F03D1C3
:100FB000208A401E4FEA00582068C06A20F4700062
:100FC00040EA08002168C86220688068114908402A
:100FD000B04208D10020E062A06A20F0020040F098
:100FE0000100A06211E0A06A20F0020040F01000B1
:100FF000A062E06A40F00100E062012705E0FFE73F
:10100000A06A40F01000A062012738466BE700009C
:10101000FDF7E1FFFE0E1FFF7047000010B586B020
:10102000044600200290039004900590184920681F
:1010300088422AD100BF1748806940F400701549E2
:1010400088610846806900F40070019000BF00BF0D
:1010500000BF0846806940F0040088610846806946
:1010600000F00400019000BF00BF022002900320A6
:10107000039002A9084800F023FA0022042112205C
:1010800000F068FD122000F055FD06B010BD000014
:1010900000240140001002400008014070B50446E1
:1010A000002500BF94F82400012801D1022070BD62
:1010B000012084F8240000BF2046FFF749FB0546C5
:1010C000002D7DD1A06A40F60161884340F4807014
:1010D000A0623F492068884208D13E48006800F479
:1010E000702008B9012002E0002000E0012078B162
:1010F000A06A20F48010A0622068406800F480603C
:1011000000B3A06A20F4005040F48050A06219E0BF
:10111000A06A40F48010A0622E49091F206888420E
:1011200003D02B492068884204D12A48006800F483
:10113000806000E0002028B1A06A20F4005040F454
:101140008050A062A06A00F4805020B1E06A20F0D4
:101150000600E06201E00020E06200BF002084F8A9
:10116000240000BFC01E216808602068406840F06D
:101170002000216848602068806800F46020B0F595
:10118000602F16D112492068884208D111480068A2
:1011900000F4702008B9012002E0002000E00120E6
:1011A00038B12068806840F4A000216888600CE0B5
:1011B00006E02068806840F480102168886004E0C0
:1011C00000BF002084F8240000BF28466FE700001D
:1011D000002801400424014070B50446E06B056816
:1011E0002068066894F840100420884028400028B1
:1011F00046D006F00400002842D02068006800F0C5
:10120000200028B92068006820F0040021680860E8
:1012100057492068884201D1042027E054491431FD
:101220002068884201D1402020E0514928312068BF
:10123000884201D1001519E04D493C3120688842AF
:1012400002D14FF4804011E0494950312068884272
:1012500002D14FF4802009E045496431206888427A
:1012600002D14FF4800001E04FF08060404908391E
:101270004860E06A00287AD02046E16A884776E034
:1012800094F84010022088402840A0B306F00200E5
:1012900088B32068006800F0200040B9206800682A
:1012A00020F00A0021680860012084F821003049FC
:1012B0002068884201D1022028E02D49143120689D
:1012C000884201D1202021E0294928312068884224
:1012D00001D140151AE026493C312068884202D1EC
:1012E0004FF4005012E0224950312068884203D167
:1012F0004FF400300AE017E01D496431206888424D
:1013000002D14FF4001001E04FF000701849083985
:10131000486000BF002084F8200000BFA06A30B3FE
:101320002046A16A884722E094F8401008208840AF
:101330002840E0B106F00800C8B12068006820F03D
:101340000E002168086094F8401001208840E16B8D
:1013500048600120A06384F8210000BF002084F8C9
:10136000200000BF206B10B12046216B884770BD64
:10137000080002400146002209B901207047164BBF
:101380000868C01A1423B0FBF3F080000864124808
:101390000838C863022081F821000868026843F613
:1013A000F0708243D1E901031843CB6818430B69FD
:1013B00018434B6918438B691843CB6918430243A0
:1013C0000868026000208863012081F82100002065
:1013D00081F8200000BFD1E7080002402DE9F0416C
:1013E00004460D4616461F464FF0000800BF94F80D
:1013F0002000012802D10220BDE8F081012084F8FC
:10140000200000BF94F8210001282CD1022084F88C
:1014100021000020A0632068006820F001002168FE
:1014200008603B46324629462046FFF7E3F9E06A6A
:1014300030B12068006840F00E00216808600BE0C1
:101440002068006820F004002168086020680068B7
:1014500040F00A00216808602068006840F0010040
:101460002168086006E000BF002084F8200000BF6B
:101470004FF002084046BFE770B5044600F0B4F9EB
:1014800006462546681C10B104480078054400BF94
:1014900000F0AAF9801BA842FAD370BD50000020CA
:1014A0007047000010B5044604480068204020B191
:1014B000024804602046FFF7F3FF10BD140401400A
:1014C0002DE9F84703460022944666E14FF00108F3
:1014D00008FA02F4D1F8008008EA0400A0427DD1A5
:1014E000DFF8CCA2D1F80480A8EB0A09D0453AD0A5
:1014F00014DCB8F1030F50D009DCB8F1000F31D083
:10150000B8F1010F1CD0B8F1020F49D120E0B8F1B9
:10151000110F18D0B8F1120F42D11EE0B9F5881F93
:1015200025D006DCB9F5803F20D0B9F5801F37D132
:101530001AE0B9F5001F18D0B9F5041F30D117E033
:10154000D1F80CC02DE0D1F80C8008F1040C28E093
:10155000D1F80C8008F1080C23E0D1F80C8008F1D8
:101560000C0C1EE000BF00BF00BF00BF00BF00BFEB
:10157000D1F80880B8F1000F02D14FF0040C0BE055
:10158000D1F80880B8F1010F03D14FF0080C1C61AD
:1015900002E04FF0080C5C6103E04FF0000C00E04B
:1015A00000BF00BFFF2801D8984601E003F10408FE
:1015B0004646FF2802D84FEA820803E0A2F1080855
:1015C0004FEA88084746D6F800804FF00F0909FA1D
:1015D00007F928EA09080CFA07F900E085E048EA6B
:1015E0000908C6F80080D1F8048008F08058B8F1E6
:1015F000805F7AD100BFDFF8BC81D8F8188048F04E
:101600000108DFF8B091C9F81880C846D8F81880EA
:1016100008F00108CDF8008000BF00BF4FEAB938DC
:101620004FEA920958F829504FEA82784FEA187920
:101630004FF00F0808FA09F825EA0805DFF8788165
:10164000434502D14FF000080FE0DFF870814345B9
:1016500002D14FF0010808E0DFF86481434502D170
:101660004FF0020801E04FF003084FEA82794FEA99
:10167000197908FA09F848EA0505DFF848814FEAC0
:10168000920948F82950D1F8048008F48018B8F578
:10169000801F0AD1DFF83081D8F8008048EA0008BE
:1016A000DFF82491C9F8008009E0DFF81C81D8F840
:1016B000008028EA0008DFF81091C9F80080D1F80E
:1016C000048008F40018B8F5001F0FD1DFF8F88087
:1016D00008F10408D8F8008048EA0008DFF8E8902C
:1016E00009F10409C9F800800EE055E0DFF8D88060
:1016F00008F10408D8F8008028EA0008DFF8C8904C
:1017000009F10409C9F80080D1F8048008F4003810
:10171000B8F5003F0ED1DFF8B080A8F10408D8F882
:10172000008048EA0008DFF8A090A9F10409C9F890
:1017300000800DE0DFF89080A8F10408D8F8008060
:1017400028EA0008DFF88090A9F10409C9F80080B0
:10175000D1F8048008F48038B8F5803F0ED1DFF866
:101760006880A8F10808D8F8008048EA0008DFF887
:101770005890A9F10809C9F800800DE0DFF8488009
:10178000A8F10808D8F8008028EA0008DFF83890A7
:10179000A9F10809C9F80080521CD1F8008028FA84
:1017A00002F8B8F1000F7FF491AEBDE8F8870000B1
:1017B000000011100010024000080140000C014020
:1017C00000100140080001400804014002469368EF
:1017D0000B400BB1012000E0002070470AB101610D
:1017E00001E00B0403617047014800687047000086
:1017F0004800002070B504460CB9012070BD94F873
:101800003D0028B9002084F83C00204600F0DAF8BA
:10181000242084F83D002068006820F00100216841
:1018200008602068006840F4004021680860206873
:10183000006820F400402168086000F0C5FB054600
:101840005C496068884206D85B48854201D2012025
:1018500007E0002005E05948854201D2012000E060
:101860000020012800D1C9E75548B5FBF0F62068F3
:10187000406820F03F003043216848604D4960686F
:10188000884201D8701C07E04FF4967070434FF403
:101890007A71B0FBF1F0401C2168096A21F03F0128
:1018A00008432168086243496068884214D8681E6A
:1018B00061684900B0FBF1F0401CC0F30B00042844
:1018C00001D204203DE0681E61684900B0FBF1F0E0
:1018D000401CC0F30B0034E0A06838B9681E616892
:1018E00001EB4101B0FBF1F0401C0AE0681E6168A9
:1018F00001EBC10202EB0111B0FBF1F0401C40F41E
:101900008040C0F30B0008B901201AE0A06848B974
:10191000681E616801EB4101B0FBF1F0401CC0F3AF
:101920000B000CE0681E616801EBC10202EB0111C3
:10193000B0FBF1F0401CC0F30B0040F4804040F4D9
:1019400000402168C9694CF6FF7291430843216841
:10195000C861D4E9070108432168096821F0C00182
:10196000084321680860D4E90310084321688968A6
:1019700048F2FF329143084321688860D4E90501A9
:1019800008432168C96821F0FF0108432168C86045
:101990002068006840F00100216808600020206491
:1019A000202084F83D000020206384F83E0000BF22
:1019B00024E70000A086010080841E0000093D008D
:1019C00040420F0010B586B00446002002900390FC
:1019D000049005901B492068884231D100BF1A4805
:1019E000806940F00800184988610846806900F065
:1019F0000800019000BF00BF4FF440700290122019
:101A00000390002004900320059002A90F48FFF7DF
:101A100057FD00BF0E49486840F0E06040F002000A
:101A2000486000BF00BF0848C06940F40010064984
:101A3000C8610846C06900F40010019000BF00BFF3
:101A400006B010BD0054004000100240000C0140E0
:101A5000000001400348006803490978084401492F
:101A600008607047480000205000002010B508486A
:101A7000006840F0100006490860032000F0A8F854
:101A80000F2000F007F800F02BF8002010BD000038
:101A90000020024070B504460E4800784FF47A7179
:101AA000B1FBF0F00C490968B1FBF0F5284601F0F4
:101AB00076F908B1012070BD102C07D20022214612
:101AC000501E00F047F80548046001E00120F2E7ED
:101AD0000020F0E750000020540000204C000020BF
:101AE00008B500BF1148806940F001000F498861C6
:101AF0000846806900F00100009000BF00BF00BFF1
:101B00000846C06940F08050C8610846C06900F0CE
:101B10008050009000BF00BF00BF0549486820F01A
:101B2000E06040F00070486000BF08BD0010024057
:101B30000000014001460846002809DB00F01F03B1
:101B400001229A4043099B0003F1E023C3F80021DE
:101B500000BF70472DE9F05F80460D46164600270E
:101B600003F090FB074639462A46334601F007004A
:101B7000C0F1070ABAF1040F02D94FF0040A01E0DC
:101B8000C0F1070AD14600F1040ABAF1070F02D2E8
:101B90004FF0000A01E0A0F1030AD4464FF0010A19
:101BA0000AFA09FAAAF1010A0AEA020A0AFA0CFA7E
:101BB0004FF0010B0BFA0CFBABF1010B0BEA030B23
:101BC0004AEA0B042146404603F064FBBDE8F09F5F
:101BD00000BF00F00702064B19684FF6FF031940DB
:101BE000044B0B4343EA0221014B196000BF7047CD
:101BF0000CED00E00000FA05012001490862704781
:101C000000000E422DE9F04706464FF0000800257F
:101C100000270024A146012E31D0022E56D0102ECE
:101C20005FD132484468006800F0807008B33048E3
:101C3000C4F38341475C04F4803078B12B4840689A
:101C4000C0F340402B4911F8008004F4803040B1CB
:101C50002948B0FBF8F000FB07F502E0274807FB36
:101C600000F52248406800F48000B0F5800F01D1F3
:101C7000A94603E068000321B0FBF1F932E01B48FC
:101C8000046A04F44070B0F5807F05D104F00200CE
:101C900010B14FF4004918E004F44070B0F5007F33
:101CA00007D11248406A00F0020010B149F64049DD
:101CB0000BE004F44070B0F5407F06D10B4800689B
:101CC00000F4003008B14FF224490BE000F08CF929
:101CD00006494968C1F38131491C4900B0FBF1F95B
:101CE00000E000BF00BF4846BDE8F087001002409A
:101CF0004A5D00085A5D000800127A0000093D00A4
:101D0000F8B5044600260025207800F001000028E0
:101D10006BD000274348C06900F0805070B900BF05
:101D20004048C06940F080503E49C8610846C069DB
:101D300000F08050009000BF00BF01273A480068C3
:101D400000F48070B0B93848006840F480703649BB
:101D50000860FFF749FD064606E0FFF745FD801BDA
:101D6000642801D90320F8BD2F48006800F4807072
:101D70000028F2D02B48006A00F440752DB3A088EB
:101D800000F44070A84220D02648006A20F4407534
:101D9000012026490860002008602248056205F0FD
:101DA000010090B1FFF720FD064608E0FFF71CFD9B
:101DB000801B41F28831884201D90320D3E71948BA
:101DC000006A00F002000028F0D01648006A20F4F3
:101DD00040706168084313490862012F04D1084626
:101DE000C06920F08050C86100BF207800F0020078
:101DF000022807D10B48406820F44040A1680843FE
:101E000008494860207800F01000102807D10548E4
:101E1000406820F48000E1680843024948600020DF
:101E2000A1E7000000100240007000404004424260
:101E300070B504460D460CB9012070BD5A480068C3
:101E400000F00700A8420ED25748006820F00700B3
:101E50002843554908600846006800F00700A8427A
:101E600001D00120E9E7207800F0020002281DD10E
:101E7000207800F00400042805D14C48406840F464
:101E8000E0604A494860207800F00800082805D141
:101E90004648406840F460504449486043484068C0
:101EA00020F0F000A168084340494860207800F025
:101EB000010078B36068012806D13C48006800F44E
:101EC000003090B90120B8E76068022806D1374891
:101ED000006800F0007040B90120AEE733480068A8
:101EE00000F0020008B90120A7E73048406820F060
:101EF0000300616808432D494860FFF775FC0646FA
:101F000009E0FFF771FC801B41F28831884202D959
:101F1000032092E707E02548406800F00C00616864
:101F2000B0EB810FEDD12048006800F00700A84217
:101F30000ED91D48006820F0070028431A490860A0
:101F40000846006800F00700A84201D0012074E7AD
:101F5000207800F00400042807D11448406820F4D9
:101F6000E060E168084311494860207800F008000B
:101F7000082808D10D48406820F46050216940EAE3
:101F8000C1000A49486000F03FF808494968C1F3B8
:101F90000311074A515CC8400649086006480068BA
:101FA000FFF778FD002048E70020024000100240C3
:101FB0005C5D0008540000204C00002001480068CF
:101FC000704700005400002000B5FFF7F7FF0449F8
:101FD0004968C1F30221034A515CC84000BD0000BA
:101FE000001002406C5D000800B5FFF7E7FF0449F0
:101FF0004968C1F3C221034A515CC84000BD0000DA
:10200000001002406C5D000870B500210022002421
:1020100000230020134D696801F00C05F5B1042D73
:1020200002D0082D19D101E00F4819E00F4DC1F37E
:102030008346AB5D01F4803555B10A4D6D68C5F33B
:1020400040450B4E725D084D5D43B5FBF2F402E076
:10205000084D03FB05F4204602E000BF024800BF24
:1020600000BF70BD0010024000127A00385D000809
:10207000485D000800093D00F8B504460CB9012090
:10208000F8BD207800F00100002878D0F8484068BA
:1020900000F00C0004280CD0F548406800F00C005B
:1020A000082811D1F248406800F48030B0F5803F34
:1020B0000AD1EF48006800F4003000285FD0606863
:1020C00000285CD10120DBE700BF6068B0F5803FED
:1020D00006D1E748006840F48030E549086028E010
:1020E000606858B9E248006820F48030E049086030
:1020F0000846006820F4802008601AE06068B0F5A7
:10210000A02F0BD1DA48006840F48020D84908603D
:102110000846006840F4803008600AE0D44800684F
:1021200020F48030D24908600846006820F48020FE
:10213000086000BF606888B1FFF756FB054606E0FF
:10214000FFF752FB401B642801D9032098E7C848D9
:10215000006800F400300028F2D010E0FFF744FBE4
:10216000054606E0FFF740FB401B642801D9032029
:1021700086E7BF48006800F400300028F2D12078DC
:1021800000F00200022857D1B948406800F00C0066
:1021900050B1B748406800F00C00082818D1B44886
:1021A000406800F4803098B9B148006800F002003F
:1021B00020B12069012801D0012061E7AC48006806
:1021C00020F0F800616940EAC100A949086033E0E5
:1021D0002069E8B10120A7490860FFF705FB054623
:1021E00006E0FFF701FB401B022801D9032047E767
:1021F0009F48006800F002000028F2D09C48006868
:1022000020F0F800616940EAC1009949086013E0D4
:10221000002098490860FFF7E7FA054606E0FFF757
:10222000E3FA401B022801D9032029E790480068FF
:1022300000F002000028F2D1207800F00800082801
:102240002DD1A069B8B101208B490860FFF7CCFA05
:10225000054606E0FFF7C8FA401B022801D9032013
:102260000EE78348406A00F002000028F2D0012007
:1022700002F090F813E000207F490860FFF7B4FAFD
:10228000054606E0FFF7B0FA401B022801D90320FB
:10229000F6E67748406A00F002000028F2D1207884
:1022A00000F00400042873D100277148C06900F0D1
:1022B000805070B900BF6E48C06940F080506C49D2
:1022C000C8610846C06900F08050009000BF00BFA0
:1022D00001276A48006800F48070B0B96748006858
:1022E00040F4807065490860FFF77EFA054606E015
:1022F000FFF77AFA401B642801D90320C0E65F4843
:10230000006800F480700028F2D000BFE068012867
:1023100006D15748006A40F001005549086227E09D
:10232000E06858B95248006A20F00100504908623C
:102330000846006A20F00400086219E0E0680528F9
:102340000BD14B48006A40F0040049490862084636
:10235000006A40F0010008620AE04548006A20F087
:102360000100434908620846006A20F00400086240
:1023700000BFE068A0B1FFF737FA054609E0FFF7B4
:1023800033FA401B41F28831884202D9032077E6B4
:1023900022E03748006A00F002000028EFD012E087
:1023A000FFF722FA054608E0FFF71EFA401B41F24C
:1023B0008831884201D9032062E62D48006A00F086
:1023C00002000028F0D1012F05D12948C06920F072
:1023D00080502749C86100BFE069C8B324484068FD
:1023E00000F00C00082860D0E069022848D10020E5
:1023F00020490866FFF7F8F9054606E0FFF7F4F90B
:10240000401B022801D903203AE61948006800F071
:1024100000700028F2D1206AB0F5803F07D114483F
:10242000406820F40030A168084311494860D4E9AD
:10243000080108430E49496821F4741108430C4906
:10244000486001200B490866FFF7CEF9054607E012
:102450003DE0FFF7C9F9401B022801D903200FE630
:102460000348006800F000700028F2D02FE0000060
:1024700000100240000042428004424200700040CE
:10248000002014490866FFF7AFF9054606E0FFF79C
:10249000ABF9401B022801D90320F1E50E48006882
:1024A00000F000700028F2D111E0E069012800D1AD
:1024B000E6E50948466806F48031206A814204D185
:1024C00006F47011606A814201D00120D8E5002035
:1024D000D6E500000000424200100240F8B5054673
:1024E0000C4616460020009005B10CB90120F8BD3D
:1024F00000226946284600F01AF808B10120F6E7E4
:10250000287B2070E87BE070687B6070A87BA070FF
:102510005EB1E07801F05DFFE070607801F059FF96
:102520006070A07801F055FFA0700020DFE72DE972
:10253000F04780460C46914600250026AA46002713
:10254000B8F1000F00D014B90120BDE8F087D8F829
:1025500000004068C0F3800008B10120F5E7404664
:1025600001F0FEFF05464FF46160B5FBF0F7B5FBE7
:10257000F0F100FB11503C21B0FBF1F060704FF422
:102580006160B5FBF0F100FB11503C21B0FBF1F2B2
:1025900001FB1200A070182F39D31820B7FBF0FAF6
:1025A000B7FBF0F100FB11702070404601F0CCFF4A
:1025B0000646701C18B1AE4201D9761B01E04FF0FF
:1025C000FF360AEB4A00C000C0EB4011C1EB00200F
:1025D000A5EB00152946404602F035F808B1012068
:1025E000B3E7701C38B12E443146404602F014F86F
:1025F00040B10120A9E73146404602F00DF808B18C
:102600000120A2E75146404601F0F0FE00E02770AD
:10261000B9F1000F0BD0207801F0DBFE207060785C
:1026200001F0D7FE6070A07801F0D3FEA07000200A
:102630008BE7000070B5044600250CB9012070BD81
:10264000607C20B900202074204600F053F802205E
:102650006074204600F058F918B10420607401201D
:10266000EDE7204601F01DFF18B104206074012041
:10267000E5E72068406820F0070021684860A0680E
:1026800028B11B48006820F001001949086018486B
:10269000001F006820F46070A16808431449091FF6
:1026A00008606068401C08B1656809E00120FFF718
:1026B000A9FA05461DB9042060740120BFE76D1E0C
:1026C000C5F3034021688860A8B22168C86020462D
:1026D00001F004FF18B1042060740120AFE700216D
:1026E000E17301216173A173012060740020A6E7EA
:1026F000306C004038B504460B492068884212D13E
:10270000FFF77AFA00BF0948C06940F00060074946
:10271000C8610846C06900F00060009000BF00BFBB
:1027200001200349086038BD002800400010024025
:102730003C0442422DE9F04704460D4690460026EF
:102740000027B14604B115B90120BDE8F08700BFEC
:10275000207C012801D10220F7E70120207400BF6E
:1027600002206074B8F1000F06D1E978E17369784E
:102770006173A978A1730BE0E87801F01FFEE073A4
:10278000687801F01BFE6073A87801F017FEA07353
:10279000A27B617BE07B01F0FDFE2073207B287033
:1027A000204601F0DDFE06464FF46160B6FBF0F90D
:1027B000B9F1180F2FD91820B9FBF0F000EB400049
:1027C000C000C0EB4011C1EB0020A6EB0016314663
:1027D000204601F038FF38B10420607400BF0020AB
:1027E000207400BF0120B0E7204601F0ADFE07468F
:1027F000781C80B1B7420ED20B48074439462046B8
:1028000001F00AFF38B10420607400BF002020747A
:1028100000BF012099E70120607400BF00202074F0
:1028200000BF00BF91E70000805101002DE9F04793
:1028300004460D4690460026002704B115B9012034
:10284000BDE8F08700BF207C012801D10220F7E716
:102850000120207400BF02206074B8F1000F0BD17A
:1028600028784FF4616148436978C1EB011100EBAE
:102870008100A978461812E0287801F09FFD4FF4F6
:10288000616100FB01F9687801F098FDC0EB001070
:1028900009EB8009A87801F091FD09EB00063146AB
:1028A000204601F0D0FE38B10420607400BF002043
:1028B000207400BF0120C3E72068406820F00500B5
:1028C00021684860204601F03FFE0746781C80B131
:1028D000B7420ED20B4807443946204601F09CFE11
:1028E00038B10420607400BF0020207400BF0120B4
:1028F000A6E70120607400BF0020207400BF00BF65
:102900009EE700008051010070B5044600250CB917
:10291000012070BD2068406820F0080021684860F0
:10292000FEF762FF054607E0FEF75EFF401BB0F5CD
:102930007A7F01D90320ECE72068406800F00800A6
:102940000028F1D00020E4E7704710B504460CB928
:10295000012010BD606A38B96068B0F5827F00D18F
:1029600005E00021E16102E00021216161610021B7
:10297000A16294F8510028B9002084F85000204644
:1029800000F042F8022084F851002068006820F02E
:10299000400021680860A08800F48270218901F459
:1029A00004410843A18901F400610843217C01F03E
:1029B00002010843217D01F001010843218B01F44C
:1029C00000710843217F01F0380108432021095D8F
:1029D00001F080010843218D01F400510843216872
:1029E00008600421A06901EA10402168486020685D
:1029F000C06920F400602168C86100206065012082
:102A000084F851000020A4E710B586B004460020E9
:102A1000029003900490059026492068884246D190
:102A200000BF2548806940F48050234988610846EA
:102A3000806900F48050019000BF00BF00BF0846CD
:102A4000806940F0040088610846806900F0040055
:102A5000019000BF00BFA02002900220039003203D
:102A6000059002A91548FEF72BFD4020029000209A
:102A70000390049002A91148FEF722FD1048114965
:102A800008601020486000210E4881608021C160EC
:102A90000021016141618161C161FEF76BFC08B1F8
:102AA000FEF70FF800BF0748A064446200BF06B0FD
:102AB00010BD00000030014000100240000801403D
:102AC00030000240301D00202DE9F84304460F4637
:102AD00016461D46FEF788FE8046B14694F8510022
:102AE000012802D00220BDE8F88307B10EB9012009
:102AF000F9E700BF94F85000012801D10220F2E765
:102B0000012084F8500000BF032084F85100002009
:102B100060652763A686E686A063A087E087606479
:102B20002064A068B0F5004F0BD12068006820F049
:102B30004000216808602068006840F480402168F7
:102B400008602068006800F04000402805D0206838
:102B5000006840F0400021680860E068B0F5006F50
:102B600037D1606810B1B9F1010F09D1206B00882D
:102B70002168C860206B801C2063E08E401EE086C8
:102B800023E02068806800F0020002280AD1206B50
:102B900000882168C860206B801C2063E08E401E86
:102BA000E08612E0FEF720FEA0EB0800A84201D369
:102BB000681C00B94DB9012084F8510000BF002005
:102BC00084F8500000BF03208DE7E08E0028D8D1A4
:102BD00036E0606810B1B9F1010F09D1206B0078BF
:102BE00021680873206B401C2063E08E401EE08645
:102BF00023E02068806800F0020002280AD1206BE0
:102C0000007821680873206B401C2063E08E401E12
:102C1000E08612E0FEF7E8FDA0EB0800A84201D331
:102C2000681C00B94DB9012084F8510000BF002094
:102C300084F8500000BF032055E7E08E0028D8D16B
:102C400042462946204601F0B3FD08B120206065C8
:102C5000A06850B900BF002000902068C0680090B4
:102C600020688068009000BF00BF012084F85100F8
:102C700000BF002084F8500000BF606D08B1012043
:102C800031E700202FE700002DE9F04104460E4611
:102C9000154694F85100012802D00220BDE8F081C9
:102CA00006B10DB90120F9E700BF94F850000128E2
:102CB00001D10220F2E7012084F8500000BF032078
:102CC00084F85100002060652663A586E586A06330
:102CD00060642064A087E087A068B0F5004F0BD146
:102CE0002068006820F040002168086020680068C3
:102CF00040F48040216808601F48A16CC8621F48EA
:102D0000A16C88621E48A16C08630020A16C486316
:102D1000E38E276807F10C02216BA06CFEF75EFBC7
:102D200050B1606D40F01000606500BF002084F875
:102D3000500000BF0120B1E72068006800F04000AB
:102D4000402805D02068006840F0400021680860F5
:102D500000BF002084F8500000BF2068406840F0A9
:102D60002000216848602068406840F00200216827
:102D70004860002092E7000025470008334700081C
:102D8000FD460008034A0168914202D10021024A2F
:102D9000117070470030014058000020704770B536
:102DA00004462546681EB0F1807F01D301200FE064
:102DB000681E4FF0E02148610F214FF0FF3002F014
:102DC00069FA00204FF0E0218861072008610020A7
:102DD00070BD70477047000030B502460B4600BF1B
:102DE00092F83C00012801D1022030BD012082F878
:102DF0003C0000BF022082F83D0010684468106863
:102E0000816824F0700418680443106844600E4D13
:102E10001068A84207D01068B0F1804F03D00B4D66
:102E20001068A84205D121F080015868014310685C
:102E30008160012082F83D0000BF002082F83C0044
:102E400000BF00BFD1E70000002C0140000400409B
:102E500010B504460CB9012010BD94F83D0028B906
:102E6000002084F83C00204600F026F8022084F878
:102E70003D00211D206801F0B9FF012084F84600C3
:102E800000BF84F83E0001213F200155402001553C
:102E90004120015500BF00BF012084F842004320BB
:102EA0000155442001554520015500BF012084F8FB
:102EB0003D000020D0E7000038B504462068B0F19E
:102EC000804F15D100BF0B48C06940F0010009498F
:102ED000C8610846C06900F00100009000BF00BF53
:102EE000002203211C20FEF735FE1C20FEF722FEE7
:102EF00038BD000000100240014691F83D00012855
:102F000001D001207047022081F83D000868C068A8
:102F100040F001000B68D860104B0868984207D059
:102F20000868B0F1804F03D00D4B086898420CD16F
:102F30000868806800F00702062A0CD0086800685C
:102F400040F001000B68186005E00868006840F078
:102F500001000B6818600020D4E70000002C01403D
:102F60000004004001460868C06820F001000A68BB
:102F7000D06000BF0868006A41F21112104050B9D9
:102F80000868006A9210104028B90868006820F0AC
:102F900001000A68106000BF012081F83D00002098
:102FA00070472DE9F04104460D46002700BF94F814
:102FB0003C00012802D10220BDE8F081012084F804
:102FC0003C0000BF022084F83D002068866826F09F
:102FD000770626F47F46206886602868502833D01C
:102FE0000CDC202850D004DC00284BD0102851D114
:102FF00049E0302849D040284CD139E060282DD014
:10300000702807D0B0F5805F03D0B0F5005F41D1E4
:103010000DE041E0D5E902136A68206801F031FF54
:103020002068866846F077062068866034E0D5E937
:1030300002136A68206801F024FF2068806840F469
:1030400080402168886027E0EA686968206801F0AC
:103050002CFF5021206801F01FFF1DE0EA6869681D
:10306000206801F035FF6021206801F015FF13E0B2
:10307000EA686968206801F018FF4021206801F0C3
:103080000BFF09E000BF00BF00BF2968206801F006
:1030900003FF01E0012700BF00BF012084F83D00CD
:1030A00000BF002084F83C0000BF384684E72DE9CB
:1030B000F04104460D4614B90120BDE8F08194F8B2
:1030C0003D0028B9002084F83C00204600F052F86A
:1030D000022084F83D002068806844F2070188439C
:1030E00021688860211D206801F080FE2068D0F8EA
:1030F0000880206886692068076A286840EA08080E
:1031000040F203308643A969A86840EA01200643DB
:1031100040F60C4086434FF2F0008643E969E868C8
:1031200040EA0120064328690001296A40EA01308B
:10313000064327F022076969686840EA01100743DF
:103140002068C0F808802068866120680762012036
:1031500084F8460084F83E0001213F2001550120FB
:1031600084F8420043200155012084F83D000020EE
:10317000A3E7000010B586B004460020029003903B
:103180000490059015492068884225D100BF144855
:10319000806940F40060124988610846806900F443
:1031A0000060019000BF00BF00BF0846806940F08A
:1031B000040088610846806900F00400019000BFA7
:1031C00000BF4FF440700290002003900120049053
:1031D00002A90448FEF774F906B010BD002C0140A6
:1031E00000100240000801402DE9F04304460D465E
:1031F00094F83E603F20075D94F84280432010F829
:1032000004906DB9012E02D1B8F1010F02D0012056
:10321000BDE8F083022084F83E0084F8420025E0F7
:10322000042D0CD1012F02D1B9F1010F01D00120E1
:10323000EEE702213F2001554320015516E0012E03
:1032400007D1012F05D1B8F1010F02D1B9F1010F5A
:1032500001D00120DCE7022084F83E0002213F205B
:103260000155022084F842004320015515B1042D78
:103270000CD105E001220021206801F0F1FD10E0F1
:1032800001220421206801F0EBFD0AE00122002167
:10329000206801F0E5FD01220421206801F0E0FD35
:1032A00000BF00BF2068006840F00100216808608E
:1032B0000020ADE7704770B504462068C5682068F7
:1032C000066906F00200022819D105F00200022862
:1032D00015D1401F2168086101202077206880698E
:1032E00000F0030018B12046FFF7E4FF05E0204698
:1032F00000F097F8204600F095F80020207706F0BF
:103300000400042819D105F00400042815D1C04395
:1033100021680861022020772068806900F44070ED
:1033200018B12046FFF7C6FF05E0204600F079F807
:10333000204600F077F80020207706F008000828E3
:1033400019D105F00800082815D1C043216808618B
:10335000042020772068C06900F0030018B12046DF
:10336000FFF7A8FF05E0204600F05BF8204600F0DC
:1033700059F80020207706F01000102819D105F028
:103380001000102815D1C04321680861082020775B
:103390002068C06900F4407018B12046FFF78AFF2A
:1033A00005E0204600F03DF8204600F03BF8002004
:1033B000207706F0010048B105F0010030B16FF050
:1033C000010021680861204600F02EF806F0800018
:1033D000802809D105F08000802805D1C0432168EC
:1033E00008612046FFF7F5FC06F04000402809D1AF
:1033F00005F04000402805D1C043216808612046FF
:1034000000F030F806F02000202809D105F0200057
:10341000202805D1C043216808612046FFF7DAFC67
:1034200070BD70477047000010B50168B1F1804F62
:1034300013D10A490978491C084A117011460978C4
:103440000A290ADB0021117005490B6849685B1CD9
:1034500041F10001024A1360516010BD30000020AC
:1034600028000020704710B504460CB9012010BD9B
:10347000A06900B100E000BF94F8410028B9002025
:1034800084F84000204600F029F8242084F8410008
:103490002068C06820F400502168C860204601F010
:1034A00061FD2068006920F490402168086120686F
:1034B000406920F02A00216848612068C06840F413
:1034C00000502168C86000206064202084F841001A
:1034D00084F842000020606300BFC8E710B586B0E2
:1034E0000446002002900390049005901E49206835
:1034F000884236D100BF1D48806940F480401B4996
:1035000088610846806900F48040019000BF00BFD8
:1035100000BF0846806940F008008861084680695D
:1035200000F00800019000BF00BF40200290022080
:1035300003900320059002A90D48FDF7C1FF8020EC
:10354000029000200390049002A90948FDF7B8FFFB
:1035500000BF0849486840F0E06040F0040048605F
:1035600000BF06B010BD000000380140001002404E
:10357000000C0140000001402DE9F84F04460E46C2
:10358000174699464FF0000A94F84100202850D180
:1035900006B117B90120BDE8F88F00206064212032
:1035A00084F84100FEF720F98246A784E784A068EA
:1035B000B0F5805F04D1206910B90025B04602E063
:1035C00035464FF000081EE0534600228021204679
:1035D000CDF8009001F044FD20B1202084F8410096
:1035E0000320D8E745B9B8F80000C0F30800216807
:1035F000486008F1020803E02878216848606D1CE3
:10360000E08C401EE084E08C0028DDD1534600228F
:1036100040212046CDF8009001F022FD20B120206D
:1036200084F841000320B6E7202084F84100002000
:10363000B1E70220AFE700BFFEE700002DE9F0414F
:1036400006463446FEF7D0F80546A1882068FEF706
:10365000BDF80746A07930B101280AD0022819D058
:1036600003283DD12AE0012F02D10120A071A560DD
:1036700036E0A068281A14280BD3012F07D10220A6
:10368000A071A560012060730020A07301E00020FC
:10369000A07125E01FB90320A071A5600DE0A0680E
:1036A000281AB0F57A7F08D3A07B30B90120A07327
:1036B0000420216988470020207311E0A068281A9F
:1036C00014280CD34FB900206073A071A07B30B9CF
:1036D000207B401C2073A56001E00220A07100BF88
:1036E00000BF607BE8B9207B00281ADDA068281A9B
:1036F000FA2816D9207B012804D0022806D00328F6
:103700000CD107E001202169884707E002202169E8
:10371000884703E003202169884700BF00BF0020DD
:1037200020730A223146AFF2EB00FDF711F9BDE834
:10373000F08100000EB50020009001900290114829
:1037400011490860002110488160017301754FF430
:103750006021C16100200C49486001210A480161D3
:10376000FDF7B8FB08B1FDF7ACF90120009001901E
:103770000020029069460448FDF762FA08B1FDF79F
:10378000A0F90EBD00240140401C002008B500BF78
:103790000A48406940F0010008494861084640690C
:1037A00000F00100009000BF00BF002211460D2074
:1037B000FEF7D0F90D20FEF7BDF908BD001002405C
:1037C00000B585B00020019002900390049000BFE6
:1037D0003F48806940F010003D4988610846806993
:1037E00000F01000009000BF00BF00BF08468069D5
:1037F00040F0200088610846806900F020000090B9
:1038000000BF00BF00BF0846806940F00400886127
:103810000846806900F00400009000BF00BF00BFB0
:103820000846806940F0080088610846806900F019
:103830000800009000BF00BF00221C212548FDF7B2
:10384000CDFF00224FF440612348FDF7C7FF012060
:103850000190224802900220039001A91D48FDF723
:103860002FFE1C20019001200290002003900220D6
:10387000049001A91748FDF723FE4FF44060019022
:103880000120029003900220049001A91248FDF744
:1038900017FE4FF48050019000200290039001A980
:1038A0000D48FDF70DFE4FF460400190002002909E
:1038B0000220039001A90848FDF702FE002205211D
:1038C0000620FEF747F90620FEF734F905B000BDE3
:1038D0000010024000080140000C014000001110DF
:1038E00010B50B480B4908600B4848600021094897
:1038F0008160C1604FF480410161002141618161BB
:10390000C1610162FDF776FF08B1FDF7DAF810BD7D
:1039100000540040701C0020A08601001CB500204F
:10392000019000901848194908604FF0FF30486036
:103930004FF4807115488160FEF77CFE08B1FDF7F9
:10394000C0F800208DF804008DF805008DF8060001
:10395000012201A90D48FEF769FF08B1FDF7B1F892
:1039600001208DF800008DF801008DF80200002084
:103970008DF80300012269460448FEF7DBFE08B11A
:10398000FDF79FF81CBD000000280040C41C00206B
:1039900010B50E480E4908604FF48270486000214F
:1039A0000B488160C160016141614FF40071816128
:1039B0000821C16100210162416281620A21C16264
:1039C000FEF7C3FF08B1FDF77CF810BD00300140E1
:1039D000D81C002000B58BB0242102A8FCF7ECFB1A
:1039E0000020009001901A481A49086000204860A1
:1039F0000021184881604FF6FF71C160002101610C
:103A00004161816103200290002003900120049015
:103A1000002005900F2006900020079001200890BC
:103A2000002009900F200A9002A90A48FFF73FFBE7
:103A300008B1FDF746F8002000900190694605485E
:103A4000FFF7CAF908B1FDF73CF80BB000BD000064
:103A5000002C0140741D002000B587B000200390A9
:103A6000049005900690019002904FF08040144918
:103A7000086041F61F4048600021114881604FF402
:103A80007A71C160002101618161FFF7E1F908B13C
:103A9000FDF717F84FF48050039003A90848FFF78B
:103AA00080FA08B1FDF70DF800200190029001A9FD
:103AB0000348FFF791F908B1FDF703F807B000BD1F
:103AC000BC1D002010B50B480B4908604FF4E130D5
:103AD0004860002108488160C16001610C2141619A
:103AE00000218161C161FFF7BEFC08B1FCF7E9FF6D
:103AF00010BD000000380140041E002000BFFEE79A
:103B000010B504460C480079642808DA0A48FDF725
:103B10000BF809480079401C074908710AE00120A8
:103B20000549C8700020087108460278417803A052
:103B300001F07EFB10BD0000A40000204661696C0E
:103B4000656420746F207365742066616E206D6FEC
:103B50006465202564202D3E207374696C6C20728E
:103B60006561642025640D0A0000000010B504465C
:103B7000012C06D0022C0BD0032C20D0042C3AD1DF
:103B800021E001201D4908701DA001F051FB33E028
:103B90001D480078401C1C4908700878C11700EBCC
:103BA00091718910A0EB8101174A117010460178BC
:103BB00016A001F03DFB19A001F03AFB1CE019A092
:103BC00001F036FB18E01948007880F00100174931
:103BD00008700021164A116051601448007818B12D
:103BE0001448FFF789F902E01248FFF7BBF912A069
:103BF00001F01EFB00E000BF00BF10BD150000205B
:103C0000B6CCB0B40A000000160000205365745F03
:103C10005374617465203A2025640A00CBABBBF76E
:103C20000A000000C8FDBBF70A0000000C000020DD
:103C300028000020BC1D0020B3A4B0B40A0000007E
:103C400000BFFEE710B5002004E00021044A115433
:103C5000411C88B2B0F5806FF7DB00F0ABF910BD06
:103C60004C1E00202DE9F04F044615461E46802CC0
:103C700003DA402901DA05B10EB9BDE8F08F601909
:103C8000C7B2881900F0FF0C802F00DD8027BCF13F
:103C9000400F01DD4FF0400C08462CE003464FEA90
:103CA000E07900EB5979C9F3C7024FEAE07900EBFC
:103CB00059794FEAE909A0EBC90A4FF0010909FA5D
:103CC0000AF909F0FF08234611E003EBC219DFF8F7
:103CD00030A01AF8099029EA080903EBC21ADFF8A4
:103CE00020B00BF80A9003F1010909F0FF03BB4271
:103CF000EBDB421CD0B26045D0DB00BFBDE700006B
:103D00004C1E002010B504461CB90021A62000F06E
:103D1000D7FA012C03D10021A72000F0D1FA10BD61
:103D200010B500218D2000F0CBFA0021142000F006
:103D3000C7FA0021AF2000F0C3FA10BD10B5044649
:103D40003CB90021C82000F0BBFA0021A12000F0FE
:103D5000B7FA012C07D10021C02000F0B1FA0021F0
:103D6000A02000F0ADFA10BDF0B5034616467F2B3B
:103D700001DC3F2900DDF0BD0D46CF1701EB577781
:103D8000C7F3CF02CF1701EB5777FF10A1EBC7079F
:103D9000FCB203EBC215A8B23EB1084D2D5C012761
:103DA000A7403D43054F3D5406E0044D2D5C0127DF
:103DB000A740BD43014F3D5400BFDCE74C1E00202F
:103DC0002DE9F04F87B005460E46904699460024EF
:103DD00010200690012700200390049005902648AB
:103DE00018231A463146CDE90007284600F0D8F9D5
:103DF000109808B14C4600E04446B4F5616F19D202
:103E00003C20B4FBF0F100FB114AB4FBF0FB5B4635
:103E10001AA20C2103A8CDF800A001F019FA321D56
:103E2000D1B205F11802D0B2102303AA009700F016
:103E300022FA1EE04FF46160B4FBF0F100FB114088
:103E40003C21B0FBF1FA4FF46160B4FBF0FB5B4640
:103E50000DA20C2103A8CDF800A001F0F9F9321D44
:103E6000D1B205F14802D0B2102303AA009700F0A6
:103E700002FA07B0BDE8F08FD07500082530326433
:103E80003A25303264730000253032643A253032EE
:103E9000646D000010B5002210213F48FDF79EFC24
:103EA000C820FDF7E9FA012210213B48FDF796FCF6
:103EB0000021AE2000F004FA0021084600F000FACC
:103EC0000021102000F0FCF90021402000F0F8F95A
:103ED0000021812000F0F4F90021CF2000F0F0F95A
:103EE0000021A12000F0ECF90021C82000F0E8F941
:103EF0000021A62000F0E4F90021A82000F0E0F95C
:103F000000213F2000F0DCF90021D32000F0D8F997
:103F10000021084600F0D4F90021D52000F0D0F9A6
:103F20000021802000F0CCF90021D92000F0C8F950
:103F30000021F12000F0C4F90021DA2000F0C0F9DE
:103F40000021122000F0BCF90021DB2000F0B8F9BC
:103F50000021402000F0B4F90021202000F0B0F949
:103F60000021022000F0ACF900218D2000F0A8F91A
:103F70000021142000F0A4F90021A42000F0A0F9F1
:103F80000021A62000F09CF9FFF75CFE0021AF2085
:103F900000F096F910BD00000008014010B502467F
:103FA000012000E050430B1EA1F10104E1B2F9D160
:103FB00010BD000010B5002412E004F1B001C8B239
:103FC00000F0A4F9002000F0A1F9102000F09EF903
:103FD000054901EBC410802100F0B4F9601CC4B2A3
:103FE000082CEADB10BD00004C1E00202DE9FE4F1E
:103FF0000646884692461C460196CDF80080082C5D
:1040000002D14FF006091FE02046E31704EB53737B
:10401000DB1021464FEAE47C04EB5C7C4FEAEC0CBD
:10402000A4EBCC0CBCF1000F02D04FF0010C01E06E
:104030004FF0000C6344224604EBD27C4FEA6C0C38
:1040400003FB0CF303F0FF09AAF12000C7B200251F
:1040500056E0082C04D00C2C0AD0102C16D10FE0FE
:1040600007EB4700284901EB400010F805B00FE0CE
:1040700007EB4700254901EB800010F805B007E089
:10408000234800EB071010F805B001E0BDE8FE8FF3
:1040900000BF002002901CE00BF0010028B1414657
:1040A00030460C9AFFF760FE09E00C9808B9012031
:1040B00000E00020024641463046FFF755FE4FEA39
:1040C0006B0B08F1010000F0FF080298401CC0B221
:1040D000029002980828DFDB701CC6B2082C0BD0B7
:1040E00004EBD4714A100199711A8A4204D1019EDD
:1040F00000980830C0B20090DDF80080681CC5B29E
:104100004D45A6DB00BFC1E7745D00089C5F000859
:10411000106400082DE9FF4F82B0064691461F4605
:10412000DDE90F4A4FF0000B082C01D14FF0020BD4
:10413000002530E0781B401EC1B20A20FFF72EFF99
:10414000B9FBF0F00A21B0FBF1F201FB1208B8F163
:10415000000F0ED104EBD4710BEB610101FB056183
:10416000C8B223463022CDE900A40399FFF73EFFF1
:104170000FE004EBD4710BEB610101FB0561C8B2E8
:1041800008F13001CAB22346CDE900A40399FFF734
:104190002DFF681CC5B2BD42CCDB06B0BDE8F08F78
:1041A0002DE9FF4F05460E4617461C46DDF83890B0
:1041B0004FF0000A0095B3462046E21704EB527216
:1041C000D2102146E31704EB5373DB10A4EBC303B7
:1041D0000BB1012300E000231A44D4B24FF00008D1
:1041E00045E0002003903BE00D9810F80A00029093
:1041F0000AF101001FFA80FA002001901DE00298E8
:1042000000F0010028B14A4631462846FFF7ACFDD0
:104210000AE0B9F1000F01D1012000E000200246C0
:1042200031462846FFF7A0FD029840100290701C0E
:10423000C6B20198401CC0B2019001980828DEDB8C
:10424000681CC5B20098281AB84204D1009D0BF131
:10425000080000F0FF0B5E460398401CC0B20390BC
:104260000398B842C0DB08F1010000F0FF08A04548
:10427000B7DBBDE8FF8F2DE9F84106460F4614462F
:104280001D46DDF81C8013E0CDF8008022782B4617
:1042900039463046FFF7AAFE082D02D1B01DC6B23E
:1042A00005E0284605EBD07106EB6101CEB2641C37
:1042B0002078202802DB20787E28E5DDBDE8F88123
:1042C00013B50C46012C05D1012208210D48FDF73C
:1042D00085FA04E0002208210A48FDF77FFA00224F
:1042E00004210848FDF77AFA4FF0FF3301226946AE
:1042F0000548FEF7E9FB012204210248FDF76EFAAA
:104300001CBD000000080140D81C002001B500229F
:1043100008210A48FDF762FA002204210748FDF748
:104320005DFA4FF0FF33012269460548FEF7CCFBEA
:10433000012204210148FDF751FA08BD000801409F
:10434000D81C002070B504460D46012208210D48F6
:10435000FDF744FA002204210A48FDF73FFA012044
:10436000094908702A4621460848FEF78DFC00BF1F
:10437000054800780028FBD1012204210148FDF7FF
:104380002DFA70BD0008014058000020D81C002004
:104390007047000008B508490968C9084FF47A72E7
:1043A000B1FBF2F14143009100BF00BF00994A1EEA
:1043B00000920029F9D108BD54000020014600BF39
:1043C000080900EB8000420001F00F001044C0B269
:1043D00070470146002203E0521CA1F10A00C1B25D
:1043E0000A29F9D2100741EA106070472DE9F04719
:1043F00006468846002700240025A146F77B747BEB
:10440000B57B00BF40E0012C0BD0032C09D0052C5C
:1044100007D0072C05D0082C03D00A2C01D00C2C77
:104420000CD11F2D01D26D1C2CE00C2C02D0641C71
:10443000012527E0012401257F1C23E0042C05D061
:10444000062C03D0092C01D00B2C06D11E2D01D235
:104450006D1C17E0641C012514E0022C12D11C2DE8
:1044600001D26D1C0EE01C2D08D1B8B200F053F83B
:1044700008B16D1C06E0641C012503E01D2D01D16F
:10448000641C012509F10109C145BCD3F77374739C
:10449000B573EAB2E1B2384600F07CF83073BDE89B
:1044A000F08770B504460025FDF79EF9054607E044
:1044B000FDF79AF9401BB0F57A7F01D9032070BD52
:1044C0002068406800F020000028F1D02068406893
:1044D00040F01000216848600020F0E770B5044605
:1044E00000252068406820F0100021684860FDF732
:1044F0007BF9054607E0FDF777F9401BB0F57A7FB9
:1045000001D9032070BD2068406800F02000002819
:10451000F1D00020F6E7014601F0030008B10020C9
:1045200070476420B1FBF0F200FB121008B10120CB
:10453000F6E74FF4C870B1FBF0F200FB121008B9B7
:104540000120EDE70020EBE7014600220023086888
:10455000006A82B20868406A83B243EA0240704748
:1045600030B5014600220023002400200D68AD690B
:10457000AAB20D68ED69ACB20D68AD69ABB29A42F2
:1045800005D00D68ED6963F31F45284601E044EA54
:10459000024030BDF0B504460B460021002504F56D
:1045A000FA61032B1BD2C3EBC30000EB03100926F7
:1045B000B0FBF6F01044001D4618481E06EB9006AE
:1045C0006427B0FBF7F0361A481EBF00B0FBF7F0C7
:1045D00030440726B0FBF6F706FB17051AE0C3EBDD
:1045E000C30000EB03100926B0FBF6F01044001DD9
:1045F000084400EB91006426B1FBF6F6801B4FF4F3
:10460000C876B1FBF6F63044801E0726B0FBF6F7FD
:1046100006FB1705E8B2F0BD70B504460D4600264E
:104620002046FFF73EFF08B101260AE0280C21686A
:104630000862A8B2216848622046FFF74FFF00B128
:104640000126304670BD70B504460D460026204652
:10465000FFF727FF08B101260AE0280C21688861CE
:10466000A8B22168C8612046FFF738FF00B10126D3
:10467000304670BD10B51B48007828BB1A48B0F909
:1046800004001A4909680844184908600846006887
:104690000C2190FBF1F0154908600868C11700EB88
:1046A00091718910A0EB8101104A116010480078C7
:1046B000012809D100200E49087010460078401CDE
:1046C000C1B20C4800F003F9084800780A490870A4
:1046D0000648006810B10020887102E001200649F8
:1046E000887110BD160000204C2200201800002008
:1046F00015000020A4000020C000002070B5054671
:104700006C6A2068406820F0030021684860606D92
:1047100040F010006065012084F851002046FEF74B
:1047200013F970BD70B50446656A2846FEF736FB7E
:1047300070BDF8B505466C6AFDF756F80646286860
:10474000006800F0200020282DD02068406820F06C
:104750002000216848602068406820F0020021683D
:10476000486032466421204600F022F818B1606D9E
:1047700040F020006065A06850B900BF00200090A4
:104780002068C068009020688068009000BF00BF6B
:104790000020E086012084F85100606D18B12046A9
:1047A000FEF7D2F8F8BD2046FEF7ECFA00BFF9E7B5
:1047B000F8B504460E46154633460122022120462E
:1047C000009500F017F828B1606D40F0200060659A
:1047D0000320F8BD3346002280212046009500F0DA
:1047E00009F828B1606D40F0200060650320F0E713
:1047F0000020EEE72DE9F84F04460D4690461E4690
:10480000DDF82890FCF7F0FFA0EB0900371AFCF761
:10481000EBFF82462C480068C0F3CB307843009011
:1048200045E0701C002842D0FCF7DEFFA0EB0A0038
:10483000B84200D2A7BB2068406820F0E0002168A1
:1048400048606068B0F5827F0DD1A068B0F5004F78
:1048500003D0A068B0F5806F05D12068006820F013
:10486000400021680860A06AB0F5005F0DD100BF6C
:104870002068006820F40050216808602068006803
:1048800040F400502168086000BF012084F8510006
:1048900000BF002084F8500000BF0320BDE8F88F5F
:1048A000FFE7009800B900270098401E009020689C
:1048B00080682840A84201D1012000E00020404546
:1048C000AFD10020EAE7000054000020704770B527
:1048D00004460D46012D0BDB042D09DC657000201C
:1048E000A070E0702071FCF77FFFA0600020607472
:1048F00070BD00002DE9FC4104460D4616461F46DA
:1049000001215C4850F8270018231A46CDE9000120
:1049100029462046FFF744FC36B1012E2CD0022E4A
:1049200052D0032E78D178E001205349AA1DCDE959
:104930000010D1B204F11E02D0B20C231822FFF7EE
:104940002FFC01204C49AA1DCDE90010D1B204F181
:104950003902D0B20C231822FFF722FC012046496D
:10496000AA1DCDE90010D1B204F15402D0B20C233B
:104970001822FFF715FC79E001204049AA1DCDE976
:104980000010D1B204F11E02D0B20C231822FFF79E
:1049900007FC01203849AA1DCDE90010D1B204F16D
:1049A0003902D0B20C231822FFF7FAFB012032495A
:1049B000AA1DCDE90010D1B204F15402D0B20C23EB
:1049C0001822FFF7EDFB51E001202C49AA1DCDE98B
:1049D0000010D1B204F11E02D0B20C231822FFF74E
:1049E000DFFB01202549AA1DCDE90010D1B204F159
:1049F0003902D0B20C231822FFF7D2FB01201E4946
:104A0000AA1DCDE90010D1B204F15402D0B20C239A
:104A10001822FFF7C5FB29E027E001201749AA1D4E
:104A2000CDE90010D1B204F11E02D0B20C2318223D
:104A3000FFF7B6FB01201149AA1DCDE90010D1B244
:104A400004F13902D0B20C231822FFF7A9FB012090
:104A50000A49AA1DCDE90010D1B204F15402D0B226
:104A60000C231822FFF79CFB00E000BF00BFBDE84D
:104A7000FC81000078000020C0730008F07300087B
:104A80002DE9FC4704468A463F4840683F4909688B
:104A9000451A3F48D0E90020521940F100003C4936
:104AA000C1E900203B480068401C3A490860FCF717
:104AB0009BFE814638480068A9EB0000B0F57A7F7C
:104AC0005CD33548C0F80090324800233049026872
:104AD00003C9FBF729FB074648220023FBF724FB09
:104AE000064642F21070864222D9012008232BA2EA
:104AF000514600902046FFF7BEFB4FF47A70B6FB9C
:104B0000F0F701200821CDE9001004F10C01C8B232
:104B100004233A465146FFF7FDFA012004F124012F
:104B20000090C8B208231EA25146FFF7A4FB1DE067
:104B30000120082319A2514600902046FFF79BFB55
:104B400001200821CDE9001004F10C01C8B20423B2
:104B500032465146FFF7DEFA012004F124010090AD
:104B6000C8B208230FA25146FFF785FB0021084A6F
:104B70001160516000200749086000BF024840688A
:104B800002490860BDE8FC87001000E0B401002085
:104B9000A8010020A0010020B0010020543A00002C
:104BA0006D0000007500000070B5044625462979A7
:104BB000A878FFF765FF70BD70B5044625462979D2
:104BC000A87800F057F870BD70B504462678002527
:104BD0001EBB22480078012813D121480068406A92
:104BE000204908600846008885B21F48856001207A
:104BF0001D4988614FF4967201211C4800F0A2FA09
:104C00002BE018480068184948600020886100229D
:104C10001146164800F096FA1FE010480078012867
:104C20001BD01348036840680E490968591A70F18F
:104C3000000006D20B4800680D4A11685268401AFD
:104C400000E0002085B208484560002006498861E0
:104C500000221146054800F075FA70BD16000020CC
:104C6000741D0020080000205C0100207801002055
:104C70002800002070B588B005460E460020079039
:104C80000690039004900590002207A92448FDF7A0
:104C90004EFC002206A92248FDF720FC9DF81C00CE
:104CA0004FF4616148439DF81D10C1EB011100EB09
:104CB00081009DF81E1044181A48006884422DD0C7
:104CC000184804609DF81C000A2815DA9DF81E009B
:104CD0009DF81D10CDE900109DF81C3012A20C218A
:104CE00003A800F0B5FA01200C2303AA3146009076
:104CF0002846FFF7C0FA11E09DF81D0000909DF8CE
:104D00001C300DA20C2103A800F0A2FA01200C23F4
:104D100003AA314600902846FFF7ADFA08B070BDEF
:104D2000C41C0020B8010020253031643A253032FF
:104D3000643A253032640000253032643A2530323E
:104D4000646D000010B5FCF785FE10BD00B593B092
:104D5000282109A8FBF730FA142104A8FBF72CFA44
:104D600000200090019002900390092009904FF4D8
:104D700080300A9000200B9001200D900F900220AF
:104D80001090C10311914FF4E011129109A8FDF7A1
:104D900073F908B1FBF795FE0F20049002200590EF
:104DA000002006904FF480600790002008900221B8
:104DB00004A8FDF73DF808B1FBF783FE032000903F
:104DC0004FF400700190800102906846FCF798FF54
:104DD00008B1FBF776FE13B000BD704710B502486E
:104DE000FEF769FA10BD0000BC1D002010B5026876
:104DF000194B984205D0B0F1804F02D0174B984222
:104E000003D122F070024B681A43134B984205D02D
:104E1000B0F1804F02D0114B984203D122F440727E
:104E2000CB681A4322F080034C6943EA0402026013
:104E30008B68C3620B688362074B984201D10B6990
:104E4000036301234361036903F001031BB1036999
:104E500023F00103036110BD002C01400004004059
:104E600030B501F01F05012404FA05F3046A9C43E0
:104E70000462046A01F01F0502FA05F52C4304627E
:104E800030BD30B50C46816821F47F4142EA0325EC
:104E900025432943816030BD0A46816821F07001B5
:104EA00042F0070319438160704730B50B46144642
:104EB000026A056A25F001050562816921F0F001A9
:104EC00041EA041122F00A021A438161026230BDF4
:104ED00030B50B461446026A056A25F010050562D6
:104EE000816921F4704141EA043122F0A00242EAD2
:104EF00003128161026230BD00BF00BF02680C3244
:104F000052E8002F22F4907102680C3242E800133C
:104F1000002BF3D100BF00BF00BF0268143252E87B
:104F2000002F22F001010268143242E80013002B26
:104F3000F3D100BF016B01290ED100BF00BF026891
:104F40000C3252E8002F22F0100102680C3242E8C5
:104F50000013002BF3D100BF202180F84210002164
:104F60000163704770B504462168096921F4405116
:104F7000E2681143226811612269A16811436269E4
:104F800041EA02052168C96841F20C629143294354
:104F90002268D1602168496921F44071A2691143F6
:104FA000226851612D4A2168914202D1FDF71CF817
:104FB00001E0FDF709F800EBC00101EB00116268A8
:104FC0009200B1FBF2F100EBC00202EB0012636849
:104FD0009B00B2FBF3F26423B2FBF3F202EBC203D9
:104FE00003EB0212A1EB8201322202EB01116422D7
:104FF000B1FBF2F101F0F00100EBC00202EB001294
:1050000063689B00B2FBF3F26423B2FBF3F201EBA3
:10501000021200EBC00101EB001163689B00B1FBC1
:10502000F3F100EBC00303EB00136668B600B3FBBB
:10503000F6F36426B3FBF6F303EBC30606EB0313A8
:10504000A1EB8301322303EB01116423B1FBF3F1E4
:1050500001F00F0111442268916070BD00380140D9
:105060002DE9F84304460D4617469846089E31E060
:10507000701C70B3FCF7B8FBA0EB0800B04200D87E
:1050800016B90320BDE8F8832068C06800F004006A
:10509000F8B1802D1ED0402D1CD020680068C0F3D0
:1050A000C000B0B100BF00200090206800680090F0
:1050B00020684068009000BF00BF2046FFF71CFF3B
:1050C0000820606400BF002084F8400000BF012079
:1050D000D8E7FFE7206800682840A84201D10120F6
:1050E00000E00020B842C3D00020CBE72DE9F0411A
:1050F000064600251AE0114850F82540607B08B1AB
:10510000A07B00B110E0207F40B1607F30B1A37A76
:10511000227AA1792079FEF7A5FD04E0206910B17B
:105120002169A069884700BF681CC5B2044800789F
:105130008542E0DBFEF73EFFBDE8F0816022002003
:10514000BC00002070B504460E4615465EB1207FB7
:1051500010B1206AA8420BD0012020772562FCF70D
:1051600043FB606204E0207F10B10020207760776D
:1051700070BD00000020014908707047BC0000208D
:10518000064909780A2908DA04490A780978491C85
:10519000024B1970024941F822007047BC00002000
:1051A0006022002000B5FFF7E5FF0648FFF7E8FFA3
:1051B0000548FFF7E5FF0548FFF7E2FF0448FFF762
:1051C000DFFF00BDCC0000200001002034010020E2
:1051D0007801002070B5FCF707FB064600251CE0AF
:1051E000104850F82540207F60B1606A301A216A6B
:1051F000884209D36662607F08B9012000E0002080
:10520000607701E000206077607B20B1606910B1B9
:10521000D4E905108847681CC5B203480078854268
:10522000DEDB70BD60220020BC00002000BFFEE776
:105230000FB4054B10B503A9044A029800F010F909
:1052400010BC5DF814FB0000995B0008BC01002055
:105250000FB47CB50C0009AD01D0611E00E0002147
:10526000CDE90001064B6A462946089800F0F8F897
:10527000002C02D0009A002111707CBC5DF814FB58
:10528000675B000802480068C0F302207047000016
:105290000CED00E010B5002804DB0A07130E054AE8
:1052A000135406E00A07140E034A00F00F031B1FF5
:1052B000D45410BD00E400E018ED00E002E008C89E
:1052C000121F08C1002AFAD170477047002001E080
:1052D00001C1121F002AFBD1704700002DE9FF5FBA
:1052E00082B00021DDE90430020DDDF840B0034357
:1052F00018D044F61050A2F2FF3242431514119810
:1053000001281FD0A5EB0B00401C5FEA000A4FF0FC
:1053100000064E4FDFF83891B046504615D5CAF119
:10532000000413E0119801244AA3012801D16FEA77
:105330000B010298119AC0E90031C0E9024206B09F
:10534000BDE8F09FCBF10000DFE704460021404AB2
:10535000491842EB0450CDE9001012E0E00707D0F5
:1053600032463B4640464946FAF731FF8046894679
:1053700032463B4610461946FAF729FF06460F46C5
:105380006410002CEAD1DDE90401DDE90023BAF163
:10539000000F06DAFAF71BFF42464B46FAF717FFF3
:1053A00005E0FAF786FF42464B46FAF782FF0446CD
:1053B0000E460022284BFBF72DF903D84FF0FF30A3
:1053C000014607E00022254B20463146FBF762F8F4
:1053D000FBF707F9102409E0002C0ADB0A2200235E
:1053E000FAF7A2FE039B30321A55641E50EA0102FE
:1053F000F2D1641C039AC4F111031444119A012AD6
:1054000003D0012208430DD10AE0084304D0002054
:105410004FF0110B119072E7A3EB0B056D1E0DE021
:105420005B4504DD4FF0000205F1010504E003DAFD
:105430004FF00002A5F10105002AECD00298119965
:10544000C0E90231C0E9004579E7000000001440DE
:105450000000F03F300000000000F0430000E03F9B
:105460002DE9FF4F95B09A46884606460025EEE1A5
:10547000252877D100242746F94A0121039400E02A
:10548000044316F8013F203B01FA03F01042F7D124
:1054900030782A2811D06FF02F033078A0F1300235
:1054A000092A16D8039A44F0020402EB820203EBA5
:1054B00042021044761C0390EFE758F8042B039245
:1054C000002A03DA504244F40054039044F00204EA
:1054D000761C30782E2816D116F8010F44F00404FB
:1054E0002A280DD06FF02F023078A0F13003092B5D
:1054F00009D807EB870302EB4303C718761CF3E7D1
:1055000058F8047B761C30786C280FD006DC4C28C9
:1055100017D068280DD06A2814D104E0742810D060
:105520007A280FD10DE044F400140AE044F480140A
:1055300001E044F440147278824202D104F58014F0
:10554000761C761C307866280BD013DC582877D070
:1055500009DC002875D04528F6D04628F4D0472825
:105560001AD193E118E0632835D0642879D06528F2
:1055700012D18BE1702873D008DC6728F1D069283C
:105580006FD06E280DD06F2806D1ACE073282CD0D8
:10559000752874D0782853D05246179990476D1CBF
:1055A00054E1C4F30250022809D003280DD0D8F8E2
:1055B000001004280DD00D6008F1040846E1D8F869
:1055C0000010EA17C1E90052F6E7D8F800100D8084
:1055D000F2E70D70F0E718F8041B8DF800100020BA
:1055E0008DF80100EB46012003E058F804BB4FF0B2
:1055F000FF3061074FF0000102D40DE009F1010115
:105600008946B9420FDA8145F8DB1BF809100029F9
:10561000F4D108E009F1010189468142FADB1BF867
:1056200009100029F6D103985346A0EB090721463B
:105630003846179A00F080FA284400EB090507E085
:1056400044E008E10DE01BF8010B52461799904722
:10565000B9F10109F7D2534621463846179AF2E0CC
:1056600039E00A21C4F302524FF0000B0091022AE4
:1056700006D058F8040BC117032A09D00AE023E02A
:1056800008F1070020F00702F2E80201904605E069
:1056900000B2C117042A01D140B2C117002906DAAD
:1056A0000A460021404261EB02012D2202E0220560
:1056B00004D52B228DF80420012203E0E20701D05B
:1056C0002022F7E7914657E00A2100E010214FF031
:1056D000000B00910BE010214FF0000B44F004048C
:1056E0000827009103E008204FF0000B0090C4F35E
:1056F0000252022A05D058F8040B0021032A08D0D0
:1057000008E008F1070020F00702F2E802019046E5
:1057100003E080B2042A00D1C0B24FF00009220792
:105720002AD53278702A07D0DDF800C08CF0100C32
:105730005CEA0B0C05D00EE040228DF8042001221B
:1057400008E050EA010306D030238DF804308DF8CC
:10575000052002229146009B83F0080353EA0B03C5
:105760000AD150EA010201D1620705D530228DF835
:1057700004204FF001097F1E3278582A04D039A244
:105780000C920CAA02920BE03BA2F9E75B46009A4E
:10579000FAF7CAFC0C9B9B5C029A521E0292137091
:1057A00050EA0102F2D1029804A9081A00F1200B74
:1057B000600702D524F4803400E001275F4502DD54
:1057C000A7EB0B0000E0002000EB0B01009003981A
:1057D0004944401A0390E00306D453462146179AE1
:1057E000039800F0A9F90544002706E001A85246F5
:1057F000C05D179990476D1C7F1C4F45F6DBE00399
:105800000CD553462146179A039800F095F90544A4
:1058100004E030205246179990476D1C0099481EAD
:1058200000900029F5DC08E00298029952460078C1
:10583000491C0291179990476D1CBBF10001ABF117
:10584000010BF1DC5BE100F065F90544761C307872
:1058500000287FF40DAE19B02846BDE8F08F000097
:105860000928010030313233343536373839616236
:1058700063646566000000003031323334353637FA
:10588000383941424344454600000000600700D4D7
:10589000062708F1070020F00700F0E80223804601
:1058A00003F0004C5FEA0C0001D097A009E020054E
:1058B00001D596A005E0E00701D095A001E0AFF288
:1058C0004C001390307823F0004365280CD006DCA0
:1058D000452809D046281DD047287FD13BE06628BF
:1058E00018D067287AD136E00021112F01DB112072
:1058F00000E0781CCDE9000104A90CA8FFF7EEFC3C
:10590000DDE90D010C9A4FF0000B07F1010910922F
:1059100000914EE04FF000400097CDE9011004A93E
:105920000CA8FFF7DBFCDDE90D020C9B0F994FF093
:10593000000B91461093009211B9791C00EB0109FC
:10594000B7EB090003D4C0F1FF3B07F10109A9EB54
:105950000700019042E0012F00DA01270021112FFA
:1059600001DD112000E03846CDE9000104A90CA8B2
:10597000FFF7B4FCDDE90D010C9A00914FF0000B2C
:10598000B946109221070FD4009A4A4503DA91468E
:1059900001E0A9F10109B9F1010F05DD109AA9F1A2
:1059A0000101515C3029F4D0B84202DA10F1040F41
:1059B00003DA0121CDE9011010E0002803DC834463
:1059C000A9EB000102E0411C494500DD8946A0EB3E
:1059D0000B00401C01904FF000400290200705D4BE
:1059E0000198484502DB4FF0FF30019000208DF810
:1059F0004B0002980DF14B07B0F1004F25D002206B
:105A00000C902B200D90029800280CDA4042029056
:105A10002D200D9007E00A210298FAF7B9FC3031E9
:105A2000029007F8011D0C99481E0C900029F2DC29
:105A300002980028EFD1791E0D980870307800F098
:105A4000200040F0450007F8020D11A8C01BC01D42
:105A500002901398007800B1012000EB0901019831
:105A600001EBE071029801440398401A401E039034
:105A7000E00306D453462146179A039800F05CF8D9
:105A800005441398007818B15246179990476D1C39
:105A9000E00323D553462146179A039800F04CF8AB
:105AA00005441BE0BBF1000F07DB0098584504DDFF
:105AB0001098179910F80B0001E017993020524602
:105AC000904701980BF1010B401E05F10105019073
:105AD00004D12E205246179990476D1CB9F1000150
