:020000040800F2
:10000000B80F002005010008D1330008D32E0008E6
:100010001D330008B9080008A146000800000000D0
:10002000000000000000000000000000E13E0008A9
:10003000590B000800000000C13900089D4300086A
:100040001F0100081F0100081F0100081F01000810
:100050001F0100081F010008110C00081F01000803
:100060001F0100081F0100081F0100081F010008F0
:100070001F010008BD0800081F0100081F0100083B
:100080001F0100081F010008D90700081F01000810
:100090001F0100081F0100081F0100081F010008C0
:1000A0001F0100081F0100081F0100081F010008B0
:1000B000294400081F010008000000001F0100087B
:1000C0001F01000800000000000000001F010008E0
:1000D000000000001F0100081F01000800000000D0
:1000E0001F0100081F0100081F010008DFF810D0E1
:1000F00000F04EFB0048004709500008AFF30080B5
:10010000B80F00200648804706480047FEE7FEE794
:10011000FEE7FEE7FEE7FEE7FEE7FEE7FEE7FEE7B7
:1001200027440008ED0000082DE9F05F0546002097
:1001300092469B4688460646814640241BE0284658
:1001400041464746224600F020F853465A46C01A18
:10015000914110D311461846224600F09FF92D1AFE
:1001600067EB01084F4622460120002100F096F976
:1001700017EB00094E41201EA4F10104DFDC4846C4
:1001800031462A464346BDE8F09F202A04DB203A48
:1001900021FA02F00021704721FA02F3D040C2F1A7
:1001A00020029140084319467047D2B201E000F89E
:1001B000012B491EFBD270470022F6E710B513460B
:1001C0000A4604461946FFF7F0FF204610BD4200DC
:1001D00005D0C0F3C7525242914201DC0020704763
:1001E00000EBC15070472DE9FE4F81EA030404F093
:1001F000004421F0004100944FF0000B23F0004335
:1002000050EA01045ED052EA03045BD0C3F30A54FF
:10021000C1F30A552C44A4F2F3340194A0FB025418
:10022000C1F3130141F48011C3F3130343F48013AA
:1002300001FB024400FB034E840A970A44EA8154FE
:1002400047EA8357A4FB076802958D0A05FB0785DB
:100250004FEA932C04FB0C542705029D4FEA0658E5
:1002600047EA1637B5EB08056EEB070C870E920EC2
:1002700047EA811742EA8312A7FB0201B6EB0B01A2
:1002800064EB00042B0D43EA0C335E1844EB1C5066
:10029000DA465146E7FB0201C5F313044FEA0B337C
:1002A00043EA14534FEA0432019C43EA0603A4F1E3
:1002B0000C040294009CCDE900B400F044F903B0B2
:1002C000BDE8F08F00200146F9E72DE9F04D81EA05
:1002D000030404F0004B21F0004514464FF0000ADF
:1002E00023F0004150EA050220D054EA01021DD05B
:1002F000C5F30A570246C5F31303C1F31300C1F354
:100300000A5640F4801543F48013A7EB0608101B2F
:10031000D64608F2FD3873EB050002D308F1010858
:1003200001E092185B41B8F1000F03DA00200146AA
:10033000BDE8F08D00204FF48011064684460EE0A3
:10034000171B73EB050705D3121B63EB050306436D
:100350004CEA010C49084FEA300092185B4150EA20
:100360000107EDD152EA030012D082EA040083EAC9
:100370000501084305D0101BAB4106D20122002322
:1003800006E000224FF0004302E06FF0010253103C
:100390001AEB06004CEB085110EB0A0041EB0B0185
:1003A000BDE8F04D00F0C0B896230022114600F0E1
:1003B0008DB80EB5C10F80EAE0700844CA0700216D
:1003C00040F233438DE80E000A460B4600F0BBF8BE
:1003D00003B000BD70B5C1F30A5201F0004500241E
:1003E000C1F3130140F2FF3341F480119A4201DA64
:1003F000002070BD40F233439A42A2F2334203DC44
:100400005242FFF7C2FE00E090402C43F1D0404240
:1004100070BD00F0004230F000400AD0C10D01F57F
:100420006071C0F3160042EA0151C208400711434F
:10043000704700200146704701F0004330B421F0BE
:10044000004150EA010206D00A0DA2F56072C1F324
:100450001301002A02DC30BC00207047440F44EA3C
:10046000C104C100E01830BC00EBC25000F025B858
:1004700030B50B46014600202022012409E021FA74
:1004800002F59D4205D303FA02F5491B04FA02F571
:100490002844151EA2F10102F1DC30BD202A04DB44
:1004A000203A00FA02F1002070479140C2F1200387
:1004B00020FA03F31943904070470029A8BF704702
:1004C000401C490008BF20F00100704710B4B0FA8A
:1004D00080FC00FA0CF050EA010404BF10BC704725
:1004E00049B1CCF1200421FA04F411FA0CF118BF3F
:1004F000012121430843A3EB0C01CB1D4FEA00610E
:100500004FEA102042BF002010BC704700EBC350E0
:1005100010440029A4BF10BC7047401C490008BF0C
:1005200020F0010010BC704710B5141E73F10004D8
:1005300008DA401C41F1000192185B411A4301D1D5
:1005400020F0010010BD2DE9F04D92469B4611B1FF
:10055000B1FA81F202E0B0FA80F220329046FFF761
:100560009DFF04460F4640EA0A0041EA0B0153464C
:100570005A46084313D0114653EA010019D0C8F176
:1005800040025046FFF701FE05460E4650465946CA
:100590004246FFF783FF084305D0012004E02046D0
:1005A0003946BDE8F08D0020054346EAE0762C434D
:1005B00037430A986305E40AA0EB08000022FD0A0D
:1005C00044EA47540A3002D500200146E9E7010514
:1005D00010196941DDE9084500196941BDE8F04D90
:1005E000A2E72DE9FE4F804681EA0300C00F0C46CA
:1005F000009021F0004123F00045B8EB0200A94132
:1006000005D24046214690461C460B46024623F042
:100610000040104347D0270DC7F30A00C3F30A5127
:100620000290401A019040286BDAC3F3130040F4A3
:10063000801B0098924620B10023D2EB030A63EBA3
:100640000B0B01985946C0F140025046FFF726FFB8
:1006500006460D4650465946019A00F0ABF810EB9D
:1006600008006141002487EA115284EAE7731A43C3
:1006700040D0009A62B3019A012A4FEA075215DC72
:10068000001B61EB02014FF0004202EA0752CDE984
:100690000042001C41F5801132462B46FFF753FF04
:1006A00003B0BDE8F08F40462146F9E7001B61EB3F
:1006B0000201001C41F5801300185B412018A2F5CF
:1006C000001747EB030140EAD570B6196D4111E000
:1006D0006D084FEA360645EAC0754FEA0752001B1F
:1006E00061EB0201001C41F5801149084FEA30001E
:1006F0000019514132462B4603B0BDE8F04FFFF7D9
:1007000013BF0098012240000023D0EB020263EBEC
:10071000E073009821464FEAE074B8EB000061EB0B
:100720000401E9E783F000435BE781F0004158E70B
:10073000C1F30A52C1F3130140F2FF3341F48011B7
:100740009A4202DA00200146704740F233439A424F
:10075000A2F2334202DC5242FFF717BDFFF79EBE02
:1007600030B5041E71F1000404DB4FF00044404238
:1007700064EB0101141E73F1000405DB1C464FF00D
:100780000043524263EB0403994208BF904230BDDC
:10079000064C074D06E0E06840F0010394E80700CE
:1007A00098471034AC42F6D3FFF7A4FCE873000876
:1007B00008740008202A06DBCB17203A41FA02F021
:1007C00043EAE07306E041FA02F3D040C2F12002AE
:1007D0009140084319467047014800F0E8BA00000C
:1007E000AC01002070B5044620688168C943C90780
:1007F00016D1816821F00101816000F0B5FE054647
:1008000009E000F0B1FE401B022804D9206880688E
:10081000C043C00706D020688068C043C007F0D03E
:10082000002070BDA06A40F01000A062E06A40F0B5
:100830000100E062012070BDF8B504460026009674
:1008400020688168C943C9072FD0816841F0010140
:100850008160174817490068B0FBF1F0009002E092
:100860000098401E009000980028F9D100F07CFE0E
:10087000054615E000F078FE401B022810D92068DC
:100880008068C043C0070BD0A06A40F01000A0628F
:10089000E06A40F00100E06284F824600120F8BDC5
:1008A00020688068C043C007E4D10020F8BD000084
:1008B0005C00002040420F00FEE70000014800F00D
:1008C00015BC00009C02002030B590F84050012477
:1008D000AC40C56B6C60046863604368102B04D047
:1008E000036899600068C26030BD03689A60006860
:1008F000C16030BD70B500241548016821F0704119
:100900000160016841F000410160124D04E0641C87
:10091000E4B2012004F060FBD5F83C0108B1C82C1A
:10092000F5D3C82C01D3012070BD002404E0641C61
:10093000E4B2012004F050FBD5F83C0108B9F02CDA
:10094000F5D3F02C01D3012070BD002070BD000054
:10095000040801400000214270B500F0A5F800F045
:1009600087F8FFF7C7FFCC2000F0ACF8BE2000F0FE
:10097000A9F800F06DF8044600F06AF8072805D9D8
:10098000C043C0B2E143CCB2002500E00125000223
:10099000204400B2FFF70DFD0022054BFFF723FCBA
:1009A000FFF718FD00B2002D01D1404200B270BD2A
:1009B0000000E43F00B585B00D48816941F00401B5
:1009C0008161806900F0040000904FF400400190C4
:1009D0000120029003900320049001A9054800F033
:1009E000C5FC00F045F8FFF785FF05B000BD00002D
:1009F000001002400008014070B5134C206820F040
:100A000070402060206840F0405020600F4D002072
:100A10002860022004F0E0FA01202860206820F01D
:100A200070402060206840F0004020600C2004F0FE
:100A3000D3FA55F8800C08B1012400E000243220DC
:100A400004F0CAFA204670BD04080140BC012142EE
:100A500070B500250124FFF7CFFFC00140EA550023
:100A6000C5B2641CE4B2082CF5D9284670BD00005C
:100A700010B50B48016821F070410160016841F038
:100A800040510160074C0020206040F2EE2004F04D
:100A9000A3FA01202060BDE810400F2004F09CBAAA
:100AA00004080140BC01214210B5FFF7E1FFFFF748
:100AB00021FFCC2000F006F8BDE81040442000F0F3
:100AC00001B800002DE9F04105461648016821F003
:100AD00070410160016841F0405101600124124EF3
:100AE00000274FF0010805F001006D0850B1C6F86D
:100AF000BC71022004F070FAC6F8BC813C2004F0FE
:100B00006BFA09E0C6F8BC713C2004F065FAC6F83F
:100B1000BC81022004F060FA641CE4B2082CE2D923
:100B2000BDE8F08104080140000021420848016846
:100B3000C90103D4016841F0807101600548016872
:100B4000C90703D1016841F001010160704700004D
:100B5000FCED00E0001000E0704700002DE9F041DE
:100B600000241B4F04EB840607EB86052B7CDBB1CE
:100B700057F826C0844517D1D5F804C08C4513D149
:100B800000F0F2FC04EB840107EB8101C968401A14
:100B9000A96888420CD300F0E7FCE86057F82610FB
:100BA0006868BDE8F041084723B1641C0C2CD9DB10
:100BB000BDE8F08104EB840347F8230007EB8600CF
:100BC0004160AA6000F0D0FCE86001202874EFE7E3
:100BD000B000002010B50446207A00280AD000F0AA
:100BE000C3FC2168401A6168884205D30020207246
:100BF000012010BD012010BD002010BD70B50446BD
:100C00000D4600F0B1FC206065600120207270BDCF
:100C1000012000F09FBB72B6FEE7000070B5124CD9
:100C200000202070114D4FF40051284600F08EFC3A
:100C30002178084320704FF48041284600F086FC5C
:100C4000217841EA400020704FF40041284600F02E
:100C50007DFC217841EA8000C1B22170BDE870407E
:100C600003A003F01FBD000000000020000C0140A5
:100C700066616E5F6D6F6465203A2030582558209C
:100C80000D0A000070470000F8B50023002500950C
:100C900090F82420012A12D0012280F824204A68EA
:100CA0001F26072A0DD20468676B521E02EB8202D0
:100CB0009640B7430E689640374367631AE00220B8
:100CC000F8BD0D2A0BD20468276BD21F02EB8202FB
:100CD0009640B7430E689640374327630AE004689E
:100CE000E76A0D3A02EB82029640B7430E689640DF
:100CF0003743E7620A6807260A2A0BD30468E768C5
:100D00000A3A02EB42029640B7438E689640374358
:100D1000E76009E00468276902EB42029640B743A6
:100D20008E689640374327610A68102A01D0112A3D
:100D300023D1144C0268A2421AD1946824021CD414
:100D4000946844F4000494600968102915D10E4990
:100D50000E4A0968B1FBF2F101EB810149000091F3
:100D600002E00099491E009100990029F9D104E0A0
:100D7000816A41F020018162012380F824501846E5
:100D8000F8BD0000002401405C00002040420F003C
:100D900010B5034800F008F80249488010BD000073
:100DA000AC010020280000200068C06C704770B5BE
:100DB0000446206805684668B10625D5A90723D5ED
:100DC000A16AC90603D4A16A41F40071A1628168D5
:100DD000C1F34241072910D1217B71B9416821F04B
:100DE00020014160A06A20F48070A062A06AC00463
:100DF00003D4A06A40F00100A0622046FFF7C8FFBC
:100E000021686FF01200086030062ED568072CD5D7
:100E1000A06AC00603D4A06A40F40050A062206813
:100E20008168C1F30231072909D04168490515D409
:100E30008168C1F34241072910D1217B71B9416812
:100E400021F080014160A06A20F48050A062A06A75
:100E5000C00503D4A06A40F00100A0622046FFF75D
:100E600011FF21686FF00C00086070060CD5E807D0
:100E70000AD0A06A40F48030A062204600F092F8C8
:100E800021686FF00100086070BD00002DE9F0419D
:100E9000044600270025002C03D0A06A002618B1C4
:100EA00008E00120BDE8F081E66284F82460204675
:100EB00000F07AF82046FFF795FCA16AC90600D435
:100EC00028B1A06A40F01000A0620120EAE7A16A00
:100ED00021F4885141F00201A1626268E169237B3B
:100EE0000A4347EA43010A43A1684FF48077B942B5
:100EF00008D0012906D0002194F814C0BCF1010FDC
:100F000002D00AE03946F7E7F3B1A36A43F02003C1
:100F1000A362E36A43F00103E3622368D3F804C0E9
:100F20002CF4694C4CEA010CC3F804C021688B68AE
:100F3000DFF868C003EA0C0313438B60A168B94271
:100F400009D0012907D009E0A3695B1E41EA4331BA
:100F500041F40061E1E7218A491E0D052168CB6A51
:100F600023F470032B43CB62216889680C4B194032
:100F7000914207D1E662A16A21F0020141F001012C
:100F8000A1628FE7A06A20F0020040F01000A0628A
:100F9000E06A40F00100E062012083E7FDF7E1FF35
:100FA000FE0E1FFF7047000000B585B000210191C3
:100FB00002910391049100681249884220D112489D
:100FC000816941F400718161816901F400710091CE
:100FD000816941F004018161806900F004000090A2
:100FE000022001900320029001A9084800F0BEF9F8
:100FF00000220421122000F029FC122000F018FC2D
:1010000005B000BD0024014000100240000801406E
:1010100070B5044694F8240001280CD0012084F80F
:1010200024002046FFF708FC0146002229B184F87D
:101030002420084670BD022070BDA06A40F60163FE
:10104000984340F48070A062264D2068264BA84249
:1010500018D11E6816F4702F14D0A66A46F48016B4
:10106000A6621E68760505D5A66A26F4005646F4E3
:101070008056A662A66AF60412D5E66A26F006062F
:10108000E6620EE0A66A26F48016A6624668760539
:10109000F0D5A66A26F4005646F48056A662E9E723
:1010A000E26284F824206FF0020202602068426845
:1010B00042F02002426020688268C2F34242072A5E
:1010C00005D1A84208D11A6812F4702F04D08268A2
:1010D00042F480128260ACE7826842F4A00282602F
:1010E000A7E7000000280140042401402DE9F05F3B
:1010F000C16B0A6801680B68046C4FF0040A0AFAB5
:1011000004FA4E4D4E4E4F4FDFF83CC1DFF83C81A4
:10111000DFF83C911AEA020F31D05FEA437A2ED50C
:101120000A68920603D40A6822F004020A60016881
:10113000A94201D1042119E0B14201D1402115E0B9
:10114000B94202D14FF4806110E0614502D14FF401
:1011500080410BE0414502D14FF4802106E0494532
:1011600002D14FF4800101E04FF08061334A083A28
:101170005160C16A00295FD0BDE8F05F08474FF0B9
:10118000020E0EFA04FE1EEA020F4FF0000A4FF0A4
:10119000010B35D05FEA837E32D50A68920605D40A
:1011A0000A6822F00A020A6080F821B00168A942A8
:1011B00001D1022119E0B14201D1202115E0B9424B
:1011C00002D14FF4007110E0614502D14FF400519B
:1011D0000BE0414502D14FF4003106E0494502D110
:1011E0004FF4001101E04FF00071144A083A5160C9
:1011F00080F820A0816A00291ED0BDE8F05F084772
:101200000825A540154217D01A0715D50A6822F0FF
:101210000E020A6090F84010C26B0BFA01F15160A7
:10122000C0F838B080F821B080F820A0016B002908
:1012300002D0BDE8F05F0847BDE8F09F080002401B
:101240001C000240300002404400024058000240AE
:101250006C00024030B5002827D0001D144A50F819
:10126000041C14230A44B2FBF3F29200C263114A35
:101270008263022242770A6843F6F0739A43D0E908
:1012800000342343D0E902452C432343046923431C
:10129000446923438469234313430B600021416362
:1012A000012242770177002030BD012030BD0000CF
:1012B000F8FFFDBF0000024070B50446002594F819
:1012C000200001280CD0012084F8200094F821602F
:1012D0000020012E06D084F820000225284670BD8B
:1012E000022070BD022684F82160A0632068066891
:1012F00026F0010606602046FFF7E6FAE06A28B10C
:101300002068016841F00E01016009E02068016871
:1013100021F0040101602068016841F00A010160C8
:101320002068016841F001010160D7E770B504460B
:1013300000F01AF90546601C02D004480078044405
:1013400000F012F9401BA042FAD370BD50000020FB
:101350007047000010B504490A68024202D00860D4
:10136000FFF7F6FF10BD0000140401402DE9F84F0F
:1013700000240023DFF8B8914FF00F08A9F1040B07
:1013800009F1040AABF1040ECAE00127A7403A4074
:10139000BA4275D1DFF89CC14D68A5EB0C066545D6
:1013A0002BD00DDC032D34D005DC35B3012D19D045
:1013B000022D2FD11BE0112D16D0122D2AD119E0AC
:1013C000B6F5881F19D006DCB6F5803F15D0B6F506
:1013D000801F1FD111E0B6F5001F0ED0B6F5041F17
:1013E00018D10AE0CB6815E0CB681B1D12E0CB6872
:1013F00008330FE0CB680C330CE08B6823B1012B72
:1014000004D00823476105E0042303E008230761B3
:1014100000E00023FF2A01D8054601E000F10405A1
:1014200002D84FEA840603E0A4F108064FEA8606D4
:101430002F6808FA06FC27EA0C0703FA06F647EAC3
:1014400006072F604D68ED0069D53B4DAE6946F04B
:101450000106AE61AD6905F001050095374D24F038
:1014600003067719BE68A5072D0F08FA05FC26EAC2
:101470000C06DFF8CCC0604503D14FF0000C10E043
:101480004DE0DFF8C0C0604502D14FF0010C08E02C
:10149000DFF8B4C0604502D14FF0020C01E04FF01C
:1014A000030C0CFA05FC4CEA060CC7F808C04D68A2
:1014B000ED0205D5D9F800501543C9F8005004E0F5
:1014C000D9F800509543C9F800504D68AD0205D5D4
:1014D000DAF800501543CAF8005004E0DAF800507A
:1014E0009543CAF800504D68AD0305D5DBF80050B0
:1014F0001543CBF8005004E0DBF800509543CBF8DF
:1015000000504D68ED0305D5DEF800501543CEF8C8
:10151000005004E0DEF800509543CEF80050641C03
:101520000A6832FA04F57FF430AFBDE8F88F0000A6
:1015300008040140000011100010024000000140AA
:1015400000080140000C0140001001408068084282
:1015500001D00120704700207047002A01D00161AE
:1015600070470904016170470148806870470000B6
:101570005000002070B50446002C04D094F83D00C3
:10158000002510B106E0012070BD84F83C502046D3
:1015900000F0BCF8242084F83D002068016821F0A8
:1015A000010101602068016841F400410160206888
:1015B000016821F40041016000F00AFB4F4B6168B3
:1015C000994203D84E49884203D304E04D498842EA
:1015D00001D2012070BD4C49B0FBF1F12268566880
:1015E00026F03F060E43566062689A4201D8491CB5
:1015F00007E04FF4967251434FF47A72B1FBF2F167
:10160000491C2268166A26F03F0631431162616860
:10161000994210D84900401EB0FBF1F2521CC2F3AF
:101620000B02042A01D2042022E0B0FBF1F0401C9E
:10163000C0F30B001CE0A268F2B301EBC10303EBA3
:101640000116431EB3FBF6F35B1C43F480431B05FA
:1016500049D092B301EBC10202EB0111401EB0FB75
:10166000F1F0401CC0F30B0040F4804040F4004017
:101670002168CA694CF6FF739A431043C861D4E9E4
:10168000071001432068026822F0C0021143016084
:10169000D4E9030101432068826848F2FF339A438A
:1016A00011438160D4E9051001432068C26822F02B
:1016B000FF021143C16001E00EE016E020680168FE
:1016C00041F0010101602564202084F83D0025637C
:1016D00084F83E50002070BD01EB4106431EB3FB71
:1016E000F6F35B1CB3E70120C2E701EB4101401EAA
:1016F000B0FBF1F0401CC0F30B00B7E7A08601007F
:1017000080841E0000093D0040420F0010B586B0E5
:1017100000210291039104910591006813498842C8
:1017200022D1134CA06940F00800A061A06900F02C
:10173000080001904FF440700290122003900320A3
:10174000059002A90B48FFF711FE0B49486840F0CD
:10175000E06040F002004860E06940F40010E061A1
:10176000E06900F40010019006B010BD0054004084
:1017700000100240000C0140000001400248816856
:1017800002781144816070475000002010B507486E
:10179000016841F010010160032000F077F80F208C
:1017A00000F006F800F026F8002010BD00200240EE
:1017B00070B504460D4D4FF47A712878B1FBF0F006
:1017C0000B490968B1FBF0F000F0E7FF08B1012018
:1017D00070BD102C07D200222146501E00F036F8B2
:1017E0006C60002070BD012070BD00005000002022
:1017F0005C00002008B50C48816941F0010181615D
:10180000816901F001010091C16941F08051C1611C
:10181000C06900F0805000900449486820F0E06002
:1018200040F00070486008BD001002400000014018
:10183000002809DB00F01F020121914040098000CF
:1018400000F1E020C0F8001170470000F0B40D4630
:101850000D4B1B68C3F30223C3F10704042C00D90A
:101860000424191D072901D2002300E0DB1E0126F4
:1018700006FA04F1491E294099409E40761E164002
:101880003143F0BC02F038BF0CED00E000F007017E
:10189000054A10684FF6FF03184040EA012003494B
:1018A00008431060704700000CED00E00000FA05EE
:1018B000014901200862704700000E4210B5014640
:1018C0000020244C012922D0022939D010291DD111
:1018D00061682268D20119D51F48C1F38342805C38
:1018E000C9030AD561681C4AC1F34041921E515C8C
:1018F0001A4AB2FBF1F1484301E0194948436168D3
:10190000490203D440000321B0FBF1F010BD226A6C
:10191000C2F30121012903D1920701D5C80310BDEB
:10192000022905D1626A920702D549F6404010BDEE
:101930000329FCD121688903F9D54FF2244010BD59
:1019400000F056F96168C1F38131491C4900B0FBD0
:10195000F1F010BD001002402051000800127A0082
:1019600000093D002DE9F8430446DFF8F8802078AF
:10197000C0075FD00027D8F81C00C0000BD4D8F8EF
:101980001C0040F08050C8F81C00D8F81C0000F083
:10199000805000900127344D2868C00512D4286873
:1019A00040F480702860FFF7DFFD064607E0FFF790
:1019B000DBFD801B642802D90320BDE8F88328687A
:1019C000C005F4D5D8F8200000F4407010B3A18809
:1019D00001F4407181421DD0D8F8200020F44070FD
:1019E000224901220A6000220A60C8F82000C007CC
:1019F00010D0FFF7B9FD054641F2883606E0FFF743
:101A0000B3FD401BB04201D90320D6E7D8F820002F
:101A10008007F4D5D8F82000616820F440700843AE
:101A2000C8F82000012F05D1D8F81C0020F0805004
:101A3000C8F81C002078800707D5D8F80400A168F2
:101A400020F440400843C8F804002078C00607D5B9
:101A5000D8F80400E16820F480000843C8F80400C6
:101A60000020AAE7001002400070004040044242FB
:101A70002DE9F04704460D46002C17D0DFF83081E1
:101A8000D8F8000000F00700A84211D2D8F80000F2
:101A900020F007002843C8F80000D8F8000000F044
:101AA0000700A84204D00120BDE8F0870120FBE731
:101AB0002068404E810712D5400703D5706840F476
:101AC000E06070602078000703D5706840F46050D3
:101AD00070607068A16820F0F000084370602078A2
:101AE000C0072CD06068012806D0022809D03168D0
:101AF00089070BD40120D7E73168890306D4012078
:101B0000D2E73168890101D40120CDE7716821F065
:101B1000030101437160FFF727FD074641F2883951
:101B200006E0FFF721FDC01B484501D90320BBE7B4
:101B30007068616800F00C00B0EB810FF1D1D8F84B
:101B4000000000F00700A8420ED9D8F8000020F0ED
:101B500007002843C8F80000D8F8000000F007008C
:101B6000A84201D001209FE72078400705D5706882
:101B7000E16820F4E060084370602078000706D533
:101B80007068216920F4605040EAC100706000F084
:101B90003FF87168084AC1F30311515CC840074916
:101BA000086007480068FFF703FE00207CE700009C
:101BB0000020024000100240305100085C0000206C
:101BC0005400002001480068704700005C000020BD
:101BD00000B5FFF7F7FF04494968044AC1F3022141
:101BE000515CC84000BD0000001002404051000898
:101BF00000B5FFF7E7FF04494968044AC1F3C22171
:101C0000515CC84000BD0000001002404051000877
:101C10000E4B59680E4801F00C02042A11D0082A14
:101C20000FD10C48C1F38342805CC9030AD55968BF
:101C3000084AC1F34041921E515C054A5043B0FB33
:101C4000F1F070470449484370470000001002401B
:101C500000127A000E51000800093D002DE9F84FEE
:101C60000446002C0ED02078D94DC0075ED068689D
:101C7000C0F3810001280BD06868C0F381000228FE
:101C800003D00CE00120BDE8F88F6868C00306D5DA
:101C9000286880034AD56068A8BB0120F3E7606824
:101CA000B0F5803F11D0A8B1B0F5A02F1BD02868A7
:101CB00020F480302860286820F480202860606844
:101CC00030B3FFF751FC06461EE0286840F4803030
:101CD0002860F4E7286820F480302860286820F421
:101CE00080202860EBE7286840F48020286028687E
:101CF00040F480302860E2E7FFF736FC801B642860
:101D000002D90320BFE711E028688003F4D50DE075
:101D1000FFF72AFC064606E0FFF726FC801B642836
:101D200001D90320AFE728688003F5D42078DFF8D5
:101D3000A48280074FF0010A4FF0000945D568687A
:101D400010F00C0F07D06868C0F38100022812D190
:101D50006868C0030FD42868800704D5206901286B
:101D600001D001208FE72868616920F0F80040EA7F
:101D7000C100286029E02069B8B1C8F800A0FFF7C9
:101D8000F3FB064606E0FFF7EFFB801B022801D9B4
:101D9000032078E728688007F5D52868616920F076
:101DA000F80040EAC10028600FE0C8F80090FFF793
:101DB000DBFB064606E0FFF7D7FB801B022801D9B4
:101DC000032060E728688007F5D42078000726D52F
:101DD0008148A16999B1C0F800A0FFF7C5FB06468C
:101DE00006E0FFF7C1FB801B022801D903204AE768
:101DF000686A8007F5D5012001F03CFE0FE0C0F8CD
:101E00000090FFF7B1FB064606E0FFF7ADFB801B35
:101E1000022801D9032036E7686A8007F5D42078C4
:101E2000400773D50026E869C00008D4E86940F08F
:101E30008050E861E86900F0805000900126DFF8EA
:101E40009CB1DBF80000C00514D4DBF8000040F4BE
:101E50008070CBF80000FFF787FB074606E0FFF72E
:101E600083FBC01B642801D903200CE7DBF80000CA
:101E7000C005F4D5E068012812D0B0B105281DD006
:101E8000286A20F001002862286A20F004002862F5
:101E9000E06841F2883B28B3FFF766FB07461DE088
:101EA000286A40F001002862F2E7286A20F0010069
:101EB0002862286A20F004002862E9E7286A40F0D6
:101EC00004002862286A40F001002862E0E7FFF77A
:101ED0004BFBC01B584501D90320D4E6286A800774
:101EE000F5D50DE0FFF740FB074606E0FFF73CFBAA
:101EF000C01B584501D90320C5E6286A8007F5D4E0
:101F0000012E03D1E86920F08050E861E069A0B3B8
:101F10006968C1F38101022946D0022805D0C8F8BA
:101F20006090FFF721FB04463AE0C8F86090FFF7A5
:101F30001BFB064606E0FFF717FB801B022801D9B2
:101F40000320A0E628688001F5D4206AB0F5803F20
:101F500005D16868A16820F4003008436860D4E9BE
:101F600008010843696821F4741108436860C8F8DF
:101F700060A0FFF7F9FA044607E026E0FFF7F4FA5D
:101F8000001B022801D903207DE628688001F5D5D1
:101F90001BE0FFF7E9FA001B022801D9032072E6D3
:101FA00028688001F5D410E001280CD06868226A06
:101FB00000F48031914204D1616A00F470108842CB
:101FC00003D001205FE601205DE600205BE6000013
:101FD0000010024000004242800442420070004073
:101FE000F8B505460C46164600200090002D08D096
:101FF0003CB100226946284600F01BF818B10120C8
:10200000F8BD0120F8BD287B2070E87BE070697B7B
:102010006170A97BA17056B101F047FDE070607856
:1020200001F043FD6070A07801F03FFDA07000203A
:10203000F8BD2DE9F04707460C469046002F07D023
:1020400034B138684068400704D50120BDE8F08706
:102050000120FBE7384601F0DCFD05464FF46160E6
:10206000B5FBF0F1B5FBF0F200FB12533C22B3FBE1
:10207000F2F36370B5FBF0F300FB1350B0FBF2F327
:1020800002FB1300A070182936D31820B1FBF0F919
:10209000B1FBF0F200FB12102070384601F0B2FDE7
:1020A000411C03D0A84201D9461B01E04FF0FF3686
:1020B000A9EB091000EB4000C0EB001005EBC015C8
:1020C0002946384601F0FFFD08B10120BEE7701C2B
:1020D00006D07119384601F0DFFD40B10120B5E7A7
:1020E0003146384601F0D8FD08B10120AEE7494637
:1020F000384601F0E5FC00E02170B8F1000F0BD08C
:10210000207801F0D2FC2070607801F0CEFC607085
:10211000A07801F0CAFCA070002097E770B50446D3
:10212000002C03D0607C002610B105E0012070BDBA
:102130002674204600F048F802206074204600F023
:1021400023F9042510B16574012070BD204601F00B
:102150000EFD10B16574012070BD2068416821F04A
:1021600007014160A06820B11648016821F0010113
:1021700001601448001F0168A26821F460711143D6
:1021800001606068411C04D10120FFF797FB70B12A
:10219000401E2268C0F303419160216880B2C8608C
:1021A000204601F0FEFC28B16574012070BD657405
:1021B000012070BDE67301206073A073607400207D
:1021C00070BD0000306C004008B5006808498842C6
:1021D0000DD1FFF76DFB0748C16941F00061C16196
:1021E000C06900F00060009003490120086008BD4C
:1021F00000280040001002403C0442422DE9F0411A
:1022000004460D46002C3FD0E5B3207C01283DD08C
:102210000126267402206074AAB3E87801F03CFC21
:10222000E073687801F038FC6073A87801F034FC42
:10223000A073A27B617BE07B01F0FBFC2073287024
:10224000204601F0E6FC4FF46161B0FBF1F100259E
:10225000182936D91822B1FBF2F1A1EB011101EBDB
:102260004101C1EB011100EBC1173946204601F0D5
:102270002AFD4FF0040890B184F8118025740120E4
:10228000BDE8F08100E003E00120F9E70220F7E774
:10229000E878E07368786073A878A073C9E720468F
:1022A00001F0B0FC411C0CD0B8420AD207490144ED
:1022B000204601F0F1FC20B184F811802574012042
:1022C000DEE7667425740020DAE700008051010023
:1022D0002DE9F04104460D46002C28D03DB3207C6A
:1022E000012826D001262674022060741AB32878AB
:1022F00001F0D2FB4FF4616100FB01F7687801F057
:10230000CBFBC0EB001007EB8007A87801F0C4FB03
:102310003D182946204601F0D6FC00274FF004085E
:10232000A8B184F8118027740120BDE8F081012054
:10233000FBE70220F9E729784FF4616041436878B0
:10234000C0EB001001EB8000A9784518E1E7206898
:10235000416821F005014160204601F053FC411C19
:102360000CD0A8420AD207490144204601F094FC4F
:1023700020B184F8118027740120D6E76674277491
:102380000020D2E78051010070B50446002C0AD02D
:102390002068416821F008014160FFF7E5F8054633
:1023A0004FF47A7608E0012070BDFFF7DDF8401B9E
:1023B000B04201D9032070BD206840680007F4D501
:1023C000002070BD704770B50446002C09D0606ACB
:1023D000002540B125616561A56294F8510040B1C6
:1023E0000CE0012070BD6068B0F5827FF4D0E5613B
:1023F000F2E784F85050204600F040F8022084F8BC
:1024000051002068016821F040010160A088218905
:1024100000F4827001F404410843A18901F40061D1
:102420000843217C01F002010843217D01F00101F4
:102430000843218B01F400710843217F01F038012A
:10244000084394F8201001F080010843218D01F425
:102450000051084321680860A069042101EA104086
:10246000216848602068C16921F40061C161656527
:10247000012084F85100002070BD000070B586B0C6
:102480000646002402940394049405941E4930687F
:10249000884237D11D49886940F480508861886935
:1024A00000F480500190886940F0040088618869D8
:1024B00000F004000190A02002900220039003206D
:1024C0000590134D02A92846FEF750FF40200290C8
:1024D0000394049402A92846FEF748FF0E4D0D48C8
:1024E000286010206860AC608020E8602C616C611E
:1024F000AC61EC612846FEF7ADFE08B1FEF78BFB40
:10250000B5646E6206B070BD00300140001002403C
:1025100000080140300002409C0200202DE9F84FE5
:1025200004468A4617461D46FFF71EF8064694F8ED
:102530005100012802D00220BDE8F88FBAF1000F47
:1025400023D0380021D094F8500001281FD04FF03C
:10255000010984F85090032084F851004FF00008DE
:10256000C4F85480C4F830A0A786E786C4F8388041
:10257000A4F83C80A4F83E80C4F84480C4F84080AD
:10258000A068B0F5004F04D00DE00120D4E7022090
:10259000D2E72068016821F04001016020680168ED
:1025A00041F48041016020680168490603D4016854
:1025B00041F040010160E068B0F5006F04D0606850
:1025C00088B3012F30D050E0606808B1012F20D1CE
:1025D000206B21680088C860206B801C2063E08E1F
:1025E000401EE08615E020688168890709D5216BC7
:1025F0000988C160206B801C2063E08E401EE0864D
:1026000007E0FEF7B1FF801BA84201D3681C04D18C
:102610001DB1E08E0028E6D12AE084F8519084F8BC
:102620005080032088E7FFE7206B2168007808735B
:10263000206B401C2063E08E401EE08615E0206881
:102640008168890709D5216B09780173206B401CCB
:102650002063E08E401EE08607E0FEF785FF801BCA
:10266000A84201D3681C0ED16DB1E08E0028E6D1DE
:1026700032462946204601F0B3FB08B120206065B0
:10268000A06830B109E084F8519084F850800320AC
:1026900052E72068C1688068009084F8519084F8FF
:1026A0005080606D08B1012046E7002044E700003B
:1026B00070B5044694F85100012801D0022070BD85
:1026C000C9B1C2B194F85000012816D0012084F895
:1026D0005000032084F85100002565652163A2861F
:1026E000E286A56365642564A587E587A068B0F5E3
:1026F000004F04D00DE0012070BD022070BD2068A5
:10270000016821F0400101602068016841F48041C6
:102710000160A16C1748C862A16C17488862A16C5F
:1027200016480863A06C4563E38E2268216B0C3267
:10273000A06CFEF7C1FD38B1606D40F0100060651F
:1027400084F85050012070BD20680168490603D408
:10275000016841F04001016084F8505020684168F0
:1027600041F0200141602068416841F00201416070
:10277000002070BD733D00087D3D0008513D0008FC
:1027800000680349884202D102490020087070475E
:102790000030014060000020704710B5401EB0F1CD
:1027A000807F01D3012010BD4FF0E02460610F2134
:1027B000601701F0A1FF0020A06107202061002028
:1027C00010BD70477047000070B590F83C20012A9A
:1027D00022D0012680F83C60022280F83D20026869
:1027E0005468936824F070040D68254355600B4CC1
:1027F0000268A24205D0B2F1804F02D0084CA2423A
:1028000004D123F080034968194391603C3046703D
:1028100000210170002070BD022070BD002C01401D
:102820000004004010B50446002C03D094F83D008D
:1028300010B107E0012010BD002084F83C002046C4
:1028400000F016F8022084F83D00211D206801F0F8
:10285000F1FD01203D3460726070A070E070207165
:102860006071A071E07120722070002010BD000026
:1028700008B50068B0F1804F12D10A48C16941F033
:102880000101C161C06900F0010000900022032134
:102890001C20FEF7DBFFBDE808401C20FEF7C8BF88
:1028A00008BD00000010024090F83D10012901D041
:1028B00001207047022180F83D100168CA6842F08B
:1028C0000102CA6000680C49884205D0B0F1804F0F
:1028D00002D00A49884209D1816801F0070106291E
:1028E00008D0016841F00101016003E0016841F096
:1028F0000101016000207047002C014000040040ED
:102900000168CA6822F00102CA6001680A6A41F2DD
:1029100011131A4207D10A6A9B101A4203D10A689E
:1029200022F001020A60012180F83D10002070476A
:1029300070B50446002594F83C00012817D0012604
:1029400084F83C60022084F83D002068826822F010
:10295000770222F47F4282600868502838D00DDC6C
:10296000202853D005DC90B3102811D14EE002206E
:1029700070BD30284AD040280AD13DE0602831D0CF
:1029800070280CD0B0F5805F03D0B0F5005F12D096
:1029900001253C34667000202070284670BDCB684D
:1029A000D1E90121206801F088FD2068816841F0AB
:1029B00077018160EDE7CB68D1E90121206801F062
:1029C0007CFD2068816841F480418160E1E71DE081
:1029D000CA684968206801F082FD5021206801F032
:1029E00076FDD6E7CA684968206801F089FD602154
:1029F000206801F06CFDCCE7CA684968206801F0E6
:102A00006EFD4021206801F062FDC2E722680146A8
:102A1000104601F05CFDBCE72DE9F04104460D468F
:102A2000002C03D094F83D0018B108E00120BDE867
:102A3000F081002084F83C00204600F045F8022098
:102A400084F83D002068816844F207029143816068
:102A5000211D206801F0EEFC273454F8270C826811
:102A60008169066A2B68134340F203329143AF69D0
:102A7000AA6841EA07210A4340F60C418A434FF213
:102A8000F0018A43EF69E96842EA072211432A69A3
:102A90002F6A120142EA07320A4326F022066968C9
:102AA0006D6946EA05152943836054F8270C826155
:102AB00054F8270C01620120E077E0752076E0767B
:102AC0002077A0750020B2E700B585B00021019104
:102AD00002910391049100680F49884219D10F486F
:102AE000816941F400618161816901F400610091B3
:102AF000816941F004018161806900F00400009067
:102B00004FF4407001900120039001A90448FEF7A2
:102B10002DFC05B000BD0000002C0140001002405B
:102B20000008014070B5044614F83E0F627823791E
:102B300065793E3C0226002904D004290DD00128E5
:102B40001CD115E0012801D1012B01D0012070BD5D
:102B500084F83E6084F8426018E0012A01D1012D1A
:102B600001D0012070BD84F83F6084F843600DE01F
:102B7000012A03D1012B01D1012D01D0012070BD0B
:102B800004F83E6F6670267166713E3C91B104296F
:102B900016D001220021206801F082FC01220421CC
:102BA000206801F07DFC2068016841F001010160AE
:102BB000002070BD01220021206801F071FCF2E7C5
:102BC00001220421206801F06BFCECE770472DE93D
:102BD000F04104462068C56806694FF00007B10758
:102BE00014D5A90712D5F91E0161012020772068AC
:102BF0008069800703D02046FFF7E8FF05E0204604
:102C000000F081F8204600F07FF82777700717D58D
:102C1000680715D521686FF004000861022020774D
:102C20002068806910F4407F03D02046FFF7CEFF74
:102C300005E0204600F067F8204600F065F82777A9
:102C4000300716D5280714D521686FF008000861F1
:102C5000042020772068C069800703D02046FFF752
:102C6000B5FF05E0204600F04EF8204600F04CF895
:102C70002777F00617D5E80615D521686FF0100004
:102C80000861082020772068C06910F4407F03D0D5
:102C90002046FFF79BFF05E0204600F034F8204671
:102CA00000F032F82777F00708D0E80706D021684F
:102CB0006FF001000861204600F028F8300608D5C2
:102CC000280606D521686FF0800008612046FFF7CE
:102CD00078FD700608D5680606D521686FF04000BB
:102CE0000861204600F02AF8B0060AD5A80608D5E3
:102CF00021686FF0200008612046BDE8F041FFF731
:102D000061BDBDE8F0817047704700000068B0F118
:102D1000804F0FD108480178491CC9B201700A29B7
:102D200008D3002101708168C268491C42F1000289
:102D30008160C2607047000028000020704770B5B5
:102D40000446002C04D094F84100002510B106E0A0
:102D5000012070BD84F84050204600F023F8242064
:102D600084F841002068C16821F40051C160204608
:102D700001F000FC2068016921F4904101612068A4
:102D8000416921F02A0141612068C16841F4005184
:102D9000C1606564202084F8410084F842006563C6
:102DA000002070BD30B585B00024019402940394D6
:102DB00004940068174988422AD11748816941F470
:102DC00080418161816901F480410091816941F014
:102DD00008018161806900F00800009040200190A6
:102DE00002200290032004900C4D01A92846FEF712
:102DF000BDFA802101910294039401A92846FEF7AF
:102E0000B5FA0749486840F0E06040F004004860C7
:102E100005B030BD0038014000100240000C0140F8
:102E2000000001402DE9F84304460E4615461F46B2
:102E300094F84100202802D00220BDE8F8837EB13A
:102E400075B100206064212084F84100FEF78CFBFE
:102E50008146A584E584A068B0F5805F02D003E0D8
:102E60000120EAE7206920B1354600264FF020080E
:102E700015E00025FAE74B46002280212046009706
:102E800001F0D4FB18B184F841800320D5E7ADB13F
:102E9000216815F8010B4860E08C401EE084E08C4E
:102EA0000028E8D14B46002240212046009701F03F
:102EB000BDFB50B184F841800320BEE736F8020B19
:102EC0002168C0F308004860E6E784F841800020EC
:102ED000B3E7FEE770B50446FEF746FB0546A1885A
:102EE0002068FEF733FBA279012300263AB10221C4
:102EF000012A09D0022A14D0032A2BD124E0012868
:102F000028D1A371A56025E0A268AA1A142A21D3AA
:102F1000012801D0A6711DE0A171A5606373A6739D
:102F200018E038B1A068281AB0F57A7F12D3A07BD8
:102F300020B10FE00321A171A5600BE0A37321690B
:102F400004208847267305E0A268AA1A142A01D330
:102F500018B1A171607B50B122E06673A671A07BAD
:102F60000028F7D1207B401C2073A560F2E7207B6E
:102F7000B0B1A168691AFA2912D9012804D002282F
:102F800006D003280BD107E021690120884706E01D
:102F900021690220884702E02169032088472673BF
:102FA0000A222146AFF2D300BDE87040FDF7D6BD3E
:102FB0003EB500240094019402940F480D4901602D
:102FC0008460047304754FF46021C161446001257D
:102FD0000561FDF75BFF08B1FDF71DFE009501954A
:102FE000029469460448FDF74FFE002801D0FDF722
:102FF00012FE3EBD00240140AC01002008B5094886
:10300000416941F001014161406900F00100009017
:10301000002211460D20FEF719FCBDE808400D20E6
:10302000FEF706BC001002402DE9F04385B00024F5
:1030300001940294039404943348816941F010018F
:103040008161816901F010010091816941F02001E5
:103050008161816901F020010091816941F00401E1
:103060008161816901F004010091816941F00801E9
:103070008161806900F008000090DFF890800022F4
:103080001C214046FEF769FADFF884904FF4406750
:10309000002239464846FEF760FA012501951D4891
:1030A00002900226039601A94046FEF75FF91C2014
:1030B000019002950394049601A94046FEF756F943
:1030C000019702950395049601A94846FEF74EF92B
:1030D000280301900294039401A94846FEF746F99B
:1030E0004FF4604001900294039501A94846FEF711
:1030F0003DF9002205210620FEF7A8FB0620FEF779
:1031000097FB05B0BDE8F0830010024000080140C5
:10311000000C01400000111010B50D480B49016072
:103120000C49416000218160C1604FF4804202611E
:1031300041618161C1610162FEF71CFA002803D080
:10314000BDE81040FDF767BD10BD00000054004011
:10315000DC010020A08601001CB50024019400942D
:10316000174816490160611E41604FF4807181600B
:10317000FEF7D4FF08B1FDF74EFD8DF804408DF841
:1031800005408DF80640012201A90D48FFF7A0F87F
:1031900008B1FDF740FD01208DF800008DF8010019
:1031A0008DF802008DF80340012269460448FFF7BC
:1031B00025F8002801D0FDF72EFD1CBD0028004099
:1031C0003002002010B510480E4901604FF48271A2
:1031D000416000218160C160016141614FF4007272
:1031E00082610822C2610162416281620A21C16278
:1031F000FFF7E9F8002803D0BDE81040FDF70BBD4C
:1032000010BD0000003001404402002010B58CB019
:10321000242103A8FCF7D0FF00240194029416484F
:1032200014490160446084604FF6FF71C16004611D
:103230004461846103200390049401200590069466
:103240000F210791089409900A940B9103A90A4849
:10325000FFF7E2FB08B1FDF7DEFC0194029401A93F
:103260000548FFF7B1FA002801D0FDF7D4FC0CB0F7
:1032700010BD0000002C0140E002002010B586B017
:103280000024029403940494059400940194144837
:103290004FF08041016041F61F41416084604FF46E
:1032A0007A71C16004618461FFF7BCFA08B1FDF76F
:1032B000B2FC4FF48050029002A90948FFF738FB96
:1032C00008B1FDF7A8FC0094019469460448FFF793
:1032D0007BFA002801D0FDF79EFC06B010BD00006F
:1032E0002803002010B50C480A4901604FF4E13171
:1032F000416000218160C16001610C2242618161F5
:10330000C161FFF71CFD002803D0BDE81040FDF7A8
:1033100082BC10BD0038014070030020FEE70000B1
:1033200010B5012813D0022816D0032822D0042873
:103330002DD11749087880F0010008701549002345
:103340000B604B60D8B11448FFF7AEFA1AE0BDE845
:10335000104012A001F0A6B9124A1078401C00F0EB
:103360000301117010A001F09DF9BDE8104012A0FA
:1033700001F098B9BDE8104011A001F093B90648DA
:10338000FFF7BEFABDE810400FA001F08BB910BDE9
:10339000240000203000002028030020B6CCB0B468
:1033A0000A000000020000205365745F53746174CA
:1033B00065203A2025640A00CBABBBF70A00000069
:1033C000C8FDBBF70A000000B3A4B0B40A000000B7
:1033D000FEE700000020054A00214FF480631154ED
:1033E000401C80B29842FAD300F0E4B8B803002041
:1033F00010B50446002C03D10021A62000F074FA79
:10340000012C05D10021BDE81040A72000F06CBAC6
:1034100010BD10B500218D2000F066FA00211420A7
:1034200000F062FA0021BDE81040AF2000F05CBA65
:1034300010B50446002C07D10021C82000F054FA32
:103440000021A12000F050FA012C09D10021C02058
:1034500000F04AFA0021BDE81040A02000F044BA74
:1034600010BD000010B57F280ED83F290CD8CB081E
:1034700000EBC31080B2074C012301F007018B4021
:103480001AB1215C1943215410BD215C9943215488
:1034900010BD0000B803002010B5414C00221021DF
:1034A0002046FEF75AF8C820FDF740FF0122102100
:1034B0002046FEF752F80021AE2000F015FA002158
:1034C000084600F011FA0021102000F00DFA00214A
:1034D000402000F009FA0021812000F005FA0021C7
:1034E000CF2000F001FA0021A12000F0FDF9002119
:1034F000C82000F0F9F90021A62000F0F5F900211C
:10350000A82000F0F1F900213F2000F0EDF90021A2
:10351000D32000F0E9F90021084600F0E5F9002188
:10352000D52000F0E1F90021802000F0DDF9002134
:10353000D92000F0D9F90021F12000F0D5F90021BF
:10354000DA2000F0D1F90021122000F0CDF900219D
:10355000DB2000F0C9F90021402000F0C5F900216E
:10356000202000F0C1F90021022000F0BDF9002167
:103570008D2000F0B9F90021142000F0B5F90021E8
:10358000A42000F0B1F90021A62000F0ADF9FFF76A
:1035900021FF0021BDE81040AF2000F0A5B90000D8
:1035A000000801400346012000E05843491EC9B20B
:1035B000FBD2704770B500240A4D04F1B000C0B2D0
:1035C00000F0B8F9002000F0B5F9102000F0B2F9D1
:1035D00005EBC410802100F0CBF9641CE4B2082C88
:1035E000EBD370BDB80300202DE9FC4F814688461F
:1035F0001F46CDF80090C346082F03D0780704D0AB
:10360000012003E00620019006E0002000EBD70037
:1036100079084843C0B20190203A02F0FF0A002521
:103620004EE0082F14D00C2F19D0102F1ED0182FB9
:1036300049D127490AEBCA0001EB8000445D00260E
:10364000E00718D0414648460B9AFFF70BFF19E0F8
:1036500020490AEB4A0001EB4000445DEFE71E49B8
:103660000AEB4A0001EB8000445DE8E71B4800EBF1
:103670000A10445DE3E70B9838B300224146484600
:10368000FFF7F0FE640808F1010808F0FF08761C57
:10369000F6B2082ED4D309F1010909F0FF09082F69
:1036A0000BD00098A9EB0000B0EB570F05D1DDF867
:1036B00000900BF1080B0BF0FF0BD8466D1CEDB220
:1036C00001988542ADD3BDE8FC8F0122D6E700000A
:1036D000D45D00084851000870530008E457000802
:1036E0002DE9F84F0746DDE90A698B469246984670
:1036F0000025082E00D1022500241DE0A8EB0400BF
:10370000401EC1B20A20FFF74DFFBAFBF0F00A21BC
:10371000B0FBF1F201FB120090B13030C2B205EB08
:10372000560000FB0470C0B233465946CDF80090F5
:10373000FFF75AFF641CE4B24445DFD3BDE8F88FBD
:1037400005EB560000FB0470C0B2334630225946E8
:10375000CDF80090FFF748FFECE72DE9FF4F81B06F
:1037600006460F464FF0000A0096B946580701D0AA
:10377000012000E0002000EBD30004904FF0000B8C
:1037800038E04FF000082EE00E9810F80A500AF1C9
:10379000010A1FFA8AFA0024E80705D039463046A4
:1037A0000F9AFFF75FFE06E00F9848B300223946F4
:1037B0003046FFF757FE6D087F1CFFB2641CE4B271
:1037C000082CE9D3761CF6B20098311A039881428E
:1037D00004D1009E09F1080909F0FF094F4608F1DC
:1037E000010808F0FF0803988045CDD30BF1010BC9
:1037F0000BF0FF0B04988345C3D305B0BDE8F08FF1
:103800000122D4E72DE9F8410446884615461E46B4
:10381000079F0BE03346414620460097FFF7E4FE42
:10382000082E0AD004EB5600C4B26D1C2A78A2F10F
:1038300020005E28EED9BDE8F881A41DE4B2F4E7CB
:10384000F0B585B006460A9F0D4614460022029246
:10385000039204921D48CDE9000718231A46294611
:103860003046FFF77AFF4FF461633C222D1D183676
:103870009C4214D2B4FBF2F0B4FBF2F302FB104012
:10388000009013A20C2102A800F01CFFE9B2F0B2D4
:10389000102302AA0097FFF7B5FF05B0F0BDB4FBF7
:1038A000F3F003FB1040B0FBF2F0B4FBF3F3009035
:1038B0000AA20C2102A800F005FFE9B2F0B2102321
:1038C00002AA0097FFF79EFFE7E700006873000871
:1038D000253032643A25303264730000253032647A
:1038E0003A253032646D000013B5104C012916D012
:1038F000002208212046FDF730FE00220421204648
:10390000FDF72BFE4FF0FF33012269460848FEF712
:1039100005FE012204212046FDF71FFE1CBD0122E9
:1039200008212046FDF719FEE7E7000000080140E6
:103930004402002031B50C4C002208212046FDF73E
:103940000CFE002204212046FDF707FE4FF0FF3356
:10395000012269460548FEF7E1FD012204212046C7
:10396000FDF7FBFD38BD00000008014044020020C7
:103970002DE9F04107460E460E4D0122082128464A
:10398000FDF7EBFD002204212846FDF7E6FD0A4C79
:1039900001202070324639460848FEF789FE20781B
:1039A0000028FCD12846BDE8F04101220421FDF7A2
:1039B000D4BD000000080140600000204402002047
:1039C000704700002DE9F0411B4CE078012811D12F
:1039D000FDF7CAFD6169401A28280BD3FDF71EF9CF
:1039E000207821790025884206D114A000F05AFEE3
:1039F000E5706570BDE8F081164F4FF480660022D7
:103A000031463846FDF7A9FD3C20FDF78FFC012229
:103A100031463846FDF7A1FDFDF7A6FD60616079EE
:103A2000401CC0B260710A28E4D921790AA000F0D4
:103A300039FEE570DEE700000000002053657420C9
:103A400046616E204D6F6465202564204F4B0D0A42
:103A500000000000000C01404661696C6564207440
:103A60006F207365742066616E206D6F646520251C
:103A7000640D0A0008B507494FF4FA520968B1FB12
:103A8000F2F14143009100BF0098411E0091FAD22B
:103A900008BD00005C000020010901EB8101490024
:103AA00000F00F000844C0B27047002102E0491C3A
:103AB0000A38C0B20A28FAD2090740EA11607047F2
:103AC0002DE9F041064688460027F57B747BB27BE2
:103AD00040E0012C16D0032C14D0052C12D0072C5A
:103AE00010D0082C0ED00A2C0CD00C2C0AD0042C90
:103AF00015D0062C13D0092C11D00B2C0FD0022C72
:103B000014D026E01F2A01D2521C22E00C2C02D035
:103B1000641C01221DE0012401226D1C19E01E2AF3
:103B200001D2521C15E0641C012212E01C2A02D2B0
:103B300002F101020DE008D1A8B200F04CF808B182
:103B40001D2206E00324012203E01D2A01D10324E3
:103B500001227F1C4745BCD3F573E1B27173D2B229
:103B6000B273284600F065F83073BDE8F08170B597
:103B70000546FDF7F9FC04464FF47A7606E0FDF7BA
:103B8000F3FC001BB04201D9032070BD28684068D7
:103B90008006F4D52868416841F01001416000209A
:103BA00070BD70B505462868416821F0100141607C
:103BB000FDF7DAFC04464FF47A7606E0FDF7D4FC14
:103BC000001BB04201D9032070BD28684068800600
:103BD000F4D5002070BD810701D00020704764211A
:103BE000B0FBF1F201FB120109B1012070474FF463
:103BF000C871B0FBF1F201FB120008B10020704760
:103C0000012070470068016A406A80B240EA0140C2
:103C100070470068816989B2C26993B2826992B2C1
:103C2000914203D0C06962F31F40704743EA0140EC
:103C30007047F0B500F5FA606427C1EBC1030925B0
:103C4000BE00072403EB0113032912D2B3FBF5F1E5
:103C500011440144401EB0FBF7F201EB9001B0FBB0
:103C6000F6F0891A0844001DB0FBF4F104FB1100C2
:103C700010E0B3FBF5F11144B0FBF7F2014401EBA6
:103C80009001B0FBF6F0891A0844801CB0FBF4F1F7
:103C900004FB1100C0B2F0BD70B505460E4600240D
:103CA0002846FFF764FF08B101240AE02968300CB8
:103CB00008622968B0B248622846FFF772FF00B177
:103CC0000124204670BD70B505460E4600242846E6
:103CD000FFF74DFF08B101240AE02968300C886124
:103CE0002968B0B2C8612846FFF75BFF00B1012424
:103CF000204670BD70B50546114CA078002817D13C
:103D000010480168486A0C2290FBF2F0A061042878
:103D100002DB0020A061486201210B48FDF716FC80
:103D20006070012802D1207E00F0DCF8FFF74AFE27
:103D30002A46BDE87040024904481831FCF70EBF1E
:103D400000000020E002002000080140E93F0008D8
:103D500010B5406A01684A6822F003024A60416D6A
:103D600041F010014165012180F85110FEF72AFB56
:103D700010BD10B5406AFEF70FFD10BD38B5054601
:103D80006C6AFDF7F1FB024628680068800623D4C0
:103D90002068416821F0200141602068416821F0DD
:103DA000020141606421204600F01AF818B1606DEC
:103DB00040F020006065A068002118B92068C26842
:103DC00080680090E186012084F85100606D18B190
:103DD0002046FEF7F7FA38BD2046FEF7D1FC38BD85
:103DE000F8B504460E461546334601220221204608
:103DF000009500F017F828B1606D40F02000606574
:103E00000320F8BD3346002280212046009500F0B3
:103E100009F828B1606D40F0200060650320F8BD0E
:103E20000020F8BD2DE9F84304460F4691461E4692
:103E3000089DFDF799FB401B351AFDF795FB804661
:103E400026480068C0F3CB30684300903AE0701C0D
:103E500038D0FDF789FBA0EB0800A84203D215B1CA
:103E6000009858B32BE02068416821F0E0014160E0
:103E70006068B0F5827F0BD1A068B0F5004F02D02A
:103E8000B0F5806F04D12068016821F04001016025
:103E9000A06AB0F5005F09D12068016821F40051E3
:103EA00001602068016841F4005101600120503434
:103EB0006070002020700320BDE8F8830025009882
:103EC000401E00902068806837EA000004D000207F
:103ED0004845BCD10020EFE70120F9E75C00002055
:103EE0007047000010B50E4C00280FD0012810D0EC
:103EF000022811D0032808D1062020710120E0708B
:103F0000FDF732FB60610020607110BD0720207159
:103F1000F4E703202071F1E705202071EEE70000AF
:103F2000000000207CB51F48FDF772F81E48007A9B
:103F3000002831D01C48FCF74DFE00282BD01B4D2B
:103F40002888FCF731FA6FF00A01FCF740F9FCF71A
:103F500060FA4FF06632164BFCF745F9FCF76CFA45
:103F6000144C2062298814A000F09CFB206AFCF706
:103F700050FA02460B4615A000F094FB19486289DE
:103F80000121102350F82200CDE900012022002158
:103F90006020FFF7E2FB7CBDBDE87C406421024865
:103FA000FCF72CBEAC010020A00100202A0000205C
:103FB00066660A4000000020546865204144435F63
:103FC00076616C75652069732025640054686520EE
:103FD0005265616C5F76616C75652069732025663A
:103FE0000A0A00006400002030B40278C2F1040024
:103FF000C1B20C4B9879401CC0B2987188420BD367
:1040000052B1002098711889401C80B20621B0FB83
:10401000F1F401FB140018811B7A122130BC0B2033
:1040200000F002B8000000202DE9FC5F06460C46B7
:10403000904644484FF00109214650F82300CDE94D
:10404000000918231A463046FFF787FB06F11E07C2
:1040500006F13905DFF8F0A05436A41DB8F1000FC1
:1040600024D0DFF8E8B0B8F1010F38D0B8F1020F72
:104070004ED0B8F1030F17D1CDE900B9E1B2F8B2D3
:104080000C231822FFF769FBCDE900B9E1B2E8B2D1
:104090000C231822FFF761FBCDE900B9E1B2F0B2C1
:1040A0000C231822FFF759FBBDE8FC9FCDE900A9BE
:1040B000E1B2F8B20C231822FFF74FFBCDE900A9BB
:1040C000E1B2E8B20C231822FFF747FBCDE900A9C3
:1040D000E1B2F0B20C231822FFF73FFBE4E7CDE991
:1040E00000B9E1B2F8B20C231822FFF736FBCDE994
:1040F00000A9E1B2E8B20C231822FFF72EFBCDE9AC
:1041000000A9E1B2F0B20C231822FFF726FBCBE79F
:10411000CDE900B9E1B2F8B20C231822FFF71DFB7C
:10412000CDE900B9E1B2E8B20C231822FFF715FB84
:10413000CDE900A9E1B2F0B20C231822FFF70DFB84
:10414000B2E7000080000020587100088871000864
:104150002DE9FC4731484068314C2168401AD4E9C8
:104160000421002710187941C4E904016068401C4B
:104170006060FDF7F9F9A1684FF47A76411AB1420F
:1041800049D3A0606268D4E904010023FBF7CCFFA7
:1041900048220023FBF7C8FF054642F210704FF09B
:1041A00001084FF00C09854219D90C231DA23021BA
:1041B0005620CDF80080FFF725FBB5FBF6F2CDE9E0
:1041C0000098042330216220FFF78AFA0C2316A2FC
:1041D00030217A20CDF80080FFF714FB17E00C2384
:1041E00010A230215620CDF80080FFF70BFBCDE95F
:1041F000009804232A4630216220FFF771FA0C232D
:104200000AA230217A20CDF80080FFF7FBFA0021C6
:10421000216161616760BDE8FC870000001000E07B
:1042200038000020543A00006D00000075000000C6
:104230007CB5FCF791FB0F4DA88101240E48CDE918
:10424000000410231A4603212A20FFF786FA1020C3
:10425000CDE900040323AA8902213820FFF740FAA0
:104260000648CDE900040C231A4604214820FFF734
:1042700074FA7CBD00000020C8730008B073000809
:1042800038B5047800220020144B002C99780FD008
:1042900001291BD0124A15685468186900212B1A8D
:1042A0008C410FD213685268C01A61EB02010BE017
:1042B000012901D0012009E00A490968496A196108
:1042C0008AB203E00020014682B201200090102350
:1042D00028210A20FFF7B4FA38BD000000000020B2
:1042E00030000020E002002030B587B000200690AA
:1042F0000590029003900490002206A91E48FDF745
:1043000098FE002205A91C48FDF76AFE9DF81830AA
:104310004FF4616003FB00F19DF81900C0EB00123F
:1043200001EB82019DF81A201144144CE569A94261
:1043300011D0E16101240A2B0FD2CDE9000210A2B5
:104340000C2102A800F0BEF900210C2302AA0846A5
:104350000094FFF757FA07B030BD00900CA20C2173
:1043600002A800F0AFF900210C2302AA084600942D
:10437000FFF748FAEFE700003002002000000020BD
:10438000253031643A253032643A253032640000F9
:10439000253032643A253032646D0000FDF7EEB905
:1043A00030B593B0282109A8FBF706FF142104A813
:1043B000FBF702FF00240094019402940394092067
:1043C00009904FF480300A900B9401210D910F91C8
:1043D0000225109511904FF4E010129009A8FDF7F6
:1043E0003DFC08B1FCF717FC0F20049005950694DE
:1043F0004FF4806007900894022104A8FDF738FB71
:1044000008B1FCF708FC032000904FF40070019005
:10441000800102906846FDF7A5FA002801D0FCF75C
:10442000FAFB13B030BD70470148FEF7D0BB000067
:104430002803002070B50268174C184D4FF08046D5
:10444000A04203D0B04201D0A84203D122F07003B1
:104450004A681A43A04203D0B04201D0A84203D117
:1044600022F44073CA681A434B6922F080021A434F
:1044700002608A68C2620A688262A04201D1096948
:104480000163012141610169C90703D0016921F07C
:104490000101016170BD0000002C014000040040DA
:1044A00010B501F01F0101238B40046A9C43046294
:1044B000036A8A401343036210BD10B5846824F474
:1044C0007F4442EA03220A432243826010BD82688D
:1044D00022F070020A4342F007018160704710B574
:1044E000036A046A24F001040462846924F0F0047D
:1044F00044EA021423F00A020A438461026210BDF6
:1045000010B5036A046A24F010040462846924F478
:10451000704444EA023223F0A00343EA01118261AD
:10452000016210BD01680C3151E8002F22F4907235
:1045300041E80023002BF5D10168143151E8002F28
:1045400022F0010241E80023002BF5D1016B012983
:1045500009D101680C3151E8002F22F0100241E826
:104560000023002BF5D1202180F8421000210163A7
:104570007047000070B5044620680169E26821F4C4
:10458000405111430161A168206901436069014301
:104590002068C26841F20C639A430A43C2602068F3
:1045A0004169A26921F44071114341611E492068AB
:1045B000884202D1FDF71CFB01E0FDF709FB00EB8F
:1045C000C00101EB0010616864228900B0FBF1F3C7
:1045D000B3FBF2F36FF018067343B0FBF1F5B0FBD9
:1045E000F1F605EB8305322303EB0515B5FBF2F578
:1045F000B6FBF2F605F0F00505EB0615B0FBF1F69B
:10460000B0FBF1F0B0FBF2F06FF01801484306EB9D
:10461000800003EB0010B0FBF2F0216800F00F0007
:104620002844886070BD0000003801402DE9F8433F
:1046300004460D4617469846089E25E0701C23D078
:10464000FCF792FFA0EB0800B0421BD8D6B120685F
:10465000C168490718D5802D16D0402D14D00168A7
:10466000C943090710D400252168096840680090F3
:104670002046FFF757FF0820606484F8405001206F
:10468000BDE8F8830320FBE72068006835EA0000F6
:1046900004D00020B842D1D00020F1E70120F9E792
:1046A000FEE700000FB4054B10B503A9044A0298B9
:1046B00000F004F910BC5DF814FB0000F14F000895
:1046C000AC0000200FB47CB50C0009AD01D0611E18
:1046D00000E00021CDE90001064B6A462946089812
:1046E00000F0ECF8002C02D0009A002111707CBC84
:1046F0005DF814FBC34F00080907090E002804DB0E
:1047000000F1E02080F80014704700F00F0000F185
:10471000E02080F8141D704702E008C8121F08C18D
:10472000002AFAD170477047002001E001C1121F32
:10473000002AFBD1704700002DE9FF5F82B0002105
:10474000DDE90430020DDDF840B0034318D044F633
:104750001050A2F2FF3242431514119801281FD0C5
:10476000A5EB0B00401C5FEA000A4FF000064E4F1D
:10477000DFF83891B046504615D5CAF1000413E071
:10478000119801244AA3012801D16FEA0B01029874
:10479000119AC0E90031C0E9024206B0BDE8F09FBD
:1047A000CBF10000DFE704460021404A491842EB04
:1047B0000450CDE9001012E0E00707D032463B4636
:1047C00040464946FBF70FFD8046894632463B4648
:1047D00010461946FBF707FD06460F466410002CED
:1047E000EAD1DDE90401DDE90023BAF1000F06DAC0
:1047F000FBF7F9FC42464B46FBF7F5FC05E0FBF7FF
:1048000064FD42464B46FBF760FD04460E4600221F
:10481000284BFBF7A5FF03D84FF0FF30014607E018
:104820000022254B20463146FBF7DBFEFBF780FFDD
:10483000102409E0002C0ADB0A220023FBF774FC99
:10484000039B30321A55641E50EA0102F2D1641CF7
:10485000039AC4F111031444119A012A03D00122CE
:1048600008430DD10AE0084304D000204FF0110B9B
:10487000119072E7A3EB0B056D1E0DE05B4504DDA7
:104880004FF0000205F1010504E003DA4FF00002E9
:10489000A5F10105002AECD002981199C0E9023176
:1048A000C0E9004579E70000000014400000F03F37
:1048B000300000000000F0430000E03F2DE9FF4F12
:1048C00095B09A46884606460025EEE1252877D120
:1048D00000242746F94A0121039400E0044316F816
:1048E000013F203B01FA03F01042F7D130782A282B
:1048F00011D06FF02F033078A0F13002092A16D8BA
:10490000039A44F0020402EB820203EB42021044D9
:10491000761C0390EFE758F8042B0392002A03DA81
:10492000504244F40054039044F00204761C307862
:104930002E2816D116F8010F44F004042A280DD0B1
:104940006FF02F023078A0F13003092B09D807EB64
:10495000870302EB4303C718761CF3E758F8047B80
:10496000761C30786C280FD006DC4C2817D06828CD
:104970000DD06A2814D104E0742810D07A280FD101
:104980000DE044F400140AE044F4801401E044F41F
:1049900040147278824202D104F58014761C761C91
:1049A000307866280BD013DC582877D009DC002833
:1049B00075D04528F6D04628F4D047281AD193E17F
:1049C00018E0632835D0642879D0652812D18BE1AE
:1049D000702873D008DC6728F1D069286FD06E2862
:1049E0000DD06F2806D1ACE073282CD0752874D078
:1049F000782853D05246179990476D1C54E1C4F360
:104A00000250022809D003280DD0D8F8001004283D
:104A10000DD00D6008F1040846E1D8F80010EA173F
:104A2000C1E90052F6E7D8F800100D80F2E70D70EA
:104A3000F0E718F8041B8DF8001000208DF8010035
:104A4000EB46012003E058F804BB4FF0FF3061074C
:104A50004FF0000102D40DE009F101018946B9428D
:104A60000FDA8145F8DB1BF809100029F4D108E0C2
:104A700009F1010189468142FADB1BF8091000297E
:104A8000F6D103985346A0EB090721463846179AFA
:104A900000F080FA284400EB090507E044E008E153
:104AA0000DE01BF8010B524617999047B9F1010927
:104AB000F7D2534621463846179AF2E039E00A21E8
:104AC000C4F302524FF0000B0091022A06D058F8AE
:104AD000040BC117032A09D00AE023E008F10700FC
:104AE00020F00702F2E80201904605E000B2C1178B
:104AF000042A01D140B2C117002906DA0A46002172
:104B0000404261EB02012D2202E0220504D52B2256
:104B10008DF80420012203E0E20701D02022F7E70C
:104B2000914657E00A2100E010214FF0000B009160
:104B30000BE010214FF0000B44F004040827009113
:104B400003E008204FF0000B0090C4F30252022A49
:104B500005D058F8040B0021032A08D008E008F11A
:104B6000070020F00702F2E80201904603E080B25D
:104B7000042A00D1C0B24FF0000922072AD53278AA
:104B8000702A07D0DDF800C08CF0100C5CEA0B0C2A
:104B900005D00EE040228DF80420012208E050EA02
:104BA000010306D030238DF804308DF80520022251
:104BB0009146009B83F0080353EA0B030AD150EAA5
:104BC000010201D1620705D530228DF804204FF093
:104BD00001097F1E3278582A04D039A20C920CAAFF
:104BE00002920BE03BA2F9E75B46009AFBF79CFAC6
:104BF0000C9B9B5C029A521E0292137050EA0102B7
:104C0000F2D1029804A9081A00F1200B600702D51E
:104C100024F4803400E001275F4502DDA7EB0B00A0
:104C200000E0002000EB0B01009003984944401A7B
:104C30000390E00306D453462146179A039800F0E8
:104C4000A9F90544002706E001A85246C05D17995E
:104C500090476D1C7F1C4F45F6DBE0030CD5534697
:104C60002146179A039800F095F9054404E0302096
:104C70005246179990476D1C0099481E00900029D4
:104C8000F5DC08E00298029952460078491C02912E
:104C9000179990476D1CBBF10001ABF1010BF1DCE2
:104CA0005BE100F065F90544761C307800287FF45C
:104CB0000DAE19B02846BDE8F08F000009280100AC
:104CC0003031323334353637383961626364656682
:104CD0000000000030313233343536373839414244
:104CE0004344454600000000600700D4062708F151
:104CF000070020F00700F0E80223804603F0004C94
:104D00005FEA0C0001D097A009E0200501D596A02C
:104D100005E0E00701D095A001E0AFF24C00139050
:104D2000307823F0004365280CD006DC452809D0F4
:104D300046281DD047287FD13BE0662818D0672839
:104D40007AD136E00021112F01DB112000E0781C20
:104D5000CDE9000104A90CA8FFF7EEFCDDE90D0187
:104D60000C9A4FF0000B07F10109109200914EE0F0
:104D70004FF000400097CDE9011004A90CA8FFF7FF
:104D8000DBFCDDE90D020C9B0F994FF0000B914607
:104D90001093009211B9791C00EB0109B7EB0900DF
:104DA00003D4C0F1FF3B07F10109A9EB0700019013
:104DB00042E0012F00DA01270021112F01DD11202F
:104DC00000E03846CDE9000104A90CA8FFF7B4FCC7
:104DD000DDE90D010C9A00914FF0000BB9461092DD
:104DE00021070FD4009A4A4503DA914601E0A9F160
:104DF0000109B9F1010F05DD109AA9F10101515C1A
:104E00003029F4D0B84202DA10F1040F03DA01219C
:104E1000CDE9011010E0002803DC8344A9EB000178
:104E200002E0411C494500DD8946A0EB0B00401C17
:104E300001904FF000400290200705D401984845AA
:104E400002DB4FF0FF30019000208DF84B000298FC
:104E50000DF14B07B0F1004F25D002200C902B2014
:104E60000D90029800280CDA404202902D200D90FF
:104E700007E00A210298FBF7FBFA3031029007F8AD
:104E8000011D0C99481E0C900029F2DC02980028A4
:104E9000EFD1791E0D980870307800F0200040F0B6
:104EA000450007F8020D11A8C01BC01D0290139801
:104EB000007800B1012000EB0901019801EBE071DD
:104EC000029801440398401A401E0390E00306D460
:104ED00053462146179A039800F05CF8054413984E
:104EE000007818B15246179990476D1CE00323D5FE
:104EF00053462146179A039800F04CF805441BE0EE
:104F0000BBF1000F07DB0098584504DD1098179996
:104F100010F80B0001E01799302052469047019895
:104F20000BF1010B401E05F10105019004D12E206B
:104F30005246179990476D1CB9F10001A9F101097A
:104F4000DEDC05E017F8010B5246179990476D1CFF
:104F50000299481E02900029F4DC53462146179A14
:104F600003989EE62D0000002B00000020000000AA
:104F70002DE9F041044600251E461746880404D456
:104F800005E039462020B0476D1C641EF9D528463F
:104F9000BDE8F0812DE9F041044600251E4690460B
:104FA000C80301D5302700E02027880404D505E098
:104FB00041463846B0476D1C641EF9D52846BDE809
:104FC000F0814A68002A06D00A68531C0B601070F2
:104FD0004868401E4860704704490A6800EBC000FA
:104FE000C0000B689B1A8342FBD37047041000E09B
:104FF00013B54FF6FF73012269460248FDF712FF11
:1050000000981CBD70030020FCF7C0FBFFF7C8F937
:10501000FEF70AF8FDF7F2FFFEF77EF8FEF7F6F866
:10502000FEF760F9FDF7C4FFFEF728F9FEF7CAF8AE
:10503000FEF792F8FBF77AFD3C212648FDF772FD5A
:105040002548FBF7E5FFFBF7B5FCFEF725FAFEF771
:10505000E0F90020FEF7CCF90020FEF7E9F91FA0E7
:10506000FFF720FB0020FFF70BF90020FEF75AFFA7
:105070000020FFF7DDF80020FEF7B6FF0020FFF765
:1050800033F9194D194C40F6B8364FF47A77686801
:1050900020600A2216491748FBF760FD1020FEF732
:1050A00029FE642214491548FBF758FD32460021B9
:1050B0001348FBF753FD3A4600211248FBF74EFD1B
:1050C000C82200211048FBF749FDFEF773FAFFF7ED
:1050D0003FF8DCE7E0020020AC0100207379737434
:1050E000656D5F6F6B0D0A00001000E03800002056
:1050F00098000020D52E00082400002081420008DE
:10510000253F000831420008E9420008010202037D
:105110000405060708090A0B0C0D0E0F10100102FA
:1051200002030405060708090A0B0C0D0E0F1010E8
:105130000000000000000000010203040607080947
:105140000000000001020304000000000000000055
:10515000002F000000000700070000147F147F14D8
:1051600000242A7F2A12006264081323003649555E
:10517000225000000503000000001C224100000036
:1051800041221C000014083E08140008083E0808CC
:10519000000000A060000008080808080000606027
:1051A0000000002010080402003E5149453E000066
:1051B000427F4000004261514946002141454B3148
:1051C000001814127F10002745454539003C4A4914
:1051D0004930000171090503003649494936000686
:1051E0004949291E000036360000000056360000EE
:1051F0000008142241000014141414140000412269
:10520000140800020151090600324959513E007C40
:105210001211127C007F49494936003E414141222A
:10522000007F4141221C007F49494941007F090913
:105230000901003E4149497A007F0808087F0000C3
:10524000417F4100002040413F01007F081422417E
:10525000007F40404040007F020C027F007F040836
:10526000107F003E4141413E007F09090906003E92
:105270004151215E007F09192946004649494931BB
:105280000001017F0101003F4040403F001F2040DE
:10529000201F003F4038403F00631408146300079C
:1052A0000870080700615149454300007F414100F3
:1052B00000552A552A55000041417F000004020193
:1052C0000204004040404040000001020400002071
:1052D00054545478007F48444438003844444420AF
:1052E00000384444487F00385454541800087E095C
:1052F00001020018A4A4A47C007F08040478000024
:10530000447D4000004080847D00007F10284400E0
:105310000000417F4000007C04180478007C0804F1
:10532000047800384444443800FC2424241800182D
:10533000242418FC007C0804040800485454542019
:1053400000043F444020003C4040207C001C2040A2
:10535000201C003C4030403C004428102844001CE5
:10536000A0A0A07C004464544C44141414141414DD
:105370000000000000000000000000000000FC0031
:105380000000000002000000000C020C02000000FF
:105390000000000090D0BCD0BC90000300030000CF
:1053A0001824FE448C000302070201001824D8B020
:1053B0004C80000300010201C038E438E000010223
:1053C00002010202080600000000000000000000C8
:1053D000000000F80402000000010204000204F8CA
:1053E00000000004020100009060F86090000000DE
:1053F000010000002020FC2020000000010000002F
:10540000000000000000080600000000202020200E
:10541000200000000000000000000000000000026A
:10542000000000000080601C020004030000000077
:10543000F8040404F8000102020201000008FC0064
:105440000000000203020000188444241800030234
:105450000202020008042424D80001020202010012
:1054600040B088FC80000000000302003C2424249B
:10547000C400010202020100F824242CC000010231
:10548000020201000C04E41C040000000300000000
:10549000D8242424D80001020202010038444444E4
:1054A000F8000003020201000000100000000000EC
:1054B00002000000000020000000000006000000C4
:1054C000002050880402000000000102909090909B
:1054D000900000000000000000020488502000023C
:1054E000010000001804C42418000000020000009D
:1054F000F804E494F80001020202020000E09CF0CB
:10550000800002030000030204FC2424D8000203EC
:1055100002020100F80404040C000102020201006E
:1055200004FC0404F80002030202010004FC2474D9
:105530000C0002030202030004FC24740C000203AA
:1055400002000000F0080444CC4000010202010007
:1055500004FC2020FC040203000003020404FC04F9
:105560000400020203020200000404FC0404060416
:105570000403000004FC24D00C0402030200030214
:1055800004FC04000000020302020203FC3CC03CD5
:10559000FC0003000300030004FC30C4FC0402030D
:1055A00002000300F8040404F800010202020100F2
:1055B00004FC24241800020302000000F884840480
:1055C000F80001020207050004FC246498000203AD
:1055D00002000302182424448C000302020201008A
:1055E0000C04FC040C0000020302000004FC000098
:1055F000FC04000102020100047C80E01C040000A5
:10560000030000001CE03CE01C000003000300005D
:10561000049C609C0400020300030200041CE01CC4
:1056200004000002030200000C84641C0400020356
:10563000020203000000FE02020000000704040052
:10564000000E30C00000000000010200000202FE57
:105650000000000404070000000402040000000031
:10566000000000000000000000000808080808080A
:105670000000020000000000000000000040A0A0A8
:10568000C00000010202030204FC2020C00000034D
:105690000202010000C0202060000001020202009E
:1056A00000C02024FC0000010202030200C0A0A0F0
:1056B000C0000001020202000020F82424040002BD
:1056C000030202000040A0A0602000070A0A0A04AA
:1056D00004FC2020C0000203020003020020E400BA
:1056E0000000000203020000000020E4000008089F
:1056F0000807000004FC80E02020020302000302EF
:105700000404FC000000020203020200E020E0208A
:10571000C00003000300030020E02020C0000203BB
:105720000200030200C02020C000000102020100AC
:1057300020E02020C000080F0A02010000C0202045
:10574000E0000001020A0F0820E0402020000203D0
:10575000020000000060A0A020000002020203007E
:105760000020F820000000000102020020E00020DC
:10577000E00000010202030220E02080602000001F
:10578000030100006080E08060000003000300006F
:1057900020608060200002030003020020E02080DF
:1057A00060200808070100000020A060200000021F
:1057B00003020200000020DE0200000000070400D7
:1057C000000000FF00000000000F00000002DE20CB
:1057D00000000004070000000201020404020000AF
:1057E00000000000000000000000000000000000B9
:1057F00000000000000000F800000000000000337E
:105800003000000000100C06100C06000000000024
:105810000000000040C07840C0784000043F04040D
:105820003F040400007088FC08300000001820FFCE
:10583000211E0000F008F000E018000000211C0309
:105840001E211E0000F00888700000001E21232485
:105850001927211010160E000000000000000000A3
:1058600000000000000000E0180402000000000733
:105870001820400000020418E0000000004020183A
:1058800007000000404080F0804040000202010F0D
:1058900001020200000000F0000000000101011FF1
:1058A00001010100000000000000000080B0700055
:1058B00000000000000000000000000000010101E5
:1058C0000101010100000000000000000030300074
:1058D000000000000000000080601804006018064E
:1058E0000100000000E010080810E000000F102088
:1058F00020100F00001010F8000000000020203FD2
:10590000202000000070080808887000003028245B
:1059100022213000003008888848300000182020FC
:1059200020110E000000C02010F800000007042421
:10593000243F240000F80888880808000019212066
:1059400020110E0000E0108888180000000F1120C0
:1059500020110E0000380808C83808000000003F79
:10596000000000000070880808887000001C2221D8
:1059700021221C0000E010080810E0000000312285
:1059800022110F00000000C0C00000000000003025
:105990003000000000000080000000000000806077
:1059A00000000000000080402010080000010204F8
:1059B00008102000404040404040400004040404DF
:1059C000040404000008102040800000002010089B
:1059D00004020100007048080808F00000000030D0
:1059E00036010000C030C828E810E000071827245E
:1059F00023140B000000C038E0000000203C23020C
:105A00000227382008F8888888700000203F20206E
:105A100020110E00C03008080808380007182020A0
:105A20002010080008F808080810E000203F202097
:105A300020100F0008F88888E8081000203F202078
:105A40002320180008F88888E8081000203F20006C
:105A500003000000C03008080838000007182020A4
:105A6000221E020008F808000008F808203F210163
:105A700001213F20000808F8080800000020203F0E
:105A80002020000000000808F8080800C08080807E
:105A90007F00000008F888C028180800203F200177
:105AA0002638200008F8080000000000203F2020D1
:105AB0002020300008F8F800F8F80800203F003FE8
:105AC000003F200008F830C00008F808203F200000
:105AD00007183F00E01008080810E0000F10202011
