:020000040800F2
:100000001013002005010008F5320008372F000802
:10001000F1320008F70400089D45000800000000C8
:10002000000000000000000000000000CD3D0008BE
:1000300009080008000000006D390008854100082B
:100040001F0100081F0100081F0100081F01000810
:100050001F0100081F0100081F0900081F010008F8
:100060001F0100081F0100081F0100081F010008F0
:100070001F010008FD0400081F0100081F010008FF
:100080001F0100081F0100081F0100081F010008D0
:100090001F0100081F0100081F0100081F010008C0
:1000A0001F0100081F0100081F0100081F010008B0
:1000B0001D4200081F010008000000001F01000889
:1000C0001F01000800000000000000001F010008E0
:1000D000000000001F0100081F01000800000000D0
:1000E0001F0100081F0100081F010008DFF810D0E1
:1000F00000F092F900480047A5470008AFF30080E0
:10010000101300200648804706480047FEE7FEE738
:10011000FEE7FEE7FEE7FEE7FEE7FEE7FEE7FEE7B7
:100120001B420008ED0000082DE9F05F05460020A5
:1001300092469B4688460646814640241BE0284658
:1001400041464746224600F020F853465A46C01A18
:10015000914110D311461846224600F0F0F82D1AAE
:1001600067EB01084F4622460120002100F0E7F826
:1001700017EB00094E41201EA4F10104DFDC4846C4
:1001800031462A464346BDE8F09F202A04DB203A48
:1001900021FA02F00021704721FA02F3D040C2F1A7
:1001A00020029140084319467047D2B201E000F89E
:1001B000012B491EFBD270470022F6E710B513460B
:1001C0000A4604461946FFF7F0FF204610BD2DE908
:1001D000FE4F81EA030404F0004421F00041009442
:1001E0004FF0000B23F0004350EA01045ED052EAC6
:1001F00003045BD0C3F30A54C1F30A552C44A4F2A0
:10020000F3340194A0FB0254C1F3130141F48011B3
:10021000C3F3130343F4801301FB024400FB034EBA
:10022000840A970A44EA815447EA8357A4FB076883
:1002300002958D0A05FB07854FEA932C04FB0C54AD
:100240002705029D4FEA065847EA1637B5EB080521
:100250006EEB070C870E920E47EA811742EA831273
:10026000A7FB0201B6EB0B0164EB00042B0D43EA84
:100270000C335E1844EB1C50DA465146E7FB020192
:10028000C5F313044FEA0B3343EA14534FEA043225
:10029000019C43EA0603A4F10C040294009CCDE9FE
:1002A00000B400F06AF803B0BDE8F08F002001460A
:1002B000F9E70EB5C10F80EAE0700844CA070021D3
:1002C00040F233438DE80E000A460B4600F055F825
:1002D00003B000BD70B5C1F30A5201F0004500241F
:1002E000C1F3130140F2FF3341F480119A4201DA65
:1002F000002070BD40F233439A42A2F2334203DC45
:100300005242FFF742FF00E090402C43F1D04042C0
:1003100070BD30B50B46014600202022012409E0C3
:1003200021FA02F59D4205D303FA02F5491B04FAAE
:1003300002F52844151EA2F10102F1DC30BD202A8D
:1003400004DB203A00FA02F1002070479140C2F12C
:10035000200320FA03F319439040704710B5141E90
:1003600073F1000408DA401C41F1000192185B416E
:100370001A4301D120F0010010BD2DE9F04D924645
:100380009B4611B1B1FA81F202E0B0FA80F220325C
:100390009046FFF7D4FF04460F4640EA0A0041EAC0
:1003A0000B0153465A46084313D0114653EA010045
:1003B00019D0C8F140025046FFF7E7FE05460E4649
:1003C000504659464246FFF7BAFF084305D0012080
:1003D00004E020463946BDE8F08D0020054346EA9A
:1003E000E0762C4337430A986305E40AA0EB080043
:1003F0000022FD0A44EA47540A3002D50020014693
:10040000E9E7010510196941DDE90845001969416D
:10041000BDE8F04DA2E70000064C074D06E0E0689D
:1004200040F0010394E8070098471034AC42F6D33B
:10043000FFF760FE4C6B00086C6B000870B58D1800
:1004400010F8014B14F0030201D110F8012B231115
:1004500006D110F8013B03E010F8016B01F8016BC5
:10046000521EF9D1ABB110F8012B04F00C048A1A1A
:100470000C2C03D0A2EB84129B1C08E010F8014B5B
:10048000A2EB0422F8E712F8014B01F8014B5B1EC6
:10049000F9D5A942D4D3002070BD70B5044600251B
:1004A0002068806800F0010018B32068806820F0A0
:1004B00001002168886000F0CDFE054613E000F0E1
:1004C000C9FE401B02280ED92068806800F0010098
:1004D00048B1A06A40F01000A062E06A40F001005C
:1004E000E062012070BD2068806800F001000028F3
:1004F000E5D10020F6E700BFFEE7000010B5024896
:1005000000F0A0FB10BD0000F009002030B590F80D
:1005100040500124AC40C56B6C6004686360446863
:10052000102C04D10468A2600468E16003E0046850
:10053000A1600468E26030BD10B500241548006871
:1005400020F07040134908600846006840F0004001
:10055000086004E0601CC4B2012004F007F90E48F2
:10056000006808B1C82CF5DBC82C01DB012010BDE8
:10057000002404E0601CC4B2012004F0F7F806482F
:10058000006808B9F02CF5DBF02C01DB0120EEE768
:100590000020ECE7040801403C0121422DE9F05F16
:1005A00000F0D0F800F0ACF8FFF7C6FFCC2000F068
:1005B000D5F8BE2000F0D2F800F090F8834600F0A5
:1005C0008DF80446072C08DDE043C4B26FEA0B0047
:1005D00000F0FF0B4FF0000A01E04FF0010AA146C6
:1005E0004FEA09200FFA80F909EB0B000FFA80F9A6
:1005F0004846FFF75EFE07460022094BFFF7E7FD7E
:100600000546FFF767FE0FFA80F9BAF1000F02D036
:100610004846BDE8F09FC9F1000000B2F9E70000CC
:100620000000E43F00B585B000BF0F48806940F08E
:1006300004000D4988610846806900F004000090BC
:1006400000BF00BF4FF400400190012002900390D2
:100650000320049001A9054800F068FC00F050F860
:10066000FFF76AFF05B000BD00100240000801401E
:1006700010B51748006820F070401549086008461A
:10068000006840F0405008600020124908600220D5
:1006900004F06CF801201049C1F8BC010C48006856
:1006A00020F070400A4908600846006840F00040A9
:1006B00008600C2004F05AF806488038006808B139
:1006C000012400E00024322004F050F8204610BD40
:1006D00004080140BC0121420000214270B50026FF
:1006E000012508E0FFF7C4FF0446E00140EA660088
:1006F000C6B2681CC5B2082DF4DD304670BD0000DE
:1007000010B50D48006820F070400B49086008469D
:10071000006840F04050086000200849086040F23E
:10072000EE2004F023F801200549C1F8BC010F2098
:1007300004F01CF810BD000004080140BC01214277
:100740000000214210B5FFF7DBFFFFF7F5FECC20DC
:1007500000F004F8442000F001F810BD70B5044624
:100760001848006820F07040164908600846006884
:1007700040F040500860012520E004F001066410BC
:100780006EB1002010490860022003F0EFFF012045
:100790000E49C1F8BC013C2003F0E8FF0CE000204A
:1007A000094908603C2003F0E1FF01200749C1F836
:1007B000BC01022003F0DAFF681CC5B2082DDCDDA5
:1007C00070BD000004080140BC012142000021422C
:1007D0000B48006800F0807028B90948006840F0B4
:1007E0008070074908600748006800F0010028B9D8
:1007F0000448006840F001000249086070470000AA
:10080000FCED00E0001000E0704700002DE9F04131
:1008100005460E46174600245EE004EB840030498E
:1008200001EB8000007C88B304EB840051F82000C9
:10083000A8422CD104EB840001EB80004068B04258
:1008400025D100F007FD04EB8401254A02EB81016C
:10085000C968401A04EB840102EB8101896888426F
:1008600012D300F0F7FC04EB84011D4A02EB810176
:10087000C86004EB84021A4B03EB8202506804EB5D
:10088000840253F822108847BDE8F081FFE704EBAB
:100890008400134901EB8000007CE0B904EB840084
:1008A00041F8205004EB840001EB8000466004EB2B
:1008B000840001EB8000876000F0CCFC04EB840135
:1008C000074A02EB8101C860012004EB840102EBBE
:1008D00081010874D8E7641C062C9EDB00BFD3E7B7
:1008E0007C08002010B50446207A08B9012010BD0C
:1008F00000F0B0FC2168401A6168884203D30020F0
:1009000020720120F3E70020F1E770B504460D46A0
:1009100000F0A0FC206065600120207270BD10B561
:10092000012000F0F5FA10BD72B600BFFEE700002E
:1009300038B5024600230020009000BF92F8240042
:10094000012801D1022038BD012082F8240000BF17
:100950004868072812D21068406B0C79641E04EBBB
:1009600084051F24AC40A0430D796D1E05EB850561
:100970000C68AC4020431468606327E048680D2889
:1009800012D21068006B0C79E41F04EB84051F245D
:10099000AC40A0430D79ED1F05EB85050C68AC401C
:1009A00020431468206311E01068C06A0C790D3C84
:1009B00004EB84051F24AC40A0430D790D3D05EBED
:1009C00085050C68AC4020431468E06208680A287A
:1009D00012D31068C0680C780A3C04EB4405072465
:1009E000AC40A0430D780A3D05EB45058C68AC4052
:1009F00020431468E0600FE0106800690C7804EB95
:100A000044050724AC40A0430D7805EB45058C68F0
:100A1000AC402043146820610868102802D00868A0
:100A2000112827D1174C1068A0421ED11068806889
:100A300000F40000F0B91068806840F40000146809
:100A4000A0600868102815D10F4800680F4CB0FB53
:100A5000F4F000EB80004000009002E00098401E9F
:100A6000009000980028F9D104E0906A40F020003E
:100A70009062012300BF002082F8240000BF1846C6
:100A800061E70000002401407008002040420F0090
:100A90002DE9F0410446002700250026A84614B998
:100AA0000120BDE8F081A06810B1207D00B100BF39
:100AB000A06A30B90020E06284F82400204600F0EB
:100AC00089F82046FFF7E9FC0746A06A00F010000D
:100AD000002873D1002F71D1A06A20F4885040F013
:100AE0000200A062E16960680843217B40EA41009E
:100AF0000643A068B0F5807F02D0A068012802D12B
:100B00004FF4807000E000200543207D012811D1C2
:100B1000207B38B9A069401E4FF4006141EA4030A3
:100B2000054307E0A06A40F02000A062E06A40F0C0
:100B30000100E0622068406820F469402843216891
:100B400048602068806821490840304321688860F7
:100B5000A068B0F5807F02D0A068012802D14FF4D0
:100B6000807000E00020B0F5807F03D1208A401E15
:100B70004FEA00582068C06A20F4700040EA08007C
:100B80002168C8622068806811490840B04208D1D5
:100B90000020E062A06A20F0020040F00100A062A4
:100BA00011E0A06A20F0020040F01000A062E06AAC
:100BB00040F00100E062012705E0FFE7A06A40F095
:100BC0001000A062012738466BE70000FDF7E1FF47
:100BD000FE0E1FFF10B586B0044600200290039061
:100BE0000490059014492068884222D100BF134820
:100BF000806940F40070114988610846806900F4FA
:100C00000070019000BF00BF00BF0846806940F03F
:100C1000040088610846806900F00400019000BF6C
:100C200000BF022002900320039002A9044800F0B4
:100C30007DF906B010BD0000002401400010024004
:100C40000008014070B50446E06B0568206806683E
:100C500094F84010042088402840002846D006F030
:100C60000400002842D02068006800F0200028B965
:100C70002068006820F00400216808605749206857
:100C8000884201D1042027E0544914312068884269
:100C900001D1402020E0514928312068884201D10B
:100CA000001519E04D493C312068884202D14FF4CB
:100CB000804011E0494950312068884202D14FF408
:100CC000802009E0454964312068884202D14FF410
:100CD000800001E04FF08060404908394860E06AD8
:100CE00000287AD02046E16A884776E094F84010E0
:100CF000022088402840A0B306F0020088B3206894
:100D0000006800F0200040B92068006820F00A0068
:100D100021680860012084F8210030492068884259
:100D200001D1022028E02D4914312068884201D1E8
:100D3000202021E0294928312068884201D140152E
:100D40001AE026493C312068884202D14FF4005015
:100D500012E0224950312068884203D14FF400301C
:100D60000AE017E01D4964312068884202D14FF43F
:100D7000001001E04FF0007018490839486000BFCA
:100D8000002084F8200000BFA06A30B32046A16A8A
:100D9000884722E094F84010082088402840E0B1BD
:100DA00006F00800C8B12068006820F00E00216835
:100DB000086094F8401001208840E16B48600120F1
:100DC000A06384F8210000BF002084F8200000BF49
:100DD000206B10B12046216B884770BD080002408F
:100DE0000146002209B901207047164B0868C01A55
:100DF0001423B0FBF3F08000086412480838C8637D
:100E0000022081F821000868026843F6F0708243EE
:100E1000D1E901031843CB6818430B6918434B69A8
:100E200018438B691843CB69184302430868026072
:100E300000208863012081F82100002081F8200033
:100E400000BFD1E7080002402DE9F04104460D46FD
:100E500016461F464FF0000800BF94F820000128F6
:100E600002D10220BDE8F081012084F8200000BFFB
:100E700094F8210001282CD1022084F821000020C0
:100E8000A0632068006820F00100216808603B46EC
:100E9000324629462046FFF739FBE06A30B1206828
:100EA000006840F00E00216808600BE020680068D0
:100EB00020F00400216808602068006840F00A0003
:100EC000216808602068006840F00100216808601F
:100ED00006E000BF002084F8200000BF4FF00208A9
:100EE0004046BFE770B5044600F0B4F90646254613
:100EF000681C10B104480078054400BF00F0AAF94E
:100F0000801BA842FAD370BD6C0800207047000017
:100F100010B5044604480068204020B1024804602F
:100F20002046FFF7F3FF10BD140401402DE9F847F8
:100F300003460022944666E14FF0010808FA02F4E5
:100F4000D1F8008008EA0400A0427DD1DFF8CCA2ED
:100F5000D1F80480A8EB0A09D0453AD014DCB8F1E6
:100F6000030F50D009DCB8F1000F31D0B8F1010FF8
:100F70001CD0B8F1020F49D120E0B8F1110F18D000
:100F8000B8F1120F42D11EE0B9F5881F25D006DC5A
:100F9000B9F5803F20D0B9F5801F37D11AE0B9F5F7
:100FA000001F18D0B9F5041F30D117E0D1F80CC0DC
:100FB0002DE0D1F80C8008F1040C28E0D1F80C8069
:100FC00008F1080C23E0D1F80C8008F10C0C1EE0AD
:100FD00000BF00BF00BF00BF00BF00BFD1F8088046
:100FE000B8F1000F02D14FF0040C0BE0D1F80880EB
:100FF000B8F1010F03D14FF0080C1C6102E04FF073
:10100000080C5C6103E04FF0000C00E000BF00BF83
:10101000FF2801D8984601E003F104084646FF285E
:1010200002D84FEA820803E0A2F108084FEA8808D4
:101030004746D6F800804FF00F0909FA07F928EA69
:1010400009080CFA07F900E085E048EA0908C6F843
:101050000080D1F8048008F08058B8F1805F7AD120
:1010600000BFDFF8BC81D8F8188048F00108DFF82D
:10107000B091C9F81880C846D8F8188008F001085F
:10108000CDF8008000BF00BF4FEAB9384FEA92099F
:1010900058F829504FEA82784FEA18794FF00F0834
:1010A00008FA09F825EA0805DFF87881434502D1F6
:1010B0004FF000080FE0DFF87081434502D14FF098
:1010C000010808E0DFF86481434502D14FF00208CF
:1010D00001E04FF003084FEA82794FEA197908FAE4
:1010E00009F848EA0505DFF848814FEA920948F80F
:1010F0002950D1F8048008F48018B8F5801F0AD16F
:10110000DFF83081D8F8008048EA0008DFF8249141
:10111000C9F8008009E0DFF81C81D8F8008028EACF
:101120000008DFF81091C9F80080D1F8048008F4B5
:101130000018B8F5001F0FD1DFF8F88008F1040897
:10114000D8F8008048EA0008DFF8E89009F10409BF
:10115000C9F800800EE055E0DFF8D88008F10408F7
:10116000D8F8008028EA0008DFF8C89009F10409DF
:10117000C9F80080D1F8048008F40038B8F5003FC1
:101180000ED1DFF8B080A8F10408D8F8008048EA52
:101190000008DFF8A090A9F10409C9F800800DE06B
:1011A000DFF89080A8F10408D8F8008028EA000849
:1011B000DFF88090A9F10409C9F80080D1F8048013
:1011C00008F48038B8F5803F0ED1DFF86880A8F1C8
:1011D0000808D8F8008048EA0008DFF85890A9F11C
:1011E0000809C9F800800DE0DFF84880A8F1080878
:1011F000D8F8008028EA0008DFF83890A9F108093B
:10120000C9F80080521CD1F8008028FA02F8B8F121
:10121000000F7FF491AEBDE8F887000000001110C8
:101220000010024000080140000C01400010014085
:101230000800014008040140024693680B400BB1CE
:10124000012000E0002070470AB1016101E00B04B9
:10125000036170470148006870470000640800207F
:1012600070B504460CB9012070BD94F83D0028B952
:10127000002084F83C00204600F0DAF8242084F8AE
:101280003D002068006820F00100216808602068A7
:10129000006840F40040216808602068006820F47D
:1012A00000402168086000F0C5FB05465C496068A5
:1012B000884206D85B48854201D2012007E0002021
:1012C00005E05948854201D2012000E000200128B4
:1012D00000D1C9E75548B5FBF0F62068406820F01A
:1012E0003F003043216848604D496068884201D81A
:1012F000701C07E04FF4967070434FF47A71B0FBA6
:10130000F1F0401C2168096A21F03F01084321687F
:10131000086243496068884214D8681E61684900C1
:10132000B0FBF1F0401CC0F30B00042801D20420F4
:101330003DE0681E61684900B0FBF1F0401CC0F35D
:101340000B0034E0A06838B9681E616801EB410108
:10135000B0FBF1F0401C0AE0681E616801EBC102BD
:1013600002EB0111B0FBF1F0401C40F48040C0F3EF
:101370000B0008B901201AE0A06848B9681E61682E
:1013800001EB4101B0FBF1F0401CC0F30B000CE09D
:10139000681E616801EBC10202EB0111B0FBF1F0C4
:1013A000401CC0F30B0040F4804040F40040216832
:1013B000C9694CF6FF72914308432168C861D4E9BA
:1013C000070108432168096821F0C001084321682A
:1013D0000860D4E9031008432168896848F2FF32A5
:1013E0009143084321688860D4E9050108432168D6
:1013F000C96821F0FF0108432168C86020680068BF
:1014000040F001002168086000202064202084F85A
:101410003D000020206384F83E0000BF24E7000068
:10142000A086010080841E0000093D0040420F009C
:1014300010B586B0044600200290039004900590F9
:101440001B492068884231D100BF1A48806940F0AA
:101450000800184988610846806900F0080001907A
:1014600000BF00BF4FF44070029012200390002094
:1014700004900320059002A90F48FFF757FD00BF15
:101480000E49486840F0E06040F00200486000BF4C
:1014900000BF0848C06940F400100649C86108460A
:1014A000C06900F40010019000BF00BF06B010BD7D
:1014B0000054004000100240000C014000000140B8
:1014C00003480068034909780844014908607047E7
:1014D000640800206C08002010B50848006840F03F
:1014E000100006490860032000F0A8F80F2000F063
:1014F00007F800F02BF8002010BD0000002002408B
:1015000070B504460E4800784FF47A71B1FBF0F0E4
:101510000C490968B1FBF0F5284601F0CAF808B19A
:10152000012070BD102C07D200222146501E00F071
:1015300047F80548046001E00120F2E70020F0E7E9
:101540006C080020700800206808002008B500BF63
:101550001148806940F001000F49886108468069A0
:1015600000F00100009000BF00BF00BF0846C06946
:1015700040F08050C8610846C06900F0805000907B
:1015800000BF00BF00BF0549486820F0E06040F0A0
:101590000070486000BF08BD00100240000001401C
:1015A00001460846002809DB00F01F0301229A408B
:1015B00043099B0003F1E023C3F8002100BF7047FB
:1015C0002DE9F05F80460D461646002702F0F8FF31
:1015D000074639462A46334601F00700C0F1070A9C
:1015E000BAF1040F02D94FF0040A01E0C0F1070A72
:1015F000D14600F1040ABAF1070F02D24FF0000AF7
:1016000001E0A0F1030AD4464FF0010A0AFA09FAF0
:10161000AAF1010A0AEA020A0AFA0CFA4FF0010BCF
:101620000BFA0CFBABF1010B0BEA030B4AEA0B04C0
:101630002146404602F0CCFFBDE8F09F00BF00F01D
:101640000702064B19684FF6FF031940044B0B4382
:1016500043EA0221014B196000BF70470CED00E026
:101660000000FA05012001490862704700000E429F
:101670002DE9F04706464FF000080025002700241A
:10168000A146012E31D0022E56D0102E5FD1324805
:101690004468006800F0807008B33048C4F38341A8
:1016A000475C04F4803078B12B484068C0F3404078
:1016B0002B4911F8008004F4803040B12948B0FB78
:1016C000F8F000FB07F502E0274807FB00F5224889
:1016D000406800F48000B0F5800F01D1A94603E016
:1016E00068000321B0FBF1F932E01B48046A04F4FE
:1016F0004070B0F5807F05D104F0020010B14FF4C6
:10170000004918E004F44070B0F5007F07D112489A
:10171000406A00F0020010B149F640490BE004F4C1
:101720004070B0F5407F06D10B48006800F40030EF
:1017300008B14FF224490BE000F08CF906494968E2
:10174000C1F38131491C4900B0FBF1F900E000BF51
:1017500000BF4846BDE8F08700100240D24C0008A8
:10176000E24C000800127A0000093D00F8B504467A
:1017700000260025207800F0010000286BD000270B
:101780004348C06900F0805070B900BF4048C0694C
:1017900040F080503E49C8610846C06900F0805062
:1017A000009000BF00BF01273A48006800F4807035
:1017B000B0B93848006840F4807036490860FFF7D7
:1017C00049FD064606E0FFF745FD801B642801D968
:1017D0000320F8BD2F48006800F480700028F2D084
:1017E0002B48006A00F440752DB3A08800F44070C7
:1017F000A84220D02648006A20F4407501202649DE
:101800000860002008602248056205F0010090B1E0
:10181000FFF720FD064608E0FFF71CFD801B41F2A4
:101820008831884201D90320D3E71948006A00F0C3
:1018300002000028F0D01648006A20F44070616869
:10184000084313490862012F04D10846C06920F0FB
:101850008050C86100BF207800F00200022807D144
:101860000B48406820F44040A1680843084948609C
:10187000207800F01000102807D10548406820F4B7
:101880008000E1680843024948600020A1E70000A9
:1018900000100240007000404004424270B504460F
:1018A0000D460CB9012070BD5A48006800F00700D1
:1018B000A8420ED25748006820F007002843554937
:1018C00008600846006800F00700A84201D0012027
:1018D000E9E7207800F0020002281DD1207800F00E
:1018E0000400042805D14C48406840F4E0604A49AF
:1018F0004860207800F00800082805D14648406874
:1019000040F46050444948604348406820F0F0008B
:10191000A168084340494860207800F0010078B38E
:101920006068012806D13C48006800F4003090B996
:101930000120B8E76068022806D13748006800F047
:10194000007040B90120AEE73348006800F00200A3
:1019500008B90120A7E73048406820F0030061681B
:1019600008432D494860FFF775FC064609E0FFF77C
:1019700071FC801B41F28831884202D9032092E732
:1019800007E02548406800F00C006168B0EB810F6B
:10199000EDD12048006800F00700A8420ED91D488C
:1019A000006820F0070028431A49086008460068CC
:1019B00000F00700A84201D0012074E7207800F071
:1019C0000400042807D11448406820F4E060E1686E
:1019D000084311494860207800F00800082808D121
:1019E0000D48406820F46050216940EAC1000A496E
:1019F000486000F03FF808494968C1F30311074AFD
:101A0000515CC8400649086006480068FFF778FD49
:101A1000002048E70020024000100240E44C00088B
:101A20007008002068080020014800687047000026
:101A30007008002000B5FFF7F7FF04494968C1F3BB
:101A40000221034A515CC84000BD00000010024062
:101A5000F44C000800B5FFF7E7FF04494968C1F3FB
:101A6000C221034A515CC84000BD00000010024082
:101A7000F44C000870B5002100220024002300204F
:101A8000134D696801F00C05F5B1042D02D0082D45
:101A900019D101E00F4819E00F4DC1F38346AB5D4A
:101AA00001F4803555B10A4D6D68C5F340450B4EC4
:101AB000725D084D5D43B5FBF2F402E0084D03FB97
:101AC00005F4204602E000BF024800BF00BF70BD21
:101AD0000010024000127A00C04C0008D04C0008F0
:101AE00000093D00F8B504460CB90120F8BD207886
:101AF00000F00100002878D0F848406800F00C00A1
:101B000004280CD0F548406800F00C00082811D1DA
:101B1000F248406800F48030B0F5803F0AD1EF48C9
:101B2000006800F4003000285FD0606800285CD1B5
:101B30000120DBE700BF6068B0F5803F06D1E748D1
:101B4000006840F48030E549086028E0606858B9D2
:101B5000E248006820F48030E049086008460068E8
:101B600020F4802008601AE06068B0F5A02F0BD147
:101B7000DA48006840F48020D849086008460068C8
:101B800040F4803008600AE0D448006820F48030D7
:101B9000D24908600846006820F48020086000BF31
:101BA000606888B1FFF756FB054606E0FFF752FB79
:101BB000401B642801D9032098E7C848006800F456
:101BC00000300028F2D010E0FFF744FB054606E0A5
:101BD000FFF740FB401B642801D9032086E7BF487C
:101BE000006800F400300028F2D1207800F00200F4
:101BF000022857D1B948406800F00C0050B1B748EE
:101C0000406800F00C00082818D1B448406800F47F
:101C1000803098B9B148006800F0020020B1206916
:101C2000012801D0012061E7AC48006820F0F800ED
:101C3000616940EAC100A949086033E02069E8B160
:101C40000120A7490860FFF705FB054606E0FFF7FE
:101C500001FB401B022801D9032047E79F48006889
:101C600000F002000028F2D09C48006820F0F80044
:101C7000616940EAC1009949086013E00020984971
:101C80000860FFF7E7FA054606E0FFF7E3FA401BB6
:101C9000022801D9032029E79048006800F00200DB
:101CA0000028F2D1207800F0080008282DD1A06982
:101CB000B8B101208B490860FFF7CCFA054606E071
:101CC000FFF7C8FA401B022801D903200EE783481A
:101CD000406A00F002000028F2D0012001F048FE26
:101CE00013E000207F490860FFF7B4FA054606E0DC
:101CF000FFF7B0FA401B022801D90320F6E6774827
:101D0000406A00F002000028F2D1207800F00400C0
:101D1000042873D100277148C06900F0805070B961
:101D200000BF6E48C06940F080506C49C8610846E9
:101D3000C06900F08050009000BF00BF01276A48D2
:101D4000006800F48070B0B96748006840F48070A3
:101D500065490860FFF77EFA054606E0FFF77AFA64
:101D6000401B642801D90320C0E65F48006800F4E6
:101D700080700028F2D000BFE068012806D15748E3
:101D8000006A40F001005549086227E0E06858B950
:101D90005248006A20F00100504908620846006A73
:101DA00020F00400086219E0E06805280BD14B48D8
:101DB000006A40F00400494908620846006A40F0A1
:101DC000010008620AE04548006A20F0010043492A
:101DD00008620846006A20F00400086200BFE0685C
:101DE000A0B1FFF737FA054609E0FFF733FA401BC9
:101DF00041F28831884202D9032077E622E0374851
:101E0000006A00F002000028EFD012E0FFF722FA8B
:101E1000054608E0FFF71EFA401B41F28831884270
:101E200001D9032062E62D48006A00F00200002874
:101E3000F0D1012F05D12948C06920F080502749F1
:101E4000C86100BFE069C8B32448406800F00C00D6
:101E5000082860D0E069022848D10020204908669F
:101E6000FFF7F8F9054606E0FFF7F4F9401B0228F2
:101E700001D903203AE61948006800F000700028F4
:101E8000F2D1206AB0F5803F07D11448406820F4B1
:101E90000030A168084311494860D4E908010843AB
:101EA0000E49496821F4741108430C494860012027
:101EB0000B490866FFF7CEF9054607E03DE0FFF75E
:101EC000C9F9401B022801D903200FE60348006826
:101ED00000F000700028F2D02FE000000010024057
:101EE0000000424280044242007000400020144939
:101EF0000866FFF7AFF9054606E0FFF7ABF9401BB0
:101F0000022801D90320F1E50E48006800F00070B6
:101F10000028F2D111E0E069012800D1E6E5094886
:101F2000466806F48031206A814204D106F47011BB
:101F3000606A814201D00120D8E50020D6E500008A
:101F4000000042420010024070B5044600250CB962
:101F5000012070BD607C20B900202074204600F074
:101F600053F802206074204600F058F918B104209C
:101F700060740120EDE7204601F019FD18B104203E
:101F800060740120E5E72068406820F007002168C0
:101F90004860A06828B11B48006820F0010019497A
:101FA00008601848001F006820F46070A1680843AA
:101FB0001449091F08606068401C08B1656809E0A1
:101FC0000120FFF755FB05461DB904206074012070
:101FD000BFE76D1EC5F3034021688860A8B2216881
:101FE000C860204601F000FD18B104206074012093
:101FF000AFE70021E17301216173A17301206074D7
:102000000020A6E7306C004038B504460B49206834
:10201000884212D1FFF726FB00BF0948C06940F093
:1020200000600749C8610846C06900F00060009080
:1020300000BF00BF01200349086038BD00280040F0
:10204000001002403C0442422DE9F04704460D4690
:10205000904600260027B14604B115B90120BDE81D
:10206000F08700BF207C012801D10220F7E7012082
:10207000207400BF02206074B8F1000F06D1E97827
:10208000E17369786173A978A1730BE0E87801F0D6
:1020900083FCE073687801F07FFC6073A87801F03E
:1020A0007BFCA073A27B617BE07B01F0E0FC2073F2
:1020B000207B2870204601F0C0FC06464FF461608A
:1020C000B6FBF0F9B9F1180F2FD91820B9FBF0F0D1
:1020D00000EB4000C000C0EB4011C1EB0020A6EBBC
:1020E00000163146204601F01BFD38B10420607413
:1020F00000BF0020207400BF0120B0E7204601F09F
:1021000090FC0746781C80B1B7420ED20B480744BA
:102110003946204601F0EDFC38B10420607400BF60
:102120000020207400BF012099E70120607400BFE7
:102130000020207400BF00BF91E700008051010023
:102140002DE9F04704460D4690460026002704B1CD
:1021500015B90120BDE8F08700BF207C012801D11E
:102160000220F7E70120207400BF02206074B8F15C
:10217000000F0BD128784FF4616148436978C1EBB7
:10218000011100EB8100A978461812E0287801F0CF
:1021900003FC4FF4616100FB01F9687801F0FCFB7E
:1021A000C0EB001009EB8009A87801F0F5FB09EB02
:1021B00000063146204601F0B3FC38B104206074BB
:1021C00000BF0020207400BF0120C3E720684068E2
:1021D00020F0050021684860204601F022FC0746F7
:1021E000781C80B1B7420ED20B48074439462046CE
:1021F00001F07FFC38B10420607400BF002020741F
:1022000000BF0120A6E70120607400BF00202074F9
:1022100000BF00BF9EE700008051010070B504467A
:1022200000250CB9012070BD2068406820F008002E
:1022300021684860FFF70EF8054607E0FFF70AF847
:10224000401BB0F57A7F01D90320ECE72068406895
:1022500000F008000028F1D00020E4E7704710B536
:1022600004460CB9012010BD606A38B96068B0F549
:10227000827F00D105E00021E16102E000212161BF
:1022800061610021A16294F8510028B9002084F80E
:102290005000204600F042F8022084F851002068E7
:1022A000006820F0400021680860A08800F4827077
:1022B000218901F404410843A18901F40061084324
:1022C000217C01F002010843217D01F00101084356
:1022D000218B01F400710843217F01F0380108438C
:1022E0002021095D01F080010843218D01F4005196
:1022F0000843216808600421A06901EA10402168B0
:1023000048602068C06920F400602168C86100202E
:102310006065012084F851000020A4E710B586B064
:1023200004460020029003900490059026492068FE
:10233000884246D100BF2548806940F48050234937
:1023400088610846806900F48050019000BF00BF9A
:1023500000BF0846806940F0040088610846806933
:1023600000F00400019000BF00BFA02002900220F6
:1023700003900320059002A91548FEF7D7FD4020E1
:10238000029000200390049002A91148FEF7CEFDB0
:102390001048114908601020486000210E488160F3
:1023A0008021C1600021016141618161C161FEF74D
:1023B00017FD08B1FEF7B8FA00BF0748A0644462F1
:1023C00000BF06B010BD0000003001400010024008
:1023D0000008014030000240F00900202DE9F843D8
:1023E00004460F4616461D46FEF734FF8046B146AA
:1023F00094F85100012802D00220BDE8F88307B10B
:102400000EB90120F9E700BF94F85000012801D16E
:102410000220F2E7012084F8500000BF032084F876
:102420005100002060652763A686E686A063A0872A
:10243000E08760642064A068B0F5004F0BD120688D
:10244000006820F04000216808602068006840F4BF
:102450008040216808602068006800F04000402843
:1024600005D02068006840F0400021680860E068FE
:10247000B0F5006F37D1606810B1B9F1010F09D123
:10248000206B00882168C860206B801C2063E08E70
:10249000401EE08623E02068806800F002000228E9
:1024A0000AD1206B00882168C860206B801C2063E3
:1024B000E08E401EE08612E0FEF7CCFEA0EB0800A6
:1024C000A84201D3681C00B94DB9012084F851001D
:1024D00000BF002084F8500000BF03208DE7E08E8D
:1024E0000028D8D136E0606810B1B9F1010F09D1E8
:1024F000206B007821680873206B401C2063E08EFD
:10250000401EE08623E02068806800F00200022878
:102510000AD1206B007821680873206B401C20636F
:10252000E08E401EE08612E0FEF794FEA0EB08006D
:10253000A84201D3681C00B94DB9012084F85100AC
:1025400000BF002084F8500000BF032055E7E08E54
:102550000028D8D142462946204601F0A9FB08B1FF
:1025600020206065A06850B900BF0020009020685E
:10257000C068009020688068009000BF00BF012004
:1025800084F8510000BF002084F8500000BF606D47
:1025900008B1012031E700202FE700002DE9F041CC
:1025A00004460E46154694F85100012802D0022038
:1025B000BDE8F08106B10DB90120F9E700BF94F83C
:1025C0005000012801D10220F2E7012084F85000D8
:1025D00000BF032084F85100002060652663A586B3
:1025E000E586A06360642064A087E087A068B0F5FA
:1025F000004F0BD12068006820F04000216808607F
:102600002068006840F48040216808601F48A16C81
:10261000C8621F48A16C88621E48A16C0863002034
:10262000A16C4863E38E276807F10C02216BA06C54
:10263000FEF70AFC50B1606D40F01000606500BF0D
:10264000002084F8500000BF0120B1E72068006836
:1026500000F04000402805D02068006840F04000AD
:102660002168086000BF002084F8500000BF206887
:10267000406840F02000216848602068406840F0D1
:10268000020021684860002092E70000253C000815
:10269000333C0008FD3B0008034A0168914202D127
:1026A0000021024A11707047003001407408002078
:1026B000704770B504462546681EB0F1807F01D38F
:1026C00001200FE0681E4FF0E02148610F214FF01C
:1026D000FF3001F07DFF00204FF0E02188610720EE
:1026E0000861002070BD70477047000030B5024699
:1026F0000B4600BF92F83C00012801D1022030BDFA
:10270000012082F83C0000BF022082F83D001068E2
:1027100044681068816824F07004186804431068E5
:1027200044600E4D1068A84207D01068B0F1804F89
:1027300003D00B4D1068A84205D121F080015868E4
:10274000014310688160012082F83D0000BF002035
:1027500082F83C0000BF00BFD1E70000002C014020
:102760000004004010B504460CB9012010BD94F8D7
:102770003D0028B9002084F83C00204600F026F8EF
:10278000022084F83D00211D206801F04FFD01204A
:1027900084F8460000BF84F83E0001213F20015527
:1027A000402001554120015500BF00BF012084F8A1
:1027B000420043200155442001554520015500BFEA
:1027C000012084F83D000020D0E7000038B5044621
:1027D0002068B0F1804F15D100BF0B48C06940F0B0
:1027E00001000949C8610846C06900F00100009075
:1027F00000BF00BF002211461C20FEF7E1FE1C2096
:10280000FEF7CEFE38BD000000100240014691F8F0
:102810003D00012801D001207047022081F83D00D1
:102820000868C06840F001000B68D860104B086869
:10283000984207D00868B0F1804F03D00D4B08686C
:1028400098420CD10868806800F00702062A0CD074
:102850000868006840F001000B68186005E008682F
:10286000006840F001000B6818600020D4E7000009
:10287000002C01400004004001460868C06820F0B8
:1028800001000A68D06000BF0868006A41F21112B6
:10289000104050B90868006A9210104028B90868C2
:1028A000006820F001000A68106000BF012081F874
:1028B0003D00002070472DE9F04104460D460027F9
:1028C00000BF94F83C00012802D10220BDE8F0814D
:1028D000012084F83C0000BF022084F83D002068FD
:1028E000866826F0770626F47F462068866028688A
:1028F000502833D00CDC202850D004DC00284BD0EA
:10290000102851D149E0302849D040284CD139E035
:1029100060282DD0702807D0B0F5805F03D0B0F5C7
:10292000005F41D10DE041E0D5E902136A682068FB
:1029300001F0C7FC2068866846F07706206886604C
:1029400034E0D5E902136A68206801F0BAFC206817
:10295000806840F480402168886027E0EA68696800
:10296000206801F0C2FC5021206801F0B5FC1DE098
:10297000EA686968206801F0CBFC6021206801F0FA
:10298000ABFC13E0EA686968206801F0AEFC402106
:10299000206801F0A1FC09E000BF00BF00BF29686A
:1029A000206801F099FC01E0012700BF00BF012071
:1029B00084F83D0000BF002084F83C0000BF38468A
:1029C00084E72DE9F04104460D4614B90120BDE825
:1029D000F08194F83D0028B9002084F83C0020469E
:1029E00000F052F8022084F83D002068806844F22C
:1029F0000701884321688860211D206801F016FCCA
:102A00002068D0F80880206886692068076A2868EE
:102A100040EA080840F203308643A969A86840EA02
:102A20000120064340F60C4086434FF2F0008643F7
:102A3000E969E86840EA0120064328690001296A3B
:102A400040EA0130064327F022076969686840EAD6
:102A5000011007432068C0F808802068866120685C
:102A60000762012084F8460084F83E0001213F20DF
:102A70000155012084F8420043200155012084F8CB
:102A80003D000020A3E7000010B586B004460020FA
:102A9000029003900490059015492068884225D142
:102AA00000BF1448806940F40060124988610846FC
:102AB000806900F40060019000BF00BF00BF0846BD
:102AC000806940F0040088610846806900F00400D5
:102AD000019000BF00BF4FF44070029000200390AF
:102AE0000120049002A90448FEF720FA06B010BDA8
:102AF000002C014000100240000801402DE9F04385
:102B000004460D4694F83E603F20075D94F84280ED
:102B1000432010F804906DB9012E02D1B8F1010FD5
:102B200002D00120BDE8F083022084F83E0084F842
:102B3000420025E0042D0CD1012F02D1B9F1010F83
:102B400001D00120EEE702213F200155432001552D
:102B500016E0012E07D1012F05D1B8F1010F02D1E6
:102B6000B9F1010F01D00120DCE7022084F83E001A
:102B700002213F200155022084F8420043200155E4
:102B800015B1042D0CD105E001220021206801F0CF
:102B900087FB10E001220421206801F081FB0AE09C
:102BA00001220021206801F07BFB01220421206822
:102BB00001F076FB00BF00BF2068006840F0010014
:102BC000216808600020ADE7704770B504462068B2
:102BD000C5682068066906F00200022819D105F0D0
:102BE0000200022815D1401F2168086101202077CA
:102BF0002068806900F0030018B12046FFF7E4FF69
:102C000005E0204600F097F8204600F095F80020F7
:102C1000207706F00400042819D105F004000428E8
:102C200015D1C0432168086102202077206880699F
:102C300000F4407018B12046FFF7C6FF05E02046BB
:102C400000F079F8204600F077F80020207706F0B1
:102C50000800082819D105F00800082815D1C0433C
:102C600021680861042020772068C06900F0030013
:102C700018B12046FFF7A8FF05E0204600F05BF8FA
:102C8000204600F059F80020207706F010001028A8
:102C900019D105F01000102815D1C0432168086132
:102CA000082020772068C06900F4407018B12046E1
:102CB000FFF78AFF05E0204600F03DF8204600F0CF
:102CC0003BF80020207706F0010048B105F0010034
:102CD00030B16FF0010021680861204600F02EF845
:102CE00006F08000802809D105F08000802805D1F9
:102CF000C043216808612046FFF7F5FC06F040005C
:102D0000402809D105F04000402805D1C043216882
:102D10000861204600F026F806F02000202809D19E
:102D200005F02000202805D1C04321680861204615
:102D3000FFF7DAFC70BD7047704700000168B1F121
:102D4000804F0CD1064909680A22B1FBF2F302FB5D
:102D50001311034A116011460968491C116070473C
:102D600000000020704710B504460CB9012010BDCA
:102D7000A06900B100E000BF94F8410028B900202C
:102D800084F84000204600F029F8242084F841000F
:102D90002068C06820F400502168C860204601F017
:102DA00039FB2068006920F49040216808612068A0
:102DB000406920F02A00216848612068C06840F41A
:102DC00000502168C86000206064202084F8410021
:102DD00084F842000020606300BFC8E710B586B0E9
:102DE0000446002002900390049005901E4920683C
:102DF000884236D100BF1D48806940F480401B499D
:102E000088610846806900F48040019000BF00BFDF
:102E100000BF0846806940F0080088610846806964
:102E200000F00800019000BF00BF40200290022087
:102E300003900320059002A90D48FEF777F8802043
:102E4000029000200390049002A90948FEF76EF852
:102E500000BF0849486840F0E06040F00400486066
:102E600000BF06B010BD0000003801400010024055
:102E7000000C0140000001402DE9F84F04460E46C9
:102E8000174699464FF0000A94F84100202850D187
:102E900006B117B90120BDE8F88F00206064212039
:102EA00084F84100FEF7D6F98246A784E784A0683B
:102EB000B0F5805F04D1206910B90025B04602E06A
:102EC00035464FF000081EE0534600228021204680
:102ED000CDF8009001F01CFB20B1202084F84100C7
:102EE0000320D8E745B9B8F80000C0F3080021680E
:102EF000486008F1020803E02878216848606D1CEA
:102F0000E08C401EE084E08C0028DDD15346002296
:102F100040212046CDF8009001F0FAFA20B120209F
:102F200084F841000320B6E7202084F84100002007
:102F3000B1E70220AFE700BFFEE700000EB50020BA
:102F4000009001900290114811490860002110483A
:102F50008160017301754FF46021C16100200C494B
:102F6000486001210A480161FDF792FD08B1FDF7B3
:102F7000DBFC01200090019000200290694604488B
:102F8000FDF7D6FC08B1FDF7CFFC0EBD00240140D3
:102F90000009002008B500BF0A48406940F0010060
:102FA000084948610846406900F00100009000BFF0
:102FB00000BF002211460D20FEF702FB0D20FEF798
:102FC000EFFA08BD0010024000B585B00020019066
:102FD00002900390049000BF3A48806940F01000CE
:102FE000384988610846806900F01000009000BFF1
:102FF00000BF00BF0846806940F020008861084695
:10300000806900F02000009000BF00BF00BF0846AC
:10301000806940F0040088610846806900F004007F
:10302000009000BF00BF00BF0846806940F0080064
:1030300088610846806900F00800009000BF00BF6A
:1030400000221C212048FEF7FFF800224FF44061C7
:103050001E48FEF7F9F8012001901D480290022059
:10306000039001A91848FDF761FF1C200190012081
:103070000290002003900220049001A91248FDF75D
:1030800055FF4FF440600190012002900220039010
:10309000049001A90D48FDF749FF4FF470400190DD
:1030A00000200290039001A90848FDF73FFF00228D
:1030B00005210620FEF784FA0620FEF771FA05B016
:1030C00000BD00000010024000080140000C01405B
:1030D0000000111010B50B480B4908600B48486000
:1030E000002109488160C1604FF4804101610021E5
:1030F00041618161C1610162FEF7B2F808B1FDF77B
:1031000013FC10BD0054004030090020A0860100CF
:103110001CB50020019000901848194908604FF034
:10312000FF3048604FF4807115488160FEF70CFF56
:1031300008B1FDF7F9FB00208DF804008DF80500BB
:103140008DF80600012201A90D48FEF7F9FF08B12C
:10315000FDF7EAFB01208DF800008DF801008DF8E5
:10316000020000208DF80300012269460448FEF7A2
:103170006BFF08B1FDF7D8FB1CBD00000028004024
:103180008409002010B50E480E4908604FF4827083
:10319000486000210B488160C160016141614FF4CA
:1031A000007181610821C161002101624162816277
:1031B0000A21C162FFF753F808B1FDF7B5FB10BD56
:1031C000003001409809002000B58BB0242102A8EE
:1031D000FCF7F2FF0020009001901A481A4908609D
:1031E000002048600021184881604FF6FF71C160DF
:1031F0000021016141618161032002900020039060
:1032000001200490002005900F20069000200790D8
:1032100001200890002009900F200A9002A90A4876
:10322000FFF7CFFB08B1FDF77FFB00200090019076
:1032300069460548FFF75AFA08B1FDF775FB0BB070
:1032400000BD0000002C0140340A002000B587B00A
:1032500000200390049005900690019002904FF09A
:1032600080401449086041F61F4048600021114821
:1032700081604FF47A71C160002101618161FFF7C3
:1032800071FA08B1FDF750FB4FF48050039003A989
:103290000848FFF710FB08B1FDF746FB002001903E
:1032A000029001A90348FFF721FA08B1FDF73CFBA2
:1032B00007B000BD7C0A002010B50B480B49086020
:1032C0004FF4E1304860002108488160C16001612D
:1032D0000C21416100218161C161FFF744FD08B10A
:1032E000FDF722FB10BD000000380140C40A002099
:1032F00000BFFEE700BFFEE710B5002004E000219C
:10330000044A1154411C88B2B0F5806FF7DB00F01D
:10331000F1F810BD0C0B002010B504461CB90021BB
:10332000A62000F0BBFA012C03D10021A72000F059
:10333000B5FA10BD10B500218D2000F0AFFA0021C4
:10334000142000F0ABFA0021AF2000F0A7FA10BD66
:1033500010B504463CB90021C82000F09FFA0021B6
:10336000A12000F09BFA012C07D10021C02000F021
:1033700095FA0021A02000F091FA10BDF0B50346A7
:1033800016467F2B01DC3F2900DDF0BD0D46CF172F
:1033900001EB5777C7F3CF02CF1701EB5777FF1039
:1033A000A1EBC707FCB203EBC215A8B23EB1084DB2
:1033B0002D5C0127A7403D43054F3D5406E0044DD9
:1033C0002D5C0127A740BD43014F3D5400BFDCE702
:1033D0000C0B002010B5002210213F48FDF734FFF0
:1033E000C820FDF77FFD012210213B48FDF72CFF8F
:1033F0000021AE2000F052FA0021084600F04EFAFB
:103400000021102000F04AFA0021402000F046FA86
:103410000021812000F042FA0021CF2000F03EFA86
:103420000021A12000F03AFA0021C82000F036FA6D
:103430000021A62000F032FA0021A82000F02EFA88
:1034400000213F2000F02AFA0021D32000F026FAC4
:103450000021084600F022FA0021D52000F01EFAD3
:103460000021802000F01AFA0021D92000F016FA7D
:103470000021F12000F012FA0021DA2000F00EFA0B
:103480000021122000F00AFA0021DB2000F006FAE9
:103490000021402000F002FA0021202000F0FEF977
:1034A0000021022000F0FAF900218D2000F0F6F949
:1034B0000021142000F0F2F90021A42000F0EEF920
:1034C0000021A62000F0EAF9FFF716FF0021AF2047
:1034D00000F0E4F910BD00000008014010B50246FC
:1034E000012000E050430B1EA1F10104E1B2F9D12B
:1034F00010BD000010B5002412E004F1B001C8B204
:1035000000F0F2F9002000F0EFF9102000F0ECF9E3
:10351000054901EBC410802100F002FA601CC4B21E
:10352000082CEADB10BD00000C0B00202DE9FE4F3B
:103530000746884692461C460197CDF80080082C25
:1035400002D14FF006091FE02046E31704EB537346
:10355000DB1021464FEAE47C04EB5C7C4FEAEC0C88
:10356000A4EBCC0CBCF1000F02D04FF0010C01E039
:103570004FF0000C6344224604EBD27C4FEA6C0C03
:1035800003FB0CF303F0FF09AAF12000C6B20025EB
:1035900060E0082C06D00C2C0CD0102C12D0182C6B
:1035A0001ED115E006EB46002C4901EB400010F857
:1035B00005B017E006EB4600294901EB800010F842
:1035C00005B00FE0274800EB061010F805B009E041
:1035D00006EBC600244901EB800010F805B001E0BD
:1035E000BDE8FE8F00BF002002901CE00BF0010040
:1035F00028B1414638460C9AFFF7C0FE09E00C9806
:1036000008B9012000E00020024641463846FFF795
:10361000B5FE4FEA6B0B08F1010000F0FF080298BD
:10362000401CC0B2029002980828DFDB781CC7B2A9
:10363000082C0BD004EBD4714A100199791A8A42F4
:1036400004D1019F00980830C0B20090DDF80080DE
:10365000681CC5B24D459CDB00BFC1E7FC4C0008AF
:10366000244F000898530008885900082DE9FF4F9F
:1036700082B0064691461F46DDE90F4A4FF0000B27
:10368000082C01D14FF0020B002530E0781B401EC2
:10369000C1B20A20FFF722FFB9FBF0F00A21B0FB0C
:1036A000F1F201FB1208B8F1000F0ED104EBD47156
:1036B0000BEB610101FB0561C8B223463022CDE965
:1036C00000A40399FFF732FF0FE004EBD4710BEB7A
:1036D000610101FB0561C8B208F13001CAB223469D
:1036E000CDE900A40399FFF721FF681CC5B2BD42D4
:1036F000CCDB06B0BDE8F08F2DE9FF4F05460E4646
:1037000017461C46DDF838904FF0000A0095B34686
:103710002046E21704EB5272D2102146E31704EB65
:103720005373DB10A4EBC3030BB1012300E00023B0
:103730001A44D4B24FF0000845E0002003903BE06B
:103740000D9810F80A0002900AF101001FFA80FAA1
:10375000002001901DE0029800F0010028B14A46C7
:1037600031462846FFF70AFE0AE0B9F1000F01D101
:10377000012000E00020024631462846FFF7FEFD0A
:10378000029840100290701CC6B20198401CC0B252
:10379000019001980828DEDB681CC5B20098281A41
:1037A000B84204D1009D0BF1080000F0FF0B5E460B
:1037B0000398401CC0B203900398B842C0DB08F1E4
:1037C000010000F0FF08A045B7DBBDE8FF8F2DE941
:1037D000F84106460F4614461D46DDF81C8013E0EE
:1037E000CDF8008022782B4639463046FFF79EFE02
:1037F000082D02D1B01DC6B205E0284605EBD071F8
:1038000006EB6101CEB2641C2078202802DB207810
:103810007E28E5DDBDE8F8812DE9FC4705460E462A
:1038200017461C46DDF828803C20B7FBF0F9B7FBB3
:10383000F0F100FB117A0120164918231A46CDE950
:10384000001031462846FFF757FF321DD1B205F16F
:103850001C02D0B202234A46CDE90048FFF706FF1A
:10386000F21CD1B205EB44020C32D0B223460AA2BC
:10387000CDF80080FFF7ABFF321DD1B205EB44025B
:103880001432D0B202235246CDE90048FFF7EEFED3
:10389000BDE8FC87404C00083A00000013B50C4618
:1038A000012C05D1012208210D48FDF7CDFC04E0D3
:1038B000002208210A48FDF7C7FC0022042108481D
:1038C000FDF7C2FC4FF0FF33012269460548FEF7C1
:1038D00085FD012204210248FDF7B6FC1CBD000055
:1038E000000801409809002001B5002208210A487B
:1038F000FDF7AAFC002204210748FDF7A5FC4FF0C4
:10390000FF33012269460548FEF768FD01220421C4
:103910000148FDF799FC08BD000801409809002006
:1039200070B504460D46012208210D48FDF78CFCB8
:10393000002204210A48FDF787FC0120094908708C
:103940002A4621460848FEF729FE00BF05480078B0
:103950000028FBD1012204210148FDF775FC70BD50
:1039600000080140740800209809002070470000FA
:1039700008B508490968C9084FF47A72B1FBF2F139
:103980004143009100BF00BF00994A1E00920029E8
:10399000F9D108BD70080020014600BF080900EBFE
:1039A0008000420001F00F001044C0B2704770B5B3
:1039B00004460025FDF74EFC054607E0FDF74AFCEE
:1039C000401BB0F57A7F01D9032070BD20684068A4
:1039D00000F020000028F1D02068406840F010007E
:1039E000216848600020F0E770B504460025206893
:1039F000406820F0100021684860FDF72BFC054668
:103A000007E0FDF727FC401BB0F57A7F01D90320C2
:103A100070BD2068406800F020000028F1D0002030
:103A2000F6E70146002200230868006A82B20868AF
:103A3000406A83B243EA0240704730B50146002233
:103A40000023002400200D68AD69AAB20D68ED695D
:103A5000ACB20D68AD69ABB29A4205D00D68ED69A4
:103A600063F31F45284601E044EA024030BDF0B54B
:103A700004460B460021002504F5FA61032B1BD2F6
:103A8000C3EBC30000EB03100926B0FBF6F01044B3
:103A9000001D4618481E06EB90066427B0FBF7F0A1
:103AA000361A481EBF00B0FBF7F030440726B0FBC3
:103AB000F6F706FB17051AE0C3EBC30000EB031093
:103AC0000926B0FBF6F01044001D084400EB9100FD
:103AD0006426B1FBF6F6801B4FF4C876B1FBF6F610
:103AE0003044801E0726B0FBF6F706FB1705E8B248
:103AF000F0BD70B504460D4600262046FFF757FF7F
:103B000008B101260AE0280C21680862A8B22168E1
:103B100048622046FFF768FF00B10126304670BDBD
:103B200070B504460D4600262046FFF740FF08B159
:103B300001260AE0280C21688861A8B22168C861C2
:103B40002046FFF751FF00B10126304670BD00004E
:103B500038B504460B480068406A00900C21009874
:103B600090FBF1F000900098042804DB0020009006
:103B7000044909684862224669460348FCF746FE44
:103B800038BD0000340A0020193E000810B5044674
:103B900001211448FDF750FB01281DD1FDF75AFB08
:103BA00011490968401A322812D91048007880F06B
:103BB00001000E49087000200D4908600B4800788C
:103BC00018B10C48FEF722FE02E00A48FEF754FE48
:103BD000FDF740FB04490860224604490648FCF70B
:103BE00015FE10BD000801404808002044080020D0
:103BF000000000207C0A00201541000870B5054631
:103C00006C6A2068406820F0030021684860606D9D
:103C100040F010006065012084F851002046FEF756
:103C20001DFB70BD70B50446656A2846FEF740FD71
:103C300070BDF8B505466C6AFDF70CFB06462868B2
:103C4000006800F0200020282DD02068406820F077
:103C50002000216848602068406820F00200216848
:103C6000486032466421204600F022F818B1606DA9
:103C700040F020006065A06850B900BF00200090AF
:103C80002068C068009020688068009000BF00BF76
:103C90000020E086012084F85100606D18B12046B4
:103CA000FEF7DCFAF8BD2046FEF7F6FC00BFF9E7A8
:103CB000F8B504460E461546334601220221204639
:103CC000009500F017F828B1606D40F020006065A5
:103CD0000320F8BD3346002280212046009500F0E5
:103CE00009F828B1606D40F0200060650320F0E71E
:103CF0000020EEE72DE9F84F04460D4690461E469B
:103D0000DDF82890FDF7A6FAA0EB0900371AFDF7B9
:103D1000A1FA82462C480068C0F3CB30784300906B
:103D200045E0701C002842D0FDF794FAA0EB0A0091
:103D3000B84200D2A7BB2068406820F0E0002168AC
:103D400048606068B0F5827F0DD1A068B0F5004F83
:103D500003D0A068B0F5806F05D12068006820F01E
:103D6000400021680860A06AB0F5005F0DD100BF77
:103D70002068006820F4005021680860206800680E
:103D800040F400502168086000BF012084F8510011
:103D900000BF002084F8500000BF0320BDE8F88F6A
:103DA000FFE7009800B900270098401E00902068A7
:103DB00080682840A84201D1012000E00020404551
:103DC000AFD10020EAE70000700800207047000033
:103DD0001CB504460E480088401C0D490880084662
:103DE0000088072190FBF1F201FB120008490880CE
:103DF00001210848064A128850F822001023202288
:103E0000CDE9000100216020FFF776FC1CBD000019
:103E10003A0800200408002070B505462C78C4F14B
:103E20000400C6B210480078401C0F4908700846CC
:103E30000078B04210DB7CB1002008700B4800888D
:103E4000401C0A49088008460088062190FBF1F2D0
:103E500001FB12000549088004480378224612211C
:103E60000B2000F005F870BD450800203808002040
:103E70002DE9FC4104460D4616461F4601215C48CB
:103E800050F8270018231A46CDE90001294620469C
:103E9000FFF732FC36B1012E2CD0022E52D0032E69
:103EA00078D178E001205349AA1DCDE90010D1B2A4
:103EB00004F11E02D0B20C231822FFF71DFC0120D2
:103EC0004C49AA1DCDE90010D1B204F13902D0B29B
:103ED0000C231822FFF710FC01204649AA1DCDE94A
:103EE0000010D1B204F15402D0B20C231822FFF713
:103EF00003FC79E001204049AA1DCDE90010D1B2B0
:103F000004F11E02D0B20C231822FFF7F5FB0120AA
:103F10003849AA1DCDE90010D1B204F13902D0B25E
:103F20000C231822FFF7E8FB01203249AA1DCDE936
:103F30000010D1B204F15402D0B20C231822FFF7C2
:103F4000DBFB51E001202C49AA1DCDE90010D1B2C4
:103F500004F11E02D0B20C231822FFF7CDFB012082
:103F60002549AA1DCDE90010D1B204F13902D0B221
:103F70000C231822FFF7C0FB01201E49AA1DCDE922
:103F80000010D1B204F15402D0B20C231822FFF772
:103F9000B3FB29E027E001201749AA1DCDE9001055
:103FA000D1B204F11E02D0B20C231822FFF7A4FBF9
:103FB00001201149AA1DCDE90010D1B204F1390246
:103FC000D0B20C231822FFF797FB01200A49AA1D43
:103FD000CDE90010D1B204F15402D0B20C23182262
:103FE000FFF78AFB00E000BF00BFBDE8FC810000D6
:103FF00020080020304A0008604A00082DE9FC41F2
:104000002748406827490968441A2748D0E9002012
:10401000121940F100002449C1E90020234800683A
:10402000401C22490860FDF715F905462048006844
:10403000281AB0F57A7F30D31D4805601B4800234D
:104040001949026803C9FCF76FF8064648220023A5
:10405000FCF76AF8804601200C2316A2302100905C
:104060005620FFF7B4FB01200C2104234246CDE982
:10407000001030216220FFF7F9FA01200C230EA274
:10408000302100907A20FFF7A2FB0021064A116040
:10409000516000200549086000BFBDE8FC810000B8
:1040A000001000E0500800205808002054080020AC
:1040B00060080020543A0000750000001CB504465A
:1040C000FCF76CFA104908800120104910231A46A9
:1040D000CDE9001003212A20FFF70EFB012010215B
:1040E0000323CDE900100848028802213820FFF799
:1040F000BDFA012006490C231A46CDE9001004211F
:104100004820FFF7F9FA1CBD3C080020A04C00082D
:10411000884C000838B505462C78214613A000F0DD
:104120003FFA012C19D1154800680A21B0FBF1F0C3
:10413000134908600846006841F26F71884202D353
:1041400000200F4908600120102300900C4828210E
:1041500002680A20FFF760FB07E00120102300221D
:10416000282100900A20FFF757FB38BD72756E5F5B
:10417000666C6167203A2025640D0A00000000206B
:104180004008002010B5FDF79BF910BD00B593B0B5
:10419000282109A8FCF710F8142104A8FCF70CF852
:1041A00000200090019002900390092009904FF4A4
:1041B00080300A9000200B9001200D900F9002207B
:1041C0001090C10311914FF4E011129109A8FDF76D
:1041D00089FC08B1FCF7A8FB0F2004900220059091
:1041E000002006904FF48060079000200890022184
:1041F00004A8FDF753FB08B1FCF796FB03200090E1
:104200004FF400700190800102906846FDF7AEFA0D
:1042100008B1FCF789FB13B000BD704710B5024828
:10422000FEF7D3FC10BD00007C0A002010B5026828
:10423000194B984205D0B0F1804F02D0174B9842ED
:1042400003D122F070024B681A43134B984205D0F9
:10425000B0F1804F02D0114B984203D122F440724A
:10426000CB681A4322F080034C6943EA04020260DF
:104270008B68C3620B688362074B984201D10B695C
:10428000036301234361036903F001031BB1036965
:1042900023F00103036110BD002C01400004004025
:1042A00030B501F01F05012404FA05F3046A9C43AC
:1042B0000462046A01F01F0502FA05F52C4304624A
:1042C00030BD30B50C46816821F47F4142EA0325B8
:1042D00025432943816030BD0A46816821F0700181
:1042E00042F0070319438160704730B50B4614460E
:1042F000026A056A25F001050562816921F0F00175
:1043000041EA041122F00A021A438161026230BDBF
:1043100030B50B461446026A056A25F010050562A1
:10432000816921F4704141EA043122F0A00242EA9D
:1043300003128161026230BD1CB504461748007A41
:1043400028B94FF47A711548FCF7DFFA1CBD134801
:10435000FCF7C8FA00B9F9E711480088401C104979
:10436000088008460088632190FBF1F201FB1200EF
:104370000B49088001200C210223CDE900100848D8
:10438000028801211820FFF771F901200C2305A2F2
:1043900001460090FFF71BFA00BFD7E7F4080020A2
:1043A00046080020543A000000BF00BF02680C32EB
:1043B00052E8002F22F4907102680C3242E8001398
:1043C000002BF3D100BF00BF00BF0268143252E8D7
:1043D000002F22F001010268143242E80013002B82
:1043E000F3D100BF016B01290ED100BF00BF0268ED
:1043F0000C3252E8002F22F0100102680C3242E821
:104400000013002BF3D100BF202180F842100021BF
:104410000163704770B504462168096921F4405171
:10442000E2681143226811612269A168114362693F
:1044300041EA02052168C96841F20C6291432943AF
:104440002268D1602168496921F44071A269114351
:10445000226851612D4A2168914202D1FDF7FAFA92
:1044600001E0FDF7E7FA00EBC00101EB0011626823
:104470009200B1FBF2F100EBC00202EB00126368A4
:104480009B00B2FBF3F26423B2FBF3F202EBC20334
:1044900003EB0212A1EB8201322202EB0111642232
:1044A000B1FBF2F101F0F00100EBC00202EB0012EF
:1044B00063689B00B2FBF3F26423B2FBF3F201EBFF
:1044C000021200EBC00101EB001163689B00B1FB1D
:1044D000F3F100EBC00303EB00136668B600B3FB17
:1044E000F6F36426B3FBF6F303EBC30606EB031304
:1044F000A1EB8301322303EB01116423B1FBF3F140
:1045000001F00F0111442268916070BD0038014034
:104510002DE9F84304460D4617469846089E31E0BB
:10452000701C70B3FCF796FEA0EB0800B04200D8F8
:1045300016B90320BDE8F8832068C06800F00400C5
:10454000F8B1802D1ED0402D1CD020680068C0F32B
:10455000C000B0B100BF002000902068006800904B
:1045600020684068009000BF00BF2046FFF71CFF96
:104570000820606400BF002084F8400000BF0120D4
:10458000D8E7FFE7206800682840A84201D1012051
:1045900000E00020B842C3D00020CBE700BFFEE718
:1045A0000FB4054B10B503A9044A029800F034F883
:1045B00010BC5DF814FB0000894700087808002053
:1045C00002480068C0F30220704700000CED00E0D4
:1045D00010B5002804DB0A07130E054A135406E041
:1045E0000A07140E034A00F00F031B1FD45410BD1A
:1045F00000E400E018ED00E002E008C8121F08C166
:10460000002AFAD170477047002001E001C1121F53
:10461000002AFBD1704700002DE9FF4F89B09B466F
:104620000446002506E025280BD05A460B999047F2
:10463000641C6D1C20780028F5D10DB02846BDE81B
:10464000F08F0027B8460122474900E0074314F8DD
:10465000013F203B02FA03F00842F7D120782E28D0
:1046600019D114F8010F47F004072A280ED06FF073
:104670002F022078A0F1300109290CD808EB88011D
:1046800002EB410100EB0108641CF2E70A98641C8C
:1046900050F8048B0A9020780028CED0642808D0E7
:1046A000692806D075281ED05A460B9990476D1C74
:1046B00058E00A994FF00A0901C90A91002802DA64
:1046C00040422D2102E0390504D52B218DF8201020
:1046D000012103E0F90704D02021F7E78A4608AE5C
:1046E0000DE00021FAE70A994FF00A0901C90A9181
:1046F000F7E74946FBF70DFE303106F8011D0028AB
:10470000F7D1ADEB060000F12009780701D44FF096
:104710000108C84502DDA8EB090000E00020804642
:10472000002706E008A85A46C05D0B9990476D1C0B
:104730007F1C5745F6DB04E030205A460B99904722
:104740006D1CB8F10001A8F10108F5DC05E016F8D0
:10475000010B5A460B9990476D1CB9F10001A9F164
:104760000109F4DC641C65E70928010010B505495E
:104770000B6800EBC004E20000BF0C68E41A94422E
:10478000FBD310BD041000E013B50C464FF6FF73C9
:10479000012269460248FEF76FFB00981CBD00002D
:1047A000C40A0020FCF798FEFFF7F0FCFEF70CFCB3
:1047B000FEF7F0FBFEF78EFCFEF706FDFEF77CFD34
:1047C000FEF7BCFBFEF742FDFEF7DCFCFEF7A0FCAB
:1047D000FBF7FEFF3C211F48FEF790F9FBF722FF95
:1047E000FEF7F8FDFEF7A6FD0020FEF795FD002080
:1047F000FEF7AEFD18A0FFF7D3FE0020FFF78AFCFE
:104800000020FFF7E5FA0020FFF758FC0020FFF733
:1048100003FB0020FFF790FD1BE01020FFF798F945
:104820004FF4FA70FFF7B2F940F6B83200210D48A4
:10483000FBF7ECFF4FF47A7200210B48FBF7E6FF21
:10484000C82200210948FBF7E1FFFEF753FEFFF7FE
:10485000D5FBE2E7340A002073797374656D5F6FEE
:104860006B0D0A00D13D0008BD4000083943000827
:104870000000FCFE06060606060606C6E0E0FC840E
:1048800080808686060606060606FEFCE0E0E0005E
:1048900000007F7F606060606060610101017F0FE8
:1048A0000F0763606060606060607F3F0F0F0F0004
:1048B0000000FEFE060606060606060606060606B4
:1048C000060606060606060606FEFEFCF0E00000EA
:1048D00000007F7F6060606060606060606060605A
:1048E0006060606060606060607F7F3F0F07000015
:1048F0000000FEFE0606F6F6060606060606060694
:10490000060606060606060606FEFEFCF0E00000A9
:1049100000007F7F60606F6F6060606060606060FB
:104920006060606060606060607F7F3F0F070000D4
:104930000000FEFE0606F6F60606F6F60606060673
:10494000060606060606060606FEFEFCF0E0000069
:1049500000007F7F60606F6F60606F6F606060609D
:104960006060606060606060607F7F3F0F07000094
:104970000000FEFE0606F6F60606F6F60606F6F653
:10498000060606060606060606FEFEFCF0E0000029
:1049900000007F7F60606F6F60606F6F60606F6F3F
:1049A0006060606060606060607F7F3F0F07000054
:1049B0000000FEFE0606F6F60606F6F60606F6F613
:1049C0000606F6F60606060606FEFEFCF0E0000009
:1049D00000007F7F60606F6F60606F6F60606F6FFF
:1049E00060606F6F60606060607F7F3F0F070000F6
:1049F0000000FEFE0606F6F60606F6F60606F6F6D3
:104A00000606F6F60606F6F606FEFEFCF0E00000E8
:104A100000007F7F60606F6F60606F6F60606F6FBE
:104A200060606F6F60606F6F607F7F3F0F07000097
:104A3000FC0E070301010101010101010101010156
:104A40000101010103070EFC03070E0C080808080A
:104A50000808080808080808080808080C0E0703D2
:104A6000F0FCFEFEFFFFFFFFFFFFFFFFFFFFFFFF6A
:104A7000FFFFFFFFFEFEFCF0000307070F0F0F0F05
:104A80000F0F0F0F0F0F0F0F0F0F0F0F0707030061
:104A900000000000C0C0C00000E0F8FCFCFCF8F81A
:104AA000707000000000000000001C3F3F7F7F7F0F
:104AB0003C24FFBDBDFF243CFEFEFEFCFC38000094
:104AC0000000000000000E0E1F1F3F3F3F1F0700A9
:104AD000000303030000000000000080C0E0F0F0CD
:104AE0000000E0F0F8F8F8F8F8F0E0C0000000008E
:104AF0000000000F1F1F3F3FBFC6FDBDBDBF63FDD0
:104B0000FCFCFCF8F00000000000000003070F1F91
:104B10001F1F1F1F0F0300000F0F070301000000DE
:104B200000000000E0F0F0F0F8F80080C0F0F0F8CD
:104B3000F0F0F0E00000000000000000E7C7CFCF79
:104B4000FFE7FFBDBDFFE7FFFBF3E3E3000000006D
:104B500000000000070F0F0F0F0F0F0300000F0FD3
:104B60000F0F07070000000000000000C0F0F0F881
:104B7000F8F8F81800C0E0E0F0F0E0E08000000095
:104B8000000000F0F0E3E7E7E7E7FF3C3DFFE7F771
:104B9000E7E7C70F0F0000000000000107070F0F35
:104BA00007030100181F1F1F0F0F0703000000005D
:104BB000000000000000F0F8F8FCFCFC3C188080CD
:104BC000C0C0C0C080000000000038FCFCF8F8F352
:104BD000F7E7FF3DBCFFE7EFCF1F1F3F3F0400009B
:104BE00000000001030303030101181E1F3F1F1FE4
:104BF0000F0F00000000000000000000800000F027
:104C0000F8F8FCFCFCFC381090808080000000006C
:104C100000003CFFFFFEFCFCFD63BFBDBDFEC69F68
:104C20003F3FFFFF7F3C0000000000000101010842
:104C30000C1C3F3F3F3F1F0F0E0000010000000013
:104C40000000000080C060303016161E1E161630A0
:104C50003060F8B830000000000078FF030000006A
:104C60000000001F3F30303000000003FF780000DC
:104C700000000003070C18303020606060602030B6
:104C800030180C0703000000020502F804020202BB
:104C9000040E800000000000010202020201000078
:104CA000000000000000FE8282FE00000000000004
:104CB00000000000183C435C5D433C18000000000D
:104CC00002030405060708090A0B0C0D0E0F10104D
:104CD000010202030405060708090A0B0C0D0E0F5A
:104CE0001010010200000000000000000102030497
:104CF000060708090000000001020304000000008C
:104D000000000000002F0000000007000700001452
:104D10007F147F1400242A7F2A1200626408132360
:104D200000364955225000000503000000001C22F7
:104D30004100000041221C000014083E0814000835
:104D4000083E0808000000A06000000808080808E5
:104D5000000060600000002010080402003E51497D
:104D6000453E0000427F400000426151494600211B
:104D700041454B31001814127F1000274545453935
:104D8000003C4A4949300001710905030036494990
:104D9000493600064949291E000036360000000049
:104DA0005636000000081422410000141414141494
:104DB000000041221408000201510906003249593D
:104DC000513E007C1211127C007F49494936003E59
:104DD00041414122007F4141221C007F4949494114
:104DE000007F09090901003E4149497A007F08080E
:104DF000087F0000417F4100002040413F01007FCB
:104E000008142241007F40404040007F020C027F96
:104E1000007F0408107F003E4141413E007F0909A8
:104E20000906003E4151215E007F091929460046CE
:104E3000494949310001017F0101003F4040403FA5
:104E4000001F2040201F003F4038403F00631408EF
:104E500014630007087008070061514945430000CA
:104E60007F41410000552A552A55000041417F00ED
:104E700000040201020400404040404000000102E2
:104E80000400002054545478007F484444380038CB
:104E90004444442000384444487F00385454541853
:104EA00000087E0901020018A4A4A47C007F080465
:104EB00004780000447D4000004080847D00007F35
:104EC000102844000000417F4000007C0418047852
:104ED000007C0804047800384444443800FC24244E
:104EE00024180018242418FC007C08040408004836
:104EF0005454542000043F444020003C4040207C57
:104F0000001C2040201C003C4030403C0044281045
:104F10002844001CA0A0A07C004464544C441414F9
:104F20001414141400000000000000000000000031
:104F30000000FC000000000002000000000C020C59
:104F4000020000000000000090D0BCD0BC90000324
:104F5000000300001824FE448C0003020702010035
:104F60001824D8B04C80000300010201C038E43896
:104F7000E000010202010202080600000000000039
:104F800000000000000000F804020000000102041C
:104F9000000204F800000004020100009060F860C4
:104FA00090000000010000002020FC2020000000F4
:104FB00001000000000000000000080600000000E2
:104FC0002020202020000000000000000000000041
:104FD00000000002000000000080601C02000403CA
:104FE00000000000F8040404F800010202020100BD
:104FF0000008FC00000000020302000018844424A2
:10500000180003020202020008042424D80001024E
:105010000202010040B088FC800000000003020092
:105020003C242424C400010202020100F824242CA0
:10503000C0000102020201000C04E41C0400000094
:1050400003000000D8242424D80001020202010039
:1050500038444444F800000302020100000010003C
:10506000000000000200000000002000000000001E
:105070000600000000205088040200000000010229
:1050800090909090900000000000000000020488C2
:1050900050200002010000001804C4241800000081
:1050A00002000000F804E494F80001020202020089
:1050B00000E09CF0800002030000030204FC2424B2
:1050C000D800020302020100F80404040C000102EB
:1050D0000202010004FC0404F800020302020100C1
:1050E00004FC24740C0002030202030004FC247478
:1050F0000C00020302000000F0080444CC40000150
:105100000202010004FC2020FC0402030000030250
:105110000404FC040400020203020200000404FC74
:10512000040406040403000004FC24D00C0402035D
:105130000200030204FC0400000002030202020356
:10514000FC3CC03CFC0003000300030004FC30C432
:10515000FC04020302000300F8040404F800010246
:105160000202010004FC24241800020302000000D3
:10517000F8848404F80001020207050004FC24649A
:105180009800020302000302182424448C00030246
:10519000020201000C04FC040C00000203020000E7
:1051A00004FC0000FC04000102020100047C80E019
:1051B0001C040000030000001CE03CE01C00000395
:1051C00000030000049C609C040002030003020032
:1051D000041CE01C04000002030200000C84641C98
:1051E00004000203020203000000FE0202000000AD
:1051F00007040400000E30C000000000000102009F
:10520000000202FE00000004040700000004020483
:10521000000000000000000000000000000008087E
:10522000080808080000020000000000000000005C
:105230000040A0A0C00000010202030204FC2020E4
:10524000C00000030202010000C020206000000135
:105250000202020000C02024FC000001020203023E
:1052600000C0A0A0C0000001020202000020F8243B
:1052700024040002030202000040A0A060200007F6
:105280000A0A0A0404FC2020C000020302000302F0
:105290000020E4000000000203020000000020E4FF
:1052A000000008080807000004FC80E0202002033A
:1052B000020003020404FC000000020203020200D8
:1052C000E020E020C00003000300030020E02020D5
:1052D000C00002030200030200C02020C000000141
:1052E0000202010020E02020C000080F0A02010095
:1052F00000C02020E0000001020A0F0820E040204A
:1053000020000203020000000060A0A020000002B4
:10531000020203000020F820000000000102020049
:1053200020E00020E00000010202030220E02080D3
:1053300060200000030100006080E0806000000346
:1053400000030000206080602000020300030200D0
:1053500020E0208060200808070100000020A060F5
:105360002000000203020200000020DE0200000014
:1053700000070400000000FF00000000000F000014
:105380000002DE2000000004070000000201020409
:105390000402000000000000000000000000000007
:1053A0000000000000000000000000F80000000005
:1053B000000000333000000000100C06100C060046
:1053C000000000000000000040C07840C0784000AD
:1053D000043F04043F040400007088FC083000000F
:1053E000001820FF211E0000F008F000E018000067
:1053F00000211C031E211E0000F008887000000020
:105400001E2123241927211010160E000000000071
:105410000000000000000000000000E0180402008E
:10542000000000071820400000020418E0000000FF
:105430000040201807000000404080F080404000FD
:105440000202010F01020200000000F00000000053
:105450000101011F01010100000000000000000027
:1054600080B070000000000000000000000000009C
:105470000001010101010101000000000000000025
:1054800000303000000000000000000080601804C0
:10549000006018060100000000E010080810E0009D
:1054A000000F102020100F00001010F80000000066
:1054B0000020203F202000000070080808887000AD
:1054C000003028242221300000300888884830002D
:1054D0000018202020110E000000C02010F800004D
:1054E00000070424243F240000F8088888080800E6
:1054F0000019212020110E0000E0108888180000FB
:10550000000F112020110E0000380808C8380800CC
:105510000000003F0000000000708808088870004C
:10552000001C222121221C0000E010080810E000CD
:105530000000312222110F00000000C0C000000056
:10554000000000303000000000000080000000007B
:105550000000806000000000000080402010080073
:10556000000102040810200040404040404040003C
:105570000404040404040400000810204080000017
:105580000020100804020100007048080808F0001C
:105590000000003036010000C030C828E810E000EC
:1055A0000718272423140B000000C038E000000077
:1055B000203C23020227382008F8888888700000E1
:1055C000203F202020110E00C030080808083800B5
:1055D000071820202010080008F808080810E0002C
:1055E000203F202020100F0008F88888E8081000CD
:1055F000203F20202320180008F88888E8081000A1
:10560000203F200003000000C030080808380000D8
:1056100007182020221E020008F808000008F808D9
:10562000203F210101213F20000808F80808000060
:105630000020203F2020000000000808F808080093
:10564000C08080807F00000008F888C0281808000B
:10565000203F20012638200008F808000000000044
:10566000203F20202020300008F8F800F8F808003B
:10567000203F003F003F200008F830C00008F80835
:10568000203F200007183F00E01008080810E00045
:105690000F10202020100F0008F808080808F0005C
:1056A000203F210101010000E01008080810E0007F
:1056B0000F18242438504F0008F888888888700014
:1056C000203F2000030C30200070880808083800B4
:1056D0000038202121221C00180808F808081800AA
:1056E0000000203F2000000008F808000008F8082B
:1056F000001F202020201F000878880000C83808DC
:10570000000007380E010000F80800F80008F80053
:10571000033C0700073C03000818688080681808ED
:1057200020302C03032C30200838C800C83808006B
:105730000000203F2000000010080808C8380800BA
:105740002038262120201800000000FE020202005E
:105750000000007F40404000000C30C0000000000E
:10576000000000010638C00000020202FE00000036
:10577000004040407F0000000000040202020400DC
:105780000000000000000000000000000000000019
:105790008080808080808080000202040000000001
:1057A00000000000000000000000808080800000F9
:1057B0000019242222223F2008F8008080000000E7
:1057C000003F112020110E000000008080800000AA
:1057D000000E112020201100000000808088F800B9
:1057E000000E112020103F200000808080800000EB
:1057F000001F222222221300008080F0888888184F
:105800000020203F20200000000080808080800059
:10581000006B94949493600008F8008080800000EE
:10582000203F210000203F200080989800000000C9
:105830000020203F202000000000008098980000F9
:1058400000C08080807F000008F800008080800019
:10585000203F24022D302000000808F8000000003E
:105860000020203F202000008080808080808000F9
:10587000203F20003F20003F80800080808000008B
:10588000203F210000203F20000080808080000019
:10589000001F202020201F0080800080800000004A
:1058A00080FFA12020110E00000000808080800079
:1058B000000E112020A0FF8080808000808080006A
:1058C00020203F2120000100000080808080800097
:1058D0000033242424241900008080E0808000000C
:1058E0000000001F20200000808000000080800059
:1058F000001F202020103F208080800000808080BA
:1059000000010E3008060100808000800080808049
:105910000F300C030C300F0000808000808080006E
:105920000020312E0E312000808080000080808099
:1059300080818E7018060100008080808080800049
:105940000021302C2221300000000000807C020267
:1059500000000000003F404000000000FF00000089
:1059600000000000FF0000000002027C8000000038
:105970000040403F00000000000601010202040454
:105980000000000000000000000000000000000017
:105990000000000000000000000000000000000007
:1059A00000000000000000000000000000000000F7
:1059B00000F0F0F0000000000000000000017F0196
:1059C0000000000000000000001C1C1C0000000083
:1059D00000008060301C8C60301C0C000000000057
:1059E00000000000000000000000000000000000B7
:1059F00000000000000000E00000000000E00000E7
:105A00000086E69F86868686E69F860000011F0147
:105A1000010101011F010100000080C06020F82089
:105A2000E0C00000000003070C18FF70E1810000D7
:105A30000000070F10107F100F070000806020602B
:105A400080000000E02000000F3020309F70DC3725
:105A50001030C0000000100E0300071810180700D7
:105A60000000C02020E0C0000000000080E01F38DF
:105A7000E88703C43C040000070F1810100B070D43
:105A80001010080000808C4C38000000000000005E
:105A90000000000000000000000000000000000006
:105AA000000000000000000000000000000080E096
:105AB000300804000000000000FEFF0100000000AC
:105AC000000000000000030F182040000004083010
:105AD000E0800000000000000000000001FFFE0068
